:020000040800F2
:10000000580A002029020008612F0008C5270008AF
:100010005D2F000821040008E948000800000000E6
:10002000000000000000000000000000093100088E
:100030004D04000800000000053100080D310008E3
:10004000430200084302000843020008430200087C
:10005000430200084302000843020008430200086C
:10006000430200084302000851040008430200084C
:10007000430200084302000843020008430200084C
:10008000430200084302000843020008430200083C
:10009000430200084302000843020008430200082C
:1000A000430200084302000843020008430200081C
:1000B00043020008D131000843020008430200084F
:1000C00043020008430200084302000843020008FC
:1000D00043020008430200084302000843020008EC
:1000E00043020008430200084302000843020008DC
:1000F00043020008430200084302000843020008CC
:100100004302000843020008DD31000843020008F2
:100110004302000843020008E931000843020008D6
:1001200043020008350400084302000843020008A7
:10013000430200084302000843020008430200088B
:10014000430200084302000843020008430200087B
:10015000430200084104000843020008DD4800088B
:10016000430200084302000843020008430200085B
:100170004302000843020008430200080000000098
:10018000430200084302000800F002F800F03CF8C7
:100190000AA090E8000C82448344AAF10107DA45E2
:1001A00001D100F031F8AFF2090EBAE80F0013F0F8
:1001B000010F18BFFB1A43F00103184784610000C8
:1001C000A4610000103A24BF78C878C1FAD8520759
:1001D00024BF30C830C144BF04680C6070470000C1
:1001E0000023002400250026103A28BF78C1FBD840
:1001F000520728BF30C148BF0B6070471FB506F0DB
:1002000075F81FBD10B510BD00F0D0F81146FFF70E
:10021000F5FF04F0BFFB00F0EEF803B4FFF7F2FFC8
:1002200003BC00F0F5F80000094880470948004782
:10023000FEE7FEE7FEE7FEE7FEE7FEE7FEE7FEE796
:10024000FEE7FEE704480549054A064B70470000F3
:10025000BD3100088901000858040020580A002018
:10026000580600205806002053EA020C00F069806E
:100270002DE9F04B4FF00006002B1FBFB3FA83F5BA
:1002800003FA05F424FA05F65E4012BF1643B2FAEB
:1002900082F502FA05F4C5F120051EBF22FA05FC1D
:1002A00044EA0C04203556EA044C4FEA144418BFC3
:1002B000641C4FF000084FF00009904271EB030CF2
:1002C00039D3002919BFB1FA81F701FA07F6B0FA5C
:1002D00080F700FA07F6C7F120071EBF20FA07FCD7
:1002E00046EA0C062037B6FBF4FCA7EB0507103FE7
:1002F00007F01F0BCBF120062CFA06F60CFA0BFBCD
:1003000044BFB3460026202FA4BF5E464FF0000B2B
:100310005BEA060C08BF4FF0010B19EB0B0948EB29
:100320000608ABFB027C06FB02CC0BFB03CCC01B1C
:1003300071EB0C01C1E70B46024641464846BDE859
:10034000F08B13B5084318BF4FF0FF300146AFF3F1
:100350000080BDE81C4070474FF0000200B5134616
:1003600094469646203922BFA0E80C50A0E80C50D5
:10037000B1F12001BFF4F7AF090728BFA0E80C5086
:1003800048BF0CC05DF804EB890028BF40F8042B7F
:1003900008BF704748BF20F8022B11F0804F18BFEC
:1003A00000F8012B7047704770477047754600F0A2
:1003B0002BF8AE4605006946534620F007008546F7
:1003C00018B020B5FFF73EFFBDE820404FF0000613
:1003D0004FF000074FF000084FF0000BAC46ACE8C0
:1003E000C009ACE8C009ACE8C009ACE8C00921F01C
:1003F00007018D46704710B50446AFF300802046D4
:10040000BDE81040FFF709BF004870471800002002
:1004100001491820ABBEFEE726000200704700002D
:10042000FEE7000040F2D011C2F200010968486303
:100430007047000040F2C800C2F2000000F06CB843
:1004400040F22810C2F2000000F066B870470000C9
:10045000102000F013BA0000EFF3108072B600BF56
:10046000FEE7000070B5866D044600F0F3FA94F8DC
:100470003510022928D105462068216C026822F037
:1004800016020260426922F08002426109B9A16C41
:1004900019B1016821F008010160016821F0010132
:1004A000016000BF20680068C00715D000F0D2FAD4
:1004B000401B0628F6D320206065032084F8350011
:1004C000002184F8341070BD802060650120002177
:1004D00084F8341070BD00BFE06D3F2101FA00F0D8
:1004E000B060012084F835000020002184F8341029
:1004F00070BD000090F83510022909D1052180F85F
:1005000035100068016821F001010160002070478A
:100510008021416501207047F0B581B0044600207C
:10052000009040F21000C2F200000268D4E91660A8
:1005300048F2B51337680821C1F64E33814039427D
:10054000A2FB03250CD0226813685B0708D513684B
:1005500023F004031360B160616D41F00101616536
:1005600001218140394208D022685269120604D51F
:10057000B160616D41F00201616504218140394241
:1005800008D022681268920704D5B160616D41F00D
:100590000401616510218140394217D0206802684A
:1005A000120713D5B16002680168520308D4C90567
:1005B00008D4016821F008010160216C21B905E02F
:1005C00008033FD4216C09B120468847E16D202003
:1005D00000FA01F23A4241D020680368DB063DD5BB
:1005E000B26094F835300268052B1BD122F0160258
:1005F0000260426922F080024261226C0AB9A26C58
:100600001AB1026822F0080202603F208840B06000
:10061000012084F83500216D0020002984F8340081
:1006200052D157E00168520310D4C90512D40168B1
:1006300021F010010160012084F83500002084F8C9
:10064000340007E0A16C0029BED1BFE7080301D444
:10065000616C00E0E16B09B120468847606DC8B36A
:10066000606DC0072ED0052084F835002068A90AE7
:10067000026822F001020260009A01328A4200926E
:100680001AD80268D20717D0009A01328A42009223
:1006900012D80268D2070FD0009A01328A42009223
:1006A0000AD80268D20707D0009A01328A42009223
:1006B00002D80268D207DFD1012084F8350000207B
:1006C00084F83400E16C29B1204601B0BDE8F04067
:1006D000084700BF01B0F0BD2DE9F041044600F02D
:1006E000B9F9ECB10546022084F8350000202168F4
:1006F00084F83400086820F0010008602168086868
:10070000C00711D000F0A6F9401B0528F6D9032533
:1007100020230320636584F83550BDE8F08100BFD5
:100720000120BDE8F08100BF086848F23F02CFF227
:100730001002D4E9013500EA020C04F10C0898E833
:10074000C10143EA0C032B431843D4E9072E30437D
:1007500038431043626A40EA0E00042A40EA080364
:100760001CD1206BD4E90A2E40EA0E001843086021
:100770004869BEF1000F20F0030040EA020040F09B
:10078000040C11D0B8F5005F36D0B8F1000F45D198
:10079000022A46D0012A3BD032B942E00B604869B8
:1007A00020F0070040EA020C01F0F8004AF6AB2204
:1007B0001038CAF6AA22A0FB02231A0946F21E33F9
:1007C000C0F600039A5C40F2FF335F284FF03F0011
:1007D000C1F814C021EA030100FA02F088BF043115
:1007E000C4E916128860002301250020636584F89F
:1007F0003550BDE8F08100BF032AD5D8012540233C
:100800000120DFE802F0030E030500BF82E700BF0E
:10081000AEF1C070B0FA80F0400904E0032A04D3BE
:10082000C2D1CEF300600028BED0012540230120B4
:10083000636584F83550BDE8F0810000B0B504462A
:1008400000F008F9054640F20800C2F20000007806
:10085000611C18BF044400BF00F0FCF8401BA0421C
:10086000FAD3B0BD102818BF704740F2B400C2F2EE
:1008700000000188013101807047000043F61441F7
:10088000C4F201010A68024214BF08607047FFF712
:10089000E9BF00002DE9F04F82B000F13E4241F681
:1008A000004502F1FF77C4F20205082243F6004E2C
:1008B0004FEAB726A84208BF0722C4F2010E072E4E
:1008C00038BF4FEAB7220125002600274FF0000865
:1008D000009208E008F101080437B8F1100F06F1A2
:1008E000020600F0A7800C6805FA08F914EA090F5F
:1008F000F0D0D1F804B003220BF0030CACF10104EA
:10090000B240012C6FEA020A10D88268CC6802EA71
:100910000A02B440224382604268CBF3001422EA08
:10092000090204FA08F42243426005E0BCF1030F17
:1009300002D14FF0030C20E0C2688C6802EA0A0280
:10094000B4402243BCF1020FC26016D16FF0030223
:1009500002EA58020244D2F820C007F01C050F2317
:100960000C69AB402CEA030304FA05F52B43136230
:10097000D1F804B001250BF0030C02680CFA06F361
:1009800002EA0A021A431BF4403F0260A2D000228E
:1009900043F644030192C4F202031A684FF6084C6E
:1009A00042F480421A601A68CFF6FF7C02F480425B
:1009B0000192019A28F00302724452F80C3007F0B9
:1009C0000C050F24AC40A343009C04FA05F52B430F
:1009D00042F80C30DEF808204B6842EA090543F67D
:1009E0000C4CDC0258BF22EA0905CEF80850C4F2CC
:1009F000010CDCF800209C0242EA090558BF22EAFB
:100A00000905CCF80050DEF804209C0342EA0905F1
:100A100058BF22EA0905CEF80450DEF80020DB03B7
:100A200042EA090558BF22EA0905CEF8005001251F
:100A300050E700BF02B0BDE8F08F00000069084039
:100A400018BF012070470000002A08BF0904816117
:100A50007047000040F25440C2F200000068704746
:100A600040F2080040F25441C2F20000C2F200011C
:100A700000780A68104408607047000080B543F6AB
:100A80000040C4F20200016841F400710160016895
:100A900041F480610160016841F4807101600320CC
:100AA00000F088F80F2000F005F800F027F800208B
:100AB00080BD000070B540F20806C2F2000640F2A8
:100AC00010013278C2F200014FF47A730968B3FB67
:100AD000F2F20446B1FBF2F1084600F043FB0F2CA2
:100AE0004FF0010508D838B94FF0FF3021460022F9
:100AF000002500F033F87460284670BD82B00020F5
:100B000043F640010190C4F202014A6842F4804277
:100B10004A604A6802F480420192019A0090086893
:100B200040F080500860086800F080500090009805
:100B300002B07047002848BF7047C1B200F01F00E4
:100B4000012202FA00F04EF20012CEF2000242EA56
:100B5000D10121F0030108607047000010B54EF686
:100B60000C5CCEF2000CDCF80030C3F3022E8EF0E9
:100B70000704042C28BF0424BEF103034FF0FF3EFA
:100B80000EFA04F438BF0023A14399400EFA03F390
:100B90009A43114300F00F0200F160430901043A47
:100BA00003F564436244002848BF02F10C03197046
:100BB00010BD00004EF60C51CEF200010A684FF64F
:100BC000FF031A4060F30A2242F0806040F0FD709B
:100BD000086070472DE9F041002800F08B8043F653
:100BE0000808C4F202080446D8F8F8030D4600F0DD
:100BF0000700884207D288F8F853D8F8F80300F0C5
:100C00000700A84276D12068810717D5410705D58E
:100C1000D8F8001041F4E051C8F80010010705D5DC
:100C2000D8F8001041F46041C8F80010D8F800105E
:100C3000A26821F0F0011143C8F80010C0073FD1AD
:100C4000D8F8F80300F00700A84207D988F8F8534D
:100C5000D8F8F80300F00700A8424BD120684107FC
:100C600007D5D8F80010E26821F4E0511143C8F824
:100C70000010000708D5D8F80000216920F4604072
:100C800040EAC100C8F8000000F07CF8D8F8001075
:100C900046F20632C1F30311C0F60002515C40F285
:100CA000100220FA01F140F20C00C2F200000068CC
:100CB000C2F200021160FFF7FDFE0020BDE8F081E6
:100CC0006068811E022907D258F8081C89015CBFA0
:100CD0000120BDE8F08111E0012807D158F8081C77
:100CE00089035CBF0120BDE8F08107E058F8081CCB
:100CF000890703D40120BDE8F08100BFD8F80010B7
:100D000021F003010843C8F80000FFF7A3FE0646E0
:100D100041F28837D8F80000616800F00C00B0EBB1
:100D2000810F8DD0FFF796FE801BB842F2D90320C9
:100D3000BDE8F08140F2100043F60801C2F2000065
:100D4000C4F202010068096846F21632C1F382213A
:100D5000C0F60002515CC8407047000040F210002D
:100D600043F60801C2F20000C4F2020100680968FB
:100D700046F21632C1F34231C0F60002515CC8405F
:100D80007047000010B543F60404C4F20204606822
:100D900000F00C0142F200400829C0F2F40007D034
:100DA000042918BF10BD41F20020C0F27A0010BD26
:100DB000216801F03F02216823684902C3F38811CA
:100DC00006D4A1FB00010023FFF74EFA07E000BFA5
:100DD00041F20020C0F27A004843B0FBF2F02168F3
:100DE0000222C1F3014102EB4101B0FBF1F010BD61
:100DF0002DE9F04182B0002868D00446007843F61F
:100E00000006C007C4F202060BD0B06800F00C0068
:100E1000042840F09F803068800302D56068002875
:100E200054D0207880071AD5B06810F00C0F09D084
:100E3000B06800F00C00082840F0A68070684002FE
:100E400000F1A2803068800702D5E06801283DD11A
:100E50003068216920F0F80040EAC1003060207855
:100E6000000737D4207840074CD4A56955B3B06843
:100E700000F00C00082840F0BB80012D26D07068DF
:100E8000E16900F480028A4220D1216A00F03F0229
:100E90008A421BD147F6C071626A0140B1EB821FE2
:100EA00014D1A16A4FF6FF73C903994300F440328D
:100EB000A1F580318A4209D1E16A00F07060B0EB9F
:100EC000016F03D1002002B0BDE8F081012002B023
:100ED000BDE8F0816069002840F20000C4F24720BC
:100EE00076D00121C0F8801EFFF7B4FD054600BF93
:100EF000706F8007B6D4FFF7ADFD401B0228F7D90D
:100F0000DDE000BF306C10F080580AD10020019065
:100F1000306C40F080503064306C00F080500190B4
:100F2000019847F20007C4F200073868C00541D4B1
:100F3000386840F480703860FFF78CFD054600BFCC
:100F40003868C00536D4FFF785FD401B0228F7D965
:100F5000B5E000BFB06800F00C00082803D170684D
:100F600040023FF558AF6068B0F5803F07D0B0F55C
:100F7000A02F40F08D80306840F4802030603068D1
:100F800040F4803030608DE0E068002852D00020CE
:100F9000C4F2472001210160FFF75CFD054600BF58
:100FA000306880073FF554AFFFF754FD401B02281F
:100FB000F6D984E0A068012805D005284ED1306F0D
:100FC00040F004003067306F40F0010030674FE0C0
:100FD0000021C0F8801EFFF73DFD0546706F8007B9
:100FE0007FF540AFFFF736FD401B0228F6D966E0DB
:100FF0000027C4F2472700203866FFF72BFD022D9B
:1010000005460BD1306880015ED5FFF723FD401BFC
:1010100002284FF00300F5D955E700BF3068800182
:101020007FF550AFFFF716FD401B02284FF003007D
:10103000F4D948E70020C4F2472000210160FFF7FF
:1010400009FD0546306880077FF509AFFFF702FD0F
:10105000401B02284FF00300F4D934E7316F002819
:1010600021F001013167316F21F0040131674DD06A
:10107000FFF7F0FC054641F2883700BF306F80076C
:1010800056D4FFF7E7FC401BB842F7D917E000BF82
:101090003168002821F480313160316821F48021E9
:1010A00031604FD0FFF7D6FC054600BF30688003A3
:1010B0003FF5B7AEFFF7CEFC401B6428F6D90320FE
:1010C00002B0BDE8F08100BF04F11C052FCD08433C
:1010D00040EA8210D9034FF6FF729143A1F58031A7
:1010E00040EA05600843706001203866FFF7B2FCF3
:1010F000044600BF306880013FF5E4AEFFF7AAFC6C
:10110000001B02284FF00300F4D9DCE6FFF7A2FC35
:10111000054641F2883700BF306F800708D5FFF7DA
:1011200099FC401BB8424FF00300F5D9CBE600BF55
:10113000B8F1000F7FF499AE306C20F0805030642D
:1011400093E600BFFFF786FC054600BF30688003CA
:101150007FF567AEFFF77EFC401B64284FF003006D
:10116000F4D9B0E6411E0020B0EB116F1CBF012086
:1011700070474EF21002CEF2000251604EF623513B
:10118000CEF20001F0230B700721906011607047D0
:10119000704700007047000010B590F83C20012A0D
:1011A0004FF0020251D080F83D200268D2F804E0EE
:1011B000D2F808C00C682EF07003234341F2FF748C
:1011C000C4F20004A24253600EDC40F2FF73C4F28A
:1011D00000039A4216DCB2F1804F2BD040F200435C
:1011E000C4F2000324E000BF40F2FF33C4F2010365
:1011F0009A4213DC41F60003C4F200039A4219D06C
:10120000002313E040F60003C4F200039A4211D019
:1012100040F60043C4F200030AE000BF44F20003BA
:10122000C4F201039A4205D040F20043C4F2010324
:101230009A4204D149682CF080031943916001213E
:10124000002280F83D1080F83C20104610BD0000C0
:10125000002804BF0120704710B5044690F83D00F7
:1012600028B9002084F83C00204600F01FF8022036
:1012700084F83D002068211D01F0BCFF012084F8A6
:10128000460084F83E0084F83F0084F8400084F86B
:10129000410084F8420084F8430084F8440084F854
:1012A000450084F83D00002010BD000080B582B0EC
:1012B000006800F140404FEAB020042813D8DFE86E
:1012C00000F00312152741000020019043F6400072
:1012D000C4F20200016841F001010160006800F001
:1012E00001000190019802B080BD00BF0020019074
:1012F00043F64000C4F20200016841F004010160BD
:10130000006800F004000190019802B080BD00BFA9
:101310000020019043F64000C4F202000168002260
:1013200041F0080101600068002100F00800019010
:1013300001983220FFF712FC322002B0BDE8804055
:10134000FFF7F8BB0020019043F64000C4F2020012
:101350000168002241F0100101600068012100F0E5
:101360001000019001983620FFF7F8FB362002B0FC
:10137000BDE88040FFF7DEBB90F83D1001291CBF9F
:1013800001207047022180F83D10006841F2FF7291
:10139000C168C4F20002904241F00101C1600DDC5D
:1013A00040F2FF71C4F20001884215DCB0F1804FB9
:1013B0002AD040F20041C4F2000123E040F2FF31A4
:1013C000C4F20101884213DC41F60001C4F20001BD
:1013D000884219D0002113E040F60001C4F2000158
:1013E000884211D040F60041C4F200010AE000BF7B
:1013F00044F20001C4F20101884205D040F20041EC
:10140000C4F20101884206D1816801F00701062972
:1014100004BF00207047016841F001010160002015
:101420007047000080B590F83C20012A4FF002027E
:1014300000F0C28080F83D20D0F800C04FF67772EF
:10144000DCF8083023EA0202CCF808200B684F2BA6
:1014500028DC1F2B44DD202B45D0302B43D0402BE4
:1014600040F0AC80D1F804E0C968DCF82030DCF84A
:10147000202022F00102CCF82020DCF8182022F0F5
:10148000F00242EA011123F00A0242EA0E02CCF80D
:101490001810CCF82020DCF8081041F0470121F0AA
:1014A000300180E06F2B27DDB3F5005F48D0B3F546
:1014B000805F7AD0702B40F08180D1E901E3C96868
:1014C000DCF8082043EA0E0322F47F4243EA0121BC
:1014D0001143CCF80810DCF8081041F0770162E005
:1014E0000BB1102B6AD1DCF8081021F07001194300
:1014F00041F0070157E000BF502B35D0602B5DD184
:10150000D1F804E0C968DCF8203023F01003CCF8EF
:101510002030DCF81830DCF8202023F4704322F06F
:10152000A00243EA013142EA0E12CCF81810CCF8BE
:101530002020DCF8081041F0670121F0100132E0B2
:10154000D1E901E3C968DCF8082043EA0E0322F47C
:101550007F4243EA01211143CCF80810DCF808105F
:1015600041F480411FE000BFD1F804E0C968DCF815
:101570002030DCF8202022F00102CCF82020DCF81A
:10158000182022F0F00242EA011123F00A0242EA96
:101590000E02CCF81810CCF82020DCF8081041F02E
:1015A000570121F02001CCF808100022012180F819
:1015B0003D10002180F83C10104680BD0122F5E767
:1015C000002804BF012070472DE9F047044690F839
:1015D0003D000D4628B9002084F83C00204600F06C
:1015E00049F8022084F83D00206844F2070281682F
:1015F00091438160211D01F0FDFD20684FF6FF78C9
:1016000081688269D0F820C0D5E9003ED5E9026A38
:1016100043EA0109AB6922EA080246EA03234FF6CE
:10162000FC46B343D5E9076742EA0A0229691A432F
:1016300042EA062242EA01112CF0AA026B6942EA50
:101640000E0241EA073142EA0312C0F808908161B4
:101650000262012084F8460084F83E0084F83F00CE
:1016600084F8420084F8430084F83D000020BDE87F
:10167000F087000080B586B0006840F20042C4F2F6
:10168000000200219042CDE90411CDE9021101913F
:1016900030D00021C4F20101884258D1002043F625
:1016A00030010090C4F202014A6942F001024A612D
:1016B0004A6902F001020092009A00900A6842F022
:1016C00010020A60096801F01001009100994FF4BE
:1016D000206101910221CDE90210049001200590C2
:1016E0000020C4F2020000F5805001A9FFF7D2F8F3
:1016F00006B080BD43F630000091C4F202000269DA
:1017000042F002020261026902F002020092009AB3
:101710000091026842F001020260006800F00100DE
:1017200000900098C02001900220CDE90201CDE98F
:1017300004100020C4F2020001A9FFF7ABF81D203D
:1017400000210022FFF70AFA1D20FFF7F3F906B087
:1017500080BD000080B590F83E2090F83F3090F8B2
:1017600042E090F843C004290AD0B9B9012A4FF0E9
:10177000010208BFBEF1010F34D0104680BD00BF8A
:10178000012B4FF0010208BFBCF1010FF5D102217E
:1017900080F83F1080F8431000681EE0012A4FF0E7
:1017A000010208BF012BE8D1BEF1010FE5D1BCF168
:1017B000010FE2D1022280F83E2080F83F2080F81D
:1017C000422080F8432091B10068016A21F00101B4
:1017D0000162016A41F00101016210216FF0100203
:1017E00009E000BF022180F83E1080F84210006836
:1017F00001216FF00102036A1A400262026A11437A
:1018000001620168002241F001010160104680BDC3
:101810007047000010B5016804460869800744BF9E
:10182000C8685FEA807039D40869400744BFC86857
:101830005FEA40703ED40869000744BFC8685FEAA9
:10184000007045D40869C00644BFC8685FEAC0603C
:101850004AD40869C0071CBFC8685FEAC07051D18C
:101860000869000644BFC8685FEA006052D408698E
:10187000400644BFC8685FEA406053D408698006E8
:1018800046BFC8685FEA806010BD6FF02002204646
:101890000A61BDE81040FFF77DBC00BF6FF0020099
:1018A0000861012020778869800743D02046FFF730
:1018B000AFFF45E06FF004000861022020778869DF
:1018C00010F4407F40D02046FFF7A2FF42E000BF67
:1018D0006FF00800086104202077C86980073DD0B8
:1018E0002046FFF795FF3FE06FF0100008610820E9
:1018F0002077C86910F4407F3AD02046FFF788FF70
:101900003CE000BF6FF001000861204600F0EEFBF4
:101910002168A5E76FF0800008612046FFF738FCDA
:101920002168A4E76FF040000861204600F0E0FB6A
:101930002168A3E7204600F0BFF9204600F04AFBEB
:101940002168002020776FE7204600F0B5F9204697
:1019500000F040FB2168002020776CE7204600F073
:10196000ABF9204600F036FB21680020207769E7BC
:10197000204600F0A1F9204600F02CFB2168002051
:10198000207766E72DE9F04186B0006840F6FF3128
:10199000C4F2000188424FF000010591CDE9031126
:1019A000CDE9011126DCB0F1804F4DD040F60001A9
:1019B000C4F20001884240F0A180002043F63001CB
:1019C0000090C4F202010A6842F008020A60096845
:1019D00001F00801009100994FF47041019102213A
:1019E000CDE90210CDE904010020C4F2020000F5A7
:1019F000406080E040F60041C4F20001884261D0BE
:101A000044F20001C4F20101884277D1002043F67C
:101A100030010090C4F202010A6842F010020A602C
:101A2000096801F0100100910099602101910221E3
:101A3000CDE902100490032005900020C4F20200BA
:101A400000F5805057E000BF002643F630000096B6
:101A5000C4F202000168002441F001010160016844
:101A6000C4F2020401F0010100910099009601689E
:101A70000DF1040841F0020101600068022700F046
:101A8000020000900098012520464146CDE90177EB
:101A9000CDE903670595FEF7FDFE2420CDE901079A
:101AA00020464146CDE903660595FEF7F3FE4FF467
:101AB0000060CDE90107CDE90366059504F5806076
:101AC00019E000BF002043F630010090C4F202018B
:101AD0000A6842F001020A60096801F00101009100
:101AE0000099012101910221CDE902100020C4F2E8
:101AF0000200CDE9041101A9FEF7CCFE06B0BDE855
:101B0000F0810000F0B590F83C30012B04BF0220BA
:101B1000F0BD4FEAB202032A00F2C880DFE802F00B
:101B20000234689A026840F20046136A42F4806404
:101B300023F001031362136AD2F804E0D2F818C04C
:101B40008D6823F00203C4F20106B44243EA0503A0
:101B500005D1CD6823F00C0325F004052B430D6857
:101B6000B44207D1D1E905462EF4407E44EA0E0482
:101B700044EA060E2CF073062E43C2F804E0966188
:101B8000496851638BE000BF026840F20045136A68
:101B900042F4806423F010031362136AD2F804E065
:101BA000D2F818C08E6823F02003C4F20105AC42BD
:101BB00043EA061307D1CE686FF0400723F0C00355
:101BC00007EA061633430E68AC4206D1D1E9054553
:101BD0002EF44067254347EA850E2CF4E64747EA92
:101BE0000627C2F804E097614968916357E000BF97
:101BF000026840F20045136A42F4806423F4807363
:101C00001362136AD2F804E0D2F81CC08E6823F481
:101C10000073C4F20105AC4243EA062307D1CE6843
:101C200040F2FF47360223F44063BE4333430E685D
:101C3000AC4206D1D1E905452EF44057254347EA89
:101C4000051E2CF073073743C2F804E0D7614968DA
:101C5000D16324E0026840F20047136A42F48066D0
:101C600023F480531362D2F820E05368D4690D68DE
:101C7000D1F808C0C4F20107BE4204D14E6923F472
:101C8000804343EA861324F4E64646EA0526536079
:101C9000D6612EF40057496847EA0C3311640021DD
:101CA0001362002280F83C200846F0BD012100228A
:101CB00080F83C200846F0BD70470000002804BFB3
:101CC0000120704710B5044690F83D0028B9002067
:101CD00084F83C00204600F01FF8022084F83D0004
:101CE0002068211D01F086FA012084F8460084F85E
:101CF0003E0084F83F0084F8400084F8410084F8F6
:101D0000420084F8430084F8440084F8450084F8D5
:101D10003D00002010BD0000704700002DE9F04399
:101D200090F83C30012B04BF0220BDE8F0834FEA5D
:101D3000B202032A00F2FC80DFE802F0023E7EBE1F
:101D4000036840F200471A6A43F4806522F00102FA
:101D50001A621C6A1A46D3F804E052F818CF8E684B
:101D600024F00204C4F20107BD4244EA060405D18E
:101D7000CE6824F00C0426F0040634430E68BD42FD
:101D800007D1D1E905572EF4407E45EA0E0545EA14
:101D9000070E2CF073073743C3F804E09F614F68C8
:101DA00009695F631C629F6947F008079F619F692B
:101DB00027F004079F61B1E0036840F200481A6A07
:101DC00043F4806522F010021A621C6A1A46D3F8A6
:101DD00004C052F818EF8F6824F02004C4F2010800
:101DE000454544EA071407D1CF686FF0400624F058
:101DF000C00406EA07163443D1F80090454506D1E1
:101E0000D1E905562CF440672E4347EA860C2EF4A0
:101E1000E64747EA0927C3F804C09F614F6809698C
:101E20009F631C629F6947F400679F619F6927F465
:101E300080679F6171E000BF036840F200481A6A42
:101E400043F4806522F480721A621C6A1A46D3F841
:101E500004C052F81CEF8F6824F40074C4F2010827
:101E6000454544EA072408D1CF6840F2FF463F02C7
:101E700024F4406427EA06063443D1F8009045452F
:101E800006D1D1E905562CF440572E4347EA061CEB
:101E90002EF0730747EA0907C3F804C0DF614F68F3
:101EA0000969DF631C62DF6947F00807DF61DF69EA
:101EB00027F00407DF6131E0036840F200451A6A49
:101EC00043F4806722F480521A621A46D3F820C085
:101ED0005C6852F81CEFD1F800808E68C4F20105EE
:101EE000AF4204D14D6924F4804444EA85142CF4B3
:101EF000005747EA06372EF4E64646EA08265C60B5
:101F0000DE614E6809691E641F62DF6947F400677D
:101F1000DF61DF6927F48067DF6109021368194315
:101F200011600021002280F83C200846BDE8F083C3
:101F30000121002280F83C200846BDE8F083000023
:101F4000002804BF0120704710B5044690F83D00FA
:101F500028B9002084F83C00204600F01FF8022039
:101F600084F83D002068211D01F044F9012084F827
:101F7000460084F83E0084F83F0084F8400084F86E
:101F8000410084F8420084F8430084F8440084F857
:101F9000450084F83D00002010BD000081B00068BD
:101FA00044F20001C4F20101884201D001B070473F
:101FB0000020009043F64400C4F20200016841F49E
:101FC00080310160006800F480300090009801B01A
:101FD000704700007047000041B1082910D0042963
:101FE00014BF00F1410200F13F020BE090F83E20E7
:101FF000012A1CBF01207047022280F83E2013E016
:1020000000F140021278012A1CBF01207047022211
:10201000082907D0042914BF80F8412080F83F2008
:1020200002E000BF80F84020006801F01F0101229B
:10203000036A02FA01F123EA01020262026A114311
:1020400041F2FF72C4F20002904201620CDC40F2E5
:10205000FF71C4F20001884214DCB0F1804F37D028
:1020600040F2004116E000BF40F2FF31C4F201012E
:10207000884215DC41F60001C4F20001884227D0F5
:10208000002115E040F60001C4F2000188421FD093
:1020900040F60041C4F20001884219D01FE000BFA1
:1020A00044F20001C4F20101884211D040F2004123
:1020B000C4F20101884212D1416C40F2004340F465
:1020C0008062C4F2010341F400419A42416406D1A6
:1020D000816801F00701062904BF002070470168EC
:1020E00041F00101016000207047000070470000CE
:1020F000704700007047000070470000B0B582B024
:10210000044600680168C368426901F02F05202D6C
:1021100003F0200506D12DB1204602B0BDE8B04045
:1021200002F0E4BA5FEA017C1EBF02F0010E03F484
:10213000907212EB0E0253D1226B012A05D111F0DD
:10214000100218BF13F0100236D10A0622D513F080
:1021500080021FD094F83D1021293FD1A168B1F52C
:10216000805F03D12169002900F07282216A4A1C34
:10217000226209784160E18C01390A04E1842DD1A1
:10218000C16821F08001C160C16841F04001C160B7
:1021900002B0B0BD490621D513F040011ED0C16880
:1021A00021F04001C1602021204684F83D1002B09A
:1021B000BDE8B04000F004BB00210191016801912D
:1021C0004168019101994069400613D4A08DE18DC9
:1021D000E28D002A18BF884240F0BE8102B0B0BD37
:1021E000CA0718BF13F4807240F0BA804A0700F1A2
:1021F000BD80C2E0A16B0868426893B2002BEDD0AD
:10220000A08D8342EAD2E285C969B1F5807F00F0F2
:102210009D80206850E8030F216820F4807041E819
:102220000302DAB1206850E8030F216820F48070BF
:1022300041E8030292B1206850E8030F216820F4BE
:10224000807041E803024AB1206850E8030F21681A
:1022500020F4807041E80302002ADAD1206850E8B7
:10226000050F216820F0010041E80502DAB120687D
:1022700050E8050F216820F0010041E8050292B105
:10228000206850E8050F216820F0010041E80502B0
:102290004AB1206850E8050F216820F0010041E8AC
:1022A0000502002ADAD1206850E8050F216820F0E5
:1022B000400041E80502DAB1206850E8050F2168C6
:1022C00020F0400041E8050292B1206850E8050F77
:1022D000216820F0400041E805024AB1206850E83A
:1022E000050F216820F0400041E80502002ADAD1FC
:1022F000202084F83E0000202063206850E8030F6F
:10230000216820F0100041E80302DAB1206850E8AB
:10231000030F216820F0100041E8030292B1206809
:1023200050E8030F216820F0100041E803024AB191
:10233000206850E8030F216820F0100041E80302F4
:10234000002ADAD1A06BFEF78DF8A08DE18D401A3E
:1023500081B2204602B0BDE8B040FFF7CBBE00BF5F
:10236000226C42F0010222644A0706D5BEF1000F3A
:1023700003D0226C42F0020222648A0706D5BEF125
:10238000000F03D0226C42F004022264BCF1000F63
:1023900009D545EA0E02B2FA82F2520903D1226C43
:1023A00042F008022264226C002A3FF417AF11F0B9
:1023B000200118BF002D03D0204602F097F92068B5
:1023C0004069216C00F0400001F00801401800F065
:1023D000B58000BF206850E8030F216820F490709A
:1023E00041E80302BAB3206850E8030F216820F4E3
:1023F000907041E8030272B3206850E8030F21682F
:1024000020F4907041E803022AB3206850E8030FDB
:10241000216820F4907041E80302002ADAD11AE022
:10242000206850E8050F216820F0010041E805020E
:10243000DAB1206850E8050F216820F0010041E87A
:10244000050292B1206850E8050F216820F00100D4
:1024500041E805024AB1206850E8050F216820F0E4
:10246000010041E80502002ADAD1206B012824D1BD
:10247000206850E8030F216820F0100041E80302B3
:10248000DAB1206850E8030F216820F0100041E81D
:10249000030292B1206850E8030F216820F0100079
:1024A00041E803024AB1206850E8030F216820F098
:1024B000100041E80302002ADAD1202084F83E000F
:1024C000002020632068406940063FD5206850E81E
:1024D000050F216820F0400041E80502DAB12068CC
:1024E00050E8050F216820F0400041E8050292B154
:1024F000206850E8050F216820F0400041E80502FF
:102500004AB1206850E8050F216820F0400041E8FA
:102510000502002ADAD1A06BC0B144F2E161C0F635
:1025200000010165FDF7E6FF00283FF457AEA06B00
:10253000016D02B0BDE8B040084700BF2046FFF77C
:10254000DBFD0020206402B0B0BD00BF204602B019
:10255000BDE8B040FFF7D0BD401A216851E8031F25
:10256000226821F4907142E80313DBB1216851E83D
:10257000031F226821F4907142E8031393B121688C
:1025800051E8031F226821F4907142E803134BB114
:10259000216851E8031F226821F4907142E8031377
:1025A000002BDAD1216851E8051F226821F00101D2
:1025B00042E80513DBB1216851E8051F226821F0CC
:1025C000010142E8051393B1216851E8051F226813
:1025D00021F0010142E805134BB1216851E8051FC4
:1025E000226821F0010142E80513002BDAD12021F5
:1025F00084F83E1000212163216851E8031F2268FE
:1026000021F0100142E80313002B3FF4A1AE216832
:1026100051E8031F226821F0100142E80313002B48
:102620003FF496AE216851E8031F226821F01001A3
:1026300042E80313002B3FF48BAE216851E8031FDF
:10264000226821F0100142E80313002BD4D17FE669
:10265000216A31F8022B6FF35F22426021628AE522
:10266000002804BF0120704710B5044690F83D00D3
:1026700028B9002084F83C00204600F021F82420EE
:1026800084F83D002068C16821F40051C1602046F3
:1026900002F0ACF82068016921F4904101614169C0
:1026A00021F02A014161C16841F40051C16000205C
:1026B0002021206484F83D1084F83E1010BD0000F5
:1026C0002DE9F04786B00446016841F20040C4F2AB
:1026D0000100814202D006B0BDE8F087002643F633
:1026E00030010196C4F202014A6946F2284842F0DC
:1026F00020024A614A6900F5744002F0200201920A
:10270000019A01960A68C4F2020842F004020A60C3
:10271000096801F0040101910199C0210191022190
:10272000CDE90216032104910821059101A9FEF7C4
:10273000B1F840F2C805C2F200054FF480704FF0C6
:10274000206A4FF48069C5E906604FF48037284657
:10275000C5E9008AC5E90266C5E90496C5E90876B7
:10276000FDF7BAFF002818BFFDF776FEA563AC633E
:1027700040F2281508F17800C2F200054021C5E9B1
:10278000000A05F1080080E842022846C5E905660E
:10279000C5E907676E62FDF79FFF002818BFFDF7C8
:1027A0005BFE4720022100226563AC63FEF7D6F989
:1027B0004720FEF7BFF906B0BDE8F087704700007C
:1027C00070470000FEE7000040F26020C2F2000007
:1027D00000684FF4487141637047000040F2602088
:1027E000C2F20000006840F28A2181637047000055
:1027F00040F26020C2F2000000684FF4C871C1636B
:102800007047000040F2D010C2F2000000684FF4A0
:102810004871C1637047000040F26020C2F20000BE
:10282000006840F28A2101647047000040F2602095
:10283000C2F20000006840F6980141637047000052
:1028400040F26020C2F2000000684FF4FA61816338
:102850007047000040F26020C2F2000000684FF4B0
:10286000AF61C1637047000040F2D010C2F20000B7
:10287000006840F63401C1637047000040F26020F8
:10288000C2F2000000684FF4FA6101647047000072
:1028900080B582B00020019043F63000C4F20200FF
:1028A0000168002241F4800101600068002100F409
:1028B0008000019001983920FEF750F93920FEF789
:1028C00039F9452000210022FEF748F9452002B0E1
:1028D000BDE88040FEF72EB92DE9F04F87B0002506
:1028E00043F63000CDE905550195C4F202000168B8
:1028F00040F2004A41F0100101600168C4F2020A8E
:1029000001F010010191019901950168AAF5806417
:1029100041F0800101600168002201F08001019115
:10292000019901950168182641F0010101600168D3
:1029300001F00101019101990195016841F0040143
:102940000160016801F0040101910199019501689C
:1029500041F002010160016801F002010191019959
:102960000195016841F0080101600068182100F03C
:102970000800019001982046FEF766F80AF5806885
:10298000404630210022FEF75FF8504647F28701AB
:102990000022FEF759F80AF5006948460421002292
:1029A000FEF752F8102002904FF4041002AF03908B
:1029B0004FF0010B0AF540603946CDF810B0FDF735
:1029C00069FFCDE9026B022620463946CDF810B0EA
:1029D0000596FDF75FFF3020CDE9020B40463946F2
:1029E000CDE90466FDF756FF0720CDE9020B5046FE
:1029F0003946CDE90466FDF74DFF4FF4E140CDE9DE
:102A0000020B50463946CDE90455FDF743FF48F225
:102A10002800CDE90205504639460495FDF73AFFF6
:102A200040F2BA70CDE90205484639460495FDF7F3
:102A300031FF4FF4E050CDE9020540463946049598
:102A4000FDF728FF0420CDE9020B48463946CDE9C1
:102A50000455FDF71FFF0A2000210022FEF77EF833
:102A60000A20FEF767F807B0BDE8F08F10B58CB00C
:102A700040F2881000210024C2F20000C4F20101DB
:102A8000C0E900140321CDE90314012144F62062BA
:102A9000CDE90514CDE9091403A9CDE90044C0E945
:102AA0000242C0E904448461CDE907440B94FEF777
:102AB00087FD002818BFFDF7CFFC40F28810C2F256
:102AC00000006946CDE90044FEF766FB002818BF08
:102AD000FDF7C2FC0CB010BD10B58EB040F2D010A6
:102AE0000021C2F200004FF08042472344F61F64E9
:102AF0000D91CDE90B110991CDE90711CDE9051132
:102B0000CDE90311CDE90111C0E90023C0E90214A8
:102B100001618161FEF79CFB002818BFFDF79CFC5A
:102B20004FF480500A9040F2D010C2F200000AA97F
:102B3000FEF778FC002818BFFDF78EFC40F2D0109D
:102B4000C2F20000FFF7FCF9002818BFFDF784FC73
:102B500040F2D010C2F20000FFF7B0F8002818BF12
:102B6000FDF77AFC40F2D0100024C2F2000008A960
:102B7000CDE90844FEF710FB002818BFFDF76CFCF8
:102B80006020CDE9010440F2D010C2F2000001A99A
:102B9000002203940594FFF7C1F8002818BFFDF741
:102BA0005BFC40F2D010C2F2000001A90422FFF742
:102BB000B5F8002818BFFDF74FFC40F2D010C2F264
:102BC000000001A90822FFF7A9F8002818BFFDF7A7
:102BD00043FC0020019040F2D010C2F2000001A995
:102BE0000C22FEF78FFF002818BFFDF735FC40F2DE
:102BF000D010C2F20000FEF7C5FE0EB010BD0000FE
:102C000080B58CB040F2182040F200420021C2F2A0
:102C10000000C4F20002C0E90021032244F6206350
:102C2000CDE903210122CDE90011C0E902130161C0
:102C30008161CDE90521CDE90711CDE909210B918C
:102C400003A9FEF7BDFC002818BFFDF705FC40F204
:102C50001820C2F200006946FEF79EFA002818BF4D
:102C6000FDF7FAFB0CB080BD10B58EB040F26020CD
:102C700040F600020021C2F20000C4F20002472325
:102C800044F61F640D91CDE90B110991CDE90711AF
:102C9000CDE90511CDE90311CDE90111C0E900230A
:102CA000C0E9021401618161FEF7D2FA002818BF61
:102CB000FDF7D2FB4FF480500A9040F26020C2F240
:102CC00000000AA9FEF7AEFB002818BFFDF7C4FB01
:102CD00040F26020C2F20000FFF732F9002818BF6E
:102CE000FDF7BAFB40F260200024C2F2000008A900
:102CF000CDE90844FEF750FA002818BFFDF7ACFBF9
:102D00006020CDE9010440F26020C2F2000001A978
:102D1000002203940594FFF701F8002818BFFDF77F
:102D20009BFB40F26020C2F2000001A90422FEF7E2
:102D3000F5FF002818BFFDF78FFB40F26020C2F2BC
:102D4000000001A90822FEF7E9FF002818BFFDF7DF
:102D500083FB40F26020C2F2000001A90C22FEF7C2
:102D6000DDFF002818BFFDF777FB40F26020C2F2BC
:102D70000000FEF707FE0EB010BD000010B58EB0CB
:102D800040F2A8200021C2F2000040F60042C72411
:102D90000D91CDE90B110991CDE90711CDE905118F
:102DA000CDE90311CDE90111C4F2000241F61F4340
:102DB000C0E9021401618021C0E900238161FEF7AE
:102DC00047FA002818BFFDF747FB4FF480500A90E0
:102DD00040F2A820C2F200000AA9FEF723FB002857
:102DE00018BFFDF739FB40F2A820C2F20000FFF740
:102DF000A7F8002818BFFDF72FFB40F2A8200024F9
:102E0000C2F2000008A9CDE90844FEF7C5F9002880
:102E100018BFFDF721FB6020CDE9010440F2A82096
:102E2000C2F2000001A9002203940594FEF776FF88
:102E3000002818BFFDF710FB40F2A820C2F20000E6
:102E4000FEF7A0FD0EB010BD80B582B040F2F020BC
:102E500041F200020021C2F20000C4F2000240F27E
:102E6000CF2342F20F7CCDE90011C0E90023C0E975
:102E7000021C8161FEF7ECF9002818BFFDF7ECFA9F
:102E800040F2F020C2F200006946FEF785F9002802
:102E900018BFFDF7E1FA02B080BD000010B588B0A0
:102EA00040F2383044F200010024C2F20000C4F2C3
:102EB000010142F20F73CDE90644CDE904444722F3
:102EC00080E81600C0E903348461FFF739F8002870
:102ED00018BFFDF7C1FA6020CDE9010440F2383097
:102EE000C2F2000001A9002203940594FEF716FF28
:102EF000002818BFFDF7B0FA40F23830C2F20000E7
:102F000001A90422FEF70AFF002818BFFDF7A4FA62
:102F100040F23830C2F20000FEF734FD08B010BDB8
:102F200080B540F2803041F20041C2F20000C4F2AC
:102F3000010100234FF00C0C4FF4E13280E80E0049
:102F4000C0E90333C0E905C3C361FFF789FB00286B
:102F500008BF80BDBDE88040FDF77EBAFEE70000F7
:102F6000FEE70000002857D0017890ED0F1A90ED91
:102F7000102A80ED070A30EEC00A0029C0ED060ACB
:102F800080ED0F0A80ED101A80ED112A48D001293A
:102F900040F0908090ED015A90ED026A30EE414A87
:102FA00031EE011A90ED037A24EE054A20EE065A1E
:102FB00030EE410A32EE000AD0E90C1280ED0C0A24
:102FC00020EE070A34EE051A90ED082A90ED043A37
:102FD00080ED0B0A31EE000A32EE000AB4EE430A2D
:102FE000F1EE10FA80ED094A80ED0A5AC0E90D129F
:102FF00080ED080AC2BF80ED083AB0EE430A704780
:10300000B1EE431AB4EE410AF1EE10FABCBF80ED06
:10301000081AB0EE410A70479FED280A704700BFBA
:1030200090ED024A90ED0A6A90ED012A90ED053A82
:1030300024EE004A90ED035A34EE064A20EE022AAE
:10304000D0E90C1230EE410AB4EE434A80ED0C0A8E
:1030500020EE050AF1EE10FA80ED092A80ED0A4A09
:10306000C0E90D1280ED0B0A06DCB1EE433AB4EE76
:10307000434AF1EE10FA03DAB0EE434A80ED0A3A21
:1030800032EE042A90ED041A30EE020AB4EE410A40
:10309000F1EE10FA80ED080A07DCB1EE411AB4EE49
:1030A000410AF1EE10FAA8BF7047B0EE410A80ED78
:1030B000081A704790ED080A704700BF0000000032
:1030C000002808BF704780B518303021FDF744F95B
:1030D00080BD0000002818BF002A01D1704700BF42
:1030E00080B501701168416051688160916880ED20
:1030F000040AC160C0ED050A20302821FDF72CF933
:1031000080BD00007047000070470000FDF7A8BCBC
:10311000B0B592B0002443F64000CDE90A44CDE9B1
:1031200008440594CDE90344CDE901440094C4F278
:1031300002000168022541F080510160006800F042
:1031400080500090009847F200000094C4F2000004
:10315000016841F4804101600068482100F480402A
:1031600000900098012006904FF4803007904FF4B3
:1031700080000D9004200E90119006A80C95CDE9CA
:103180000F15FDF735FE28B1EFF3108072B600BFC2
:10319000FEE700BF0F20CDE901054FF48050CDE9D7
:1031A000040401A802210394FDF714FD20B1EFF3FC
:1031B000108072B6FEE700BF12B0B0BD4EF6885068
:1031C000CEF20000016841F4700101607047000018
:1031D00040F21820C2F20000FEF71CBB40F2A8200B
:1031E000C2F20000FEF716BB40F2F020C2F200006F
:1031F000FEF710BB10B540F6FF3E0368C4F2000EA8
:1032000040F2004C7045C4F2010C27DCB0F1804F55
:1032100031D040F20042C4F2000290422BD040F67E
:103220000002C4F20002904225D041F6FF72C4F2BF
:103230000002904229DC70453CDCB0F1804F5FD049
:1032400040F20042C4F20002904259D040F600021F
:10325000C4F20002904253D056E000BF40F6004254
:10326000C4F20002904206D0604504D00022C4F2AD
:1032700001029042D9D14A6823F07003134341F60A
:10328000FF72C4F200029042D5DD43F6FF72C4F231
:103290000102904222DC42F20002C4F2000290429B
:1032A0002ED00022C4F20102904229D0604527D0DE
:1032B0002AE000BF40F60042C4F2000290421FD054
:1032C00041F60002C4F20002904219D041F60042D9
:1032D000C4F20002904213D016E000BF44F2000294
:1032E000C4F2010290420BD044F60002C4F2010283
:1032F000904205D044F20042C4F20102904203D150
:10330000CA6823F44073134323F080024B69D1F859
:1033100000E08C681A430260C46240F48062C0F826
:1033200028E0624504BF096901630121416110BDC4
:103330002DE9F04F81B02DED048B82B040F2C438FE
:10334000C2F2000840F6004B4046C4F2020BFFF701
:10335000B7FE08F148042046FFF7B2FE40F2780AB3
:103360009FED878A9FED879AC2F2000A002046F2FD
:103370002832CAE90500C0F6000240460021B0EE3E
:10338000480AF0EE490AFFF7A5FE46F23432C0F6CD
:10339000000220460021B0EE480AF0EE490A0194EE
:1033A000FFF798FE2424ABF5006944F62066002759
:1033B000C4F2010408E000BF1E213220AAF80A006E
:1033C000AAF80C1001F0CAFA40F22442C4F200023A
:1033D000106842F2107C81B2614588BF301ADAF879
:1033E0001410AAF8020001FA80F1CAF8141017604C
:1033F000DAF81810BAF90420BAF90A301144CAF8F8
:103400001810216802B28DB200EE102A01EE103AB7
:10341000654588BF711AAAF80010AAF80410276041
:10342000AAF80600B8EEC00AF8EEC10A4046AAF8AB
:103430000810FFF797FDBAF90800BAF90C1000EE72
:10344000100A01EE101A0198B8EEC00AF8EEC10A8F
:10345000FFF788FD98ED080A98ED1A1A44F2340037
:10346000BCEEC00AC4F2010080ED000ABCEEC10A45
:1034700080ED010A3220FDF7E1F948464FF40041A2
:10348000FDF7DCFA012806D058464FF48071FDF7AD
:10349000D5FA01280BD1DAF8140041F27C518842A8
:1034A00066DCDAF8180041F27D51884260DA48465D
:1034B0002021FDF7C3FA58B958460821FDF7BEFA96
:1034C000012805D158461021FDF7B8FA90B100BF88
:1034D00048462021FDF7B2FA01280FD158460821AD
:1034E000FDF7ACFA012809D158461021FDF7A6FADC
:1034F000012803D13220322160E700BF4846202155
:10350000FDF79CFA01280BD158460821FDF796FAE1
:1035100030B958461021FDF791FA00283FF44CAF1E
:1035200058460221FDF78AFA01283FF445AF484684
:103530002021FDF783FA68B958460821FDF77EFA85
:1035400040B958461021FDF779FA012802D13221FD
:103550001E2033E758462021FDF770FA01284FF06E
:103560003C004FF03C0108BF1E2008BF322125E778
:1035700002B0BDEC048B01B0BDE8F04F01F0D2B950
:1035800000803B450000C8422DE9F04F81B02DED91
:10359000048B82B040F2C434C2F200042046FFF72C
:1035A0008FFD04F148052846FFF78AFD40F27806B2
:1035B0009FED4E8A9FED4E9AC2F200064FF0281002
:1035C00046F22832C6F80A00C0F600022046002162
:1035D000B0EE480AF0EE490AFFF77CFD46F23432BD
:1035E000C0F6000228460021B0EE480AF0EE490A73
:1035F0000195FFF76FFDB6F90210B6F90400B1F5B9
:10360000D27F7161B061A8BFB0F5D27F63DA44F2B6
:10361000340A40F2240B40F22449C4F2010AC4F2F5
:10362000010BC4F2000944F6206542F2107800272D
:10363000D9F8000081B2414588BF281A7080C9F8C6
:103640000070DBF8001002B28BB2434588BF691AE4
:103650003180B180CBF80070F080B6F90A0000EE3E
:10366000102A01EE100AB8EEC00AF8EEC10A204690
:103670003181FFF777FCB6F90800B6F90C1000EEBF
:10368000100A01EE101A0198B8EEC00AF8EEC10A4D
:10369000FFF768FC94ED080A94ED1A1ABCEEC00A14
:1036A0008AED000ABCEEC10A32208AED010AFDF75C
:1036B000C5F801F01BF97069B6F90210B6F90420DB
:1036C0000144B069B1F5D27F10447161B061AFDBE4
:1036D000B0F5D27FACDB0020C6E9050002B0BDEC3E
:1036E000048B01B0BDE8F04F01F01CB900803B45F0
:1036F0000000C8422DE9F04F81B02DED048B82B05F
:1037000040F2C438C2F2000840F6004B4046C4F212
:10371000020BFFF7D5FC08F148042046FFF7D0FC68
:1037200040F2780A9FED878A9FED879AC2F2000ADD
:10373000002046F22832CAE90500C0F600024046E1
:103740000021B0EE480AF0EE490AFFF7C3FC46F24A
:103750003432C0F6000220460021B0EE480AF0EEF6
:10376000490A0194FFF7B6FC2424ABF5006944F63E
:1037700020660027C4F2010408E000BF19213C20A4
:10378000AAF80A00AAF80C1001F0E8F840F2244266
:10379000C4F20002106842F2107C81B2614588BF19
:1037A000301ADAF81410AAF8020001FA80F1CAF807
:1037B00014101760DAF81810BAF90420BAF90A30B0
:1037C0001144CAF81810216802B28DB200EE102A16
:1037D00001EE103A654588BF711AAAF80010AAF8E0
:1037E00004102760AAF80600B8EEC00AF8EEC10A75
:1037F0004046AAF80810FFF7B5FBBAF90800BAF975
:103800000C1000EE100A01EE101A0198B8EEC00A72
:10381000F8EEC10AFFF7A6FB98ED080A98ED1A1A10
:1038200044F23400BCEEC00AC4F2010080ED000A8C
:10383000BCEEC10A80ED010A3220FCF7FFFF4846CA
:103840004FF40041FDF7FAF8012806D058464FF42E
:103850008071FDF7F3F8012809D1DAF81400B0F50A
:10386000966F63DCDAF81800B0F5966F5EDC4846B8
:103870002021FDF7E3F858B958460821FDF7DEF896
:10388000012805D158461021FDF7D8F890B100BFA6
:1038900048462021FDF7D2F801280FD158460821CB
:1038A000FDF7CCF8012809D158461021FDF7C6F8DC
:1038B000012803D13C203C2162E700BF484620217B
:1038C000FDF7BCF801280BD158460821FDF7B6F8E2
:1038D00030B958461021FDF7B1F800283FF44EAF3B
:1038E00058460221FDF7AAF801283FF447AF4846A1
:1038F0002021FDF7A3F868B958460821FDF79EF886
:1039000040B958461021FDF799F8012802D13C2111
:10391000192035E758462021FDF790F83C21012871
:103920004FF03C0008BF19202AE700BF0020CAE979
:10393000050002B0BDEC048B01B0BDE8F04F00F013
:10394000F1BF00BF00803B450000C8422DE9F04FA9
:1039500081B02DED048B82B040F2C438C2F2000871
:1039600040F6004B4046C4F2020BFFF7A9FB08F1FA
:1039700048042046FFF7A4FB40F2780A9FED858AB1
:103980009FED859AC2F2000A002046F22832CAE969
:103990000500C0F6000240460021B0EE480AF0EEF5
:1039A000490AFFF797FB46F23432C0F60002204680
:1039B0000021B0EE480AF0EE490A0194FFF78AFBB5
:1039C0002424ABF5006944F620660027C4F2010404
:1039D00008E000BF19213C20AAF80A00AAF80C1040
:1039E00000F0BCFF40F22442C4F20002106842F230
:1039F000107C81B2614588BF301ADAF81410AAF839
:103A0000020001FA80F1CAF814101760DAF81810F1
:103A1000BAF90420BAF90A301144CAF8181021681A
:103A200002B28DB200EE102A01EE103A654588BF51
:103A3000711AAAF80010AAF804102760AAF8060064
:103A4000B8EEC00AF8EEC10A4046AAF80810FFF71F
:103A500089FABAF90800BAF90C1000EE100A01EE62
:103A6000101A0198B8EEC00AF8EEC10AFFF77AFA08
:103A700098ED080A98ED1A1A44F23400BCEEC00A18
:103A8000C4F2010080ED000ABCEEC10A80ED010A1B
:103A90003220FCF7D3FE48464FF40041FCF7CEFF3E
:103AA000012806D058464FF48071FCF7C7FF012863
:103AB00009D1DAF81400B0F52F7F63DCDAF81800CA
:103AC000B0F52F7F5EDC48462021FCF7B7FF58B9E0
:103AD00058460821FCF7B2FF012805D158461021AD
:103AE000FCF7ACFF90B100BF48462021FCF7A6FFD1
:103AF00001280FD158460821FCF7A0FF012809D161
:103B000058461021FCF79AFF012803D13C203C21A4
:103B100062E700BF48462021FCF790FF01280BD147
:103B200058460821FCF78AFF30B958461021FCF7A7
:103B300085FF00283FF44EAF58460221FCF77EFF78
:103B400001283FF447AF48462021FCF777FF68B9CA
:103B500058460821FCF772FF40B958461021FCF77F
:103B60006DFF012802D13C21192035E7584620215C
:103B7000FCF764FF3C2101284FF03C0008BF1920EE
:103B80002AE700BF02B0BDEC048B01B0BDE8F04FE6
:103B900000F0C8BE00803B450000C8422DE9F04F50
:103BA00081B02DED048B82B040F2C43BC2F2000B19
:103BB00040F6004A5846C4F2020AFFF781FA0BF1B8
:103BC00048063046FFF77CFA40F278099FED8D8A6F
:103BD0009FED8D9AC2F20009002046F22832C9E911
:103BE0000500C0F6000258460021B0EE480AF0EE8B
:103BF000490AFFF76FFA46F23432C0F60002304647
:103C00000021B0EE480AF0EE490A0196FFF762FA89
:103C10002427AAF5806844F620640025C4F2010731
:103C200008E000BF19213220A9F80A00A9F80C10F9
:103C300000F094FE40F22442C4F20002106842F206
:103C4000107C81B2614588BF201AD9F81410A9F8F8
:103C5000020001FA80F1C9F814101560D9F81810A3
:103C6000B9F90420B9F90A301144C9F818103968B3
:103C700002B28EB200EE102A01EE103A664588BFFD
:103C8000611AA9F80010A9F804103D60A9F806000F
:103C9000B8EEC00AF8EEC10A5846A9F80810FFF7B6
:103CA00061F9B9F90800B9F90C1000EE100A01EE3B
:103CB000101A0198B8EEC00AF8EEC10AFFF752F9DF
:103CC0009BED080A9BED1A1A44F23400BCEEC00AC0
:103CD000C4F2010080ED000ABCEEC10A80ED010AC9
:103CE0003220FCF7ABFD40464FF48061FCF7A6FEA6
:103CF000012819D150468021FCF7A0FE012813D1DC
:103D000040464FF48051FCF799FE01280CD1D9F8B8
:103D1000140040F62231884268DCD9F8180040F6D9
:103D20002331884262DA00BFAAF5006630462021BE
:103D3000FCF784FE50B950460821FCF77FFE0128AD
:103D400004D150461021FCF779FE88B1304620217D
:103D5000FCF774FE01280FD150460821FCF76EFED7
:103D6000012809D150461021FCF768FE012803D133
:103D70003C203C2158E700BF30462021FCF75EFE86
:103D800001280BD150460821FCF758FE30B95046A7
:103D90001021FCF753FE00283FF444AF50460221A7
:103DA000FCF74CFE01283FF43DAF30462021FCF7E4
:103DB00045FE68B950460821FCF740FE40B9504620
:103DC0001021FCF73BFE012802D1322119202BE7FC
:103DD00050462021FCF732FE01284FF03C004FF006
:103DE0003C0108BF192008BF32211DE70020C9E9A6
:103DF000050002B0BDEC048B01B0BDE8F04F00F04F
:103E000091BD00BF00803B450000C8422DE9F04F46
:103E100081B02DED048B82B040F2C434C2F20004B4
:103E20002046FFF74DF904F148052846FFF748F909
:103E300040F278069FED4C8A9FED4C9AC2F2000644
:103E40004FF0281046F22832C6F80A00C0F60002E9
:103E500020460021B0EE480AF0EE490AFFF73AF991
:103E600046F23432C0F6000228460021B0EE480A7D
:103E7000F0EE490A0195FFF72DF9B6F90210B6F9EF
:103E80000400C8297161B061A8BFC72861DC44F291
:103E9000340A40F2240B40F22449C4F2010AC4F26D
:103EA000010BC4F2000944F6206542F210780027A5
:103EB000D9F8000081B2414588BF281A7080C9F83E
:103EC0000070DBF8001002B28BB2434588BF691A5C
:103ED0003180B180CBF80070F080B6F90A0000EEB6
:103EE000102A01EE100AB8EEC00AF8EEC10A204608
:103EF0003181FFF737F8B6F90800B6F90C1000EE7B
:103F0000100A01EE101A0198B8EEC00AF8EEC10AC4
:103F1000FFF728F894ED080A94ED1A1ABCEEC00ACF
:103F20008AED000ABCEEC10A32208AED010AFCF7D4
:103F300085FC00F0DBFC7069B6F90210B6F90420CC
:103F40000144B069C82910447161B061B0DBC72871
:103F5000AEDD0020C6E9050002B0BDEC048B01B067
:103F6000BDE8F04F00F0DEBC00803B450000C842D9
:103F70002DE9F04F81B02DED048B82B040F2C435B5
:103F8000C2F2000540F600042846C4F20204FFF71E
:103F900097F805F1480B5846FFF792F89FED918A84
:103FA0009FED919A46F22832C0F600022846002181
:103FB000B0EE480AF0EE490A0027FFF78BF846F208
:103FC0003432C0F6000258460021B0EE480AF0EE46
:103FD000490AFFF77FF840F2780804F5806024264C
:103FE000C2F2000844F6206942F2107A01900020E3
:103FF000C4F20106C8E9057710E000BF20464FF47F
:104000008061FCF71BFD002800F0C4804FF03C10DD
:10401000C8F80A0000F06AFCD8F8140040F2244303
:10402000C4F2000319688AB2524588BFA9EB0101A6
:1040300000FA81F0A8F80210C8F814001F60306878
:104040000AB283B2534588BFA9EB0000D8F81830F4
:10405000A8F8000003FA80F3A8F80400C8F81830A4
:104060003760A8F80800B8F90A0000EE102A01EE3F
:10407000100AB8EEC00AF8EEC10A2846A8F80610E1
:10408000FEF770FFB8F90800B8F90C1000EE100A3E
:1040900001EE101AB8EEC00AF8EEC10A5846FEF753
:1040A00061FF95ED080A95ED1A1A44F23400BCEE52
:1040B000C00AC4F2010080ED000ABCEEC10A80ED26
:1040C000010A3220FCF7BAFB20464FF48061FCF76E
:1040D000B5FC012816D120464FF48051FCF7AEFC08
:1040E00001280FD101988021FCF7A8FC012809D1F3
:1040F000D8F81400B0F57A7F68DAD8F81800B0F56F
:104100007A7F63DC20464FF48061FCF797FC68B946
:1041100020464FF48051FCF791FC012806D101980C
:104120008021FCF78BFC00283FF470AF20464FF451
:104130008061FCF783FC68B920464FF48051FCF79E
:104140007DFC38B901988021FCF778FC00283FF409
:104150005DAF00BF20464FF48061FCF76FFC012883
:104160007FF44CAF20464FF48051FCF767FC0028E9
:104170007FF444AF01988021FCF760FC00287FF4B5
:104180003DAF3C20C0F22800C8F80A0000F0AEFBAA
:10419000012016E020464FF48051FCF74FFC002828
:1041A0007FF434AF01988021FCF748FC01287FF4AC
:1041B0002DAF2820C0F23C00C8F80A0000F096FBA2
:1041C0000220C8F81000D8F8140027E70020C8E93A
:1041D000050002B0BDEC048B01B0BDE8F04F00F06B
:1041E000A1BB00BF00803B450000C8422DE9F04F55
:1041F00081B02DED048B82B040F2C435C2F20005CF
:1042000040F600042846C4F20204FEF759FF05F107
:10421000480B5846FEF754FF9FED908A9FED909A09
:1042200046F22832C0F6000228460021B0EE480AC5
:10423000F0EE490A0027FEF74DFF46F23432C0F691
:10424000000258460021B0EE480AF0EE490AFEF797
:1042500041FF40F2780804F580602426C2F200088D
:1042600044F6206942F2107A01900020C4F201065F
:10427000C8E9057710E000BF20464FF48061FCF7E5
:10428000DDFB002800F0C2804FF03C10C8F80A00A7
:1042900000F02CFBD8F8140040F22443C4F20003D1
:1042A00019688AB2524588BFA9EB010100FA81F072
:1042B000A8F80210C8F814001F6030680AB283B270
:1042C000534588BFA9EB0000D8F81830A8F80000C3
:1042D00003FA80F3A8F80400C8F818303760A8F88B
:1042E0000800B8F90A0000EE102A01EE100AB8EE34
:1042F000C00AF8EEC10A2846A8F80610FEF732FEFA
:10430000B8F90800B8F90C1000EE100A01EE101A06
:10431000B8EEC00AF8EEC10A5846FEF723FE95ED46
:10432000080A95ED1A1A44F23400BCEEC00AC4F231
:10433000010080ED000ABCEEC10A80ED010A3220C6
:10434000FCF77CFA20464FF48061FCF777FBA8B9B4
:1043500020464FF48051FCF771FB78B90198802119
:10436000FCF76CFB50B9D8F81400B0F57A6F69DA35
:10437000D8F81800B0F57A6F64DA00BF20464FF421
:104380008061FCF75BFB68B920464FF48051FCF775
:1043900055FB012806D101988021FCF74FFB00282E
:1043A0003FF472AF20464FF48061FCF747FB68B9D9
:1043B00020464FF48051FCF741FB38B90198802129
:1043C000FCF73CFB00283FF45FAF00BF20464FF4F2
:1043D0008061FCF733FB01287FF44EAF20464FF499
:1043E0008051FCF72BFB00287FF446AF0198802119
:1043F000FCF724FB00287FF43FAF3C20C0F22800EC
:10440000C8F80A0000F072FA012016E020464FF4C6
:104410008051FCF713FB00287FF436AF0198802110
:10442000FCF70CFB01287FF42FAF2820C0F23C00E2
:10443000C8F80A0000F05AFA0220C8F81000D8F8AC
:10444000140029E70020C8E9050002B0BDEC048B88
:1044500001B0BDE8F04F00F065BA00BF00803B45F9
:104460000000C8422DE9F04F81B02DED048B82B0E1
:1044700040F2C435C2F2000540F600042846C4F2FA
:104480000204FEF71DFE05F1480B5846FEF718FE24
:104490009FED918A9FED919A46F22832C0F6000274
:1044A00028460021B0EE480AF0EE490A0027FEF740
:1044B00011FE46F23432C0F6000258460021B0EE3A
:1044C000480AF0EE490AFEF705FE40F2780804F5C6
:1044D00080602426C2F2000844F6206942F2107A75
:1044E00001900020C4F20106C8E9057710E000BF82
:1044F00020464FF48061FCF7A1FA002800F0C48048
:104500004FF03210C8F80A0000F0F0F9D8F81400A3
:1045100040F22443C4F2000319688AB2524588BFAE
:10452000A9EB010100FA81F0A8F80210C8F8140004
:104530001F6030680AB283B2534588BFA9EB000000
:10454000D8F81830A8F8000003FA80F3A8F804009F
:10455000C8F818303760A8F80800B8F90A0000EE6B
:10456000102A01EE100AB8EEC00AF8EEC10A284679
:10457000A8F80610FEF7F6FCB8F90800B8F90C1018
:1045800000EE100A01EE101AB8EEC00AF8EEC10AE9
:104590005846FEF7E7FC95ED080A95ED1A1A44F225
:1045A0003400BCEEC00AC4F2010080ED000ABCEE8B
:1045B000C10A80ED010A3220FCF740F920464FF491
:1045C0008061FCF73BFA012816D120464FF4805158
:1045D000FCF734FA01280FD101988021FCF72EFA5C
:1045E000012809D1D8F81400B0F5FA6F68DAD8F8C4
:1045F0001800B0F5FA6F63DA20464FF48061FCF7DB
:104600001DFA68B920464FF48051FCF717FA0128CB
:1046100006D101988021FCF711FA00283FF470AF11
:1046200020464FF48061FCF709FA68B920464FF440
:104630008051FCF703FA38B901988021FCF7FEF9A4
:1046400000283FF45DAF00BF20464FF48061FCF7C7
:10465000F5F901287FF44CAF20464FF48051FCF768
:10466000EDF900287FF444AF01988021FCF7E6F9CA
:1046700000287FF43DAF3220C0F21E00C8F80A00C7
:1046800000F034F9012016E020464FF48051FCF789
:10469000D5F900287FF434AF01988021FCF7CEF9DA
:1046A00001287FF42DAF1E20C0F23200C8F80A00A6
:1046B00000F01CF90220C8F81000D8F8140027E711
:1046C0000020C8E9050002B0BDEC048B01B0BDE8D4
:1046D000F04F00F027B900BF00803B450000C84202
:1046E000806B0021C185C184FDF706BD81B090F8C3
:1046F0003E10222921D183680246B3F5805F09D19B
:1047000052F8281F52F8183C002B63D003685B68EE
:104710000AE000BF52F8281F13B90369002BF5D037
:1047200003685B6803F07F030B701168013111604F
:10473000C18D01390A04C18502D001B0704700BFA4
:104740000168CA6822F02002CA60CA6822F4807236
:10475000CA604A6922F001024A61202180F83E10B5
:10476000016B01293ED10021016300BF016851E8BE
:10477000031F026821F0100142E80313DBB1016856
:1047800051E8031F026821F0100142E8031393B1BE
:10479000016851E8031F026821F0100142E8031389
:1047A0004BB1016851E8031F026821F0100142E893
:1047B0000313002BDAD101680A68D20606D500225D
:1047C00000920A680092496800910099818D01B0B9
:1047D000FDF790BC026852686FF35F2221F8022B4C
:1047E0008162A5E701B0FDF7E9BF000010B50446FE
:1047F0000068D4E902C22369016921F440511143E0
:104800000161626943EA0C01E3691143C26819431B
:1048100049F20C639A431143C1604169A26921F4D2
:10482000407141F20043114340F48062C4F201033D
:104830009A42416102D1FCF791FA01E0FCF77AFA61
:10484000E16963681922B1F5004FA0FB020123D191
:104850005A00DB0FFBF708FD48F21F51C5F2EB11C0
:10486000A0FB01235A094FF69C73C0F6FF7303F1B6
:10487000805302FB0300322303EBC000A0FB0101C5
:104880004FF4F87000EA111000EB0210C1F342116E
:1048900008442168886010BD9A009B0FFBF7E4FC78
:1048A00048F21F51C5F2EB11A0FB01235A094FF644
:1048B0009C73C0F6FF7302FB0300322303EB00106E
:1048C000A0FB0101F02000EA511000EB0210C1F33F
:1048D000431108442168886010BD000040F2803018
:1048E000C2F20000FDF70ABCFEE7000010B500248C
:1048F000C4F20204204608210122FCF7A5F8204654
:1049000010210022FCF7A0F804F5006420461021D5
:104910000122FCF799F8204620210022BDE8104032
:10492000FCF792B810B50024C4F202042046082116
:104930000022FCF789F8204610210022FCF784F8B9
:1049400004F50064204610210022FCF77DF8204683
:1049500020210022BDE81040FCF776B810B50024F5
:10496000C4F20204204608210022FCF76DF820461C
:1049700010210122FCF768F804F50064204610219C
:104980000022FCF761F8204620210122BDE81040FA
:10499000FCF75AB8FCF772F8FEF7BAFBFDF79CFF7C
:1049A000FDF776FFFEF7BCFAFEF760F8FEF728F990
:1049B000FEF75AF9FEF7E2F9FEF746FAFEF78CF831
:1049C000FEF76CFAFDF788FFFDF762FFFEF7A8FA25
:1049D000FEF74CF8FEF714F9FEF746F9FEF7CEF9AC
:1049E000FEF732FAFEF778F840F23834C2F20004EB
:1049F000204600210025FDF7EFFA20460421FDF7AF
:104A0000EBFA40F2D014C2F2000420460021FDF778
:104A1000E3FA20460821FDF7DFFA40F26024C2F2F3
:104A2000000420460021FDF7D7FA20460421FDF7B7
:104A3000D3FA20460821FDF7CFFA20460C21FDF7D6
:104A4000CBFA40F28810C2F200003C21FCF782FE53
:104A500040F21820C2F200003C21FCF77BFE40F23D
:104A6000F020C2F20000FCF787FC01F047F840F6A6
:104A70006600FBF7D7FCFDF7D9FEFDF7E1FEFDF779
:104A8000E9FEFDF7F1FEFDF7F9FEFEF751FC4FF4EC
:104A90007A70FBF7D3FEFDF797FE4FF47A70FBF7C1
:104AA000CDFE4FF4C870FBF7BDFCFFF761FA4FF481
:104AB0007A70FBF7C3FEFEF767FD4FF47A70FBF7E1
:104AC000BDFE01F029F94FF47A70FBF7B7FEFEF74F
:104AD0003DFF4FF47A70FBF7B1FEFDF77FFE4FF418
:104AE0007A70FBF7ABFE4FF46170FBF79BFC4FF461
:104AF0007A70FBF7A3FEFFF73BFA4FF47A70FBF7EF
:104B00009DFEFEF741FD4FF47A70FBF797FE01F032
:104B100033FB4FF47A70FBF791FEFEF717FF4FF46B
:104B20007A70FBF78BFEFDF763FE4FF47A70FBF7AC
:104B300085FEFFF71DFA4FF47A70FBF77FFEFEF754
:104B400023FD4FF47A70FBF779FE01F0E5F840F6AB
:104B50006600FBF767FC4FF4FA70FBF76FFE40F25C
:104B6000EE20FBF75FFC4FF47A70FBF767FE00F076
:104B700053FD40F29404C2F20004206040F6660047
:104B8000FBF750FC6420FBF759FE206800F0C4FEE0
:104B90006420FBF753FEFEF7ADFD6420FBF74EFEED
:104BA000FDF744FE4FF47A70FBF748FEFFF7E0F99B
:104BB0004FF4FA70FBF742FEFEF7E6FC4FF4FA7092
:104BC000FBF73CFE206800F04DFF4FF47A70FBF7D6
:104BD00035FE4FF4C870FBF725FC4FF4FA70FBF775
:104BE0002DFE40F27E40FBF71DFC4FF47A70FBF780
:104BF00025FE00F011FD20604FF4C870FBF712FC99
:104C00006420FBF71BFE206800F086FEFEF772FDB5
:104C10006420FBF713FEFDF713FE4FF47A70FBF7E9
:104C20000DFEFFF7A5F94FF4FA70FBF707FEFEF74C
:104C3000ABFC4FF4FA70FBF701FE206800F012FFA6
:104C40004FF47A70FBF7FAFD4FF46170FBF7EAFB63
:104C50004FF4FA70FBF7F2FD40F24650FBF7E2FB2F
:104C60004FF4FA70FBF7EAFD4FF4E160FBF7DAFB73
:104C70004FF47A70FBF7E2FD00F0CEFC206040F2CA
:104C80004650FBF7CFFB4FF4FA70FBF7D7FD4FF41C
:104C90006170FBF7C7FB6420FBF7D0FD206800F0D4
:104CA0003BFE6420FBF7CAFDFEF724FD6420FBF702
:104CB000C5FDFDF7CFFD4FF47A70FBF7BFFDFFF7A1
:104CC00057F94FF4FA70FBF7B9FDFEF75DFC4FF4AE
:104CD000FA70FBF7B3FD206800F0C4FE40F66600F2
:104CE000FBF7A0FB01F08CF901F0D0F84FF47A70DB
:104CF000FBF7A4FDFEF752FF4FF47A70FBF79EFD21
:104D0000FFF784F84FF47A70FBF798FDFDF75CFD30
:104D1000FDF764FDFDF76CFDFDF774FDFDF77CFD0F
:104D20004FF47A70FBF78AFDFFF79CFB6420FBF7DA
:104D300085FDFEF729FC6420FBF780FD00F032FFC3
:104D400000F0EAFF4FF47A70FBF778FD4FF4FA6059
:104D5000FBF768FB4FF47A70FBF770FD00F05CFC2A
:104D6000206040F2D660FBF75DFB4FF4FA70FBF772
:104D700065FD40F24650FBF755FB6420FBF75EFDF6
:104D8000206800F0C9FD6420FBF758FDFEF7B2FC77
:104D90006420FBF753FDFDF767FD4FF47A70FBF7D6
:104DA0004DFDFFF7E5F84FF4FA70FBF747FDFEF70E
:104DB000EBFB4FF4FA70FBF741FD206800F052FE68
:104DC0004FF47A70FBF73AFD40F2D660FBF72AFB0E
:104DD00040F2DC50FBF732FD40F66600FBF722FBA9
:104DE00040F2DC50FBF72AFD40F62E10FBF71AFBD1
:104DF0004FF47A70FBF722FD00F00EFC206040F6C5
:104E00006600FBF70FFB4FF4FA70FBF717FD40F25B
:104E1000D660FBF707FB6420FBF710FD206800F06D
:104E20007BFD6420FBF70AFDFEF764FC6420FBF7C2
:104E300005FDFDF723FD4FF47A70FBF7FFFCFFF74C
:104E400097F84FF4FA70FBF7F9FCFEF79DFB4FF46F
:104E5000FA70FBF7F3FC206800F004FE4FF47A7060
:104E6000FBF7ECFC40F66600FBF7DCFA40F2DC50A6
:104E7000FBF7E4FC40F2EE20FBF7D4FA40F2DC5002
:104E8000FBF7DCFC00F0C8FB206040F66600FBF797
:104E9000C9FA6420FBF7D2FC206800F03DFD6420D5
:104EA000FBF7CCFCFEF726FC6420FBF7C7FCFDF704
:104EB000BDFC4FF47A70FBF7C1FCFFF759F84FF4D3
:104EC000FA70FBF7BBFCFEF75FFB4FF4FA70FBF7E1
:104ED000B5FC206800F0C6FD4FF47A70FBF7AEFC1D
:104EE0004FF4C870FBF79EFA40F2DC50FBF7A6FCCB
:104EF0004FF46170FBF796FA4FF4FA70FBF79EFCE3
:104F000040F27E40FBF78EFA40F2DC50FBF796FC55
:104F100000F082FB20604FF46170FBF783FA4FF4DE
:104F2000FA70FBF78BFC4FF4C870FBF77BFA642038
:104F3000FBF784FC206800F0EFFC6420FBF77EFCAC
:104F4000FEF7D8FB6420FBF779FCFDF779FC4FF402
:104F50007A70FBF773FCFFF70BF84FF4FA70FBF76E
:104F60006DFCFEF711FB4FF4FA70FBF767FC20684D
:104F700000F078FD4FF47A70FBF760FC4FF461703D
:104F8000FBF750FA40F2DC50FBF758FC40F2465079
:104F9000FBF748FA40F2DC50FBF750FC4FF4C860D6
:104FA000FBF740FA40F2DC50FBF748FC00F034FB22
:104FB000206040F24650FBF735FA4FF4FA70FBF7E9
:104FC0003DFC4FF46170FBF72DFA6420FBF736FCD3
:104FD000206800F0A1FC6420FBF730FCFEF78AFBA0
:104FE0006420FBF72BFCFDF735FC4FF47A70FBF7E0
:104FF00025FCFEF7BDFF4FF4FA70FBF71FFCFEF730
:10500000C3FA4FF4FA70FBF719FC206800F02AFD90
:105010004FF4FA70FBF706FA4FF4FA70FBF70EFC48
:1050200040F66600FBF7FEF900F076FE00F0BAFDF0
:105030004FF47A70FBF702FCFEF7B0FDFEF7E6FED8
:105040006420FBF7FBFBFDF7BFFBFDF7C7FBFDF79C
:10505000CFFBFDF7D7FBFDF7DFFB4FF47A70FBF7D3
:10506000EDFBFFF7FFF96420FBF7E8FBFEF78CFA96
:105070006420FBF7E3FB00F009FF00F0C1FF4FF4F1
:105080007A70FBF7DBFB4FF4FA60FBF7CBF94FF4D8
:105090007A70FBF7D3FB00F0BFFA206040F2D660D5
:1050A000FBF7C0F94FF4FA70FBF7C8FB40F246502B
:1050B000FBF7B8F96420FBF7C1FB206800F02CFC7B
:1050C0006420FBF7BBFBFEF715FB6420FBF7B6FB88
:1050D000FDF7CAFB4FF47A70FBF7B0FBFEF748FF11
:1050E0004FF4FA70FBF7AAFBFEF74EFA4FF4FA7092
:1050F000FBF7A4FB206800F0B5FC4FF47A70FBF7D7
:105100009DFB40F2D660FBF78DF940F2DC50FBF7D7
:1051100095FB40F66600FBF785F940F2DC50FBF7A3
:105120008DFB40F62E10FBF77DF94FF47A70FBF7FC
:1051300085FB00F071FA206040F66600FBF772F91B
:105140004FF4FA70FBF77AFB40F2D660FBF76AF98E
:105150006420FBF773FB206800F0DEFB6420FBF7A4
:105160006DFBFEF7C7FA6420FBF768FBFDF786FBD3
:105170004FF47A70FBF762FBFEF7FAFE4FF4FA7019
:10518000FBF75CFBFEF700FA4FF4FA70FBF756FBF7
:10519000206800F067FC4FF47A70FBF74FFB40F695
:1051A0006600FBF73FF940F2DC50FBF747FB40F2AB
:1051B000EE20FBF737F940F2DC50FBF73FFB00F045
:1051C0002BFA206040F66600FBF72CF96420FBF711
:1051D00035FB206800F0A0FB6420FBF72FFBFEF7F7
:1051E00089FA6420FBF72AFBFDF720FB4FF47A7065
:1051F000FBF724FBFEF7BCFE4FF4FA70FBF71EFB37
:10520000FEF7C2F94FF4FA70FBF718FB206800F0C4
:1052100029FC4FF47A70FBF711FB4FF4C870FBF7D1
:1052200001F940F2DC50FBF709FB4FF46170FBF72A
:10523000F9F84FF4FA70FBF701FB40F27E40FBF700
:10524000F1F840F2DC50FBF7F9FA00F0E5F92060E4
:105250004FF46170FBF7E6F84FF4FA70FBF7EEFAE3
:105260004FF4C870FBF7DEF86420FBF7E7FA20681C
:1052700000F052FB6420FBF7E1FAFEF73BFA6420F2
:10528000FBF7DCFAFDF7DCFA4FF47A70FBF7D6FA9D
:10529000FEF76EFE4FF4FA70FBF7D0FAFEF774F9E2
:1052A0004FF4FA70FBF7CAFA206800F0DBFB4FF40A
:1052B0007A70FBF7C3FA4FF46170FBF7B3F840F272
:1052C000DC50FBF7BBFA40F24650FBF7ABF840F27C
:1052D000DC50FBF7B3FA4FF4C860FBF7A3F840F2D9
:1052E000DC50FBF7ABFA00F097F9206040F2465033
:1052F000FBF798F84FF4FA70FBF7A0FA4FF46170DF
:10530000FBF790F86420FBF799FA206800F004FBA3
:105310006420FBF793FAFEF7EDF96420FBF78EFAB1
:10532000FDF798FA4FF47A70FBF788FAFEF720FE43
:105330004FF4FA70FBF782FAFEF726F94FF4FA7091
:10534000FBF77CFA206800F08DFB4FF4FA70FBF756
:1053500069F84FF4FA70FBF771FA40F66600FBF754
:1053600061F8FEF743FF9FEDA69A9FEDA6AA9FED79
:10537000A6BA9FEDA2CA9FEDA6DA9FEDA6EA9FED21
:10538000A3FA4FF07E56B7EE008AF6EE008A01E0EF
:105390000220206000F03AFB00EE100AB8EE400A4E
:1053A00084ED010A00F006FB00EE100AB8EE400A98
:1053B00084ED020A00F0D2FA94ED010A94ED021A8B
:1053C00002EE100AB4EE410AB8EE422AF1EE10FAEB
:1053D00084ED032A12D1B4EE421AF1EE10FA0DD187
:1053E0002661B0EE484AB0EE483AB4EE403AF1EEEB
:1053F00010FA84ED054A6BD074E000BFB4EE410AA8
:10540000F1EE10FA06DBB4EE420AF1EE10FAB0EE5D
:10541000403A1BDAB4EE401AF1EE10FA06DBB4EEB5
:10542000421AF1EE10FAB0EE413A0FDAB4EE420A47
:10543000B0EE423AF1EE10FAC8BFB0EE4C3AB4EE1C
:10544000421AF1EE10FAC8BFB0EE4C3AB4EE410A7F
:10545000F1EE10FA84ED043A0EDCB4EE420AF1EEFD
:1054600010FA09DCB0EE404AB4EE403AF1EE10FA20
:1054700084ED054A2CD035E0B4EE410AF1EE10FA85
:105480000EDBB4EE421AF1EE10FA09DCB0EE414A3E
:10549000B4EE403AF1EE10FA84ED054A18D021E05E
:1054A000B4EE420AB0EE424AF1EE10FAB8BFB0EEE6
:1054B0004C4AB4EE421AF1EE10FAB8BFB0EE4C4AC4
:1054C000B4EE403AF1EE10FA84ED054A0AD100BF7D
:1054D00031EE425A33EE446A85EE065A25EE095AF9
:1054E00084ED065AB4EE413AF1EE10FA0BD132EEE9
:1054F000405A33EE446A85EE065A25EE095A35EED7
:105500000A5A84ED065AB4EE423AF1EE10FA0BD183
:1055100030EE415A33EE446A85EE065A25EE095ABA
:1055200035EE0B5A84ED065AB4EE443AF1EE10FA19
:10553000B0EE4C5A08D094ED065AB5EE405AF1EE52
:1055400010FA03DA35EE0F5A84ED065A33EE043AB8
:10555000B4EE4D0A23EE283AF1EE10FA84ED073A44
:1055600007DDB4EE4D1AF1EE10FA02DDC8283FF661
:105570000FAFB4EE401AF1EE10FA0DDDB4EE421AA0
:10558000F1EE10FA08DDB4EE4D5AF1EE10FA03DA3E
:1055900001202060FEE600BFB4EE4E0AF1EE10FAE4
:1055A0000ADAB4EE4E1AF1EE10FA05DA322803D216
:1055B00004202060EEE600BFB4EE421AF1EE10FACD
:1055C0000CDAB4EE420AF1EE10FA07DAB4EE4D5AF4
:1055D000F1EE10FA02DD05202060DBE6B4EE420AAF
:1055E0000020F1EE10FAC8BF0320B4EE410AF1EE3C
:1055F00010FAD8BF28462060CCE600BF00000000AB
:10560000000070420000F042000070430000B4430C
:1056100000004843000048422DE9F0472DED048B7F
:1056200040F20044C4F2020420464FF480410022BC
:105630004FF0000AFBF708FA20464FF40051002211
:10564000FBF702FA40F2B407C2F200070A20A7F8FB
:1056500000A0FBF7F3F840F200053888C2F200051D
:105660002988C0EB0020B0FBF1F0FF2610F47F4F3B
:1056700018BF30461FFA80F8388100EE108A2046A5
:105680004FF480410122B8EE408AFBF7DDF9204655
:105690004FF400510122FBF7D7F90A20A7F800A028
:1056A000FBF7CCF838886988C0EB0020B0FBF1F03C
:1056B0004FF4804110F47F4F18BF30461FFA80F935
:1056C000788100EE109A20460022B8EE409AFBF74F
:1056D000BBF920464FF400510122FBF7B5F90A202F
:1056E000A7F800A0FBF7AAF83888A988C0EB00202B
:1056F000B0FBF1F0B4EE498A10F47F4F08BF0646C4
:10570000B0B200EE100AF1EE10FAB8EE400ABE8117
:105710000AD1B4EE409AF1EE10FA05D1B7EE001AB4
:10572000B0EE412A58E000BFB4EE498AF1EE10FA1B
:1057300006DBB4EE408AF1EE10FAB0EE481A1DDA3C
:10574000B4EE489AF1EE10FA06DBB4EE409AF1EEB0
:1057500010FAB0EE491A11DAB4EE480AB0EE401A67
:105760009FED672AF1EE10FAB8BFB0EE421AB4EE20
:10577000490AF1EE10FAB8BFB0EE421AB4EE498A07
:10578000F1EE10FA08DCB4EE408AF1EE10FA03DC18
:10579000B0EE482A20E000BFB4EE498AF1EE10FADC
:1057A00008DBB4EE409AF1EE10FA03DCB0EE492AC1
:1057B00012E000BFB4EE408AB0EE402A9FED503AAE
:1057C000F1EE10FAB8BFB0EE432AB4EE490AF1EE9A
:1057D00010FAC8BFB0EE432A31EE424A30EE485AC2
:1057E00039EE403A85EE045A83EE043A38EE496ABF
:1057F00086EE044A9FED436A9FED437AB4EE491A60
:10580000F1EE10FAB4EE401A25EE065A23EE063AEF
:1058100035EE075A08BFB0EE453A9FED3C5A24EEEC
:10582000064A34EE054AF1EE10FA08BFB0EE443AEB
:10583000B4EE421A9FED324AF1EE10FA9FED341A9F
:1058400008BFB0EE443AB5EE403AF1EE10FA33EE4E
:10585000011AB8BFB0EE413AB8F1970F28BFB9F1BD
:10586000970F2BD2B4EE489AF1EE10FA10DDB4EE99
:10587000409AF1EE10FA0BDD9FED261AB4EE413A94
:10588000F1EE10FA04DA0120BDEC048BBDE8F087DC
:10589000B8F12C0F98BFB9F12C0F17D9B4EE490A03
:1058A000F1EE10FA1ADDB4EE480AF1EE10FA15DD49
:1058B0000520BDEC048BBDE8F08700BF9628D1D948
:1058C0000220BDEC048BBDE8F08700BF2D28E5D297
:1058D0000420BDEC048BBDE8F08700BFB4EE408A25
:1058E0000020F1EE10FAC8BF0320B4EE498A00216F
:1058F000F1EE10FAD8BF0846BDEC048BBDE8F08786
:1059000000000000000070420000F0420000704300
:105910000000B443000048430138042888BF7047A2
:1059200080B5DFE800F00309170F150000F068FBF1
:10593000BDE88040FEF70AB800F0A8FABDE8804054
:10594000FEF704B800F02EF9BDE88040FDF7FEBF79
:1059500000F0E2F9BDE88040FDF7F8BFB0B540F2D5
:105960000044C4F2020420464FF480410022002586
:10597000FBF76AF820464FF400510122FBF764F868
:1059800040F2B404C2F200040A202580FAF756FF60
:1059900040F200012088C2F200018988C0EB00209B
:1059A000B0FBF1F111F47F4F18BFFF2188B2A18144
:1059B000B0BD000010B540F20044C4F2020420461D
:1059C0004FF480410122FBF73FF820464FF400518D
:1059D0000122FBF739F840F2B404C2F200040020BF
:1059E00020800A20FAF72AFF40F200012088C2F244
:1059F00000014988C0EB0020B0FBF1F111F47F4FAA
:105A000018BFFF2188B2618110BD0000B0B540F21F
:105A10000044C4F2020420464FF4804100220025D5
:105A2000FBF712F820464FF400510022FBF70CF868
:105A300040F2B404C2F200040A202580FAF7FEFE08
:105A400040F200012088C2F200010988C0EB00206A
:105A5000B0FBF1F111F47F4F18BFFF2188B2218113
:105A6000B0BD00000138042888BF7047DFE800F0AF
:105A700004080C060A0000BF00F04EB900F006BA98
:105A800000F090B800F0BCBA7047000010B50024D8
:105A9000C4F20204204608210022FAF7D5FF20466E
:105AA00010210122FAF7D0FF04F5006420461021EE
:105AB0000122FAF7C9FF204620210022BDE810404C
:105AC000FAF7C2BF10B50024C4F202042046082130
:105AD0000122FAF7B9FF204610210022FAF7B4FF9D
