:020000040800F2
:10000000880A0020290200089D300008692800089D
:100010009930000821040008FD4900080000000094
:100020000000000000000000000000004532000851
:100030004D04000800000000413200084932000869
:10004000430200084302000843020008430200087C
:10005000430200084302000843020008430200086C
:10006000430200084302000851040008430200084C
:10007000430200084302000843020008430200084C
:10008000430200084302000843020008430200083C
:10009000430200084302000843020008430200082C
:1000A000430200084302000843020008430200081C
:1000B000430200080D330008430200084302000811
:1000C00043020008430200084302000843020008FC
:1000D00043020008430200084302000843020008EC
:1000E00043020008430200084302000843020008DC
:1000F00043020008430200084302000843020008CC
:1001000043020008430200081933000843020008B4
:100110004302000843020008253300084302000898
:1001200043020008350400084302000843020008A7
:10013000430200084302000843020008430200088B
:10014000430200084302000843020008430200087B
:10015000430200084104000843020008F149000876
:10016000430200084302000843020008430200085B
:100170004302000843020008430200080000000098
:10018000430200084302000800F002F800F03CF8C7
:100190000AA090E8000C82448344AAF10107DA45E2
:1001A00001D100F031F8AFF2090EBAE80F0013F0F8
:1001B000010F18BFFB1A43F001031847785F0000D6
:1001C000985F0000103A24BF78C878C1FAD8520767
:1001D00024BF30C830C144BF04680C6070470000C1
:1001E0000023002400250026103A28BF78C1FBD840
:1001F000520728BF30C148BF0B6070471FB505F0DC
:100200006FFF1FBD10B510BD00F0D0F81146FFF70D
:10021000F5FF04F049FC00F0EEF803B4FFF7F2FF3D
:1002200003BC00F0F5F80000094880470948004782
:10023000FEE7FEE7FEE7FEE7FEE7FEE7FEE7FEE796
:10024000FEE7FEE704480549054A064B70470000F3
:10025000F93200088901000888040020880A00207B
:10026000880600208806002053EA020C00F069800E
:100270002DE9F04B4FF00006002B1FBFB3FA83F5BA
:1002800003FA05F424FA05F65E4012BF1643B2FAEB
:1002900082F502FA05F4C5F120051EBF22FA05FC1D
:1002A00044EA0C04203556EA044C4FEA144418BFC3
:1002B000641C4FF000084FF00009904271EB030CF2
:1002C00039D3002919BFB1FA81F701FA07F6B0FA5C
:1002D00080F700FA07F6C7F120071EBF20FA07FCD7
:1002E00046EA0C062037B6FBF4FCA7EB0507103FE7
:1002F00007F01F0BCBF120062CFA06F60CFA0BFBCD
:1003000044BFB3460026202FA4BF5E464FF0000B2B
:100310005BEA060C08BF4FF0010B19EB0B0948EB29
:100320000608ABFB027C06FB02CC0BFB03CCC01B1C
:1003300071EB0C01C1E70B46024641464846BDE859
:10034000F08B13B5084318BF4FF0FF300146AFF3F1
:100350000080BDE81C4070474FF0000200B5134616
:1003600094469646203922BFA0E80C50A0E80C50D5
:10037000B1F12001BFF4F7AF090728BFA0E80C5086
:1003800048BF0CC05DF804EB890028BF40F8042B7F
:1003900008BF704748BF20F8022B11F0804F18BFEC
:1003A00000F8012B7047704770477047754600F0A2
:1003B0002BF8AE4605006946534620F007008546F7
:1003C00018B020B5FFF73EFFBDE820404FF0000613
:1003D0004FF000074FF000084FF0000BAC46ACE8C0
:1003E000C009ACE8C009ACE8C009ACE8C00921F01C
:1003F00007018D46704710B50446AFF300802046D4
:10040000BDE81040FFF709BF004870471800002002
:1004100001491820ABBEFEE726000200704700002D
:10042000FEE7000040F2FC11C2F2000109684863D7
:100430007047000040F2AC00C2F2000000F06CB85F
:1004400040F20C10C2F2000000F066B870470000E5
:10045000102000F00FBA0000EFF3108072B600BF5A
:10046000FEE7000070B5866D044600F0F9FA94F8D6
:10047000351002292ED105462068216C026822F031
:1004800016020260426922F08002426109B9A16C41
:1004900019B1016821F008010160016821F0010132
:1004A00001600068C00708D000F0DAFA401B052898
:1004B00017D820680068C007F6D1E06D3F2101FA27
:1004C00000F0B060012084F835000020002184F89D
:1004D000341070BD802060650120002184F8341044
:1004E00070BD20206065032084F83500002184F869
:1004F000341070BD90F83510022909D1052180F81B
:1005000035100068016821F001010160002070478A
:100510008021416501207047F0B581B0044600207C
:10052000009040F21000C2F200000268D4E91660A8
:1005300048F2B51337680821C1F64E33814039427D
:10054000A2FB03250CD0226813685B0708D513684B
:1005500023F004031360B160616D41F00101616536
:1005600001218140394208D022685269120604D51F
:10057000B160616D41F00201616504218140394241
:1005800008D022681268920704D5B160616D41F00D
:100590000401616510218140394217D0206802684A
:1005A000120713D5B16002680168520308D4C90567
:1005B00008D4016821F008010160216C21B905E02F
:1005C000080342D4216C09B120468847E16D202000
:1005D00000FA01F23A4244D020680368DB0640D5B5
:1005E000B26094F835300268052B1ED122F0160255
:1005F0000260426922F080024261226C0AB9A26C58
:100600001AB1026822F0080202603F208840B06000
:10061000012084F83500216D0020002984F8340081
:1006200057D02046884701B0F0BD0168520310D46E
:10063000C90512D4016821F010010160012084F87D
:100640003500002084F8340007E0A16C0029BBD1FC
:10065000BCE7080301D4616C00E0E16B09B12046FE
:100660008847606DA8B3606DC0072ED0052084F860
:1006700035002068A90A026822F001020260009A8F
:1006800001328A4200921AD80268D20717D0009A23
:1006900001328A42009212D80268D2070FD0009A23
:1006A00001328A4200920AD80268D20707D0009A23
:1006B00001328A42009202D80268D207DFD10120BB
:1006C00084F83500002084F83400E16C09B120463C
:1006D000884701B0F0BD00002DE9F041044600F06C
:1006E000BFF9002C4ED00546022084F835000020CA
:1006F000216884F83400086820F001000860086868
:10070000C00708D000F0ACF9401B05286BD8216861
:100710000868C007F6D1086848F23F02CFF210021D
:10072000D4E90135024004F10C0E9EE8C1511A4390
:100730002A4310433043384340EA0800626A40EAE3
:100740000C00042A40EA0E031FD1D4E90A5E206B94
:100750004EEA0302104308604869BEF1000F20F022
:10076000030040EA050040F0040C14D0B8F5005F27
:1007700041D0B8F1000F4ED1022D4FD0012D44D001
:100780004DB94BE00120BDE8F0810B60486920F0D5
:10079000070040EA020C6FF00F004AF6AB2250FA55
:1007A00081F0CAF6AA22A0FB02231A0946F212130C
:1007B000C0F600039A5C40F2FF335F284FF03F0021
:1007C000C1F814C021EA030100FA02F088BF043125
:1007D000C4E916128860002301220020636584F8B2
:1007E0003520BDE8F081032220230320636584F8CF
:1007F0003520BDE8F081032DCDD801224023012012
:10080000DFE805F0020C0203E8E7AEF1C070B0FAD1
:1008100080F0400904E0032D04D3BCD1CEF3006086
:100820000028B8D0012240230120636584F83520D8
:10083000BDE8F081B0B5044600F012F9054640F27B
:100840000800C2F200000078611C18BF044400BF19
:1008500000F006F9401BA042FAD3B0BD102818BF23
:10086000704740F29400C2F200000188013101801B
:100870007047000043F61441C4F201010A680242C5
:1008800014BF08607047FFF7E9BF00002DE9F04F83
:1008900082B000F13E4241F6004502F1FF77C4F21A
:1008A000020508224FEAB726A84208BF0722072EF2
:1008B00038BF4FEAB7224FF0010A002400274FF05B
:1008C0000008009208E000BF023708F10108202F5D
:1008D00004F1040400F0B4800E680AFA08F916EA7C
:1008E000090FF1D0D1F804A00AF0030BABF1010617
:1008F000012E17D80322866802FA07FECA6826EA84
:100900000E06BA40324382604268CAF3001522EAFA
:10091000090205FA08F54FEA480C6FEA0E062A4369
:1009200042600BE00322BA40D643BBF1030FBC4642
:1009300004D1BC464FF0030B22E000BFC2688D68B3
:10094000324005FA0CF52A43BBF1020FC26017D101
:100950006FF0030202EA5802024404F01C030F2560
:10096000D2F820E005FA03FA0D692EEA0A0E05FA1C
:1009700003F343EA0E031362D1F804A00AF0030B59
:1009800002680BFA0CF332401A431AF4403F4FF05E
:10099000010A026098D0002243F644030192C4F297
:1009A00002031A6843F6004E42F480421A601A6845
:1009B000C4F2010E02F480420192019A28F003026F
:1009C0004FF6084C7244CFF6FF7C52F80C3004F01E
:1009D0000C060F25B540AB43009D05FA06F63343E0
:1009E00042F80C30DEF808204B6842EA090643F66C
:1009F0000C4CDD0258BF22EA0906CEF80860C4F2AA
:100A0000010CDCF800209D0242EA090658BF22EAE8
:100A10000906CCF80060DEF804209D0342EA0906CE
:100A200058BF22EA0906CEF80460DEF80020DB0396
:100A300042EA090658BF22EA0906CEF8006043E7F9
:100A400002B0BDE8F08F00000069084018BF012027
:100A500070470000002A08BF090481617047000048
:100A600040F28040C2F200000068704740F2080087
:100A700040F28041C2F20000C2F2000100780A6830
:100A8000104408607047000080B543F60040C4F28F
:100A90000200016841F400710160016841F4806165
:100AA0000160016841F480710160032000F084F866
:100AB0000F2000F005F800F027F8002080BD0000AE
:100AC00070B540F20806C2F2000640F2100132781A
:100AD000C2F200014FF47A730968B3FBF2F20446E4
:100AE000B1FBF2F1084600F039FB0F2C4FF0010585
:100AF00008D838B94FF0FF3021460022002500F019
:100B00002FF87460284670BD82B0002043F6400183
:100B10000190C4F202014A6842F480424A604A6885
:100B200002F480420192019A0090086840F08050DF
:100B30000860086800F080500090009802B070478C
:100B4000002848BF704700F01F01012202FA01F19E
:100B50004EF200124009CEF2000242F82010704717
:100B600010B54EF60C5CCEF2000CDCF80030C3F38E
:100B7000022E8EF00704042C28BF0424BEF10303C8
:100B80004FF0FF3E0EFA04F438BF0023A143994012
:100B90000EFA03F39A4300F00F03043B114363443E
:100BA00009010C3300F16042B0F1FF3FC8BF02F50C
:100BB0006443197010BD00004EF60C51CEF20001D6
:100BC0000A684FF6FF031A4060F30A2242F0806081
:100BD00040F0FD70086070472DE9F041002800F0FA
:100BE0008B8043F60808C4F202080446D8F8F803DC
:100BF0000D4600F00700884207D288F8F853D8F86D
:100C0000F80300F00700A84276D12068810717D5C5
:100C1000410705D5D8F8001041F4E051C8F800109C
:100C2000010705D5D8F8001041F46041C8F800105C
:100C3000D8F80010A26821F0F0011143C8F80010A4
:100C4000C0073FD1D8F8F80300F00700A84207D941
:100C500088F8F853D8F8F80300F00700A8424BD101
:100C60002068410707D5D8F80010E26821F4E05168
:100C70001143C8F80010000708D5D8F80000216912
:100C800020F4604040EAC100C8F8000000F07CF8A1
:100C9000D8F8001046F2FA02C1F30311C0F60002C0
:100CA000515C40F2100220FA01F140F20C00C2F255
:100CB00000000068C2F200021160FFF701FF00208F
:100CC000BDE8F0816068811E022907D258F8081C2F
:100CD00089015CBF0120BDE8F08110E0012807D147
:100CE00058F8081C89035CBF0120BDE8F08106E0CC
:100CF00058F8081C890702D40120BDE8F081D8F813
:100D0000001021F003010843C8F80000FFF7A8FE17
:100D1000064641F2883700BFD8F80000616800F04D
:100D20000C00B0EB810F8DD0FFF79AFE801BB8420C
:100D3000F2D90320BDE8F08140F2100043F608012B
:100D4000C2F20000C4F202010068096846F20A1209
:100D5000C1F38221C0F60002515CC8407047000018
:100D600040F2100043F60801C2F20000C4F2020192
:100D70000068096846F20A12C1F34231C0F6000267
:100D8000515CC8407047000010B543F60404C4F23B
:100D90000204606800F00C0142F200400829C0F231
:100DA000F40007D0042918BF10BD41F20020C0F2A2
:100DB0007A0010BD216801F03F02216823684902D2
:100DC000C3F3881105D4A1FB00010023FFF74CFAFF
:100DD00006E041F20020C0F27A004843B0FBF2F096
:100DE00021680222C1F3014102EB4101B0FBF1F0A5
:100DF00010BD00002DE9F04182B0002868D0044603
:100E0000007843F60006C007C4F202060BD0B068B3
:100E100000F00C00042840F0A0803068800302D568
:100E20006068002854D0207880071AD5B06810F088
:100E30000C0F09D0B06800F00C00082840F0B48016
:100E40007068400200F1B0803068800702D5E06829
:100E500001283DD13068216920F0F80040EAC10046
:100E600030602078000737D4207840074BD4A5693C
:100E700055B3B06800F00C00082840F0DA80012D6E
:100E800026D07068E16900F480028A4220D1216A8C
:100E900000F03F028A421BD147F6C071626A0140EE
:100EA000B1EB821F14D1A16A4FF6FF73C9039943B6
:100EB00000F44032A1F580318A4209D1E16A00F0A4
:100EC0007060B0EB016F03D1002002B0BDE8F0818B
:100ED000012002B0BDE8F0816069002840F2000006
:100EE000C4F2472000F091800121C0F8801EFFF776
:100EF000B7FD0546706F8007B6D4FFF7B1FD401B04
:100F00000228F7D991E0306C4FF00008C0000CD4F3
:100F1000CDF80480306C4FF0010840F08050306410
:100F2000306C00F080500190019847F20007C4F245
:100F300000073868C0054DD4386840F480703860C8
:100F4000FFF78EFD054600BF3868C00542D4FFF7A5
:100F500087FD401B0228F7D967E0B06800F00C005D
:100F6000082803D1706840023FF557AF6568B5F5B2
:100F7000803F07D03068B5F5A02F40F0B38040F433
:100F800080203060306840F480303060FFF768FDCA
:100F9000054600BF306880033FF545AFFFF760FDB1
:100FA000401B6428F6D940E0E068002864D00020A7
:100FB000C4F2472001210160FFF752FD054600BF42
:100FC000306880073FF546AFFFF74AFD401B022817
:100FD000F6D92AE0A568012D05D0306F052D5FD127
:100FE00040F004003067306F40F001003067FFF7D9
:100FF00037FD054641F28837306F800769D4FFF727
:101000002FFD401BB842F7D90FE00021C0F8801E29
:10101000FFF726FD054600BF706F80077FF524AF00
:10102000FFF71EFD401B0228F6D9032002B0BDE8E1
:10103000F0810027C4F2472700203866FFF710FD33
:10104000022D05460CD100BF3068800164D5FFF742
:1010500007FD401B02284FF00300F5D935E700BF1C
:10106000306880017FF530AFFFF7FAFC401B0228A3
:101070004FF00300F4D928E70020C4F247200021F4
:101080000160FFF7EDFC0546306880077FF5E9AEAB
:10109000FFF7E6FC401B02284FF00300F4D914E7E9
:1010A00020F001003067306F20F004003067FFF758
:1010B000D7FC002D05469DD141F28837306F80075F
:1010C00007D5FFF7CDFC401BB8424FF00300F5D920
:1010D000FBE6B8F1000F3FF4CAAE306C20F0805050
:1010E0003064C4E620F480303060306820F4802022
:1010F0003060FFF7B5FC002D05467FF44BAF07E0ED
:10110000FFF7AEFC401B64284FF003003FF6DDAE56
:1011100030688003F4D486E604F11C052FCD084323
:1011200040EA8210D9034FF6FF729143A1F5803156
:1011300040EA05600843706001203866FFF790FCC4
:10114000044600BF306880013FF5BEAEFFF788FC63
:10115000001B02284FF00300F4D9B6E6411E002020
:10116000B0EB116F1CBF012070474EF21002CEF29F
:10117000000251604EF62351CEF20001F0230B70B5
:1011800007219060116070477047000070470000B1
:1011900010B590F83C20012A4FF0020252D00123F2
:1011A00080F83C3080F83D200268D2F804E0D2F8A4
:1011B00008C00C682EF07003234341F2FF74C4F2A0
:1011C0000004A24253600DDC40F2FF73C4F200033E
:1011D0009A4215DCB2F1804F29D040F20043C4F2AC
:1011E000000322E040F2FF33C4F201039A4212DC12
:1011F00041F60003C4F200039A4218D0002312E023
:1012000040F60003C4F200039A4210D040F60043B7
:10121000C4F2000309E044F20003C4F201039A425D
:1012200005D040F20043C4F201039A4204D1496858
:101230002CF08003194391600121002280F83D10B9
:1012400080F83C20104610BD002804BF01207047E4
:1012500010B5044690F83D0028B9002084F83C0001
:10126000204600F01FF8022084F83D002068211D70
:1012700002F05EF8012084F8460084F83E0084F80D
:101280003F0084F8400084F8410084F8420084F86C
:10129000430084F8440084F8450084F83D000020B1
:1012A00010BD000080B582B0006840F6FF31C4F286
:1012B0000001884222DD40F60041C4F2000188426C
:1012C00036D041F20001C4F2000188424AD044F213
:1012D0000041C4F2010188420ED10020019043F682
:1012E0004000C4F20200416841F4003141604068AE
:1012F00000F400300190019802B080BDB0F1804F41
:101300004AD040F60001C4F200018842F4D1002026
:10131000019043F64000C4F20200016841F004016C
:101320000160006800F004000190019802B080BDE7
:101330000020019043F64000C4F202000168002240
:1013400041F0080101600068002100F008000190F0
:1013500001983220FFF704FC322002B0BDE8804043
:10136000FFF7EEBB0020019043F64000C4F20200FC
:101370000168002241F0100101600068012100F0C5
:101380001000019001983620FFF7EAFB362002B0EA
:10139000BDE88040FFF7D4BB0020019043F6400039
:1013A000C4F20200016841F001010160006800F030
:1013B00001000190019802B080BD000090F83D103E
:1013C00001291CBF01207047022180F83D100068F0
:1013D00041F2FF72C168C4F20002904241F0010183
:1013E000C1600DDC40F2FF71C4F20001884215DCDF
:1013F000B0F1804F29D040F20041C4F2000122E058
:1014000040F2FF31C4F20101884212DC41F60001D2
:10141000C4F20001884218D0002112E040F6000119
:10142000C4F20001884210D040F60041C4F200012D
:1014300009E044F20001C4F20101884205D040F203
:101440000041C4F20101884206D1816801F0070120
:10145000062904BF00207047016841F001010160C6
:101460000020704780B590F83C20012A4FF002021E
:1014700000F0C280012380F83C3080F83D20D0F895
:1014800000C04FF67772DCF8083023EA0202CCF88D
:1014900008200B684F2B28DC1F2B43DD202B44D06A
:1014A000302B42D0402B40F0A980D1F804E0C9682D
:1014B000DCF82030DCF8202022F00102CCF82020DB
:1014C000DCF8182022F0F00242EA011123F00A02AF
:1014D00042EA0E02CCF81810CCF82020DCF80810F4
:1014E00041F0470121F030017DE06F2B25DDB3F5A0
:1014F000005F46D0B3F5805F77D0702B7ED1D1E905
:1015000001E3C968DCF8082043EA0E0322F47F42B5
:1015100043EA01211143CCF80810DCF8081041F02F
:10152000770160E00BB1102B68D1DCF8081021F0D6
:101530007001194341F0070155E0502B34D0602B66
:101540005CD1D1F804E0C968DCF8203023F0100346
:10155000CCF82030DCF81830DCF8202023F470437D
:1015600022F0A00243EA013142EA0E12CCF8181030
:10157000CCF82020DCF8081041F0670121F01001C0
:1015800031E0D1E901E3C968DCF8082043EA0E0341
:1015900022F47F4243EA01211143CCF80810DCF821
:1015A000081041F480411EE0D1F804E0C968DCF87D
:1015B0002030DCF8202022F00102CCF82020DCF8DA
:1015C000182022F0F00242EA011123F00A0242EA56
:1015D0000E02CCF81810CCF82020DCF8081041F0EE
:1015E000570121F02001CCF808100022012180F8D9
:1015F0003D10002180F83C10104680BD0122F5E727
:10160000002804BF012070472DE9F047044690F8F8
:101610003D000D4628B9002084F83C00204600F02B
:1016200049F8022084F83D00206844F207028168EE
:1016300091438160211D01F07BFE20684FF6FF7809
:1016400081688269D0F820C0D5E9003ED5E9026AF8
:1016500043EA0109AB6922EA080246EA03234FF68E
:10166000FC46B343D5E9076742EA0A0229691A43EF
:1016700042EA062242EA01112CF0AA026B6942EA10
:101680000E0241EA073142EA0312C0F80890816174
:101690000262012084F8460084F83E0084F83F008E
:1016A00084F8420084F8430084F83D000020BDE83F
:1016B000F087000080B586B00021CDE90411CDE9A6
:1016C0000211006840F20042C4F20002904201910F
:1016D00030D00021C4F20101884258D1002043F6E5
:1016E00030010090C4F202014A6942F001024A61ED
:1016F0004A6902F001020092009A00900A6842F0E2
:1017000010020A60096801F01001009100994FF47D
:10171000206101910221CDE9021004900120059081
:101720000020C4F2020000F5805001A9FFF7AEF8D6
:1017300006B080BD43F630000091C4F20200026999
:1017400042F002020261026902F002020092009A73
:101750000091026842F001020260006800F001009E
:1017600000900098C02001900220CDE90201CDE94F
:1017700004100020C4F2020001A9FFF787F81D2021
:1017800000210022FFF7ECF91D20FFF7D9F906B080
:1017900080BD000080B590F83E2090F83F3090F872
:1017A00042E090F843C0042909D0B1B9012A4FF0B2
:1017B000010208BFBEF1010F32D0104680BD012BDF
:1017C0004FF0010208BFBCF1010FF6D1022180F8F1
:1017D0003F1080F8431000681EE0012A4FF001021C
:1017E00008BF012BE9D1BEF1010FE6D1BCF1010F19
:1017F000E3D1022280F83E2080F83F2080F842208A
:1018000080F8432089B10068016A21F0010101627A
:10181000016A41F00101016210216FF0100208E03D
:10182000022180F83E1080F84210006801216FF01C
:101830000102036A1A400262026A114301620168EE
:10184000002241F001010160104680BD7047000098
:1018500010B5016804460869800744BFC8685FEA9C
:10186000807038D40869400744BFC8685FEA407098
:101870003DD40869000744BFC8685FEA007043D4DC
:101880000869C00644BFC8685FEAC06048D40869F8
:10189000C0071CBFC8685FEAC0704ED10869000667
:1018A00044BFC8685FEA00604FD40869400644BF7F
:1018B000C8685FEA406050D40869800646BFC868BF
:1018C0005FEA806010BD6FF0200220460A61BDE82B
:1018D0001040FFF75BBC6FF0020008610120207729
:1018E0008869800741D02046FFF7B0FF43E06FF0E2
:1018F0000400086102202077886910F4407F3ED000
:101900002046FFF7A3FF40E06FF0080008610420C5
:101910002077C86980073CD02046FFF797FF3EE05C
:101920006FF01000086108202077C86910F4407F2C
:1019300039D02046FFF78AFF3BE06FF001000861D5
:10194000204600F01FFC2168A8E76FF080000861C6
:101950002046FFF719FC2168A7E76FF040000861F7
:10196000204600F011FC2168A6E7204600F0E2F9CD
:10197000204600F069FB21680020207772E72046AE
:1019800000F0D8F9204600F05FFB216800202077A6
:101990006FE7204600F0CEF9204600F055FB2168A5
:1019A000002020776CE7204600F0C4F9204600F0C4
:1019B0004BFB21680020207769E700002DE9F0410A
:1019C00086B0006840F6FF31C4F2000188424FF053
:1019D00000010591CDE90311CDE9011130DD40F69B
:1019E0000041C4F20001884251D044F20001C4F227
:1019F0000101884265D044F20041C4F201018842ED
:101A000040F0BB80002043F630010090C4F2020198
:101A10000A6842F002020A60096801F002010091BE
:101A200000994FF4807101910221CDE902100490D8
:101A3000032005900020C4F2020000F5806099E0C8
:101A4000B0F1804F5AD040F60001C4F20001884244
:101A500040F09380002043F630010090C4F2020170
:101A60000A6842F008020A60096801F00801009162
:101A700000994FF4704101910221CDE90210CDE9A6
:101A800004010020C4F2020000F5406072E0002072
:101A900043F630010090C4F202010A6842F00102EC
:101AA0000A60096801F0010100910099012101918A
:101AB0000221CDE902100020CDE90411C4F2020098
:101AC00058E0002043F630010090C4F202010A6899
:101AD00042F010020A60096801F0100100910099BB
:101AE000602101910221CDE90210049003200590AC
:101AF0000020C4F2020000F580503BE0002643F6CF
:101B000030000096C4F202000168002441F0010197
:101B100001600168C4F2020401F001010091009922
:101B2000009601680DF1040841F0020101600068AF
:101B3000022700F00200009000980125204641464F
:101B4000CDE90177CDE903670595FEF79FFE2420D7
:101B5000CDE9010720464146CDE903660595FEF72C
:101B600095FE4FF40060CDE90107CDE903660595C8
:101B700004F5806001A9FEF789FE06B0BDE8F0819A
:101B8000F0B590F83C30012B04BF0220F0BD4FEAC5
:101B9000B2020123032A80F83C3000F2C680DFE85D
:101BA00002F00234699E0268136A23F00103136293
:101BB000136AD2F804E095690C6825F073058E6805
:101BC00045EA040C40F2004523F0020342F480642D
:101BD000C4F20105AC4243EA060305D1CE6823F006
:101BE0000C0326F004063343AC4206D1D1E9055478
:101BF0002EF440762E4346EA040EC2F804E0C2F802
:101C000018C04968516313628EE00268136A42F497
:101C1000806423F010031362136AD2F804E096691B
:101C20000D6826F4E6468F6846EA052C40F200452A
:101C300023F02003C4F20105AC4243EA071307D1A5
:101C4000CE686FF0400723F0C00307EA061633435F
:101C5000AC4207D1D1E905652EF4406747EA860713
:101C600047EA850EC2F804E0C2F818C049689163DB
:101C7000136259E00268136A42F4806423F48073AB
:101C80001362136AD2F804E0D7690E6827F073076D
:101C90008D6847EA060C40F2004623F40073C4F254
:101CA0000106B44243EA052307D1CD6840F2FF475D
:101CB0002D0223F44063BD432B43B44207D1D1E945
:101CC00005652EF4405747EA061747EA051EC2F895
:101CD00004E0C2F81CC04968D163136224E00268C2
:101CE00040F20044136A42F4806523F48053136287
:101CF000D2F820C05368D669C4F20104A5420D6829
:101D000026F4E6468F6846EA05242CF4005646EA97
:101D1000073504D14F6923F4804343EA87135360A6
:101D2000D4614968116415620023002180F83C10D9
:101D30001846F0BD70470000002804BF012070471E
:101D400010B5044690F83D0028B9002084F83C0006
:101D5000204600F01FF8022084F83D002068211D75
:101D600001F0E6FA012084F8460084F83E0084F889
:101D70003F0084F8400084F8410084F8420084F871
:101D8000430084F8440084F8450084F83D000020B6
:101D900010BD0000704700002DE9F04190F83C3084
:101DA000012B04BF0220BDE8F0814FEAB2020123FB
:101DB000032A80F83C3000F2F780DFE802F0023FAF
:101DC0007FC003681A6A22F001021A621A461C6A6E
:101DD000D3F804C052F8186F0D6826F073068F68A8
:101DE00046EA050E40F2004624F0020443F4806502
:101DF000C4F20106B54244EA070405D1CF6824F0D5
:101E00000C0427F004073C43B54206D1D1E905652F
:101E10002CF44077374347EA050CC3F804C0C3F8F5
:101E200018E04F6809695F631C629F6947F0080703
:101E30009F619F6927F004079F61B1E0036840F24A
:101E400000481A6AC4F2010822F010021A621A4607
:101E50001D6AD3F804C052F8187F0E6827F4E647CD
:101E60008C6847EA062E25F0200743F48065454537
:101E700047EA041407D1CF686FF0400624F0C0048D
:101E800006EA07163443454507D1D1E905652CF428
:101E9000406747EA860747EA850CC3F804C0C3F8E1
:101EA00018E04F6809699F631C629F6947F40067E7
:101EB0009F619F6927F480679F6170E0036840F22B
:101EC00000481A6AC4F2010822F480721A621A46A3
:101ED0001D6AD3F804C052F81C7F0E6827F0730700
:101EE0008C6847EA060E25F4007743F48065454583
:101EF00047EA042408D1CF6840F2FF463F0224F4A9
:101F0000406427EA06063443454507D1D1E9056513
:101F10002CF4405747EA061747EA051CC3F804C0EB
:101F2000C3F81CE04F680969DF631C62DF6947F092
:101F30000807DF61DF6927F00407DF6130E003682D
:101F400040F200471A6A43F4806522F480521A6214
:101F50001A46D3F820C05C6852F81C6FC4F201071F
:101F6000BD420F6826F4E6468D6846EA07272CF442
:101F7000005646EA053604D14D6924F4804444EA0B
:101F800085145C60DF614F6809691F641E62DF6948
:101F900047F40067DF61DF6927F48067DF610902CA
:101FA0001368194300231160002180F83C10184683
:101FB000BDE8F081002804BF0120704710B5044639
:101FC00090F83D0028B9002084F83C00204600F03D
:101FD0001FF8022084F83D002068211D01F0A8F9B7
:101FE000012084F8460084F83E0084F83F0084F81D
:101FF000400084F8410084F8420084F8430084F8EB
:10200000440084F8450084F83D00002010BD000025
:1020100081B0006844F20001C4F20101884201D09D
:1020200001B070470020009043F64400C4F2020063
:10203000016841F480310160006800F48030009054
:10204000009801B0704700007047000041B10829B6
:1020500009D0042914BF00F1410200F13F0204E05D
:1020600000F13E0201E000F140021278012A1CBF9B
:1020700001207047022241B1082909D0042914BF68
:1020800080F8412080F83F2004E080F83E2001E005
:1020900080F84020006801F01F010122036A02FA63
:1020A00001F123EA01020262026A0A4341F2FF716E
:1020B000C4F20001884202620FDC40F2FF71C4F2F8
:1020C000000188421BDCB0F1804F4DD040F200414E
:1020D000C4F20001884247D04DE040F2FF32C4F222
:1020E0000102904218DC41F60003C4F2000398425A
:1020F0003AD00023C4F20103984219D03BE040F6E5
:102100000001C4F2000188422ED040F60041C4F222
:102110000001884228D02EE044F20003C4F20103FB
:10212000984221D040F20043C4F20103984222D1E8
:10213000436C884243F400434364BEDD904207DCB5
:1021400041F60001C4F2000188420DD0002107E0F1
:1021500044F20001C4F20101884205D040F200417E
:10216000C4F20101884206D1816801F00701062905
:1021700004BF00207047016841F0010101600020A8
:102180007047000070470000704700007047000073
:1021900070470000F0B581B0044600680168C2686D
:1021A000456901F02F03202B02F0200306D12BB14B
:1021B000204601B0BDE8F04002F02ABB5FEA017C96
:1021C00007D005F0010E12F4907F8EF001052FD19B
:1021D00075B3236B1140CA0618D5012B16D1002107
:1021E0000091016800914168009100994169490698
:1021F00000F18281A18DE28DE38D002B1CBF891A35
:102200005FEA014240F0FD8001B0F0BD0A0600F136
:102210002B824906F8D5C16821F04001C160202118
:10222000204684F83D1001B0BDE8F04000F01ABB34
:10223000CE0718BF12F4807603D0266C46F0010654
:10224000266401F00407012686EA97072F4303D18D
:10225000276C47F00207276401F0020786EA570659
:10226000354303D1256C45F00405256453EA0E037C
:1022700018BF0123BCF1000F04D51BB1236C43F040
:1022800008032364236C002BBED01140890603D5BC
:10229000204602F0BDFA20684169226C01F040013D
:1022A00002F00802891800F0F08100BF50E8030F27
:1022B000216820F4907041E80302C2B3206850E81E
:1022C000030F216820F4907041E803027AB320687C
:1022D00050E8030F216820F4907041E8030232B304
:1022E000206850E8030F216820F4907041E8030251
:1022F000EAB12068DAE700BF206850E8050F2168DE
:1023000020F0010041E80502DAB1206850E8050F2D
:10231000216820F0010041E8050292B1206850E8F0
:10232000050F216820F0010041E805024AB120684C
:1023300050E8050F216820F0010041E80502002A5D
:10234000DAD1206B012824D1206850E8030F2168DE
:1023500020F0100041E80302DAB1206850E8030FD2
:10236000216820F0100041E8030292B1206850E893
:10237000030F216820F0100041E803024AB12068F1
:1023800050E8030F216820F0100041E80302002A02
:10239000DAD1202084F83E000020206320684169C3
:1023A000490640F18B8150E8050F216820F040007C
:1023B00041E80502002A00F06F81206850E8050F0F
:1023C000216820F0400041E80502002A00F0648105
:1023D000206850E8050F216820F0400041E8050220
:1023E000002A00F05981206850E8050F216820F08C
:1023F000400041E80502002A00F04E812068D2E743
:10240000206850E8030F226820F4907042E803032C
:10241000BBB3206850E8030F226820F4907042E8B4
:10242000030373B3206850E8030F226820F4907010
:1024300042E803032BB3206850E8030F226820F41E
:10244000907042E80303002BDAD11AE0206850E8CC
:10245000050F226820F0010042E80503DBB1206887
:1024600050E8050F226820F0010042E8050393B10F
:10247000206850E8050F226820F0010042E80503BB
:102480004BB1206850E8050F226820F0010042E8B7
:102490000503002BDAD1202084F83E0000202063C1
:1024A000206850E8030F226820F0100042E8030380
:1024B000DBB1206850E8030F226820F0100042E8EA
:1024C000030393B1206850E8030F226820F0100046
:1024D00042E803034BB1206850E8030F226820F064
:1024E000100042E80303002BDAD189B2204601B084
:1024F000BDE8F040FFF74ABEA26B11684B689EB280
:10250000002E3FF481AEA18D8E42BFF47DAEE385F7
:10251000D269B2F5807F00F09E8050E8030F2168F9
:1025200020F4807041E80302E2B1206850E8030F14
:10253000216820F4807041E803029AB1206850E8D5
:10254000030F216820F4807041E8030252B1206833
:1025500050E8030F216820F4807041E803020AB1BB
:102560002068DAE7206850E8050F216820F00100B4
:1025700041E80502BAB3206850E8050F216820F051
:10258000010041E8050272B3206850E8050F216898
:1025900020F0010041E805022AB3206850E8050F49
:1025A000216820F0010041E80502002ADAD11AE092
:1025B000206850E8050F216820F0400041E805023E
:1025C000DAB1206850E8050F216820F0400041E8AA
:1025D000050292B1206850E8050F216820F0400004
:1025E00041E805024AB1206850E8050F216820F053
:1025F000400041E80502002ADAD1202084F83E009C
:1026000000202063206850E8030F216820F01000AC
:1026100041E80302DAB1206850E8030F216820F096
:10262000100041E8030292B1206850E8030F2168CE
:1026300020F0100041E803024AB1206850E8030F7F
:10264000216820F0100041E80302002ADAD1A06BD3
:10265000FDF708FFA18DE08D081A81B2204601B078
:10266000BDE8F040FFF792BD94F83D1021297FF4BA
:10267000CBADA168B1F5805F01D1216921B3216A99
:102680004A1C22620978416025E02046FFF780FD60
:102690000020206401B0F0BDA06B78B144F60501C4
:1026A000C0F600010165FDF725FF00283FF4ACAD41
:1026B000A06B016D01B0BDE8F0400847204601B0B5
:1026C000BDE8F040FFF764BD216A31F8022B6FF3DB
:1026D0005F2242602162E18C01390A04E1847FF4C7
:1026E00093ADC16821F08001C160C16841F0400133
:1026F000C16001B0F0BD0000002804BF0120704798
:1027000010B5044690F83D0028B9002084F83C003C
:10271000204600F021F8242084F83D002068C1689C
:1027200021F40051C160204602F0F0F820680169F0
:1027300021F490410161416921F02A014161C168A0
:1027400041F40051C16000202021206484F83D1034
:1027500084F83E1010BD00002DE9F04786B0002639
:1027600004460596CDE9036641F200402168C4F2B3
:10277000010081420296019602D006B0BDE8F087C2
:1027800043F630010096C4F202014A6946F2284835
:1027900042F020024A614A6900F5744002F02002CA
:1027A0000092009A00960A68C4F2020842F00402FD
:1027B0000A60096801F0040100910099C0210191AB
:1027C0000221CDE90216032104910821059101A9F6
:1027D000FEF75CF840F2AC05C2F200054FF0206A4B
:1027E0004FF480694FF48070C5E9008AC5E902663C
:1027F000C5E90496C5E906604FF480372846C5E967
:102800000876FDF769FF002818BFFDF725FEA563D0
:10281000AC6340F20C1508F17800C2F200054021CB
:10282000C5E9000A05F10800002280E806022846F2
:10283000C5E90522C5E907276A62FDF74DFF0028B3
:1028400018BFFDF709FE4720022100226563AC6333
:10285000FEF786F94720FEF773F906B0BDE8F0876A
:102860007047000070470000FEE7000040F28C2037
:10287000C2F2000000684FF47A71416370470000B3
:1028800040F28C20C2F2000000684FF49661816330
:102890007047000040F28C20C2F2000000684FF444
:1028A000FA71C1637047000040F2FC10C2F20000F0
:1028B00000684FF49661C1637047000040F28C20BD
:1028C000C2F20000006840F28A21016470470000F3
:1028D00040F28C20C2F20000006840F6980141638B
:1028E0007047000040F28C20C2F20000006840F601
:1028F000340181637047000040F28C20C2F2000076
:10290000006840F2DC51C1637047000040F2FC10E7
:10291000C2F20000006840F69801C16370470000F1
:1029200040F28C20C2F2000000684FF4C8610164DC
:102930007047000080B582B00020019043F630005F
:10294000C4F202000168002241F4800101600068C5
:10295000002100F48000019001983920FEF700F971
:102960003920FEF7EDF8452000210022FEF7F8F8A7
:10297000452002B0BDE88040FEF7E2B82DE9F04FF7
:1029800087B0002543F63000CDE905550195C4F226
:102990000200016840F2004A41F010010160016844
:1029A000C4F2020A01F01001019101990195016838
:1029B000AAF5806441F0800101600168002201F005
:1029C00080010191019901950168182641F00101EA
:1029D0000160016801F0010101910199019501680F
:1029E00041F004010160016801F0040101910199C5
:1029F0000195016841F002010160016801F00201E6
:102A0000019101990195016841F008010160006898
:102A1000182100F00800019001982046FEF71AF8EE
:102A20000AF58068404630210022FEF713F8504630
:102A300047F287010022FEF70DF80AF500694846C3
:102A400004210022FEF706F8102002904FF4041033
:102A500002AF03904FF0010B0AF540603946CDF804
:102A600010B0FDF713FFCDE9026B02262046394670
:102A7000CDF810B00596FDF709FF3020CDE9020B27
:102A800040463946CDE90466FDF700FF0720CDE951
:102A9000020B50463946CDE90466FDF7F7FE4FF4C8
:102AA000E140CDE9020B50463946CDE90455FDF72A
:102AB000EDFE48F22800CDE902055046394604955E
:102AC000FDF7E4FE40F2BA70CDE90205484639460A
:102AD0000495FDF7DBFE4FF4E050CDE902054046DA
:102AE00039460495FDF7D2FE0420CDE9020B484695
:102AF0003946CDE90455FDF7C9FE0A200021002220
:102B0000FEF72EF80A20FEF71BF807B0BDE8F08F9D
:102B100080B588B040F2B41044F200420021C2F205
:102B20000000C4F20102472344F61F6C0791CDE96F
:102B30000511CDE90311CDE90111C0E90023C0E978
:102B4000021C01618161FEF77FFB002818BFFDF7C1
:102B500083FC40F2B410C2F20000FFF72BFA002809
:102B600018BFFDF779FC602001900020CDE902003C
:102B7000059040F2B410C2F2000001A90022FFF754
:102B80000BF9002818BFFDF767FC40F2B410C2F241
:102B90000000FEF713FF08B080BD000010B58CB038
:102BA00040F26C1000210024C2F20000C4F20101C6
:102BB000C0E900140321CDE90314012144F6206289
:102BC000CDE90514CDE90744CDE9091403A9CDE900
:102BD0000044C0E90242C0E9044484610B94FEF75A
:102BE0000FFD002818BFFDF737FC40F26C10C2F251
:102BF00000006946CDE90044FEF7CAFA002818BF74
:102C0000FDF72AFC0CB010BD10B58EB040F2FC10E0
:102C10000021C2F200004FF08042472344F61F64B7
:102C20000D91CDE90B11CDE90911CDE90711CDE9E0
:102C30000511CDE90311CDE90111C0E90023C0E977
:102C4000021401618161FEF7FFFA002818BFFDF749
:102C500003FC4FF480500A9040F2FC10C2F20000D6
:102C60000AA9FEF7FFFB002818BFFDF7F5FB40F2AD
:102C7000FC10C2F20000FFF79DF9002818BFFDF715
:102C8000EBFB40F2FC10C2F20000FFF755F8002801
:102C900018BFFDF7E1FB40F2FC100024C2F2000077
:102CA00008A9CDE90844FEF773FA002818BFFDF71C
:102CB000D3FB6020CDE9010440F2FC10C2F2000019
:102CC00001A9002203940594FFF766F8002818BFB5
:102CD000FDF7C2FB40F2FC10C2F2000001A9042281
:102CE000FFF75AF8002818BFFDF7B6FB40F2FC10BA
:102CF000C2F2000001A90822FFF74EF8002818BF11
:102D0000FDF7AAFB0020019040F2FC10C2F2000087
:102D100001A90C22FEF734FF002818BFFDF79CFB29
:102D200040F2FC10C2F20000FEF748FE0EB010BDEB
:102D300010B58CB040F2442040F200410024C2F2B1
:102D40000000C4F20001C0E900140321CDE903141E
:102D5000012144F62062CDE90514CDE90744CDE90F
:102D6000091403A9CDE90044C0E902420461846169
:102D70000B94FEF745FC002818BFFDF76DFB40F2F1
:102D80004420C2F200006946CDE90044FEF700FA93
:102D9000002818BFFDF760FB0CB010BD10B58EB059
:102DA00040F28C2040F600020021C2F20000C4F282
:102DB0000002472344F61F640D91CDE90B11CDE9C4
:102DC0000911CDE90711CDE90511CDE90311CDE9CF
:102DD0000111C0E90023C0E9021401618161FEF71D
:102DE00033FA002818BFFDF737FB4FF480500A90E4
:102DF00040F28C20C2F200000AA9FEF733FB002843
:102E000018BFFDF729FB40F28C20C2F20000FFF74B
:102E1000D1F8002818BFFDF71FFB40F28C200024DA
:102E2000C2F2000008A9CDE90844FEF7B1F9002874
:102E300018BFFDF711FB6020CDE9010440F28C20A2
:102E4000C2F2000001A9002203940594FEF7A4FF3A
:102E5000002818BFFDF700FB40F28C20C2F20000F2
:102E600001A90422FEF798FF002818BFFDF7F4FA25
:102E700040F28C20C2F2000001A90822FEF78CFF6C
:102E8000002818BFFDF7E8FA40F28C20C2F20000DB
:102E900001A90C22FEF780FF002818BFFDF7DCFA1D
:102EA00040F28C20C2F20000FEF788FD0EB010BD8B
:102EB00010B58EB040F2D42040F600420021C2F29C
:102EC0000000C4F20002472344F61F640D91CDE9CF
:102ED0000B11CDE90911CDE90711CDE90511CDE9B6
:102EE0000311CDE90111C0E90023C0E90214016119
:102EF0008161FEF7A9F9002818BFFDF7ADFA4FF47C
:102F000080500A9040F2D420C2F200000AA9FEF7D5
:102F1000A9FA002818BFFDF79FFA40F2D420C2F2A8
:102F20000000FFF747F8002818BFFDF795FA40F2B8
:102F3000D4200024C2F2000008A9CDE90844FEF71D
:102F400027F9002818BFFDF787FA6020CDE90104B2
:102F500040F2D420C2F2000001A90022039405949B
:102F6000FEF71AFF002818BFFDF776FA40F2D420CA
:102F7000C2F20000FEF722FD0EB010BD10B582B007
:102F800040F21C3041F200010024C2F20000C4F201
:102F9000000142F20F73CDE9004440F2CF2280E8F5
:102FA0001600C3608461FEF74FF9002818BFFDF7D3
:102FB00053FA40F21C30C2F200006946CDE90044E9
:102FC000FEF7E6F8002818BFFDF746FA02B010BD7C
:102FD00010B588B040F2643044F200010024C2F21F
:102FE0000000C4F2010142F20F730794CDE90544D9
:102FF000CDE90344CDE90144472280E81600C0E949
:1030000003348461FEF7D6FF002818BFFDF724FAC9
:103010006020CDE9010440F26430C2F2000001A951
:10302000002203940594FEF7B7FE002818BFFDF7B1
:1030300013FA40F26430C2F2000001A90422FEF744
:10304000ABFE002818BFFDF707FA40F26430C2F269
:103050000000FEF7B3FC08B010BD000080B540F2E0
:10306000AC3041F20041C2F20000C4F20101002381
:103070004FF00C0C4FF4E13280E80E00C0E903334E
:10308000C0E905C3C361FFF737FB002808BF80BD57
:10309000BDE88040FDF7E0B9FEE70000FEE7000074
:1030A000002857D0D0E90F31C0E91031027880ED07
:1030B000070A30EEC00A002A01EE103AC0ED060AF7
:1030C00080ED0F0A49D0012A40F0918090ED015A1D
:1030D00090ED026A30EE414A25EE044A20EE065A8F
:1030E00080ED094A80ED0A5A03EE101AD0E90C125D
:1030F00031EE011A90ED037A30EE410A90ED042A88
:10310000C0E90D1230EE030A80ED0C0A20EE070A2A
:1031100034EE051A90ED083A80ED0B0A31EE000A04
:1031200033EE000AB4EE420AF1EE10FA80ED080A1E
:10313000C2BF80ED082AB0EE420A7047B1EE421AD3
:10314000B4EE410AF1EE10FABCBF80ED081AB0EE01
:10315000410A70479FED270A704790ED024A90EDB3
:10316000012A90ED0A6A20EE044A20EE022A36EE89
:10317000044A90ED053A80ED092A80ED0A4A90ED67
:10318000035AD0E90C1230EE410AB4EE434AC0E9CA
:103190000D1280ED0C0A20EE050AF1EE10FA80ED1A
:1031A0000B0A06DCB1EE433AB4EE434AF1EE10FAF4
:1031B00003DAB0EE434A80ED0A3A32EE042A90ED8B
:1031C000041A30EE020AB4EE410AF1EE10FA80ED74
:1031D000080A07DCB1EE411AB4EE410AF1EE10FA2A
:1031E000A8BF7047B0EE410A80ED081A704790ED15
:1031F000080A704700000000002808BF704780B52B
:1032000018303021FDF7A8F8BDE880407047000075
:10321000002818BF002A00D1704780B513680170DC
:103220004360536828218360926880ED040AC2607D
:10323000C0ED050A2030FDF78FF8BDE880407047EB
:103240007047000070470000FDF710BCB0B592B0A9
:10325000002443F64000CDE90A44CDE90844059432
:10326000CDE90344CDE901440094C4F202000168B1
:10327000022541F080510160006800F0805000900C
:10328000009847F200000094C4F20000016841F485
:10329000804101600068482100F48040009000985F
:1032A000012006904FF4803007904FF480000D907D
:1032B00004200C950E90CDE90F15119006A8FDF78E
:1032C00099FD20B1EFF3108072B600BFFEE70F202A
:1032D000CDE901054FF480500394CDE9040401A821
:1032E0000221FDF779FC20B1EFF3108072B600BF28
:1032F000FEE712B0B0BD00004EF68850CEF20000DE
:10330000016841F4700101607047000040F2442000
:10331000C2F20000FEF79CBA40F2D420C2F20000D4
:10332000FEF796BA40F21C30C2F20000FEF790BAE7
:1033300010B540F6FF3E0368C4F2000E40F2004CA8
:103340007045C4F2010C26DCB0F1804F30D040F261
:103350000042C4F2000290422AD040F60002C4F2B9
:103360000002904224D041F6FF72C4F20002904263
:1033700028DC70453ADCB0F1804F5CD040F200426E
:10338000C4F20002904256D040F60002C4F200029D
:10339000904250D053E040F60042C4F20002904206
:1033A00006D0604504D00022C4F201029042DAD176
:1033B0004A6823F07003134341F6FF72C4F200021F
:1033C0009042D6DD43F6FF72C4F20102904220DC47
:1033D00042F20002C4F2000290422CD00022C4F259
:1033E0000102904227D0604525D028E040F60042F7
:1033F000C4F2000290421ED041F60002C4F2000264
:10340000904218D041F60042C4F20002904212D01D
:1034100015E044F20002C4F2010290420BD044F6DF
:103420000002C4F20102904205D044F20042C4F20C
:103430000102904203D1CA6823F44073134323F07E
:1034400080024B69D1F800E08C681A430260C462C4
:1034500040F48062C0F828E0624504BF0969016356
:103460000121416110BD00002DE9F04F81B02DED2B
:10347000048B82B040F2F038C2F2000840F6004BF4
:103480004046C4F2020BFFF7B7FE08F1480420469D
:10349000FFF7B2FE40F2780A9FED878A9FED879A88
:1034A000C2F2000A002046F21C12CAE90500C0F66A
:1034B000000240460021B0EE480AF0EE490AFFF74C
:1034C000A7FE46F22812C0F6000220460021B0EE08
:1034D000480AF0EE490A0194FFF79AFE2424ABF55E
:1034E000006944F620660027C4F2010408E000BF2A
:1034F0001E213220AAF80A00AAF80C1001F0B8FA2E
:1035000040F22442C4F20002106842F2107C81B200
:10351000614588BF301ADAF81410AAF8020001FADF
:1035200080F1CAF814101760DAF81810BAF90420FC
:10353000BAF90A301144CAF81810216802B28DB2E3
:1035400000EE102A01EE103A654588BF711AAAF8FC
:103550000010AAF804102760AAF80600AAF80810BC
:10356000B8EEC00AF8EEC10A4046FFF799FDBAF975
:103570000800BAF90C1000EE100A01EE101AB8EEAD
:10358000C00AF8EEC10A0198FFF78AFD98ED080A13
:1035900098ED1A1A44F23400BCEEC00AC4F20100DD
:1035A00080ED000ABCEEC10A80ED010A3220FDF771
:1035B00041F948464FF40041FDF746FA012806D08C
:1035C00058464FF48071FDF73FFA01280BD1DAF825
:1035D000140041F27C51884266DCDAF8180041F2AE
:1035E0007D51884260DA48462021FDF72DFA58B90E
:1035F00058460821FDF728FA012805D15846102120
:10360000FDF722FA90B100BF48462021FDF71CFAD1
:1036100001280FD158460821FDF716FA012809D1D3
:1036200058461021FDF710FA012803D1322032212B
:1036300060E700BF48462021FDF706FA01280BD1BC
:1036400058460821FDF700FA30B958461021FDF719
:10365000FBF900283FF44CAF58460221FDF7F4F97E
:1036600001283FF445AF48462021FDF7EDF968B940
:1036700058460821FDF7E8F940B958461021FDF7F2
:10368000E3F9012802D132211E2033E758462021D8
:10369000FDF7DAF901284FF03C004FF03C0108BF7C
:1036A0001E2008BF322125E702B0BDEC048B01B01B
:1036B000BDE8F04F01F0C0B900803B450000C842B2
:1036C0002DE9F04F81B02DED048B82B040F2F03443
:1036D000C2F200042046FFF78FFD04F1480528469A
:1036E000FFF78AFD40F278069FED4E8A9FED4E9AD5
:1036F000C2F200064FF0281046F21C12C6F80A006B
:10370000C0F6000220460021B0EE480AF0EE490A59
:10371000FFF77EFD46F22812C0F60002284600217F
:10372000B0EE480AF0EE490A0195FFF771FDB6F9CF
:103730000210B6F90400B1F5DC7F7161B061A8BF79
:10374000B0F5DC7F63DA44F2340A40F2240B40F235
:103750002449C4F2010AC4F2010BC4F2000944F680
:10376000206542F210780027D9F8000081B2414567
:1037700088BF281A7080C9F80070DBF8001002B208
:103780008BB200EE102A434588BF691A3180B180A0
:10379000CBF80070F0803181B8EEC00AB6F90A00AB
:1037A00001EE100AF8EEC10A2046FFF779FCB6F9DF
:1037B0000800B6F90C1000EE100A01EE101AB8EE6F
:1037C000C00AF8EEC10A0198FFF76AFC94ED080AF6
:1037D00094ED1A1ABCEEC00A8AED000ABCEEC10ACA
:1037E00032208AED010AFDF725F801F009F9706928
:1037F000B6F90210B6F904200144B069B1F5DC7FD6
:1038000010447161B061AFDBB0F5DC7FACDB002050
:10381000C6E9050002B0BDEC048B01B0BDE8F04F75
:1038200001F00AB900803B450000C8422DE9F04F85
:1038300081B02DED048B82B040F2F038C2F2000866
:1038400040F6004B4046C4F2020BFFF7D5FC08F1EE
:1038500048042046FFF7D0FC40F2780A9FED868AA4
:103860009FED869AC2F2000A002046F21C12CAE9B5
:103870000500C0F6000240460021B0EE480AF0EE16
:10388000490AFFF7C5FC46F22812C0F6000220469E
:103890000021B0EE480AF0EE490A0194FFF7B8FCA7
:1038A0002424ABF5006944F620660027C4F2010425
:1038B00008E000BF19213C20AAF80A00AAF80C1061
:1038C00001F0D6F840F22442C4F20002106842F23D
:1038D000107C81B2614588BF301ADAF81410AAF85A
:1038E000020001FA80F1CAF814101760DAF8181013
:1038F000BAF90420BAF90A301144CAF8181021683C
:1039000002B28DB200EE102A01EE103A654588BF72
:10391000711AAAF80010AAF804102760AAF8060085
:10392000AAF80810B8EEC00AF8EEC10A4046FFF740
:10393000B7FBBAF90800BAF90C1000EE100A01EE54
:10394000101AB8EEC00AF8EEC10A0198FFF7A8FBFA
:1039500098ED080A98ED1A1A44F23400BCEEC00A39
:10396000C4F2010080ED000ABCEEC10A80ED010A3C
:103970003220FCF75FFF48464FF40041FDF764F842
:10398000012806D058464FF48071FDF75DF80128F4
:1039900009D1DAF81400B0F5966F62DCDAF8180095
:1039A000B0F5966F5DDC48462021FDF74DF858B91B
:1039B00058460821FDF748F8012805D1584610213E
:1039C000FDF742F890B100BF48462021FDF73CF8D2
:1039D00001280FD158460821FDF736F8012809D1F2
:1039E00058461021FDF730F8012803D13C203C2136
:1039F00062E700BF48462021FDF726F801280BD1D9
:103A000058460821FDF720F830B958461021FDF737
:103A10001BF800283FF44EAF58460221FDF714F87A
:103A200001283FF447AF48462021FDF70DF868B95B
:103A300058460821FDF708F840B958461021FDF70F
:103A400003F8012802D13C21192035E758462021EE
:103A5000FCF7FAFF3C2101284FF03C0008BF192079
:103A60002AE70020CAE9050002B0BDEC048B01B0D2
:103A7000BDE8F04F00F0E0BF00803B450000C842C9
:103A80002DE9F04F81B02DED048B82B040F2F0387B
:103A9000C2F2000840F6004B4046C4F2020BFFF7AA
:103AA000ABFB08F148042046FFF7A6FB40F2780A7A
:103AB0009FED858A9FED859AC2F2000A002046F2AA
:103AC0001C12CAE90500C0F6000240460021B0EE13
:103AD000480AF0EE490AFFF79BFB46F22812C0F6AF
:103AE000000220460021B0EE480AF0EE490A019497
:103AF000FFF78EFB2424ABF5006944F6206600270F
:103B0000C4F2010408E000BF19213C20AAF80A0011
:103B1000AAF80C1000F0ACFF40F22442C4F20002FC
:103B2000106842F2107C81B2614588BF301ADAF821
:103B30001410AAF8020001FA80F1CAF814101760F4
:103B4000DAF81810BAF90420BAF90A301144CAF8A0
:103B50001810216802B28DB200EE102A01EE103A60
:103B6000654588BF711AAAF80010AAF804102760EA
:103B7000AAF80600AAF80810B8EEC00AF8EEC10AC2
:103B80004046FFF78DFABAF90800BAF90C1000EEBA
:103B9000100A01EE101AB8EEC00AF8EEC10A019838
:103BA000FFF77EFA98ED080A98ED1A1A44F23400ED
:103BB000BCEEC00AC4F2010080ED000ABCEEC10AEE
:103BC00080ED010A3220FCF735FE48464FF40041F3
:103BD000FCF73AFF012806D058464FF48071FCF7F5
:103BE00033FF012809D1DAF81400B0F52F7F62DC29
:103BF000DAF81800B0F52F7F5DDC48462021FCF78D
:103C000023FF58B958460821FCF71EFF012805D1AB
:103C100058461021FCF718FF90B100BF48462021FC
:103C2000FCF712FF01280FD158460821FCF70CFFC2
:103C3000012809D158461021FCF706FF012803D1BD
:103C40003C203C2162E700BF48462021FCF7FCFEF7
:103C500001280BD158460821FCF7F6FE30B958462A
:103C60001021FCF7F1FE00283FF44EAF5846022128
:103C7000FCF7EAFE01283FF447AF48462021FCF755
:103C8000E3FE68B958460821FCF7DEFE40B9584605
:103C90001021FCF7D9FE012802D13C21192035E77B
:103CA00058462021FCF7D0FE3C2101284FF03C0073
:103CB00008BF19202AE702B0BDEC048B01B0BDE8B3
:103CC000F04F00F0B9BE00BF00803B450000C84285
:103CD0002DE9F04F81B02DED048B82B040F2F03829
:103CE000C2F2000840F6004B4046C4F2020BFFF758
:103CF00083FA08F148042046FFF77EFA40F2780A7A
:103D00009FED898A9FED899AC2F2000A002046F24F
:103D10001C12CAE90500C0F6000240460021B0EEC0
:103D2000480AF0EE490AFFF773FA46F22812C0F685
:103D3000000220460021B0EE480AF0EE490A019444
:103D4000FFF766FA2424ABF5006944F620660027E5
:103D5000C4F2010408E000BF19213220AAF80A00C9
:103D6000AAF80C1000F084FE40F22442C4F20002D3
:103D7000106842F2107C81B2614588BF301ADAF8CF
:103D80001410AAF8020001FA80F1CAF814101760A2
:103D9000DAF81810BAF90420BAF90A301144CAF84E
:103DA0001810216802B28DB200EE102A01EE103A0E
:103DB000654588BF711AAAF80010AAF80410276098
:103DC000AAF80600AAF80810B8EEC00AF8EEC10A70
:103DD0004046FFF765F9BAF90800BAF90C1000EE91
:103DE000100A01EE101AB8EEC00AF8EEC10A0198E6
:103DF000FFF756F998ED080A98ED1A1A44F23400C4
:103E0000BCEEC00AC4F2010080ED000ABCEEC10A9B
:103E100080ED010A3220FCF70DFD48464FF40041C9
:103E2000FCF712FE012812D158464FF48071FCF7BE
:103E30000BFE01280BD1DAF8140040F6B8318842A5
:103E400066DCDAF8180040F6B931884260DA484694
:103E50002021FCF7F9FD58B958460821FCF7F4FD7C
:103E6000012805D158461021FCF7EEFD90B100BFA6
:103E700048462021FCF7E8FD01280FD158460821CB
:103E8000FCF7E2FD012809D158461021FCF7DCFDC2
:103E9000012803D13C203C2160E700BF4846202197
:103EA000FCF7D2FD01280BD158460821FCF7CCFDC8
:103EB00030B958461021FCF7C7FD00283FF44CAF3D
:103EC00058460221FCF7C0FD01283FF445AF4846A3
:103ED0002021FCF7B9FD68B958460821FCF7B4FD6C
:103EE00040B958461021FCF7AFFD012802D132211C
:103EF000192033E758462021FCF7A6FD01284FF092
:103F00003C004FF03C0108BF192008BF322125E7D3
:103F10000020CAE9050002B0BDEC048B01B0BDE889
:103F2000F04F00F089BD00BF00803B450000C84253
:103F30002DE9F04F81B02DED048B82B040F2F034CA
:103F4000C2F200042046FFF757F904F1480528465D
:103F5000FFF752F940F278069FED4C8A9FED4C9A9C
:103F6000C2F200064FF0281046F21C12C6F80A00F2
:103F7000C0F6000220460021B0EE480AF0EE490AE1
:103F8000FFF746F946F22812C0F600022846002143
:103F9000B0EE480AF0EE490A0195FFF739F9B6F993
:103FA0000210B6F90400D2297161B061A8BFD1280E
:103FB00061DC44F2340A40F2240B40F22449C4F29A
:103FC000010AC4F2010BC4F2000944F6206542F272
:103FD00010780027D9F8000081B2414588BF281A1F
:103FE0007080C9F80070DBF8001002B28BB200EEEE
:103FF000102A434588BF691A3180B180CBF8007020
:10400000F0803181B8EEC00AB6F90A0001EE100A5C
:10401000F8EEC10A2046FFF743F8B6F90800B6F9F2
:104020000C1000EE100A01EE101AB8EEC00AF8EEFD
:10403000C10A0198FFF734F894ED080A94ED1A1AB2
:10404000BCEEC00A8AED000ABCEEC10A32208AED3D
:10405000010AFCF7EFFB00F00BFD7069B6F90210E6
:10406000B6F904200144B069D22910447161B061ED
:10407000B0DBD128AEDD0020C6E9050002B0BDEC02
:10408000048B01B0BDE8F04F00F0D6BC00803B458A
:104090000000C8422DE9F04F81B02DED048B82B0B5
:1040A00040F2F035C2F2000540F600042846C4F2A2
:1040B0000204FFF7A1F805F1480B5846FFF79CF8FA
:1040C0009FED918A9FED919A46F21C12C0F6000274
:1040D00028460021B0EE480AF0EE490A0027FFF713
:1040E00097F846F22812C0F6000258460021B0EEBA
:1040F000480AF0EE490AFFF78BF840F27808C2F25E
:10410000000804F580602426C8E9057744F6206994
:1041100042F2107A01900020C4F2010610E000BFC4
:1041200020464FF48061FCF78FFC002800F0C4802B
:104130004FF03C10C8F80A0000F062FCD8F81400F8
:1041400040F22443C4F2000319688AB2524588BF82
:10415000A9EB010100FA81F0A8F80210C8F81400D8
:104160001F6030680AB283B2534588BFA9EB0000D4
:10417000D8F8183000EE102A03FA80F3A8F80000EF
:10418000A8F80400C8F818303760A8F80610A8F896
:104190000800B8EEC00AB8F90A0001EE100AF8EEFD
:1041A000C10A2846FEF77CFFB8F90800B8F90C10E0
:1041B00000EE100A01EE101AB8EEC00AF8EEC10ABD
:1041C0005846FEF76DFF95ED080A95ED1A1A44F270
:1041D0003400BCEEC00AC4F2010080ED000ABCEE5F
:1041E000C10A80ED010A3220FCF724FB20464FF47F
:1041F0008061FCF729FC012816D120464FF480513C
:10420000FCF722FC01280FD101988021FCF71CFC4F
:10421000012809D1D8F81400B0F57A7F68DAD8F807
:104220001800B0F57A7F63DC20464FF48061FCF71C
:104230000BFC68B920464FF48051FCF705FC0128BF
:1042400006D101988021FCF7FFFB00283FF470AFF6
:1042500020464FF48061FCF7F7FB68B920464FF425
:104260008051FCF7F1FB38B901988021FCF7ECFB99
:1042700000283FF45DAF00BF20464FF48061FCF79B
:10428000E3FB01287FF44CAF20464FF48051FCF74C
:10429000DBFB00287FF444AF01988021FCF7D4FBBE
:1042A00000287FF43DAF3C20C0F22800C8F80A0087
:1042B00000F0A6FB012016E020464FF48051FCF7E9
:1042C000C3FB00287FF434AF01988021FCF7BCFBCE
:1042D00001287FF42DAF2820C0F23C00C8F80A0066
:1042E00000F08EFB0220C8F81000D8F8140027E771
:1042F0000020C8E9050002B0BDEC048B01B0BDE8A8
:10430000F04F00F099BB00BF00803B450000C84261
:104310002DE9F04F81B02DED048B82B040F2F035E5
:10432000C2F2000540F600042846C4F20204FEF77B
:1043300063FF05F1480B5846FEF75EFF9FED908A3C
:104340009FED909A46F21C12C0F60002284600210A
:10435000B0EE480AF0EE490A0027FEF759FF46F290
:104360002812C0F6000258460021B0EE480AF0EECE
:10437000490AFEF74DFF40F27808C2F2000804F542
:1043800080602426C8E9057744F6206942F2107A55
:1043900001900020C4F2010610E000BF20464FF457
:1043A0008061FCF751FB002800F0C2804FF03C1008
:1043B000C8F80A0000F024FBD8F8140040F22443A7
:1043C000C4F2000319688AB2524588BFA9EB010103
:1043D00000FA81F0A8F80210C8F814001F603068D5
:1043E0000AB283B2534588BFA9EB0000D8F8183051
:1043F00000EE102A03FA80F3A8F80000A8F80400E1
:10440000C8F818303760A8F80610A8F80800B8EE09
:10441000C00AB8F90A0001EE100AF8EEC10A2846EF
:10442000FEF73EFEB8F90800B8F90C1000EE100ACD
:1044300001EE101AB8EEC00AF8EEC10A5846FEF7AF
:104440002FFE95ED080A95ED1A1A44F23400BCEEE1
:10445000C00AC4F2010080ED000ABCEEC10A80ED82
:10446000010A3220FCF7E6F920464FF48061FCF7A0
:10447000EBFAA8B920464FF48051FCF7E5FA78B979
:1044800001988021FCF7E0FA50B9D8F81400B0F593
:104490007A6F69DAD8F81800B0F57A6F64DA00BF7D
:1044A00020464FF48061FCF7CFFA68B920464FF4FC
:1044B0008051FCF7C9FA012806D101988021FCF748
:1044C000C3FA00283FF472AF20464FF48061FCF736
:1044D000BBFA68B920464FF48051FCF7B5FA38B9F9
:1044E00001988021FCF7B0FA00283FF45FAF00BFCD
:1044F00020464FF48061FCF7A7FA01287FF44EAF05
:1045000020464FF48051FCF79FFA00287FF446AF15
:1045100001988021FCF798FA00287FF43FAF3C20F7
:10452000C0F22800C8F80A0000F06AFA012016E07C
:1045300020464FF48051FCF787FA00287FF436AF0D
:1045400001988021FCF780FA01287FF42FAF282002
:10455000C0F23C00C8F80A0000F052FA0220C8F885
:104560001000D8F8140029E70020C8E9050002B0BF
:10457000BDEC048B01B0BDE8F04F00F05DBA00BFA8
:1045800000803B450000C8422DE9F04F81B02DED81
:10459000048B82B040F2F035C2F2000540F6000410
:1045A0002846C4F20204FEF727FE05F1480B5846E0
:1045B000FEF722FE9FED918A9FED919A46F21C1222
:1045C000C0F6000228460021B0EE480AF0EE490A83
:1045D0000027FEF71DFE46F22812C0F600025846DC
:1045E0000021B0EE480AF0EE490AFEF711FE40F253
:1045F0007808C2F2000804F580602426C8E905772F
:1046000044F6206942F2107A01900020C4F20106BB
:1046100010E000BF20464FF48061FCF715FA002837
:1046200000F0C4804FF03210C8F80A0000F0E8F93A
:10463000D8F8140040F22443C4F2000319688AB287
:10464000524588BFA9EB010100FA81F0A8F80210D9
:10465000C8F814001F6030680AB283B2534588BF9F
:10466000A9EB0000D8F8183000EE102A03FA80F306
:10467000A8F80000A8F80400C8F818303760A8F8B7
:104680000610A8F80800B8EEC00AB8F90A0001EE52
:10469000100AF8EEC10A2846FEF702FDB8F9080034
:1046A000B8F90C1000EE100A01EE101AB8EEC00AAC
:1046B000F8EEC10A5846FEF7F3FC95ED080A95EDB1
:1046C0001A1A44F23400BCEEC00AC4F2010080EDB4
:1046D000000ABCEEC10A80ED010A3220FCF7AAF8FC
:1046E00020464FF48061FCF7AFF9012816D120462F
:1046F0004FF48051FCF7A8F901280FD101988021CF
:10470000FCF7A2F9012809D1D8F81400B0F5FA6F26
:1047100068DAD8F81800B0F5FA6F63DA20464FF47B
:104720008061FCF791F968B920464FF48051FCF79D
:104730008BF9012806D101988021FCF785F9002822
:104740003FF470AF20464FF48061FCF77DF968B903
:1047500020464FF48051FCF777F938B90198802151
:10476000FCF772F900283FF45DAF00BF20464FF41C
:104770008061FCF769F901287FF44CAF20464FF4C3
:104780008051FCF761F900287FF444AF0198802143
:10479000FCF75AF900287FF43DAF3220C0F21E002A
:1047A000C8F80A0000F02CF9012016E020464FF46A
:1047B0008051FCF749F900287FF434AF019880213B
:1047C000FCF742F901287FF42DAF1E20C0F2320021
:1047D000C8F80A0000F014F90220C8F81000D8F850
:1047E000140027E70020C8E9050002B0BDEC048BE7
:1047F00001B0BDE8F04F00F01FB900BF00803B459D
:104800000000C842806B0021C185C184FDF7C0BC97
:1048100081B090F83E10222920D18368B3F5805FE3
:1048200008D10169002964D000F128010A680368F1
:104830005B680AE0014651F8282F13B90369002B81
:10484000F5D003685B6803F07F0313700A680132D8
:104850000A60C18D01390A04C18501D001B07047D9
:104860000168CA6822F02002CA60CA6822F4807215
:10487000CA604A6922F001024A61202280F83E2083
:10488000026B012A3ED10022026300BF51E8031FE0
:10489000026821F0100142E803130168DBB151E81E
:1048A000031F026821F0100142E80313016893B16D
:1048B00051E8031F026821F0100142E80313016868
:1048C0004BB151E8031F026821F0100142E80313C5
:1048D0000168002BDAD10A68D20606D500220092C0
:1048E0000A680092496800910099818D01B0FDF736
:1048F0004DBC0168826A49686FF35F2122F8021B90
:104900008262A6E701B0FDF7ABBF000010B5044618
:104910000068D4E902C22369016921F440511143BE
:104920000161626943EA0C01E3691143C2681943FA
:1049300049F20C639A431143C1604169A26921F4B1
:10494000407141F20043114340F48062C4F201031C
:104950009A42416102D1FCF703FA01E0FCF7ECF95D
:10496000E16963681922B1F5004FA0FB02011FD174
:104970005A00DB0FFBF778FC48F21F51C5F2EB1130
:10498000A0FB01235A096FF0630302FB03003223EB
:1049900003EBC000A0FB01014FF4F87000EA111016
:1049A00000EB0210C1F3421122680843906010BD71
:1049B0009A009B0FFBF758FC48F21F51C5F2EB1110
:1049C000A0FB01235A096FF0630302FB03003223AB
:1049D00003EB0010A0FB0101F02000EA511000EBF6
:1049E0000210C1F3431122680843906010BD00001B
:1049F00040F2AC30C2F20000FDF7CCBBFEE7000095
:104A000010B50024C4F20204204608210122FCF75C
:104A100021F8204610210022FCF71CF804F5006460
:104A2000204610210122FCF715F820462021002203
:104A3000BDE81040FCF70EB810B50024C4F2020423
:104A4000204608210022FCF705F82046102100220C
:104A5000FCF700F804F50064204610210022FBF763
:104A6000F9FF204620210022BDE81040FBF7F2BFED
:104A700010B50024C4F20204204608210022FBF7EE
:104A8000E9FF204610210122FBF7E4FF04F5006452
:104A9000204610210022FBF7DDFF204620210122C5
:104AA000BDE81040FBF7D6BFFBF7EEFFFEF7CEFBED
:104AB000FDF764FFFDF73EFFFEF7D0FAFEF76EF854
:104AC000FEF736F9FEF76AF9FEF7F2F9FEF756FA45
:104AD000FEF79AF8FEF77CFAFEF71AF8FDF74EFF9C
:104AE000FDF728FFFEF7BAFAFEF758F8FEF720F9AF
:104AF000FEF754F9FEF7DCF9FEF740FAFEF784F80A
:104B000040F26434C2F2000420460021FDF79EFA10
:104B100020460421FDF79AFA40F2FC14C2F2000488
:104B200020460021FDF792FA20460421FDF78EFA77
:104B300020460821FDF78AFA40F28C24C2F20004D4
:104B400020460021FDF782FA20460421FDF77EFA77
:104B500020460821FDF77AFA20460C21FDF776FA67
:104B600040F2D420C2F200000021FDF76FFA40F2BB
:104B7000B410C2F200000021FDF768FA40F26C1098
:104B8000C2F200003C21FCF705FE40F24420C2F2D4
:104B900000003C21FCF7FEFD40F21C30C2F2000098
:104BA000FCF70CFC00F0A4FE40F66600FBF73AFCB4
:104BB000FDF78EFEFDF796FEFDF79EFEFDF7A6FEC5
:104BC000FDF7AEFEFEF750FC4FF47A70FBF732FEB5
:104BD000FDF74CFE4FF47A70FBF72CFE4FF4C870D3
:104BE000FBF720FCFFF756FA4FF47A70FBF722FE32
:104BF000FEF766FD4FF47A70FBF71CFE00F086FFAF
:104C00004FF47A70FBF716FEFEF73AFF4FF47A7016
:104C1000FBF710FEFDF734FE4FF47A70FBF70AFE47
:104C20004FF46170FBF7FEFB4FF47A70FBF702FE66
:104C3000FFF730FA4FF47A70FBF7FCFDFEF740FD0A
:104C40004FF47A70FBF7F6FD01F090F94FF47A70AB
:104C5000FBF7F0FDFEF714FF4FF47A70FBF7EAFD67
:104C6000FDF718FE4FF47A70FBF7E4FDFFF712FA38
:104C70004FF47A70FBF7DEFDFEF722FD4FF47A70F9
:104C8000FBF7D8FD00F042FF40F66600FBF7CAFBD9
:104C90004FF4FA70FBF7CEFD40F2EE20FBF7C2FBBB
:104CA0004FF47A70FBF7C6FD00F01EFC40F2A8043A
:104CB000C2F20004206040F66600FBF7B3FB6420FC
:104CC000FBF7B8FD206800F0A7FD6420FBF7B2FDFC
:104CD000FEF7ACFD6420FBF7ADFDFDF7F9FD4FF4E9
:104CE0007A70FBF7A7FDFFF7D5F94FF4FA70FBF7E1
:104CF000A1FDFEF7E5FC4FF4FA70FBF79BFD206881
:104D000000F0ACFD4FF47A70FBF794FD4FF4C870DF
:104D1000FBF788FB4FF4FA70FBF78CFD40F27E4006
:104D2000FBF780FB4FF47A70FBF784FD00F0DCFBAF
:104D300020604FF4C870FBF775FB6420FBF77AFD29
:104D4000206800F069FDFEF771FD6420FBF772FD3D
:104D5000FDF7C8FD4FF47A70FBF76CFDFFF79AF989
:104D60004FF4FA70FBF766FDFEF7AAFC4FF4FA70F9
:104D7000FBF760FD206800F071FD4FF47A70FBF7DF
:104D800059FD4FF46170FBF74DFB4FF4FA70FBF7E0
:104D900051FD40F24650FBF745FB4FF4FA70FBF72C
:104DA00049FD4FF4E160FBF73DFB4FF47A70FBF7F0
:104DB00041FD00F099FB206040F24650FBF732FBCA
:104DC0004FF4FA70FBF736FD4FF46170FBF72AFBE6
:104DD0006420FBF72FFD206800F01EFD6420FBF728
:104DE00029FDFEF723FD6420FBF724FDFDF784FD7C
:104DF0004FF47A70FBF71EFDFFF74CF94FF4FA7091
:104E0000FBF718FDFEF75CFC4FF4FA70FBF712FDA0
:104E1000206800F023FD40F66600FBF703FB00F07E
:104E2000E9FF00F02DFF4FF47A70FBF703FDFEF76A
:104E30004FFF4FF47A70FBF7FDFCFFF779F84FF462
:104E40007A70FBF7F7FCFDF711FDFDF719FDFDF793
:104E500021FDFDF729FDFDF731FD4FF47A70FBF7D9
:104E6000E9FCFFF791FB6420FBF7E4FCFEF728FC6C
:104E70006420FBF7DFFC00F08FFD00F047FE4FF4ED
:104E80007A70FBF7D7FC40F24650FBF7CBFA4FF4B1
:104E9000FA70FBF7CFFC40F2D660FBF7C3FA4FF491
:104EA000FA70FBF7C7FC4FF4FA60FBF7BBFA4FF45C
:104EB0007A70FBF7BFFC00F017FB206040F2D66071
:104EC000FBF7B0FA4FF4FA70FBF7B4FC40F246502F
:104ED000FBF7A8FA6420FBF7ADFC206800F09CFC0F
:104EE0006420FBF7A7FCFEF7A1FC6420FBF7A2FC03
:104EF000FDF70CFD4FF47A70FBF79CFCFFF7CAF846
:104F00004FF4FA70FBF796FCFEF7DAFB4FF4FA70F9
:104F1000FBF790FC206800F0A1FC4FF47A70FBF7DF
:104F200089FC40F2D660FBF77DFA40F2DC50FBF7DB
:104F300081FC40F66600FBF775FA40F2DC50FBF7A7
:104F400079FC40F6C410FBF76DFA4FF47A70FBF76A
:104F500071FC00F0C9FA206040F66600FBF762FAC7
:104F60004FF4FA70FBF766FC40F2D660FBF75AFA92
:104F7000206800F051FC6420FBF75CFCFEF756FC57
:104F80006420FBF757FCFDF7CBFC4FF47A70FBF77E
:104F900051FCFFF77FF84FF4FA70FBF74BFCFEF77C
:104FA0008FFB4FF4FA70FBF745FC206800F056FCCD
:104FB0004FF47A70FBF73EFC40F66600FBF732FADE
:104FC00040F2DC50FBF736FC40F2EE20FBF72AFA09
:104FD00040F2DC50FBF72EFC00F086FA206040F631
:104FE0006600FBF71FFA6420FBF724FC206800F042
:104FF00013FC6420FBF71EFCFEF718FC6420FBF793
:1050000019FCFDF765FC4FF47A70FBF713FCFFF712
:1050100041F84FF4FA70FBF70DFCFEF751FB4FF42B
:10502000FA70FBF707FC206800F018FC4FF47A7068
:10503000FBF700FC4FF4C870FBF7F4F940F2DC50CA
:10504000FBF7F8FB4FF46170FBF7ECF94FF4FA70E3
:10505000FBF7F0FB4FF4AF60FBF7E4F940F2DC50F4
:10506000FBF7E8FB00F040FA20604FF46170FBF7BB
:10507000D9F94FF4FA70FBF7DDFB4FF4C870FBF77A
:10508000D1F96420FBF7D6FB206800F0C5FB642053
:10509000FBF7D0FBFEF7CAFB6420FBF7CBFBFDF769
:1050A00021FC4FF47A70FBF7C5FBFEF7F3FF4FF4DA
:1050B000FA70FBF7BFFBFEF703FB4FF4FA70FBF748
:1050C000B9FB206800F0CAFB4FF47A70FBF7B2FB23
:1050D0004FF46170FBF7A6F940F2DC50FBF7AAFB36
:1050E00040F24650FBF79EF940F2DC50FBF7A2FB82
:1050F0004FF4E160FBF796F940F2DC50FBF79AFBC6
:1051000000F0F2F9206040F24650FBF78BF94FF4C3
:10511000FA70FBF78FFB4FF46170FBF783F96420A3
:10512000FBF788FB206800F077FB6420FBF782FB2D
:10513000FEF77CFB6420FBF77DFBFDF7DDFB4FF406
:105140007A70FBF777FBFEF7A5FF4FF4FA70FBF7D9
:1051500071FBFEF7B5FA4FF4FA70FBF76BFB2068B2
:1051600000F07CFB4FF4FA70FBF75CF94FF4FA7037
:10517000FBF760FB40F66600FBF754F900F0C6FC55
:1051800000F00AFC4FF47A70FBF754FBFEF7A0FD29
:105190004FF47A70FBF74EFBFEF7CAFE6420FBF774
:1051A00049FBFDF763FBFDF76BFBFDF773FBFDF7B9
:1051B0007BFBFDF783FB4FF47A70FBF73BFBFFF7BC
:1051C000E3F96420FBF736FBFEF77AFA6420FBF77D
:1051D00031FB00F055FD00F00DFE4FF47A70FBF747
:1051E00029FB40F24650FBF71DF94FF4FA70FBF72C
:1051F00021FB40F2D660FBF715F94FF4FA70FBF78C
:1052000019FB4FF4FA60FBF70DF94FF47A70FBF7D6
:1052100011FB00F069F9206040F2D660FBF702F95B
:105220004FF4FA70FBF706FB40F24650FBF7FAF832
:105230006420FBF7FFFA206800F0EEFA6420FBF729
:10524000F9FAFEF7F3FA6420FBF7F4FAFDF75EFBD8
:105250004FF47A70FBF7EEFAFEF71CFF4FF4FA708A
:10526000FBF7E8FAFEF72CFA4FF4FA70FBF7E2FAD4
:10527000206800F0F3FA4FF47A70FBF7DBFA40F2A3
:10528000D660FBF7CFF840F2DC50FBF7D3FA40F6DC
:105290006600FBF7C7F840F2DC50FBF7CBFA40F6AC
:1052A000C410FBF7BFF84FF47A70FBF7C3FA00F0B5
:1052B0001BF9206040F66600FBF7B4F84FF4FA7073
:1052C000FBF7B8FA40F2D660FBF7ACF86420FBF7C6
:1052D000B1FA206800F0A0FA6420FBF7ABFAFEF701
:1052E000A5FA6420FBF7A6FAFDF71AFB4FF47A70D3
:1052F000FBF7A0FAFEF7CEFE4FF4FA70FBF79AFA2E
:10530000FEF7DEF94FF4FA70FBF794FA206800F02C
:10531000A5FA4FF47A70FBF78DFA40F66600FBF7BA
:1053200081F840F2DC50FBF785FA40F2EE20FBF703
:1053300079F840F2DC50FBF77DFA00F0D5F82060F8
:1053400040F66600FBF76EF86420FBF773FA2068FE
:1053500000F062FA6420FBF76DFAFEF767FA64204A
:10536000FBF768FAFDF7B4FA4FF47A70FBF762FACC
:10537000FEF790FE4FF4FA70FBF75CFAFEF7A0F927
:105380004FF4FA70FBF756FA206800F067FA4FF412
:105390007A70FBF74FFA4FF4C870FBF743F840F20E
:1053A000DC50FBF747FA4FF46170FBF73BF84FF422
:1053B000FA70FBF73FFA40F27E40FBF733F840F219
:1053C000DC50FBF737FA00F08FF820604FF4617083
:1053D000FBF728F84FF4FA70FBF72CFA4FF4C8707B
:1053E000FBF720F86420FBF725FA206800F014FA98
:1053F0006420FBF71FFAFEF719FA6420FBF71AFA8C
:10540000FDF770FA4FF47A70FBF714FAFEF742FEDC
:105410004FF4FA70FBF70EFAFEF752F94FF4FA70F8
:10542000FBF708FA206800F019FA4FF47A70FBF7DE
:1054300001FA4FF46170FAF7F5FF40F2DC50FBF728
:10544000F9F940F24650FAF7EDFF40F2DC50FBF775
:10545000F1F94FF4C860FAF7E5FF40F2DC50FBF7D2
:10546000E9F900F041F8206040F24650FAF7DAFF1F
:105470004FF4FA70FBF7DEF94FF46170FAF7D2FFE0
:105480006420FBF7D7F9206800F0C6F96420FBF729
:10549000D1F9FEF7CBF96420FBF7CCF9FDF72CFA34
:1054A0004FF47A70FBF7C6F9FEF7F4FD4FF4FA708B
:1054B000FBF7C0F9FEF704F94FF4FA70FBF7BAF9FD
:1054C000206800F0CBF94FF4FA70FAF7ABFF4FF415
:1054D000FA70FBF7AFF940F66600FAF7A3FFFEF7A4
:1054E00017FF00BFFEE700002DE9F0472DED048B0C
:1054F00040F20044C4F2020420464FF480410022EE
:105500004FF0000AFBF7A6FA20464FF400510022A4
:10551000FBF7A0FA40F29407C2F200070A20A7F8AE
:1055200000A0FBF787F940F200053888C2F20005B9
:105530002988C0EB0020B0FBF1F0FF2610F47F4F6C
:1055400018BF30461FFA80F8388100EE108A2046D6
:105550004FF480410122B8EE408AFBF77BFA2046E7
:105560004FF400510122FBF775FA0A20A7F800A0BA
:10557000FBF760F938886988C0EB0020B0FBF1F0D8
:105580004FF4804110F47F4F18BF30461FFA80F966
:10559000788100EE109A20460022B8EE409AFBF780
:1055A00059FA20464FF400510122FBF753FA0A2022
:1055B000A7F800A0FBF73EF93888A988C0EB0020C7
:1055C000B0FBF1F0B4EE498A10F47F4F08BF0646F5
:1055D000B0B200EE100ABE81F1EE10FAB8EE400A49
:1055E0000ED1B4EE409AF1EE10FA09D1B7EE001ADE
:1055F000B0EE412AB4EE481AF1EE10FA6AD04CE04F
:10560000B4EE498AF1EE10FA06DBB4EE408AF1EE10
:1056100010FAB0EE481A1DDAB4EE489AF1EE10FA1C
:1056200006DBB4EE409AF1EE10FAB0EE491A11DA48
:10563000B4EE480AB0EE401A9FED712AF1EE10FA6E
:10564000B8BFB0EE421AB4EE490AF1EE10FAB8BF94
:10565000B0EE421AB4EE498AF1EE10FA0CDCB4EE68
:10566000408AF1EE10FA07DCB0EE482AB4EE481A90
:10567000F1EE10FA2ED010E0B4EE498AF1EE10FAF5
:1056800011DBB4EE409AF1EE10FA0CDCB0EE492AD0
:10569000B4EE481AF1EE10FA1CD0B4EE491AF1EE4D
:1056A00010FA26D033E0B4EE408AB0EE402A9FEDE7
:1056B000543AF1EE10FAB8BFB0EE432AB4EE490AFC
:1056C000F1EE10FAC8BFB0EE432AB4EE481AF1EE7C
:1056D00010FAE2D139EE403A31EE424A83EE043A12
:1056E0009FED484A23EE043AB4EE491AF1EE10FA5F
:1056F0000DD130EE483A31EE424A83EE043A9FED46
:10570000414A9FED415A23EE043A33EE053AB4EE96
:10571000401AF1EE10FA0DD138EE493A31EE424A14
:1057200083EE043A9FED374A9FED385A23EE043A50
:1057300033EE053AB4EE421A9FED314AF1EE10FA1B
:105740009FED331A08BFB0EE443AB5EE403AF1EEA1
:1057500010FA33EE011AB8BFB0EE413AB8F1970F24
:1057600028BFB9F1970F2AD2B4EE489AF1EE10FA99
:1057700010DDB4EE409AF1EE10FA0BDD9FED251A24
:10578000B4EE413AF1EE10FA04DA0120BDEC048BDC
:10579000BDE8F087B8F12C0F98BFB9F12C0F15D9DF
:1057A000B4EE490AF1EE10FA17DDB4EE480AF1EE54
:1057B00010FA12DD0520BDEC048BBDE8F0879628B9
:1057C000D2D90220BDEC048BBDE8F0872D28E7D2AA
:1057D0000420BDEC048BBDE8F087B4EE408A0020C5
:1057E000F1EE10FAC8BF0320B4EE498A0021F1EEB1
:1057F00010FAD8BF0846BDEC048BBDE8F08700BFA7
:1058000000000000000070420000F0420000704301
:105810000000B443000048430138042888BF7047A3
:1058200080B5DFE800F00309170F150000F0E2FA79
:10583000BDE88040FEF724B900F022FABDE88040C0
:10584000FEF71EB900F0A8F8BDE88040FEF718B9D1
:1058500000F05CF9BDE88040FEF712B90138042879
:1058600088BF7047DFE800F003070B05090000F070
:105870004DB900F005BA00F08FB800F0BBBA704720
:1058800010B50024C4F20204204608210022FBF7D0
:10589000E1F8204610210122FBF7DCF804F5006452
:1058A000204610210122FBF7D5F8204620210022B6
:1058B000BDE81040FBF7CEB810B50024C4F20204D6
:1058C000204608210122FBF7C5F8204610210022BE
:1058D000FBF7C0F804F50064204610210022FBF716
:1058E000B9F8204620210122BDE81040FBF7B2B8EC
:1058F00070B540F20044C4F2020420464FF48041E7
:1059000000220025FBF7A6F820464FF400510022A4
:10591000FBF7A0F840F29406C2F200060A20358098
:10592000FAF788FF30884FF480417080F08120467C
:1059300001223580FBF78EF820464FF400510122FA
:10594000FBF788F80A203580FAF774FF30884FF4A7
:105950008041B0803082204600223580FBF77AF803
:1059600020464FF400510122FBF774F80A203580DD
:10597000FAF760FF30884FF48041F0807082204653
:1059800001223580FBF766F820464FF400510022D3
:10599000BDE87040FBF75EB82DE9F04F81B02DED0A
:1059A000048B40F2F034C2F2000440F2240A40F2C8
:1059B000244B2046C4F2010AC4F2000BFDF71CFC84
:1059C00004F148052846FDF717FC40F278069FEDE4
:1059D0004D8A9FED4D9AC2F2000600274FF01E102F
:1059E00046F21C12C6E90577C6F80A00C0F60002A6
:1059F00020460021B0EE480AF0EE490AFDF708FC07
:105A000046F22812C0F6000228460021B0EE480AED
:105A1000F0EE490AFDF7FCFB44F6206842F21079EB
:105A20004CE000BFDBF8000081B2494588BFA8EB1D
:105A300000007080CBF80070DAF800108AB24A4596
:105A400088BFA8EB01013180B180CAF80070F080F6
:105A50003181FFF731FFB6F90600B6F90A1000EE02
:105A6000100A01EE101AB8EEC00AF8EEC10A20467C
:105A7000FDF716FBB6F90800B6F90C1000EE100A97
:105A800001EE101AB8EEC00AF8EEC10A2846FDF77A
:105A900007FB94ED080A94ED1A1A44F23400BCEEA8
:105AA000C00AC4F2010080ED000ABCEEC10A80ED1C
:105AB000010A3220FAF7BEFEFFF7FEFE7069B6F962
:105AC0000210B6F904200144B069B1F5BB7F10445F
:105AD0007161B061D8BFB0F5BB7FA3DD40F6004077
