:020000040800F2
:10000000400A0020290200087D2F0008D12700089F
:10001000792F000821040008BD40000800000000FE
:100020000000000000000000000000002531000872
:100030004D040008000000002131000829310008AB
:10004000430200084302000843020008430200087C
:10005000430200084302000843020008430200086C
:10006000430200084302000851040008430200084C
:10007000430200084302000843020008430200084C
:10008000430200084302000843020008430200083C
:10009000430200084302000843020008430200082C
:1000A000430200084302000843020008430200081C
:1000B00043020008ED310008430200084302000833
:1000C00043020008430200084302000843020008FC
:1000D00043020008430200084302000843020008EC
:1000E00043020008430200084302000843020008DC
:1000F00043020008430200084302000843020008CC
:100100004302000843020008F931000843020008D6
:1001100043020008430200080532000843020008B9
:1001200043020008350400084302000843020008A7
:10013000430200084302000843020008430200088B
:10014000430200084302000843020008430200087B
:10015000430200084104000843020008B1400008BF
:10016000430200084302000843020008430200085B
:100170004302000843020008430200080000000098
:10018000430200084302000800F002F800F03CF8C7
:100190000AA090E8000C82448344AAF10107DA45E2
:1001A00001D100F031F8AFF2090EBAE80F0013F0F8
:1001B000010F18BFFB1A43F0010318474C5700000A
:1001C0006C570000103A24BF78C878C1FAD852079B
:1001D00024BF30C830C144BF04680C6070470000C1
:1001E0000023002400250026103A28BF78C1FBD840
:1001F000520728BF30C148BF0B6070471FB505F0DC
:1002000059FB1FBD10B510BD00F0D0F81146FFF727
:10021000F5FF03F0A9FF00F0EEF803B4FFF7F2FFDB
:1002200003BC00F0F5F80000094880470948004782
:10023000FEE7FEE7FEE7FEE7FEE7FEE7FEE7FEE796
:10024000FEE7FEE704480549054A064B70470000F3
:10025000D93100088901000840040020400A00202C
:10026000400600204006002053EA020C00F069809E
:100270002DE9F04B4FF00006002B1FBFB3FA83F5BA
:1002800003FA05F424FA05F65E4012BF1643B2FAEB
:1002900082F502FA05F4C5F120051EBF22FA05FC1D
:1002A00044EA0C04203556EA044C4FEA144418BFC3
:1002B000641C4FF000084FF00009904271EB030CF2
:1002C00039D3002919BFB1FA81F701FA07F6B0FA5C
:1002D00080F700FA07F6C7F120071EBF20FA07FCD7
:1002E00046EA0C062037B6FBF4FCA7EB0507103FE7
:1002F00007F01F0BCBF120062CFA06F60CFA0BFBCD
:1003000044BFB3460026202FA4BF5E464FF0000B2B
:100310005BEA060C08BF4FF0010B19EB0B0948EB29
:100320000608ABFB027C06FB02CC0BFB03CCC01B1C
:1003300071EB0C01C1E70B46024641464846BDE859
:10034000F08B13B5084318BF4FF0FF300146AFF3F1
:100350000080BDE81C4070474FF0000200B5134616
:1003600094469646203922BFA0E80C50A0E80C50D5
:10037000B1F12001BFF4F7AF090728BFA0E80C5086
:1003800048BF0CC05DF804EB890028BF40F8042B7F
:1003900008BF704748BF20F8022B11F0804F18BFEC
:1003A00000F8012B7047704770477047754600F0A2
:1003B0002BF8AE4605006946534620F007008546F7
:1003C00018B020B5FFF73EFFBDE820404FF0000613
:1003D0004FF000074FF000084FF0000BAC46ACE8C0
:1003E000C009ACE8C009ACE8C009ACE8C00921F01C
:1003F00007018D46704710B50446AFF300802046D4
:10040000BDE81040FFF709BF004870471800002002
:1004100001491820ABBEFEE726000200704700002D
:10042000FEE7000040F2B411C2F20001096848631F
:100430007047000040F2AC00C2F2000000F06CB85F
:1004400040F20C10C2F2000000F066B870470000E5
:10045000102000F00FBA0000EFF3108072B600BF5A
:10046000FEE7000070B5866D044600F0F9FA94F8D6
:10047000351002292ED105462068216C026822F031
:1004800016020260426922F08002426109B9A16C41
:1004900019B1016821F008010160016821F0010132
:1004A00001600068C00708D000F0DAFA401B052898
:1004B00017D820680068C007F6D1E06D3F2101FA27
:1004C00000F0B060012084F835000020002184F89D
:1004D000341070BD802060650120002184F8341044
:1004E00070BD20206065032084F83500002184F869
:1004F000341070BD90F83510022909D1052180F81B
:1005000035100068016821F001010160002070478A
:100510008021416501207047F0B581B0044600207C
:10052000009040F21000C2F200000268D4E91660A8
:1005300048F2B51337680821C1F64E33814039427D
:10054000A2FB03250CD0226813685B0708D513684B
:1005500023F004031360B160616D41F00101616536
:1005600001218140394208D022685269120604D51F
:10057000B160616D41F00201616504218140394241
:1005800008D022681268920704D5B160616D41F00D
:100590000401616510218140394217D0206802684A
:1005A000120713D5B16002680168520308D4C90567
:1005B00008D4016821F008010160216C21B905E02F
:1005C000080342D4216C09B120468847E16D202000
:1005D00000FA01F23A4244D020680368DB0640D5B5
:1005E000B26094F835300268052B1ED122F0160255
:1005F0000260426922F080024261226C0AB9A26C58
:100600001AB1026822F0080202603F208840B06000
:10061000012084F83500216D0020002984F8340081
:1006200057D02046884701B0F0BD0168520310D46E
:10063000C90512D4016821F010010160012084F87D
:100640003500002084F8340007E0A16C0029BBD1FC
:10065000BCE7080301D4616C00E0E16B09B12046FE
:100660008847606DA8B3606DC0072ED0052084F860
:1006700035002068A90A026822F001020260009A8F
:1006800001328A4200921AD80268D20717D0009A23
:1006900001328A42009212D80268D2070FD0009A23
:1006A00001328A4200920AD80268D20707D0009A23
:1006B00001328A42009202D80268D207DFD10120BB
:1006C00084F83500002084F83400E16C09B120463C
:1006D000884701B0F0BD00002DE9F041044600F06C
:1006E000BFF9002C4ED00546022084F835000020CA
:1006F000216884F83400086820F001000860086868
:10070000C00708D000F0ACF9401B05286BD8216861
:100710000868C007F6D1086848F23F02CFF210021D
:10072000D4E90135024004F10C0E9EE8C1511A4390
:100730002A4310433043384340EA0800626A40EAE3
:100740000C00042A40EA0E031FD1D4E90A5E206B94
:100750004EEA0302104308604869BEF1000F20F022
:10076000030040EA050040F0040C14D0B8F5005F27
:1007700041D0B8F1000F4ED1022D4FD0012D44D001
:100780004DB94BE00120BDE8F0810B60486920F0D5
:10079000070040EA020C6FF00F004AF6AB2250FA55
:1007A00081F0CAF6AA22A0FB02231A0945F6E60345
:1007B000C0F600039A5C40F2FF335F284FF03F0021
:1007C000C1F814C021EA030100FA02F088BF043125
:1007D000C4E916128860002301220020636584F8B2
:1007E0003520BDE8F081032220230320636584F8CF
:1007F0003520BDE8F081032DCDD801224023012012
:10080000DFE805F0020C0203E8E7AEF1C070B0FAD1
:1008100080F0400904E0032D04D3BCD1CEF3006086
:100820000028B8D0012240230120636584F83520D8
:10083000BDE8F081B0B5044600F012F9054640F27B
:100840000800C2F200000078611C18BF044400BF19
:1008500000F006F9401BA042FAD3B0BD102818BF23
:10086000704740F29400C2F200000188013101801B
:100870007047000043F61441C4F201010A680242C5
:1008800014BF08607047FFF7E9BF00002DE9F04F83
:1008900082B000F13E4241F6004502F1FF77C4F21A
:1008A000020508224FEAB726A84208BF0722072EF2
:1008B00038BF4FEAB7224FF0010A002400274FF05B
:1008C0000008009208E000BF023708F10108202F5D
:1008D00004F1040400F0B4800E680AFA08F916EA7C
:1008E000090FF1D0D1F804A00AF0030BABF1010617
:1008F000012E17D80322866802FA07FECA6826EA84
:100900000E06BA40324382604268CAF3001522EAFA
:10091000090205FA08F54FEA480C6FEA0E062A4369
:1009200042600BE00322BA40D643BBF1030FBC4642
:1009300004D1BC464FF0030B22E000BFC2688D68B3
:10094000324005FA0CF52A43BBF1020FC26017D101
:100950006FF0030202EA5802024404F01C030F2560
:10096000D2F820E005FA03FA0D692EEA0A0E05FA1C
:1009700003F343EA0E031362D1F804A00AF0030B59
:1009800002680BFA0CF332401A431AF4403F4FF05E
:10099000010A026098D0002243F644030192C4F297
:1009A00002031A6843F6004E42F480421A601A6845
:1009B000C4F2010E02F480420192019A28F003026F
:1009C0004FF6084C7244CFF6FF7C52F80C3004F01E
:1009D0000C060F25B540AB43009D05FA06F63343E0
:1009E00042F80C30DEF808204B6842EA090643F66C
:1009F0000C4CDD0258BF22EA0906CEF80860C4F2AA
:100A0000010CDCF800209D0242EA090658BF22EAE8
:100A10000906CCF80060DEF804209D0342EA0906CE
:100A200058BF22EA0906CEF80460DEF80020DB0396
:100A300042EA090658BF22EA0906CEF8006043E7F9
:100A400002B0BDE8F08F00000069084018BF012027
:100A500070470000002A08BF090481617047000048
:100A600040F23840C2F200000068704740F20800CF
:100A700040F23841C2F20000C2F2000100780A6878
:100A8000104408607047000080B543F60040C4F28F
:100A90000200016841F400710160016841F4806165
:100AA0000160016841F480710160032000F084F866
:100AB0000F2000F005F800F027F8002080BD0000AE
:100AC00070B540F20806C2F2000640F2100132781A
:100AD000C2F200014FF47A730968B3FBF2F20446E4
:100AE000B1FBF2F1084600F039FB0F2C4FF0010585
:100AF00008D838B94FF0FF3021460022002500F019
:100B00002FF87460284670BD82B0002043F6400183
:100B10000190C4F202014A6842F480424A604A6885
:100B200002F480420192019A0090086840F08050DF
:100B30000860086800F080500090009802B070478C
:100B4000002848BF704700F01F01012202FA01F19E
:100B50004EF200124009CEF2000242F82010704717
:100B600010B54EF60C5CCEF2000CDCF80030C3F38E
:100B7000022E8EF00704042C28BF0424BEF10303C8
:100B80004FF0FF3E0EFA04F438BF0023A143994012
:100B90000EFA03F39A4300F00F03043B114363443E
:100BA00009010C3300F16042B0F1FF3FC8BF02F50C
:100BB0006443197010BD00004EF60C51CEF20001D6
:100BC0000A684FF6FF031A4060F30A2242F0806081
:100BD00040F0FD70086070472DE9F041002800F0FA
:100BE0008B8043F60808C4F202080446D8F8F803DC
:100BF0000D4600F00700884207D288F8F853D8F86D
:100C0000F80300F00700A84276D12068810717D5C5
:100C1000410705D5D8F8001041F4E051C8F800109C
:100C2000010705D5D8F8001041F46041C8F800105C
:100C3000D8F80010A26821F0F0011143C8F80010A4
:100C4000C0073FD1D8F8F80300F00700A84207D941
:100C500088F8F853D8F8F80300F00700A8424BD101
:100C60002068410707D5D8F80010E26821F4E05168
:100C70001143C8F80010000708D5D8F80000216912
:100C800020F4604040EAC100C8F8000000F07CF8A1
:100C9000D8F8001045F6CE02C1F30311C0F60002E9
:100CA000515C40F2100220FA01F140F20C00C2F255
:100CB00000000068C2F200021160FFF701FF00208F
:100CC000BDE8F0816068811E022907D258F8081C2F
:100CD00089015CBF0120BDE8F08110E0012807D147
:100CE00058F8081C89035CBF0120BDE8F08106E0CC
:100CF00058F8081C890702D40120BDE8F081D8F813
:100D0000001021F003010843C8F80000FFF7A8FE17
:100D1000064641F2883700BFD8F80000616800F04D
:100D20000C00B0EB810F8DD0FFF79AFE801BB8420C
:100D3000F2D90320BDE8F08140F2100043F608012B
:100D4000C2F20000C4F202010068096845F6DE0242
:100D5000C1F38221C0F60002515CC8407047000018
:100D600040F2100043F60801C2F20000C4F2020192
:100D70000068096845F6DE02C1F34231C0F60002A0
:100D8000515CC8407047000010B543F60404C4F23B
:100D90000204606800F00C0142F200400829C0F231
:100DA000F40007D0042918BF10BD41F20020C0F2A2
:100DB0007A0010BD216801F03F02216823684902D2
:100DC000C3F3881105D4A1FB00010023FFF74CFAFF
:100DD00006E041F20020C0F27A004843B0FBF2F096
:100DE00021680222C1F3014102EB4101B0FBF1F0A5
:100DF00010BD00002DE9F04182B0002868D0044603
:100E0000007843F60006C007C4F202060BD0B068B3
:100E100000F00C00042840F0A0803068800302D568
:100E20006068002854D0207880071AD5B06810F088
:100E30000C0F09D0B06800F00C00082840F0B48016
:100E40007068400200F1B0803068800702D5E06829
:100E500001283DD13068216920F0F80040EAC10046
:100E600030602078000737D4207840074BD4A5693C
:100E700055B3B06800F00C00082840F0DA80012D6E
:100E800026D07068E16900F480028A4220D1216A8C
:100E900000F03F028A421BD147F6C071626A0140EE
:100EA000B1EB821F14D1A16A4FF6FF73C9039943B6
:100EB00000F44032A1F580318A4209D1E16A00F0A4
:100EC0007060B0EB016F03D1002002B0BDE8F0818B
:100ED000012002B0BDE8F0816069002840F2000006
:100EE000C4F2472000F091800121C0F8801EFFF776
:100EF000B7FD0546706F8007B6D4FFF7B1FD401B04
:100F00000228F7D991E0306C4FF00008C0000CD4F3
:100F1000CDF80480306C4FF0010840F08050306410
:100F2000306C00F080500190019847F20007C4F245
:100F300000073868C0054DD4386840F480703860C8
:100F4000FFF78EFD054600BF3868C00542D4FFF7A5
:100F500087FD401B0228F7D967E0B06800F00C005D
:100F6000082803D1706840023FF557AF6568B5F5B2
:100F7000803F07D03068B5F5A02F40F0B38040F433
:100F800080203060306840F480303060FFF768FDCA
:100F9000054600BF306880033FF545AFFFF760FDB1
:100FA000401B6428F6D940E0E068002864D00020A7
:100FB000C4F2472001210160FFF752FD054600BF42
:100FC000306880073FF546AFFFF74AFD401B022817
:100FD000F6D92AE0A568012D05D0306F052D5FD127
:100FE00040F004003067306F40F001003067FFF7D9
:100FF00037FD054641F28837306F800769D4FFF727
:101000002FFD401BB842F7D90FE00021C0F8801E29
:10101000FFF726FD054600BF706F80077FF524AF00
:10102000FFF71EFD401B0228F6D9032002B0BDE8E1
:10103000F0810027C4F2472700203866FFF710FD33
:10104000022D05460CD100BF3068800164D5FFF742
:1010500007FD401B02284FF00300F5D935E700BF1C
:10106000306880017FF530AFFFF7FAFC401B0228A3
:101070004FF00300F4D928E70020C4F247200021F4
:101080000160FFF7EDFC0546306880077FF5E9AEAB
:10109000FFF7E6FC401B02284FF00300F4D914E7E9
:1010A00020F001003067306F20F004003067FFF758
:1010B000D7FC002D05469DD141F28837306F80075F
:1010C00007D5FFF7CDFC401BB8424FF00300F5D920
:1010D000FBE6B8F1000F3FF4CAAE306C20F0805050
:1010E0003064C4E620F480303060306820F4802022
:1010F0003060FFF7B5FC002D05467FF44BAF07E0ED
:10110000FFF7AEFC401B64284FF003003FF6DDAE56
:1011100030688003F4D486E604F11C052FCD084323
:1011200040EA8210D9034FF6FF729143A1F5803156
:1011300040EA05600843706001203866FFF790FCC4
:10114000044600BF306880013FF5BEAEFFF788FC63
:10115000001B02284FF00300F4D9B6E6411E002020
:10116000B0EB116F1CBF012070474EF21002CEF29F
:10117000000251604EF62351CEF20001F0230B70B5
:1011800007219060116070477047000070470000B1
:1011900010B590F83C20012A4FF0020252D00123F2
:1011A00080F83C3080F83D200268D2F804E0D2F8A4
:1011B00008C00C682EF07003234341F2FF74C4F2A0
:1011C0000004A24253600DDC40F2FF73C4F200033E
:1011D0009A4215DCB2F1804F29D040F20043C4F2AC
:1011E000000322E040F2FF33C4F201039A4212DC12
:1011F00041F60003C4F200039A4218D0002312E023
:1012000040F60003C4F200039A4210D040F60043B7
:10121000C4F2000309E044F20003C4F201039A425D
:1012200005D040F20043C4F201039A4204D1496858
:101230002CF08003194391600121002280F83D10B9
:1012400080F83C20104610BD002804BF01207047E4
:1012500010B5044690F83D0028B9002084F83C0001
:10126000204600F01FF8022084F83D002068211D70
:1012700001F0CEFF012084F8460084F83E0084F897
:101280003F0084F8400084F8410084F8420084F86C
:10129000430084F8440084F8450084F83D000020B1
:1012A00010BD000080B582B0006800F140404FEAF8
:1012B000B020042813D8DFE800F0031214253F0003
:1012C0000020019043F64000C4F20200016841F0A2
:1012D00001010160006800F001000190019802B076
:1012E00080BD0020019043F64000C4F20200016876
:1012F00041F004010160006800F0040001900198D1
:1013000002B080BD0020019043F64000C4F202000C
:101310000168002241F0080101600068002100F02E
:101320000800019001983220FFF71AFC322002B029
:10133000BDE88040FFF704BC0020019043F6400068
:10134000C4F202000168002241F01001016000684F
:10135000012100F01000019001983620FFF700FCF9
:10136000362002B0BDE88040FFF7EABB90F83D10A0
:1013700001291CBF01207047022180F83D10006840
:1013800041F2FF72C168C4F20002904241F00101D3
:10139000C1600DDC40F2FF71C4F20001884215DC2F
:1013A000B0F1804F29D040F20041C4F2000122E0A8
:1013B00040F2FF31C4F20101884212DC41F6000123
:1013C000C4F20001884218D0002112E040F600016A
:1013D000C4F20001884210D040F60041C4F200017E
:1013E00009E044F20001C4F20101884205D040F254
:1013F0000041C4F20101884206D1816801F0070171
:10140000062904BF00207047016841F00101016016
:101410000020704780B590F83C20012A4FF002026E
:1014200000F0C280012380F83C3080F83D20D0F8E5
:1014300000C04FF67772DCF8083023EA0202CCF8DD
:1014400008200B684F2B28DC1F2B43DD202B44D0BA
:10145000302B42D0402B40F0A980D1F804E0C9687D
:10146000DCF82030DCF8202022F00102CCF820202B
:10147000DCF8182022F0F00242EA011123F00A02FF
:1014800042EA0E02CCF81810CCF82020DCF8081044
:1014900041F0470121F030017DE06F2B25DDB3F5F0
:1014A000005F46D0B3F5805F77D0702B7ED1D1E955
:1014B00001E3C968DCF8082043EA0E0322F47F4206
:1014C00043EA01211143CCF80810DCF8081041F080
:1014D000770160E00BB1102B68D1DCF8081021F027
:1014E0007001194341F0070155E0502B34D0602BB7
:1014F0005CD1D1F804E0C968DCF8203023F0100397
:10150000CCF82030DCF81830DCF8202023F47043CD
:1015100022F0A00243EA013142EA0E12CCF8181080
:10152000CCF82020DCF8081041F0670121F0100110
:1015300031E0D1E901E3C968DCF8082043EA0E0391
:1015400022F47F4243EA01211143CCF80810DCF871
:10155000081041F480411EE0D1F804E0C968DCF8CD
:101560002030DCF8202022F00102CCF82020DCF82A
:10157000182022F0F00242EA011123F00A0242EAA6
:101580000E02CCF81810CCF82020DCF8081041F03E
:10159000570121F02001CCF808100022012180F829
:1015A0003D10002180F83C10104680BD0122F5E777
:1015B000002804BF012070472DE9F047044690F849
:1015C0003D000D4628B9002084F83C00204600F07C
:1015D00049F8022084F83D00206844F2070281683F
:1015E00091438160211D01F013FE20684FF6FF78C2
:1015F00081688269D0F820C0D5E9003ED5E9026A49
:1016000043EA0109AB6922EA080246EA03234FF6DE
:10161000FC46B343D5E9076742EA0A0229691A433F
:1016200042EA062242EA01112CF0AA026B6942EA60
:101630000E0241EA073142EA0312C0F808908161C4
:101640000262012084F8460084F83E0084F83F00DE
:1016500084F8420084F8430084F83D000020BDE88F
:10166000F087000080B586B00021CDE90411CDE9F6
:101670000211006840F20042C4F20002904201915F
:1016800030D00021C4F20101884258D1002043F635
:1016900030010090C4F202014A6942F001024A613D
:1016A0004A6902F001020092009A00900A6842F032
:1016B00010020A60096801F01001009100994FF4CE
:1016C000206101910221CDE90210049001200590D2
:1016D0000020C4F2020000F5805001A9FFF7D6F8FF
:1016E00006B080BD43F630000091C4F202000269EA
:1016F00042F002020261026902F002020092009AC4
:101700000091026842F001020260006800F00100EE
:1017100000900098C02001900220CDE90201CDE99F
:1017200004100020C4F2020001A9FFF7AFF81D2049
:1017300000210022FFF714FA1D20FFF701FA06B07E
:1017400080BD000080B590F83E2090F83F3090F8C2
:1017500042E090F843C0042909D0B1B9012A4FF002
:10176000010208BFBEF1010F32D0104680BD012B2F
:101770004FF0010208BFBCF1010FF6D1022180F841
:101780003F1080F8431000681EE0012A4FF001026C
:1017900008BF012BE9D1BEF1010FE6D1BCF1010F69
:1017A000E3D1022280F83E2080F83F2080F84220DA
:1017B00080F8432089B10068016A21F001010162CB
:1017C000016A41F00101016210216FF0100208E08E
:1017D000022180F83E1080F84210006801216FF06D
:1017E0000102036A1A400262026A1143016201683F
:1017F000002241F001010160104680BD70470000E9
:1018000010B5016804460869800744BFC8685FEAEC
:10181000807038D40869400744BFC8685FEA4070E8
:101820003DD40869000744BFC8685FEA007043D42C
:101830000869C00644BFC8685FEAC06048D4086948
:10184000C0071CBFC8685FEAC0704ED108690006B7
:1018500044BFC8685FEA00604FD40869400644BFCF
:10186000C8685FEA406050D40869800646BFC8680F
:101870005FEA806010BD6FF0200220460A61BDE87B
:101880001040FFF783BC6FF0020008610120207751
:101890008869800741D02046FFF7B0FF43E06FF032
:1018A0000400086102202077886910F4407F3ED050
:1018B0002046FFF7A3FF40E06FF008000861042016
:1018C0002077C86980073CD02046FFF797FF3EE0AD
:1018D0006FF01000086108202077C86910F4407F7D
:1018E00039D02046FFF78AFF3BE06FF00100086126
:1018F000204600F0FBFB2168A8E76FF0800008613C
:101900002046FFF741FC2168A7E76FF0400008611F
:10191000204600F0EDFB2168A6E7204600F0BEF966
:10192000204600F045FB21680020207772E7204622
:1019300000F0B4F9204600F03BFB2168002020773E
:101940006FE7204600F0AAF9204600F031FB21683D
:10195000002020776CE7204600F0A0F9204600F038
:1019600027FB21680020207769E700002DE9F0417E
:1019700086B0006840F6FF31C4F2000188424FF0A3
:1019800000010591CDE90311CDE9011126DCB0F18B
:10199000804F4CD040F60001C4F20001884240F074
:1019A0009F80002043F630010090C4F202010A68D3
:1019B00042F008020A60096801F0080100910099EC
:1019C0004FF4704101910221CDE90210CDE90401EB
:1019D0000020C4F2020000F540607EE040F60041C5
:1019E000C4F2000188425FD044F20001C4F2010158
:1019F000884275D1002043F630010090C4F2020104
:101A00000A6842F010020A60096801F010010091B2
:101A10000099602101910221CDE902100490032078
:101A200005900020C4F2020000F5805055E0002629
:101A300043F630000096C4F202000168002441F031
:101A4000010101600168C4F2020401F0010100918A
:101A50000099009601680DF1040841F0020101604F
:101A60000068022700F0020000900098012520463F
:101A70004146CDE90177CDE903670595FEF706FFFD
:101A80002420CDE9010720464146CDE903660595AE
:101A9000FEF7FCFE4FF40060CDE90107CDE90366D7
:101AA000059504F5806018E0002043F630010090B1
:101AB000C4F202010A6842F001020A60096801F0FA
:101AC000010100910099012101910221CDE902104B
:101AD0000020C4F20200CDE9041101A9FEF7D6FEF0
:101AE00006B0BDE8F0810000F0B590F83C30012B65
:101AF00004BF0220F0BD4FEAB2020123032A80F89E
:101B00003C3000F2C680DFE802F00234699E0268D1
:101B1000136A23F001031362136AD2F804E0956993
:101B20000C6825F073058E6845EA040C40F2004508
:101B300023F0020342F48064C4F20105AC4243EA9C
:101B4000060305D1CE6823F00C0326F004063343C8
:101B5000AC4206D1D1E905542EF440762E4346EA34
:101B6000040EC2F804E0C2F818C049685163136259
:101B70008EE00268136A42F4806423F0100313625B
:101B8000136AD2F804E096690D6826F4E6468F6879
:101B900046EA052C40F2004523F02003C4F201057B
:101BA000AC4243EA071307D1CE686FF0400723F039
:101BB000C00307EA06163343AC4207D1D1E90565F5
:101BC0002EF4406747EA860747EA850EC2F804E02C
:101BD000C2F818C049689163136259E00268136A39
:101BE00042F4806423F480731362136AD2F804E031
:101BF000D7690E6827F073078D6847EA060C40F234
:101C0000004623F40073C4F20106B44243EA0523FC
:101C100007D1CD6840F2FF472D0223F44063BD4356
:101C20002B43B44207D1D1E905652EF4405747EA6A
:101C3000061747EA051EC2F804E0C2F81CC049684E
:101C4000D163136224E0026840F20044136A42F454
:101C5000806523F480531362D2F820C05368D6699C
:101C6000C4F20104A5420D6826F4E6468F6846EAF0
:101C700005242CF4005646EA073504D14F6923F4B5
:101C8000804343EA87135360D46149681164156245
:101C90000023002180F83C101846F0BD704700007A
:101CA000002804BF0120704710B5044690F83D009D
:101CB00028B9002084F83C00204600F01FF80220DC
:101CC00084F83D002068211D01F0A2FA012084F86B
:101CD000460084F83E0084F83F0084F8400084F811
:101CE000410084F8420084F8430084F8440084F8FA
:101CF000450084F83D00002010BD00007047000042
:101D00002DE9F04190F83C30012B04BF0220BDE8E2
:101D1000F0814FEAB2020123032A80F83C3000F23E
:101D2000F780DFE802F0023F7FC003681A6A22F002
:101D300001021A621A461C6AD3F804C052F8186FDE
:101D40000D6826F073068F6846EA050E40F20046DD
:101D500024F0020443F48065C4F20106B54244EA6B
:101D6000070405D1CF6824F00C0427F004073C4396
:101D7000B54206D1D1E905652CF44077374347EAEF
:101D8000050CC3F804C0C3F818E04F6809695F6325
:101D90001C629F6947F008079F619F6927F004074D
:101DA0009F61B1E0036840F200481A6AC4F201087A
:101DB00022F010021A621A461D6AD3F804C052F8C3
:101DC000187F0E6827F4E6478C6847EA062E25F050
:101DD000200743F48065454547EA041407D1CF68DE
:101DE0006FF0400624F0C00406EA07163443454568
:101DF00007D1D1E905652CF4406747EA860747EA31
:101E0000850CC3F804C0C3F818E04F6809699F63E4
:101E10001C629F6947F400679F619F6927F4806790
:101E20009F6170E0036840F200481A6AC4F201083A
:101E300022F480721A621A461D6AD3F804C052F85E
:101E40001C7F0E6827F073078C6847EA060E25F49E
:101E5000007743F48065454547EA042408D1CF68FC
:101E600040F2FF463F0224F4406427EA060634436A
:101E7000454507D1D1E905652CF4405747EA0617D7
:101E800047EA051CC3F804C0C3F81CE04F680969A1
:101E9000DF631C62DF6947F00807DF61DF6927F055
:101EA0000407DF6130E0036840F200471A6A43F438
:101EB000806522F480521A621A46D3F820C05C680A
:101EC00052F81C6FC4F20107BD420F6826F4E646C3
:101ED0008D6846EA07272CF4005646EA053604D1F9
:101EE0004D6924F4804444EA85145C60DF614F68E6
:101EF00009691F641E62DF6947F40067DF61DF69FB
:101F000027F48067DF610902136819430023116019
:101F1000002180F83C101846BDE8F081002804BF7D
:101F20000120704710B5044690F83D0028B9002004
:101F300084F83C00204600F01FF8022084F83D00A1
:101F40002068211D01F064F9012084F8460084F81E
:101F50003E0084F83F0084F8400084F8410084F893
:101F6000420084F8430084F8440084F8450084F873
:101F70003D00002010BD000081B0006844F2000167
:101F8000C4F20101884201D001B0704700200090E6
:101F900043F64400C4F20200016841F4803101605C
:101FA000006800F480300090009801B07047000095
:101FB0007047000041B1082909D0042914BF00F17D
:101FC000410200F13F0204E000F13E0201E000F1B5
:101FD00040021278012A1CBF01207047022241B141
:101FE000082909D0042914BF80F8412080F83F2037
:101FF00004E080F83E2001E080F84020006801F015
:102000001F010122036A02FA01F123EA01020262BE
:10201000026A0A4341F2FF71C4F20001884202627F
:102020000FDC40F2FF71C4F2000188421BDCB0F10A
:10203000804F4DD040F20041C4F20001884247D0A9
:102040004DE040F2FF32C4F20102904218DC41F64A
:102050000003C4F2000398423AD00023C4F2010303
:10206000984219D03BE040F60001C4F200018842DA
:102070002ED040F60041C4F20001884228D02EE064
:1020800044F20003C4F20103984221D040F200431D
:10209000C4F20103984222D1436C884243F40043C6
:1020A0004364BEDD904207DC41F60001C4F200014A
:1020B00088420DD0002107E044F20001C4F2010182
:1020C000884205D040F20041C4F20101884206D1A5
:1020D000816801F00701062904BF002070470168EC
:1020E00041F00101016000207047000070470000CE
:1020F000704700007047000070470000F0B581B0E5
:10210000044600680168C268456901F02F03202B6E
:1021100002F0200306D12BB1204601B0BDE8F0400B
:1021200001F0D6BE5FEA017C07D005F0010E12F483
:10213000907F8EF001052FD175B3236B1140CA0635
:1021400018D5012B16D1002100910168009141683A
:10215000009100994169490600F18281A18DE28DCB
:10216000E38D002B1CBF891A5FEA014240F0FD801D
:1021700001B0F0BD0A0600F12B824906F8D5C1680E
:1021800021F04001C1602021204684F83D1001B0BB
:10219000BDE8F04000F01ABBCE0718BF12F48076FD
:1021A00003D0266C46F00106266401F004070126E0
:1021B00086EA97072F4303D1276C47F0020727646D
:1021C00001F0020786EA5706354303D1256C45F036
:1021D0000405256453EA0E0318BF0123BCF1000F68
:1021E00004D51BB1236C43F008032364236C002B3C
:1021F000BED01140890603D5204601F069FE206853
:102200004169226C01F0400102F00802891800F0D7
:10221000F08100BF50E8030F216820F4907041E87E
:102220000302C2B3206850E8030F216820F49070C5
:1022300041E803027AB3206850E8030F216820F4D4
:10224000907041E8030232B3206850E8030F216820
:1022500020F4907041E80302EAB12068DAE700BF99
:10226000206850E8050F216820F0010041E80502D0
:10227000DAB1206850E8050F216820F0010041E83C
:10228000050292B1206850E8050F216820F0010096
:1022900041E805024AB1206850E8050F216820F0A6
:1022A000010041E80502002ADAD1206B012824D17F
:1022B000206850E8030F216820F0100041E8030275
:1022C000DAB1206850E8030F216820F0100041E8DF
:1022D000030292B1206850E8030F216820F010003B
:1022E00041E803024AB1206850E8030F216820F05A
:1022F000100041E80302002ADAD1202084F83E00D1
:102300000020206320684169490640F18B8150E834
:10231000050F216820F0400041E80502002A00F086
:102320006F81206850E8050F216820F0400041E8E7
:102330000502002A00F06481206850E8050F21683A
:1023400020F0400041E80502002A00F05981206891
:1023500050E8050F216820F0400041E80502002AFE
:1023600000F04E812068D2E7206850E8030F226811
:1023700020F4907042E80303BBB3206850E8030FD9
:10238000226820F4907042E8030373B3206850E899
:10239000030F226820F4907042E803032BB32068F7
:1023A00050E8030F226820F4907042E80303002BEA
:1023B000DAD11AE0206850E8050F226820F0010009
:1023C00042E80503DBB1206850E8050F226820F0E1
:1023D000010042E8050393B1206850E8050F226828
:1023E00020F0010042E805034BB1206850E8050FDA
:1023F000226820F0010042E80503002BDAD12020FA
:1024000084F83E0000202063206850E8030F226813
:1024100020F0100042E80303DBB1206850E8030F0E
:10242000226820F0100042E8030393B1206850E8CE
:10243000030F226820F0100042E803034BB120682C
:1024400050E8030F226820F0100042E80303002B3D
:10245000DAD189B2204601B0BDE8F040FFF74ABEAC
:10246000A26B11684B689EB2002E3FF481AEA18D25
:102470008E42BFF47DAEE385D269B2F5807F00F075
:102480009E8050E8030F216820F4807041E8030229
:10249000E2B1206850E8030F216820F4807041E821
:1024A00003029AB1206850E8030F216820F480707D
:1024B00041E8030252B1206850E8030F216820F47C
:1024C000807041E803020AB12068DAE7206850E82A
:1024D000050F216820F0010041E80502BAB3206829
:1024E00050E8050F216820F0010041E8050272B3B1
:1024F000206850E8050F216820F0010041E805023E
:102500002AB3206850E8050F216820F0010041E857
:102510000502002ADAD11AE0206850E8050F216888
:1025200020F0400041E80502DAB1206850E8050FCC
:10253000216820F0400041E8050292B1206850E88F
:10254000050F216820F0400041E805024AB12068EB
:1025500050E8050F216820F0400041E80502002AFC
:10256000DAD1202084F83E0000202063206850E863
:10257000030F216820F0100041E80302DAB120685F
:1025800050E8030F216820F0100041E8030292B1E7
:10259000206850E8030F216820F0100041E8030292
:1025A0004AB1206850E8030F216820F0100041E88C
:1025B0000302002ADAD1A06BFDF754FFA18DE08D54
:1025C000081A81B2204601B0BDE8F040FFF792BD85
:1025D00094F83D1021297FF4CBADA168B1F5805F5F
:1025E00001D1216921B3216A4A1C22620978416024
:1025F00025E02046FFF780FD0020206401B0F0BDFB
:10260000A06B78B143F6C561C0F600010165FDF726
:1026100071FF00283FF4ACADA06B016D01B0BDE8C7
:10262000F0400847204601B0BDE8F040FFF764BD28
:10263000216A31F8022B6FF35F2242602162E18C44
:1026400001390A04E1847FF493ADC16821F080016F
:10265000C160C16841F04001C16001B0F0BD00003F
:10266000002804BF0120704710B5044690F83D00D3
:1026700028B9002084F83C00204600F021F82420EE
:1026800084F83D002068C16821F40051C1602046F3
:1026900001F09CFC2068016921F4904101614169CD
:1026A00021F02A014161C16841F40051C16000205C
:1026B0002021206484F83D1084F83E1010BD0000F5
:1026C0002DE9F04786B0002604460596CDE903665D
:1026D00041F200402168C4F2010081420296019655
:1026E00002D006B0BDE8F08743F630010096C4F290
:1026F00002014A6946F2284842F020024A614A69CA
:1027000000F5744002F020020092009A00960A68D8
:10271000C4F2020842F004020A60096801F00401F0
:1027200000910099C02101910221CDE902160321F7
:1027300004910821059101A9FEF7A8F840F2AC0523
:10274000C2F200054FF0206A4FF480694FF48070A8
:10275000C5E9008AC5E90266C5E90496C5E90660CF
:102760004FF480372846C5E90876FDF7B5FF002805
:1027700018BFFDF771FEA563AC6340F20C1508F1BC
:102780007800C2F200054021C5E9000A05F1080001
:10279000002280E806022846C5E90522C5E9072788
:1027A0006A62FDF799FF002818BFFDF755FE472024
:1027B000022100226563AC63FEF7D2F94720FEF7E1
:1027C000BFF906B0BDE8F087704700007047000011
:1027D000FEE7000040F24420C2F2000000684FF41F
:1027E000487141637047000040F24420C2F200008B
:1027F000006840F28A2181637047000040F2442063
:10280000C2F2000000684FF4AF61C163704700007E
:1028100040F2B410C2F2000000684FF44871C16386
:102820007047000040F24420C2F20000006840F20D
:102830008A2101647047000040F24420C2F2000087
:10284000006840F6980141637047000040F2442060
:10285000C2F2000000684FF4FA6181637047000023
:1028600040F24420C2F20000006840F62821C16313
:102870007047000040F2B410C2F20000006840F659
:102880003401C1637047000040F24420C2F20000EE
:1028900000684FF4FA6101647047000080B582B0AF
:1028A0000020019043F63000C4F2020001680022CB
:1028B00041F4800101600068002100F48000019073
:1028C00001983920FEF74CF93920FEF739F94520F7
:1028D00000210022FEF744F9452002B0BDE8804007
:1028E000FEF72EB92DE9F04F87B0002543F63000F2
:1028F000CDE905550195C4F20200016840F2004A95
:1029000041F0100101600168C4F2020A01F01001F7
:102910000191019901950168AAF5806441F0800157
:1029200001600168002201F0800101910199019587
:102930000168182641F001010160016801F0010100
:10294000019101990195016841F00401016001685C
:1029500001F00401019101990195016841F0020122
:102960000160016801F0020101910199019501687E
:1029700041F0080101600068182100F00800019092
:1029800001982046FEF766F80AF580684046302137
:102990000022FEF75FF8504647F287010022FEF75B
:1029A00059F80AF50069484604210022FEF752F85A
:1029B000102002904FF4041002AF03904FF0010B6F
:1029C0000AF540603946CDF810B0FDF75FFFCDE95C
:1029D000026B022620463946CDF810B00596FDF769
:1029E00055FF3020CDE9020B40463946CDE904665B
:1029F000FDF74CFF0720CDE9020B50463946CDE9E3
:102A00000466FDF743FF4FF4E140CDE9020B504669
:102A10003946CDE90455FDF739FF48F22800CDE9E4
:102A20000205504639460495FDF730FF40F2BA7072
:102A3000CDE90205484639460495FDF727FF4FF4D6
:102A4000E050CDE90205404639460495FDF71EFFEA
:102A50000420CDE9020B48463946CDE90455FDF77F
:102A600015FF0A2000210022FEF77AF80A20FEF75F
:102A700067F807B0BDE8F08F10B58CB040F26C106D
:102A800000210024C2F20000C4F20101C0E90014D8
:102A90000321CDE90314012144F62062CDE9051498
:102AA000CDE90744CDE9091403A9CDE90044C0E903
:102AB0000242C0E9044484610B94FEF779FD0028CA
:102AC00018BFFDF7C9FC40F26C10C2F20000694665
:102AD000CDE90044FEF75CFB002818BFFDF7BCFC05
:102AE0000CB010BD10B58EB040F2B4100021C2F28F
:102AF00000004FF08042472344F61F640D91CDE95A
:102B00000B11CDE90911CDE90711CDE90511CDE989
:102B10000311CDE90111C0E90023C0E902140161EC
:102B20008161FEF791FB002818BFFDF795FC4FF47B
:102B300080500A9040F2B410C2F200000AA9FEF7D9
:102B400069FC002818BFFDF787FC40F2B410C2F200
:102B50000000FFF7E3F9002818BFFDF77DFC40F205
:102B6000B410C2F20000FFF79BF8002818BFFDF771
:102B700073FC40F2B4100024C2F2000008A9CDE9B1
:102B80000844FEF705FB002818BFFDF765FC602030
:102B9000CDE9010440F2B410C2F2000001A9002204
:102BA00003940594FFF7ACF8002818BFFDF754FC18
:102BB00040F2B410C2F2000001A90422FFF7A0F80D
:102BC000002818BFFDF748FC40F2B410C2F2000024
:102BD00001A90822FFF794F8002818BFFDF73CFC74
:102BE0000020019040F2B410C2F2000001A90C22B2
:102BF000FEF77AFF002818BFFDF72EFC40F2B41054
:102C0000C2F20000FEF7B2FE0EB010BD10B58CB0DF
:102C100040F2FC1040F200410024C2F20000C4F275
:102C20000001C0E900140321CDE90314012144F699
:102C30002062CDE90514CDE90744CDE9091403A9C3
:102C4000CDE90044C0E90242046184610B94FEF7BF
:102C5000AFFC002818BFFDF7FFFB40F2FC10C2F2EA
:102C600000006946CDE90044FEF792FA002818BF3B
:102C7000FDF7F2FB0CB010BD10B58EB040F2442051
:102C800040F600020021C2F20000C4F20002472315
:102C900044F61F640D91CDE90B11CDE90911CDE981
:102CA0000711CDE90511CDE90311CDE90111C0E905
:102CB0000023C0E9021401618161FEF7C5FA002812
:102CC00018BFFDF7C9FB4FF480500A9040F2442032
:102CD000C2F200000AA9FEF79DFB002818BFFDF70D
:102CE000BBFB40F24420C2F20000FFF717F90028B6
:102CF00018BFFDF7B1FB40F244200024C2F20000EF
:102D000008A9CDE90844FEF743FA002818BFFDF7EB
:102D1000A3FB6020CDE9010440F24420C2F2000090
:102D200001A9002203940594FEF7EAFF002818BFCA
:102D3000FDF792FB40F24420C2F2000001A90422F8
:102D4000FEF7DEFF002818BFFDF786FB40F24420A7
:102D5000C2F2000001A90822FEF7D2FF002818BF26
:102D6000FDF77AFB40F24420C2F2000001A90C22D8
:102D7000FEF7C6FF002818BFFDF76EFB40F24420A7
:102D8000C2F20000FEF7F2FD0EB010BD10B58EB01D
:102D900040F28C2040F600420021C2F20000C4F252
:102DA000000241F61F43C7240D91CDE90B11CDE977
:102DB0000911CDE90711CDE90511CDE90311CDE9DF
:102DC0000111C0E90023C0E9021401618021816181
:102DD000FEF73AFA002818BFFDF73EFB4FF480508B
:102DE0000A9040F28C20C2F200000AA9FEF712FB02
:102DF000002818BFFDF730FB40F28C20C2F2000023
:102E0000FFF78CF8002818BFFDF726FB40F28C2056
:102E10000024C2F2000008A9CDE90844FEF7B8F981
:102E2000002818BFFDF718FB6020CDE9010440F22F
:102E30008C20C2F2000001A9002203940594FEF741
:102E40005FFF002818BFFDF707FB40F28C20C2F29D
:102E50000000FEF78BFD0EB010BD000010B582B073
:102E600040F2D42041F200010024C2F20000C4F27A
:102E7000000142F20F73CDE9004440F2CF2280E816
:102E80001600C3608461FEF7DFF9002818BFFDF764
:102E9000E3FA40F2D420C2F200006946CDE90044D2
:102EA000FEF776F9002818BFFDF7D6FA02B010BD7C
:102EB00010B588B040F21C3044F200010024C2F288
:102EC0000000C4F2010142F20F730794CDE90544FA
:102ED000CDE90344CDE90144472280E81600C0E96A
:102EE00003348461FFF71AF8002818BFFDF7B4FA1D
:102EF0006020CDE9010440F21C30C2F2000001A9BB
:102F0000002203940594FEF7FBFE002818BFFDF78E
:102F1000A3FA40F21C30C2F2000001A90422FEF71D
:102F2000EFFE002818BFFDF797FA40F21C30C2F2FE
:102F30000000FEF71BFD08B010BD000080B540F298
:102F4000643041F20041C2F20000C4F201010023EA
:102F50004FF00C0C4FF4E13280E80E00C0E903336F
:102F6000C0E905C3C361FFF77BFB002808BF80BD34
:102F7000BDE88040FDF770BAFEE70000FEE7000004
:102F8000002857D0D0E90F31C0E91031027880ED28
:102F9000070A30EEC00A002A01EE103AC0ED060A18
:102FA00080ED0F0A49D0012A40F0918090ED015A3E
:102FB00090ED026A30EE414A25EE044A20EE065AB0
:102FC00080ED094A80ED0A5A03EE101AD0E90C127E
:102FD00031EE011A90ED037A30EE410A90ED042AA9
:102FE000C0E90D1230EE030A80ED0C0A20EE070A4C
:102FF00034EE051A90ED083A80ED0B0A31EE000A26
:1030000033EE000AB4EE420AF1EE10FA80ED080A3F
:10301000C2BF80ED082AB0EE420A7047B1EE421AF4
:10302000B4EE410AF1EE10FABCBF80ED081AB0EE22
:10303000410A70479FED270A704790ED024A90EDD4
:10304000012A90ED0A6A20EE044A20EE022A36EEAA
:10305000044A90ED053A80ED092A80ED0A4A90ED88
:10306000035AD0E90C1230EE410AB4EE434AC0E9EB
:103070000D1280ED0C0A20EE050AF1EE10FA80ED3B
:103080000B0A06DCB1EE433AB4EE434AF1EE10FA15
:1030900003DAB0EE434A80ED0A3A32EE042A90EDAC
:1030A000041A30EE020AB4EE410AF1EE10FA80ED95
:1030B000080A07DCB1EE411AB4EE410AF1EE10FA4B
:1030C000A8BF7047B0EE410A80ED081A704790ED36
:1030D000080A704700000000002808BF704780B54C
:1030E00018303021FDF738F9BDE880407047000006
:1030F000002818BF002A00D1704780B513680170FE
:103100004360536828218360926880ED040AC2609E
:10311000C0ED050A2030FDF71FF9BDE8804070477B
:103120007047000070470000FDF7A0BCB0B592B03A
:10313000002443F64000CDE90A44CDE90844059453
:10314000CDE90344CDE901440094C4F202000168D2
:10315000022541F080510160006800F0805000902D
:10316000009847F200000094C4F20000016841F4A6
:10317000804101600068482100F480400090009880
:10318000012006904FF4803007904FF480000D909E
:1031900004200C950E90CDE90F15119006A8FDF7AF
:1031A00029FE20B1EFF3108072B600BFFEE70F20BA
:1031B000CDE901054FF480500394CDE9040401A842
:1031C0000221FDF709FD20B1EFF3108072B600BFB8
:1031D000FEE712B0B0BD00004EF68850CEF20000FF
:1031E000016841F4700101607047000040F2FC107A
:1031F000C2F20000FEF704BB40F28C20C2F20000D5
:10320000FEF7FEBA40F2D420C2F20000FEF7F8BA90
:1032100010B540F6FF3E0368C4F2000E40F2004CC9
:103220007045C4F2010C26DCB0F1804F30D040F282
:103230000042C4F2000290422AD040F60002C4F2DA
:103240000002904224D041F6FF72C4F20002904284
:1032500028DC70453ADCB0F1804F5CD040F200428F
:10326000C4F20002904256D040F60002C4F20002BE
:10327000904250D053E040F60042C4F20002904227
:1032800006D0604504D00022C4F201029042DAD197
:103290004A6823F07003134341F6FF72C4F2000240
:1032A0009042D6DD43F6FF72C4F20102904220DC68
:1032B00042F20002C4F2000290422CD00022C4F27A
:1032C0000102904227D0604525D028E040F6004218
:1032D000C4F2000290421ED041F60002C4F2000285
:1032E000904218D041F60042C4F20002904212D03F
:1032F00015E044F20002C4F2010290420BD044F601
:103300000002C4F20102904205D044F20042C4F22D
:103310000102904203D1CA6823F44073134323F09F
:1033200080024B69D1F800E08C681A430260C462E5
:1033300040F48062C0F828E0624504BF0969016377
:103340000121416110BD00002DE9F04F81B02DED4C
:10335000048B82B040F2A838C2F2000840F6004B5D
:103360004046C4F2020BFFF7B7FE08F148042046BE
:10337000FFF7B2FE40F2780A9FED868A9FED869AAB
:10338000C2F2000A002045F6F002CAE90500C0F6C4
:10339000000240460021B0EE480AF0EE490AFFF76D
:1033A000A7FE45F6FC02C0F6000220460021B0EE62
:1033B000480AF0EE490A0194FFF79AFE2424ABF57F
:1033C000006944F620660027C4F2010408E000BF4B
:1033D00028213C20AAF80A00AAF80C1000F0A8FE48
:1033E00040F22442C4F20002106842F2107C81B222
:1033F000614588BF301ADAF81410AAF8020001FA01
:1034000080F1CAF814101760DAF81810BAF904201D
:10341000BAF90A301144CAF81810216802B28DB204
:1034200000EE102A01EE103A654588BF711AAAF81D
:103430000010AAF804102760AAF80600AAF80810DD
:10344000B8EEC00AF8EEC10A4046FFF799FDBAF996
:103450000800BAF90C1000EE100A01EE101AB8EECE
:10346000C00AF8EEC10A0198FFF78AFD98ED080A34
:1034700098ED1A1A44F23400BCEEC00AC4F20100FE
:1034800080ED000ABCEEC10A80ED010A3220FDF792
:10349000D1F948464FF40041FDF7D6FA012806D08D
:1034A00058464FF48071FDF7CFFA01280BD1DAF8B6
:1034B000140041F27C51884263DCDAF8180041F2D2
:1034C0007D5188425DDA48462021FDF7BDFA58B9A2
:1034D00058460821FDF7B8FA012805D158461021B1
:1034E000FDF7B2FA90B100BF48462021FDF7ACFAD3
:1034F00001280FD158460821FDF7A6FA012809D165
:1035000058461021FDF7A0FA012803D13C203C21A8
:1035100060E700BF48462021FDF796FA01280BD14D
:1035200058460821FDF790FA30B958461021FDF7AA
:103530008BFA00283FF44CAF58460221FDF784FA7D
:1035400001283FF445AF48462021FDF77DFA68B9D0
:1035500058460821FDF778FA40B958461021FDF782
:1035600073FA012802D13C21282033E75846202154
:10357000FDF76AFA3C2101284FF03C0008BF2820E3
:1035800028E702B0BDEC048B01B0BDE8F04F00F0BD
:10359000B3BD00BF00803B450000C8422DE9F04F9D
:1035A00081B02DED048B40F2A834C2F20004204615
:1035B000FFF792FD04F1480B5846FFF78DFD40F2EE
:1035C00078079FED408A9FED409AC2F200074FF0C6
:1035D000281045F6F002C7F80A00C0F6000220469F
:1035E0000021B0EE480AF0EE490A4FF0000AFFF75A
:1035F0007FFD45F6FC02C0F6000258460021B0EE01
:10360000480AF0EE490AFFF773FD24260A2544F61E
:10361000206842F21079C4F2010600BF40F2244251
:10362000C4F20002106881B2494588BFA8EB0000CF
:103630007880C2F800A0316802B28BB200EE102A86
:103640004B4588BFA8EB01013980B980C6F800A0BE
:10365000F8803981B8EEC00AB7F90A0001EE100A05
:10366000F8EEC10A2046FFF78BFCB7F90800B7F95E
:103670000C1000EE100A01EE101AB8EEC00AF8EEB7
:10368000C10A5846FFF77CFC94ED080A94ED1A1A1B
:1036900044F23400BCEEC00AC4F2010080ED000A1E
:1036A000BCEEC10A80ED010A3220FDF7C3F800F03C
:1036B00007FD013DB2D1BDEC048B01B0BDE8F04F78
:1036C00000F01ABD00803B450000C8422DE9F04FD4
:1036D00081B02DED048B40F2A834C2F200042046E4
:1036E000FFF7FAFC04F1480B5846FFF7F5FC40F2EF
:1036F00078079FED408A9FED409AC2F200074FF095
:10370000281045F6F002C7F80A00C0F6000220466D
:103710000021B0EE480AF0EE490A4FF0000AFFF728
:10372000E7FC45F6FC02C0F6000258460021B0EE68
:10373000480AF0EE490AFFF7DBFC24260A2544F686
:10374000206842F21079C4F2010600BF40F2244220
:10375000C4F20002106881B2494588BFA8EB00009E
:103760007880C2F800A0316802B28BB200EE102A55
:103770004B4588BFA8EB01013980B980C6F800A08D
:10378000F8803981B8EEC00AB7F90A0001EE100AD4
:10379000F8EEC10A2046FFF7F3FBB7F90800B7F9C6
:1037A0000C1000EE100A01EE101AB8EEC00AF8EE86
:1037B000C10A5846FFF7E4FB94ED080A94ED1A1A83
:1037C00044F23400BCEEC00AC4F2010080ED000AED
:1037D000BCEEC10A80ED010A3220FDF72BF800F0A3
:1037E000A7FC013DB2D1BDEC048B01B0BDE8F04FA8
:1037F00000F082BC00803B450000C8422DE9F04F3C
:1038000081B02DED048B82B040F2A838C2F20008DE
:1038100040F6004B4046C4F2020BFFF75DFC08F196
:1038200048042046FFF758FC40F2780A9FED848A4E
:103830009FED849AC2F2000A002045F6F002CAE920
:103840000500C0F6000240460021B0EE480AF0EE46
:10385000490AFFF74DFC45F6FC02C0F6000220467F
:103860000021B0EE480AF0EE490A0194FFF740FC4F
:103870002424ABF5006944F620660027C4F2010455
:1038800008E000BF19213C20AAF80A00AAF80C1091
:1038900000F04EFC40F22442C4F20002106842F2F2
:1038A000107C81B2614588BF301ADAF81410AAF88A
:1038B000020001FA80F1CAF814101760DAF8181043
:1038C000BAF90420BAF90A301144CAF8181021686C
:1038D00002B28DB200EE102A01EE103A654588BFA3
:1038E000711AAAF80010AAF804102760AAF80600B6
:1038F000AAF80810B8EEC00AF8EEC10A4046FFF771
:103900003FFBBAF90800BAF90C1000EE100A01EEFC
:10391000101AB8EEC00AF8EEC10A0198FFF730FBA2
:1039200098ED080A98ED1A1A44F23400BCEEC00A69
:10393000C4F2010080ED000ABCEEC10A80ED010A6C
:103940003220FCF777FF48464FF40041FDF77CF842
:10395000012806D058464FF48071FDF775F801280C
:1039600007D1DAF81400962861DCDAF818009728F5
:103970005DDA48462021FDF767F858B95846082116
:10398000FDF762F8012805D158461021FDF75CF8D3
:1039900090B100BF48462021FDF756F801280FD10D
:1039A00058460821FDF750F8012809D15846102142
:1039B000FDF74AF8012803D13C203C2164E700BF11
:1039C00048462021FDF740F801280BD15846082130
:1039D000FDF73AF830B958461021FDF735F80028C0
:1039E0003FF450AF58460221FDF72EF801283FF46E
:1039F00049AF48462021FDF727F868B95846082105
:103A0000FDF722F840B958461021FDF71DF80128AE
:103A100002D13C21192037E758462021FDF714F840
:103A20003C2101284FF03C0008BF19202CE702B0D0
:103A3000BDEC048B01B0BDE8F04F00F05DBB00BFF2
:103A400000803B450000C8422DE9F04F81B02DEDCC
:103A5000048B82B040F2A835C2F2000540F60004A3
:103A60002846C4F20204FFF737FB05F1480B58461D
:103A7000FFF732FB9FED828A9FED829A45F6F002B6
:103A8000C0F6000228460021B0EE480AF0EE490ACE
:103A90000027FFF72DFB45F6FC02C0F60002584652
:103AA0000021B0EE480AF0EE490AFFF721FB40F290
:103AB000780A242644F6206842F21079C2F2000AFD
:103AC00004F58060C4F2010601900DE020464FF439
:103AD0008061FCF7B9FF002800F0B0804FF03C1087
:103AE000CAF80A0000F0ECFA40F22442C4F20002E4
:103AF000106881B2494588BFA8EB0000AAF802000F
:103B00001760316802B28BB200EE102A4B4588BFB5
:103B1000A8EB0101AAF80010AAF804103760AAF86F
:103B20000600AAF80810B8EEC00ABAF90A0001EEB9
:103B3000100AF8EEC10A2846FFF722FABAF908007F
:103B4000BAF90C1000EE100A01EE101AB8EEC00A15
:103B5000F8EEC10A5846FFF713FA95ED080A95EDFD
:103B60001A1A44F23400BCEEC00AC4F2010080ED1F
:103B7000000ABCEEC10A80ED010A3220FCF75AFEB1
:103B800020464FF48061FCF75FFF01280CD12046EE
:103B90004FF48051FCF758FF012805D1019880218E
:103BA000FCF752FF012863D020464FF48061FCF7F8
:103BB0004BFF68B920464FF48051FCF745FF0128C0
:103BC00006D101988021FCF73FFF00283FF486AF23
:103BD00020464FF48061FCF737FF68B920464FF468
:103BE0008051FCF731FF38B901988021FCF72CFF98
:103BF00000283FF473AF00BF20464FF48061FCF70C
:103C000023FF01287FF462AF20464FF48051FCF778
:103C10001BFF00287FF45AAF01988021FCF714FFA6
:103C200000287FF453AF3C20C0F22800CAF80A00F5
:103C300000F046FA0120CAF8100055E720464FF47C
:103C40008051FCF701FF00287FF448AF01988021E4
:103C5000FCF7FAFE01287FF441AF2820C0F23C00B7
:103C6000CAF80A0000F02CFA0220CAF810003BE75C
:103C700002B0BDEC048B01B0BDE8F04F00F03CBADF
:103C800000803B450000C8422DE9F04F81B02DED8A
:103C9000048B82B040F2A835C2F2000540F6000461
:103CA0002846C4F20204FFF717FA05F1480B5846FC
:103CB000FFF712FA9FED818A9FED819A45F6F00297
:103CC000C0F6000228460021B0EE480AF0EE490A8C
:103CD0000027FFF70DFA45F6FC02C0F60002584631
:103CE0000021B0EE480AF0EE490AFFF701FA40F26F
:103CF000780A242644F6206842F21079C2F2000ABB
:103D000004F58060C4F2010601900DE020464FF4F6
:103D10008061FCF799FE002800F0AE804FF03C1067
:103D2000CAF80A0000F0CCF940F22442C4F20002C2
:103D3000106881B2494588BFA8EB0000AAF80200CC
:103D40001760316802B28BB200EE102A4B4588BF73
:103D5000A8EB0101AAF80010AAF804103760AAF82D
:103D60000600AAF80810B8EEC00ABAF90A0001EE77
:103D7000100AF8EEC10A2846FFF702F9BAF908005E
:103D8000BAF90C1000EE100A01EE101AB8EEC00AD3
:103D9000F8EEC10A5846FFF7F3F895ED080A95EDDD
:103DA0001A1A44F23400BCEEC00AC4F2010080EDDD
:103DB000000ABCEEC10A80ED010A3220FCF73AFD90
:103DC00020464FF48061FCF73FFE58B920464FF47F
:103DD0008051FCF739FE28B901988021FCF734FEA8
:103DE000002863D020464FF48061FCF72DFE68B9AF
:103DF00020464FF48051FCF727FE012806D1019898
:103E00008021FCF721FE00283FF488AF20464FF4C4
:103E10008061FCF719FE68B920464FF48051FCF729
:103E200013FE38B901988021FCF70EFE00283FF4FC
:103E300075AF00BF20464FF48061FCF705FE0128F6
:103E40007FF464AF20464FF48051FCF7FDFD00285D
:103E50007FF45CAF01988021FCF7F6FD00287FF429
:103E600055AF3C20C0F22800CAF80A0000F028F93B
:103E70000120CAF8100057E720464FF48051FCF7A4
:103E8000E3FD00287FF44AAF01988021FCF7DCFDB8
:103E900001287FF443AF2820C0F23C00CAF80A0092
:103EA00000F00EF90220CAF810003DE702B0BDECA8
:103EB000048B01B0BDE8F04F00F01EB900803B4517
:103EC0000000C842806B0021C185C184FEF714B98F
:103ED00081B090F83E10222920D18368B3F5805F2D
:103EE00008D10169002964D000F128010A6803683B
:103EF0005B680AE0014651F8282F13B90369002BCB
:103F0000F5D003685B6803F07F0313700A68013221
:103F10000A60C18D01390A04C18501D001B0704722
:103F20000168CA6822F02002CA60CA6822F480725E
:103F3000CA604A6922F001024A61202280F83E20CC
:103F4000026B012A3ED10022026300BF51E8031F29
:103F5000026821F0100142E803130168DBB151E867
:103F6000031F026821F0100142E80313016893B1B6
:103F700051E8031F026821F0100142E803130168B1
:103F80004BB151E8031F026821F0100142E803130E
:103F90000168002BDAD10A68D20606D50022009209
:103FA0000A680092496800910099818D01B0FEF77E
:103FB000A1B80168826A49686FF35F2122F8021B89
:103FC0008262A6E701B0FEF7FFBB000010B5044611
:103FD0000068D4E902C22369016921F44051114308
:103FE0000161626943EA0C01E3691143C268194344
:103FF00049F20C639A431143C1604169A26921F4FB
:10400000407141F20043114340F48062C4F2010365
:104010009A42416102D1FCF7A3FE01E0FCF78CFE5D
:10402000E16963681922B1F5004FA0FB02011FD1BD
:104030005A00DB0FFCF718F948F21F51C5F2EB11DB
:10404000A0FB01235A096FF0630302FB0300322334
:1040500003EBC000A0FB01014FF4F87000EA11105F
:1040600000EB0210C1F3421122680843906010BDBA
:104070009A009B0FFCF7F8F848F21F51C5F2EB11BC
:10408000A0FB01235A096FF0630302FB03003223F4
:1040900003EB0010A0FB0101F02000EA511000EB3F
:1040A0000210C1F3431122680843906010BD000064
:1040B00040F26430C2F20000FEF720B8FEE70000D4
:1040C00010B50024C4F20204204608210122FCF7A6
:1040D000C1FC204610210022FCF7BCFC04F5006462
:1040E000204610210122FCF7B5FC204620210022A9
:1040F000BDE81040FCF7AEBC10B50024C4F20204C9
:10410000204608210022FCF7A5FC204610210022B1
:10411000FCF7A0FC04F50064204610210022FCF707
:1041200099FC204620210022BDE81040FCF792BCFB
:1041300010B50024C4F20204204608210022FCF736
:1041400089FC204610210122FCF784FC04F5006460
:10415000204610210022FCF77DFC20462021012270
:10416000BDE81040FCF776BCFCF78EFCFEF7DEFFE6
:10417000FEF7B8FBFEF792FBFEF7E0FEFEF77CFCD5
:10418000FEF744FDFEF778FDFEF700FEFEF766FE43
:10419000FEF7A8FCFEF78CFEFEF7A4FBFEF77EFB05
:1041A000FEF7CCFEFEF768FCFEF730FDFEF764FD7F
:1041B000FEF7ECFDFEF752FEFEF794FC40F21C34D5
:1041C000C2F2000420460021FDF7F4FE204604213F
:1041D000FDF7F0FE40F2B414C2F2000420460021C4
:1041E000FDF7E8FE20460821FDF7E4FE40F24424F6
:1041F000C2F2000420460021FDF7DCFE2046042127
:10420000FDF7D8FE20460821FDF7D4FE20460C21FC
:10421000FDF7D0FE40F26C10C2F200003C21FDF729
:1042200091FA40F2FC10C2F200003C21FDF78AFA3C
:1042300040F2D420C2F20000FDF798F800F042FFEF
:1042400040F60200FCF7EEF8FFF77EF84FF47A70C4
:10425000FCF7F0FAFEF7BEFA4FF47A70FCF7EAFAD0
:104260004FF4FA70FCF7DEF8FFF7EEFB4FF47A70CC
:10427000FCF7E0FAFFF792F94FF47A70FCF7DAFAFC
:1042800001F02EF84FF47A70FCF7D4FAFFF7B6FA83
:104290004FF47A70FCF7CEFAFEF7A6FA4FF47A7074
:1042A000FCF7C8FA40F26B30FCF7BCF84FF47A70B8
:1042B000FCF7C0FAFFF7C8FB4FF47A70FCF7BAFAC4
:1042C000FFF76CF94FF47A70FCF7B4FA01F036FAA4
:1042D0004FF47A70FCF7AEFAFFF790FA4FF47A7069
:1042E000FCF7A8FAFEF78AFA4FF47A70FCF7A2FA04
:1042F000FFF7AAFB4FF47A70FCF79CFAFFF74EF930
:104300004FF47A70FCF796FA00F0EAFF40F60200EC
:10431000FCF788F84FF4FA70FCF78CFA4FF4FA7057
:10432000FCF780F84FF4FA70FCF784FA40F2393069
:10433000FCF778F84FF47A70FCF77CFA00F0B8FCE0
:1043400040F2A804C2F2000420604FF4FA70FCF7B7
:1043500069F84FF4FA70FCF76DFA40F60200FCF7CA
:1043600061F86420FCF766FA206800F03FFE6420E4
:10437000FCF760FAFFF742FA6420FCF75BFAFFF7FC
:10438000A5F96420FCF756FAFFF738FA6420FCF729
:1043900051FAFEF751FA4FF47A70FCF74BFAFFF737
:1043A00053FB4FF4FA70FCF745FAFFF7F7F84FF4B8
:1043B000FA70FCF73FFA206800F03AFE4FF47A708A
:1043C000FCF738FA4FF4FA70FCF72CF84FF4FA7057
:1043D000FCF730FA40F26B30FCF724F84FF4FA7037
:1043E000FCF728FA40F21450FCF71CF84FF47A70EE
:1043F000FCF720FA00F05CFC206040F26B30FCF728
:1044000011F84FF4FA70FCF715FA4FF4FA70FCF754
:1044100009F86420FCF70EFA206800F0E7FD64203C
:10442000FCF708FAFFF7EAF96420FCF703FAFFF754
:104430004DF96420FCF7FEF9FFF7E0F96420FCF782
:10444000F9F9FEF703FA4FF47A70FCF7F3F9FFF786
:10445000FBFA4FF4FA70FCF7EDF9FFF79FF84FF411
:10446000FA70FCF7E7F9206800F0E2FD4FF47A708B
:10447000FCF7E0F940F26B30FBF7D4FF4FF4FA7031
:10448000FCF7D8F940F2E240FBF7CCFF4FF4FA70AA
:10449000FCF7D0F940F2A460FBF7C4FF4FF47A7048
:1044A000FCF7C8F900F004FC206040F2E240FBF7A2
:1044B000B9FF4FF4FA70FCF7BDF940F26B30FBF72F
:1044C000B1FF6420FCF7B6F9206800F08FFD64208E
:1044D000FCF7B0F9FFF792F96420FCF7ABF9FFF7AE
:1044E000F5F86420FCF7A6F9FFF788F96420FCF7DB
:1044F000A1F9FEF7B5F94FF47A70FCF79BF9FFF7D5
:10450000A3FA4FF4FA70FCF795F9FFF747F84FF468
:10451000FA70FCF78FF9206800F08AFD4FF4FA700A
:10452000FBF780FF4FF4FA70FCF784F940F60200C5
:10453000FBF778FF01F048F800F08CFF4FF47A7039
:10454000FCF778F9FFF75AF96420FCF773F9FEF7E6
:1045500041F9FEF749F9FEF751F9FEF759F9FEF76F
:1045600061F94FF47A70FCF765F9FFF76DFA642092
:10457000FCF760F9FFF712F86420FCF75BF900F034
:10458000F5FD00F0ADFE4FF47A70FCF753F940F6FC
:104590003400FBF747FF4FF47A70FCF74BF900F05B
:1045A00087FB206040F27260FBF73CFF4FF4FA702B
:1045B000FCF740F940F2E240FBF734FF6420FCF7DF
:1045C00039F9206800F012FD6420FCF733F9FFF799
:1045D00015F96420FCF72EF9FFF778F86420FCF752
:1045E00029F9FFF70BF96420FCF724F9FEF742F9EB
:1045F0004FF47A70FCF71EF9FFF726FA4FF4FA70C1
:10460000FCF718F9FEF7CAFF4FF4FA70FCF712F93D
:10461000206800F00DFD4FF47A70FCF70BF940F2C2
:104620007260FBF7FFFE4FF4FA70FCF703F940F6F7
:104630000200FBF7F7FE4FF4FA70FCF7FBF84FF4BB
:10464000C870FBF7EFFE4FF47A70FCF7F3F800F058
:104650002FFB206040F60200FBF7E4FE4FF4FA70F7
:10466000FCF7E8F840F27260FBF7DCFE6420FCF730
:10467000E1F8206800F0BAFC6420FCF7DBF8FFF7F3
:10468000BDF86420FCF7D6F8FFF720F86420FCF7AB
:10469000D1F8FFF7B3F86420FCF7CCF8FEF7F4F894
:1046A0004FF47A70FCF7C6F8FFF7CEF94FF4FA70C2
:1046B000FCF7C0F8FEF772FF4FF4FA70FCF7BAF897
:1046C000206800F0B5FC4FF47A70FCF7B3F840F6C0
:1046D0000200FBF7A7FE4FF4FA70FCF7ABF84FF4BB
:1046E000FA70FBF79FFE4FF4FA70FCF7A3F840F264
:1046F0003930FBF797FE4FF47A70FCF79BF800F027
:10470000D7FA20604FF4FA70FBF78CFE4FF4FA7082
:10471000FCF790F840F60200FBF784FE6420FCF7FB
:1047200089F8206800F062FC6420FCF783F8FFF74A
:1047300065F86420FCF77EF8FEF7C8FF6420FCF7FC
:1047400079F8FFF75BF86420FCF774F8FEF774F86B
:104750004FF47A70FCF76EF8FFF776F94FF4FA70C1
:10476000FCF768F8FEF71AFF4FF4FA70FCF762F8EE
:10477000206800F05DFC4FF47A70FCF75BF84FF4B2
:10478000FA70FBF74FFE4FF4FA70FCF753F840F263
:104790006B30FBF747FE4FF4FA70FCF74BF840F232
:1047A0001450FBF73FFE4FF47A70FCF743F800F02B
:1047B0007FFA206040F26B30FBF734FE4FF4FA7062
:1047C000FCF738F84FF4FA70FBF72CFE6420FCF786
:1047D00031F8206800F00AFC6420FCF72BF8FFF7A2
:1047E0000DF86420FCF726F8FEF770FF6420FCF754
:1047F00021F8FFF703F86420FCF71CF8FEF726F811
:104800004FF47A70FCF716F8FFF71EF94FF4FA70C0
:10481000FCF710F8FEF7C2FE4FF4FA70FCF70AF846
:10482000206800F005FC4FF47A70FCF703F840F2C2
:104830006B30FBF7F7FD4FF4FA70FBF7FBFF40F22C
:10484000E240FBF7EFFD4FF4FA70FBF7F3FF40F2A5
:10485000A460FBF7E7FD4FF47A70FBF7EBFF00F085
:1048600027FA206040F2E240FBF7DCFD4FF4FA70DB
:10487000FBF7E0FF40F26B30FBF7D4FD6420FBF761
:10488000D9FF206800F0B2FB6420FBF7D3FFFEF7EE
:10489000B5FF6420FBF7CEFFFEF718FF6420FBF79F
:1048A000C9FFFEF7ABFF6420FBF7C4FFFDF7D8FF9D
:1048B0004FF47A70FBF7BEFFFFF7C6F84FF4FA70BB
:1048C000FBF7B8FFFEF76AFE4FF4FA70FBF7B2FF92
:1048D000206800F0ADFB4FF4FA70FBF7A3FD4FF436
:1048E000FA70FBF7A7FF40F60200FBF79BFD00F014
:1048F000F7FC00F03BFC4FF47A70FBF79BFFFEF7F0
:104900007DFF6420FBF796FFFDF764FFFDF76CFF6A
:10491000FDF774FFFDF77CFFFDF784FF4FF47A701D
:10492000FBF788FFFFF790F86420FBF783FFFEF7A3
:1049300035FE6420FBF77EFF00F08CFD00F044FEA6
:104940004FF47A70FBF776FF40F63400FBF76AFD10
:104950004FF47A70FBF76EFF00F0AAF9206040F286
:104960007260FBF75FFD4FF4FA70FBF763FF40F2F4
:10497000E240FBF757FD6420FBF75CFF206800F086
:1049800035FB6420FBF756FFFEF738FF6420FBF78A
:1049900051FFFEF79BFE6420FBF74CFFFEF72EFF56
:1049A0006420FBF747FFFDF765FF4FF47A70FBF7D4
:1049B00041FFFFF749F84FF4FA70FBF73BFFFEF7B2
:1049C000EDFD4FF4FA70FBF735FF206800F030FB87
:1049D0004FF47A70FBF72EFF40F27260FBF722FD76
:1049E0004FF4FA70FBF726FF40F60200FBF71AFDC2
:1049F0004FF4FA70FBF71EFF4FF4C870FBF712FD7F
:104A00004FF47A70FBF716FF00F052F9206040F681
:104A10000200FBF707FD4FF4FA70FBF70BFF40F2C3
:104A20007260FBF7FFFC6420FBF704FF206800F0D6
:104A3000DDFA6420FBF7FEFEFEF7E0FE6420FBF7E4
:104A4000F9FEFEF743FE6420FBF7F4FEFEF7D6FE08
:104A50006420FBF7EFFEFDF717FF4FF47A70FBF7CA
:104A6000E9FEFEF7F1FF4FF4FA70FBF7E3FEFEF705
:104A700095FD4FF4FA70FBF7DDFE206800F0D8FAE0
:104A80004FF47A70FBF7D6FE40F60200FBF7CAFC43
:104A90004FF4FA70FBF7CEFE4FF4FA70FBF7C2FC4E
:104AA0004FF4FA70FBF7C6FE40F23930FBF7BAFC60
:104AB0004FF47A70FBF7BEFE00F0FAF820604FF476
:104AC000FA70FBF7AFFC4FF4FA70FBF7B3FE40F659
:104AD0000200FBF7A7FC6420FBF7ACFE206800F0A7
:104AE00085FA6420FBF7A6FEFEF788FE6420FBF73C
:104AF000A1FEFEF7EBFD6420FBF79CFEFEF77EFEB9
:104B00006420FBF797FEFDF797FE4FF47A70FBF7F2
:104B100091FEFEF799FF4FF4FA70FBF78BFEFEF75C
:104B20003DFD4FF4FA70FBF785FE206800F080FA37
:104B30004FF47A70FBF77EFE4FF4FA70FBF772FCCD
:104B40004FF4FA70FBF776FE40F26B30FBF76AFC2D
:104B50004FF4FA70FBF76EFE40F21450FBF762FC64
:104B60004FF47A70FBF766FE00F0A2F8206040F286
:104B70006B30FBF757FC4FF4FA70FBF75BFE4FF41A
:104B8000FA70FBF74FFC6420FBF754FE206800F03E
:104B90002DFA6420FBF74EFEFEF730FE6420FBF793
:104BA00049FEFEF793FD6420FBF744FEFEF726FE68
:104BB0006420FBF73FFEFDF749FE4FF47A70FBF7E8
:104BC00039FEFEF741FF4FF4FA70FBF733FEFEF7B4
:104BD000E5FC4FF4FA70FBF72DFE206800F028FA90
:104BE0004FF47A70FBF726FE40F26B30FBF71AFCAD
:104BF0004FF4FA70FBF71EFE40F2E240FBF712FCA6
:104C00004FF4FA70FBF716FE40F2A460FBF70AFCC3
:104C10004FF47A70FBF70EFE00F04AF8206040F285
:104C2000E240FBF7FFFB4FF4FA70FBF703FE40F2A4
:104C30006B30FBF7F7FB6420FBF7FCFD206800F00E
:104C4000D5F96420FBF7F6FDFEF7D8FD6420FBF7ED
:104C5000F1FDFEF73BFD6420FBF7ECFDFEF7CEFD1A
:104C60006420FBF7E7FDFDF7FBFD4FF47A70FBF7DF
:104C7000E1FDFEF7E9FE4FF4FA70FBF7DBFDFEF70E
:104C80008DFC4FF4FA70FBF7D5FD206800F0D0F9E9
:104C90004FF4FA70FBF7C6FB4FF4FA70FBF7CAFD4E
:104CA00040F60200FBF7BEFBFEF7EEFFFEE700005A
:104CB0002DE9F0472DED048B40F20044C4F20204CC
:104CC00020464FF4804100224FF0000AFBF7C2FE5D
:104CD00020464FF400510022FBF7BCFE40F294073F
:104CE000C2F200070A20A7F800A0FBF7A3FD40F2DC
:104CF00000053888C2F200052988C0EB0020B0FB0F
:104D0000F1F0FF2610F47F4F18BF30461FFA80F8ED
:104D1000388100EE108A20464FF480410122B8EE1F
:104D2000408AFBF797FE20464FF400510122FBF723
:104D300091FE0A20A7F800A0FBF77CFD388869885F
:104D4000C0EB0020B0FBF1F04FF4804110F47F4F36
:104D500018BF30461FFA80F9788100EE109A20467D
:104D60000022B8EE409AFBF775FE20464FF4005142
:104D70000122FBF76FFE0A20A7F800A0FBF75AFDFF
:104D80003888A988C0EB0020B0FBF1F0B4EE498A66
:104D900010F47F4F08BF0646B0B200EE100ABE8185
:104DA000F1EE10FAB8EE400A0ED1B4EE409AF1EEF0
:104DB00010FA09D1B7EE001AB0EE413AB4EE481A33
:104DC000F1EE10FA6AD04CE0B4EE498AF1EE10FA36
:104DD00006DBB4EE408AF1EE10FAB0EE481A1DDAA6
:104DE000B4EE489AF1EE10FA06DBB4EE409AF1EE1A
:104DF00010FAB0EE491A11DAB4EE480AB0EE401AD1
:104E00009FED742AF1EE10FAB8BFB0EE421AB4EE7C
:104E1000490AF1EE10FAB8BFB0EE421AB4EE498A70
:104E2000F1EE10FA0CDCB4EE408AF1EE10FA07DC79
:104E3000B0EE483AB4EE481AF1EE10FA2ED010E077
:104E4000B4EE498AF1EE10FA11DBB4EE409AF1EEBD
:104E500010FA0CDCB0EE493AB4EE481AF1EE10FA52
:104E60001CD0B4EE491AF1EE10FA26D033E0B4EEBD
:104E7000408AB0EE403A9FED572AF1EE10FAB8BFE3
:104E8000B0EE423AB4EE490AF1EE10FAC8BFB0EE05
:104E9000423AB4EE481AF1EE10FAE2D139EE402A65
:104EA00031EE434A82EE042A9FED4B4A22EE042A59
:104EB000B4EE491AF1EE10FA0DD130EE482A31EE77
:104EC000434A82EE042A9FED444A9FED445A22EE63
:104ED000042A32EE052AB4EE401AF1EE10FA0DD192
:104EE00038EE492A31EE434A82EE042A9FED3A4ACF
:104EF0009FED3B5A22EE042A32EE052AB4EE431A05
:104F00009FED344AF1EE10FA9FED361A08BFB0EE6D
:104F1000442AB5EE402AF1EE10FA32EE011AB8BF7B
:104F2000B0EE412AB8F1C90F28BFB9F1C90F31D28B
:104F3000B4EE489AF1EE10FA10DDB4EE409AF1EEBC
:104F400010FA0BDD9FED281AB4EE412AF1EE10FAAB
:104F500004DA0120BDEC048BBDE8F087B8F1310F15
:104F600098BFB9F1310F2ED9B4EE490AF1EE10FA1B
:104F700017DDB4EE480AF1EE10FA12DD9FED1A1AB1
:104F8000B4EE412AF1EE10FA0BDD0520BDEC048BE6
:104F9000BDE8F087C828CBD90220BDEC048BBDE862
:104FA000F087B4EE408A0020F1EE10FAC8BF03206B
:104FB000B4EE498A0021F1EE10FAD8BF0846BDECE4
:104FC000048BBDE8F0873228CED20420BDEC048BE0
:104FD000BDE8F08700000000000070420000F042D1
:104FE000000070430000B443000048430138042827
:104FF00088BF704780B5DFE800F00309170F150080
:1050000000F0E2FABDE88040FEF7F8BB00F022FABB
:10501000BDE88040FEF7F2BB00F0A8F8BDE8804094
:10502000FEF7ECBB00F05CF9BDE88040FEF7E6BBA4
:105030000138042888BF7047DFE800F003070B053C
:10504000090000F04DB900F005BA00F08FB800F08B
:10505000BBBA704710B50024C4F2020420460821F0
:105060000022FBF7F7FC204610210122FBF7F2FC9F
:1050700004F50064204610210122FBF7EBFC2046DA
:1050800020210022BDE81040FBF7E4BC10B500244D
:10509000C4F20204204608210122FBF7DBFC204673
:1050A00010210022FBF7D6FC04F5006420461021F5
:1050B0000022FBF7CFFC204620210122BDE8104052
:1050C000FBF7C8BC70B540F20044C4F202042046AD
:1050D0004FF4804100220025FBF7BCFC20464FF432
:1050E00000510022FBF7B6FC40F29406C2F2000623
:1050F0000A203580FBF79EFB30884FF4804170809A
:10510000F081204601223580FBF7A4FC20464FF4B5
:1051100000510122FBF79EFC0A203580FBF78AFB39
:1051200030884FF48041B0803082204600223580A4
:10513000FBF790FC20464FF400510122FBF78AFC5C
:105140000A203580FBF776FB30884FF48041F080F1
:105150007082204601223580FBF77CFC20464FF40C
:1051600000510022BDE87040FBF774BC2DE9F04F00
:1051700081B02DED048B40F2A834C2F2000440F25D
:10518000240A40F2244B2046C4F2010AC4F2000B68
:10519000FDF7A2FF04F148052846FDF79DFF40F208
:1051A00078069FED4D8A9FED4D9AC2F200060027CA
:1051B0004FF01E1045F6F002C6E90577C6F80A0062
:1051C000C0F6000220460021B0EE480AF0EE490A7F
:1051D000FDF78EFF45F6FC02C0F6000228460021CE
:1051E000B0EE480AF0EE490AFDF782FF44F6206867
:1051F00042F210794CE000BFDBF8000081B2494573
:1052000088BFA8EB00007080CBF80070DAF80010BF
:105210008AB24A4588BFA8EB01013180B180CAF843
:105220000070F0803181FFF731FFB6F90600B6F962
:105230000A1000EE100A01EE101AB8EEC00AF8EEDD
:10524000C10A2046FDF79CFEB6F90800B6F90C101D
:1052500000EE100A01EE101AB8EEC00AF8EEC10A0C
:105260002846FDF78DFE94ED080A94ED1A1A44F2D3
:105270003400BCEEC00AC4F2010080ED000ABCEEAE
:10528000C10A80ED010A3220FBF7D4FAFFF7FEFED7
:105290007069B6F90210B6F904200144B069B1F59D
:1052A000BE7F10447161B061B8BFB0F5BE7FA3DBB3
:1052B00040F60040C4F202000821FBF7C5FB0128BC
:1052C0009AD10020C6E90500BDEC048B01B0BDE811
:1052D000F04FFEF711BF00BF00803B450000C84201
:1052E0002DE9F04F81B02DED048B40F2A834C2F2CD
:1052F000000440F2240A40F2244B2046C4F2010A82
:10530000C4F2000BFDF7E8FE04F148052846FDF75E
:10531000E3FE40F278069FED4D8A9FED4D9AC2F272
:10532000000600274FF01E1045F6F002C6E905778B
:10533000C6F80A00C0F6000220460021B0EE480A76
:10534000F0EE490AFDF7D4FE45F6FC02C0F6000275
:1053500028460021B0EE480AF0EE490AFDF7C8FEE3
:1053600044F6206842F210794CE000BFDBF8000000
:1053700081B2494588BFA8EB00007080CBF800706F
:10538000DAF800108AB24A4588BFA8EB01013180E3
:10539000B180CAF80070F0803181FFF777FEB6F96E
:1053A0000600B6F90A1000EE100A01EE101AB8EE67
:1053B000C00AF8EEC10A2046FDF7E2FDB6F9080082
:1053C000B6F90C1000EE100A01EE101AB8EEC00A81
:1053D000F8EEC10A2846FDF7D3FD94ED080A94EDD6
:1053E0001A1A44F23400BCEEC00AC4F2010080ED87
:1053F000000ABCEEC10A80ED010A3220FBF71AFA5E
:10540000FFF744FE7069B6F90210B6F904200144B2
:10541000B069B1F5437F10447161B061B8BFB0F5B8
:10542000437FA3DB40F60040C4F202000821FBF7F3
:105430000BFB01289AD10020C6E90500BDEC048BC6
:1054400001B0BDE8F04FFEF757BE00BF00803B45FE
:105450000000C8422DE9F04F81B02DED048B40F2E1
:10546000A834C2F2000440F2240A40F2244B204641
:10547000C4F2010AC4F2000BFDF72EFE04F1480548
:105480002846FDF729FE40F278069FED4D8A9FEDF4
:105490004D9AC2F2000600274FF01E1045F6F002AA
:1054A000C6E90577C6F80A00C0F6000220460021CA
:1054B000B0EE480AF0EE490AFDF71AFE45F6FC0286
:1054C000C0F6000228460021B0EE480AF0EE490A74
:1054D000FDF70EFE44F6206842F210794CE000BF62
:1054E000DBF8000081B2494588BFA8EB000070805E
:1054F000CBF80070DAF800108AB24A4588BFA8EBF2
:1055000001013180B180CAF80070F0803181FFF76D
:10551000A1FDB6F90600B6F90A1000EE100A01EE78
:10552000101AB8EEC00AF8EEC10A2046FDF728FDB1
:10553000B6F90800B6F90C1000EE100A01EE101AC8
:10554000B8EEC00AF8EEC10A2846FDF719FD94ED41
:10555000080A94ED1A1A44F23400BCEEC00AC4F2F0
:10556000010080ED000ABCEEC10A80ED010A322084
:10557000FBF760F9FFF76EFD7069B6F90210B6F936
:1055800004200144B069B1F5BE7F10447161B0617F
:10559000B8BFB0F5BE7FA3DB40F60040C4F2020006
:1055A0000821FBF751FA01289AD10020C6E905002D
:1055B000BDEC048B01B0BDE8F04FFEF79DBD00BF10
:1055C00000803B450000C8422DE9F04F81B02DED31
:1055D000048B40F2A834C2F2000440F2240A40F2E4
:1055E000244B2046C4F2010AC4F2000BFDF774FDFF
:1055F00004F148052846FDF76FFD40F278069FED5F
:105600004D8A9FED4D9AC2F2000600274FF01E1002
:1056100045F6F002C6E90577C6F80A00C0F60002B2
:1056200020460021B0EE480AF0EE490AFDF760FD81
:1056300045F6FC02C0F6000228460021B0EE480AFA
:10564000F0EE490AFDF754FD44F6206842F2107965
:105650004CE000BFDBF8000081B2494588BFA8EBF1
:1056600000007080CBF80070DAF800108AB24A456A
:1056700088BFA8EB01013180B180CAF80070F080CA
:105680003181FFF7E7FCB6F90600B6F90A1000EE23
:10569000100A01EE101AB8EEC00AF8EEC10A204650
:1056A000FDF76EFCB6F90800B6F90C1000EE100A12
:1056B00001EE101AB8EEC00AF8EEC10A2846FDF74E
:1056C0005FFC94ED080A94ED1A1A44F23400BCEE23
:1056D000C00AC4F2010080ED000ABCEEC10A80EDF0
:1056E000010A3220FBF7A6F8FFF7B4FC7069B6F99F
:1056F0000210B6F904200144B069B1F5437F1044AB
:105700007161B061B8BFB0F5437FA3DB40F60040E4
:10571000C4F202000821FBF797F901289AD1002072
:10572000C6E90500BDEC048B01B0BDE8F04FFEF703
:10573000E3BC00BF00803B450000C8422DE9F04FAC
:1057400081B02DED048B40F2A834C2F2000440F287
:10575000240A40F2244B2046C4F2010AC4F2000B92
:10576000FDF7BAFC04F148052846FDF7B5FC40F208
:1057700078069FED4E8A9FED4E9AC2F200060027F2
:105780004FF01E1045F6F002C6E90577C6F80A008C
:10579000C0F6000220460021B0EE480AF0EE490AA9
:1057A000FDF7A6FC45F6FC02C0F6000228460021E3
:1057B000B0EE480AF0EE490AFDF79AFC44F620687C
:1057C00042F2107955E000BF40F60040C4F20200FA
:1057D0000821FBF739F901285ED0DBF8000081B21F
:1057E000494588BFA8EB00007080CBF80070DAF85C
:1057F00000108AB24A4588BFA8EB01013180B18010
:10580000CAF80070F0803181FFF724FCB6F9060079
:10581000B6F90A1000EE100A01EE101AB8EEC00A2E
:10582000F8EEC10A2046FDF7ABFBB6F90800B6F961
:105830000C1000EE100A01EE101AB8EEC00AF8EED5
:10584000C10A2846FDF79CFB94ED080A94ED1A1A4C
:1058500044F23400BCEEC00AC4F2010080ED000A3C
:10586000BCEEC10A80ED010A3220FAF7E3FFFFF730
:10587000F1FB7069B6F90210B6F904200144B06971
:105880007161104440F271629142B0619CDC40F25F
:1058900072618842A1DB97E70020C6E90500BDECF4
:1058A000048B01B0BDE8F04FFEF726BC00803B45FD
:1058B0000000C842F1EE100A4FF6FF71C0F2C0318D
:1058C00020EA010040F04070E1EE100A704700004D
:1058D00000000000000001020304060708090000A0
:1058E0000000010203040006101600061016000056
:1058F00000000243000000000000204100000243BD
:10590000000000000000504128590008000000205D
:1059100018000000C40100084059000818000020C9
:10592000280A0000E001000848004A005700000073
:1059300001000000100000000024F400000000003E
:040000050800018965
:00000001FF
