:020000040800F2
:100000008809002029020008652E00087D270008C5
:10001000612E0008D503000895320008000000009A
:100020000000000000000000000000006D2E00082D
:10003000F103000800000000692E0008712E00087E
:10004000430200084302000843020008430200087C
:10005000430200084302000843020008430200086C
:100060004302000843020008F503000843020008A9
:10007000430200084302000843020008430200084C
:10008000430200084302000843020008430200083C
:10009000430200084302000843020008430200082C
:1000A000430200084302000843020008430200081C
:1000B00043020008352F0008412F000843020008C2
:1000C00043020008430200084302000843020008FC
:1000D00043020008430200084302000843020008EC
:1000E00043020008430200084302000843020008DC
:1000F00043020008430200084302000843020008CC
:1001000043020008430200084D2F00084302000884
:100110004302000843020008592F00084302000868
:1001200043020008D9030008430200084302000804
:10013000430200084302000843020008430200088B
:10014000430200084302000843020008430200087B
:1001500043020008E5030008430200088932000852
:10016000430200084302000843020008430200085B
:100170004302000843020008430200080000000098
:10018000430200084302000800F002F800F03CF8C7
:100190000AA090E8000C82448344AAF10107DA45E2
:1001A00001D100F031F8AFF2090EBAE80F0013F0F8
:1001B000010F18BFFB1A43F00103184784320000F7
:1001C000A4320000103A24BF78C878C1FAD8520788
:1001D00024BF30C830C144BF04680C6070470000C1
:1001E0000023002400250026103A28BF78C1FBD840
:1001F000520728BF30C148BF0B6070471FB503F0DE
:1002000001F91FBD10B510BD00F0A9F81146FFF7A8
:10021000F5FF03F041F800F0C7F803B4FFF7F2FF71
:1002200003BC00F0CFF800000948804709480047A8
:10023000FEE7FEE7FEE7FEE7FEE7FEE7FEE7FEE796
:10024000FEE7FEE704480549054A064B70470000F3
:10025000212F000889010008880300208809002058
:10026000880500208805002053EA020C00F0698010
:100270002DE9F04B4FF00006002B1FBFB3FA83F5BA
:1002800003FA05F424FA05F65E4012BF1643B2FAEB
:1002900082F502FA05F4C5F120051EBF22FA05FC1D
:1002A00044EA0C04203556EA044C4FEA144418BFC3
:1002B000641C4FF000084FF00009904271EB030CF2
:1002C00039D3002919BFB1FA81F701FA07F6B0FA5C
:1002D00080F700FA07F6C7F120071EBF20FA07FCD7
:1002E00046EA0C062037B6FBF4FCA7EB0507103FE7
:1002F00007F01F0BCBF120062CFA06F60CFA0BFBCD
:1003000044BFB3460026202FA4BF5E464FF0000B2B
:100310005BEA060C08BF4FF0010B19EB0B0948EB29
:100320000608ABFB027C06FB02CC0BFB03CCC01B1C
:1003300071EB0C01C1E70B46024641464846BDE859
:10034000F08B13B5084318BF4FF0FF300146AFF3F1
:100350000080BDE81C407047704770477047754685
:1003600000F02CF8AE4605006946534620F0070021
:10037000854618B020B5FFF765FFBDE820404FF077
:1003800000064FF000074FF000084FF0000BAC469E
:10039000ACE8C009ACE8C009ACE8C009ACE8C009E9
:1003A00021F007018D46704710B50446AFF3008079
:1003B0002046BDE81040FFF730BF000000487047FE
:1003C0001000002001491820ABBEFEE72600020005
:1003D00070470000FEE7000040F28400C2F2000017
:1003E00000F06CB840F2E400C2F2000000F066B821
:1003F00070470000102000F00FBA0000EFF31080EB
:1004000072B600BFFEE7000070B5866D044600F0CE
:10041000F3FA94F8351002292ED105462068216C94
:10042000026822F016020260426922F080024261F4
:1004300009B9A16C19B1016821F0080101600168D6
:1004400021F0010101600068C00708D000F0D4FA73
:10045000401B052817D820680068C007F6D1E06D5A
:100460003F2101FA00F0B060012084F8350000203F
:10047000002184F8341070BD8020606501200021C7
:1004800084F8341070BD20206065032084F83500A6
:10049000002184F8341070BD90F83510022909D17C
:1004A000052180F835100068016821F00101016024
:1004B000002070478021416501207047F0B581B070
:1004C00004460020009040F20800C2F200000268DA
:1004D000D4E9166048F2B51337680821C1F64E33E7
:1004E00081403942A2FB03250CD0226813685B07C8
:1004F00008D5136823F004031360B160616D41F007
:100500000101616501218140394208D022685269A8
:10051000120604D5B160616D41F0020161650421EC
:100520008140394208D022681268920704D5B16030
:10053000616D41F00401616510218140394217D09D
:1005400020680268120713D5B1600268016852037F
:1005500008D4C90508D4016821F008010160216CA4
:1005600021B905E0080342D4216C09B1204688472F
:10057000E16D202000FA01F23A4244D0206803687D
:10058000DB0640D5B26094F835300268052B1ED1E9
:1005900022F016020260426922F080024261226C5F
:1005A0000AB9A26C1AB1026822F0080202603F2068
:1005B0008840B060012084F83500216D00200029BA
:1005C00084F8340057D02046884701B0F0BD016858
:1005D000520310D4C90512D4016821F01001016042
:1005E000012084F83500002084F8340007E0A16C75
:1005F0000029BBD1BCE7080301D4616C00E0E16BCA
:1006000009B120468847606DA8B3606DC0072ED041
:10061000052084F835002068A90A026822F001024A
:100620000260009A01328A4200921AD80268D20708
:1006300017D0009A01328A42009212D80268D2077B
:100640000FD0009A01328A4200920AD80268D2077B
:1006500007D0009A01328A42009202D80268D2077B
:10066000DFD1012084F83500002084F83400E16CEB
:1006700009B12046884701B0F0BD00002DE9F041E6
:10068000044600F0B9F9002C4ED00546022084F84B
:1006900035000020216884F83400086820F001004B
:1006A00008600868C00708D000F0A6F9401B0528BC
:1006B0006BD821680868C007F6D1086848F23F0285
:1006C000CFF21002D4E90135024004F10C0E9EE88D
:1006D000C1511A432A4310433043384340EA0800CB
:1006E000626A40EA0C00042A40EA0E031FD1D4E9F2
:1006F0000A5E206B4EEA0302104308604869BEF1AF
:10070000000F20F0030040EA050040F0040C14D074
:10071000B8F5005F41D0B8F1000F4ED1022D4FD097
:10072000012D44D04DB94BE00120BDE8F0810B60B4
:10073000486920F0070040EA020C6FF00F004AF60B
:10074000AB2250FA81F0CAF6AA22A0FB02231A09B2
:1007500043F23643C0F600039A5C40F2FF335F2851
:100760004FF03F00C1F814C021EA030100FA02F083
:1007700088BF0431C4E916128860002301220020DA
:10078000636584F83520BDE8F0810322202303202F
:10079000636584F83520BDE8F081032DCDD80122B2
:1007A00040230120DFE805F0020C0203E8E7AEF188
:1007B000C070B0FA80F0400904E0032D04D3BCD12E
:1007C000CEF300600028B8D00122402301206365E9
:1007D00084F83520BDE8F081B0B5044600F00CF98E
:1007E000054640F20000C2F200000078611C18BF0C
:1007F000044400BF00F000F9401BA042FAD3B0BD92
:10080000102818BF704740F27000C2F20000018843
:10081000013101807047000043F61441C4F2010128
:100820000A68024214BF08607047FFF7E9BF000082
:100830002DE9F04F82B000F13E4241F6004502F151
:10084000FF77C4F2020508224FEAB726A84208BF84
:100850000722072E38BF4FEAB7224FF0010A0024C3
:1008600000274FF00008009208E000BF023708F1AF
:100870000108202F04F1040400F0B4800E680AFA85
:1008800008F916EA090FF1D0D1F804A00AF0030B19
:10089000ABF10106012E17D80322866802FA07FE83
:1008A000CA6826EA0E06BA40324382604268CAF33A
:1008B000001522EA090205FA08F54FEA480C6FEA2A
:1008C0000E062A4342600BE00322BA40D643BBF136
:1008D000030FBC4604D1BC464FF0030B22E000BF1F
:1008E000C2688D68324005FA0CF52A43BBF1020F4D
:1008F000C26017D16FF0030202EA5802024404F00A
:100900001C030F25D2F820E005FA03FA0D692EEA40
:100910000A0E05FA03F343EA0E031362D1F804A0AA
:100920000AF0030B02680BFA0CF332401A431AF474
:10093000403F4FF0010A026098D0002243F6440382
:100940000192C4F202031A6843F6004E42F4804258
:100950001A601A68C4F2010E02F480420192019AF0
:1009600028F003024FF6084C7244CFF6FF7C52F891
:100970000C3004F00C060F25B540AB43009D05FA82
:1009800006F6334342F80C30DEF808204B6842EAA2
:10099000090643F60C4CDD0258BF22EA0906CEF8E0
:1009A0000860C4F2010CDCF800209D0242EA09064E
:1009B00058BF22EA0906CCF80060DEF804209D0347
:1009C00042EA090658BF22EA0906CEF80460DEF8BA
:1009D0000020DB0342EA090658BF22EA0906CEF8E6
:1009E000006043E702B0BDE8F08F0000002A08BFB6
:1009F000090481617047000040F28030C2F20000BB
:100A00000068704740F2000040F28031C2F20000FE
:100A1000C2F2000100780A681044086070470000C4
:100A200080B543F60040C4F20200016841F4007151
:100A30000160016841F480610160016841F48071E6
:100A40000160032000F084F80F2000F005F800F0AA
:100A500027F8002080BD000070B540F20006C2F209
:100A6000000640F208013278C2F200014FF47A73B6
:100A70000968B3FBF2F20446B1FBF2F1084600F05C
:100A800039FB0F2C4FF0010508D838B94FF0FF3073
:100A900021460022002500F02FF87460284670BD22
:100AA00082B0002043F640010190C4F202014A687E
:100AB00042F480424A604A6802F480420192019AFC
:100AC0000090086840F080500860086800F080508E
:100AD0000090009802B07047002848BF704700F0AF
:100AE0001F01012202FA01F14EF200124009CEF27A
:100AF000000242F82010704710B54EF60C5CCEF2A2
:100B0000000CDCF80030C3F3022E8EF00704042C36
:100B100028BF0424BEF103034FF0FF3E0EFA04F495
:100B200038BF0023A14399400EFA03F39A4300F023
:100B30000F03043B1143634409010C3300F160428D
:100B4000B0F1FF3FC8BF02F56443197010BD00004B
:100B50004EF60C51CEF200010A684FF6FF031A4020
:100B600060F30A2242F0806040F0FD700860704738
:100B70002DE9F041002800F08B8043F60808C4F20C
:100B800002080446D8F8F8030D4600F00700884232
:100B900007D288F8F853D8F8F80300F00700A84205
:100BA00076D12068810717D5410705D5D8F8001000
:100BB00041F4E051C8F80010010705D5D8F800103D
:100BC00041F46041C8F80010D8F80010A26821F084
:100BD000F0011143C8F80010C0073FD1D8F8F8035E
:100BE00000F00700A84207D988F8F853D8F8F803AE
:100BF00000F00700A8424BD12068410707D5D8F87C
:100C00000010E26821F4E0511143C8F80010000719
:100C100008D5D8F80000216920F4604040EAC100FE
:100C2000C8F8000000F07CF8D8F8001043F21E422B
:100C3000C1F30311C0F60002515C40F2080220FA31
:100C400001F140F20400C2F200000068C2F20002AA
:100C50001160FFF701FF0020BDE8F0816068811E90
:100C6000022907D258F8081C89015CBF0120BDE8A1
:100C7000F08110E0012807D158F8081C89035CBFF7
:100C80000120BDE8F08106E058F8081C890702D46D
:100C90000120BDE8F081D8F8001021F003010843DD
:100CA000C8F80000FFF7A8FE064641F2883700BFEB
:100CB000D8F80000616800F00C00B0EB810F8DD017
:100CC000FFF79AFE801BB842F2D90320BDE8F081FD
:100CD00040F2080043F60801C2F20000C4F202012B
:100CE0000068096843F22E42C1F38221C0F6000277
:100CF000515CC8407047000040F2080043F608010C
:100D0000C2F20000C4F202010068096843F22E42F8
:100D1000C1F34231C0F60002515CC8407047000088
:100D200010B543F60404C4F20204606800F00C013C
:100D300042F200400829C0F2F40007D0042918BF8D
:100D400010BD41F20020C0F27A0010BD216801F010
:100D50003F02216823684902C3F3881105D4A1FB2F
:100D600000010023FFF780FA06E041F20020C0F204
:100D70007A004843B0FBF2F021680222C1F301413E
:100D800002EB4101B0FBF1F010BD00002DE9F04194
:100D900082B0002868D00446007843F60006C007F9
:100DA000C4F202060BD0B06800F00C00042840F03A
:100DB000A0803068800302D56068002854D0207875
:100DC00080071AD5B06810F00C0F09D0B06800F099
:100DD0000C00082840F0B4807068400200F1B08038
:100DE0003068800702D5E06801283DD1306821696C
:100DF00020F0F80040EAC10030602078000737D4C6
:100E0000207840074BD4A56955B3B06800F00C00BA
:100E1000082840F0DA80012D26D07068E16900F4DE
:100E200080028A4220D1216A00F03F028A421BD10F
:100E300047F6C071626A0140B1EB821F14D1A16A0A
:100E40004FF6FF73C903994300F44032A1F5803196
:100E50008A4209D1E16A00F07060B0EB016F03D102
:100E6000002002B0BDE8F081012002B0BDE8F081B1
:100E70006069002840F20000C4F2472000F0918031
:100E80000121C0F8801EFFF7B7FD0546706F80078F
:100E9000B6D4FFF7B1FD401B0228F7D991E0306CC2
:100EA0004FF00008C0000CD4CDF80480306C4FF037
:100EB000010840F080503064306C00F080500190A8
:100EC000019847F20007C4F200073868C0054DD406
:100ED000386840F480703860FFF78EFD054600BF2B
:100EE0003868C00542D4FFF787FD401B0228F7D9B8
:100EF00067E0B06800F00C00082803D17068400279
:100F00003FF557AF6568B5F5803F07D03068B5F558
:100F1000A02F40F0B38040F480203060306840F46F
:100F200080303060FFF768FD054600BF3068800301
:100F30003FF545AFFFF760FD401B6428F6D940E060
:100F4000E068002864D00020C4F24720012101603D
:100F5000FFF752FD054600BF306880073FF546AFFA
:100F6000FFF74AFD401B0228F6D92AE0A568012DAB
:100F700005D0306F052D5FD140F004003067306F31
:100F800040F001003067FFF737FD054641F2883732
:100F9000306F800769D4FFF72FFD401BB842F7D9A7
:100FA0000FE00021C0F8801EFFF726FD054600BFB8
:100FB000706F80077FF524AFFFF71EFD401B0228EE
:100FC000F6D9032002B0BDE8F0810027C4F247271C
:100FD00000203866FFF710FD022D05460CD100BF3A
:100FE0003068800164D5FFF707FD401B02284FF0F1
:100FF0000300F5D935E700BF306880017FF530AFD9
:10100000FFF7FAFC401B02284FF00300F4D928E751
:101010000020C4F2472000210160FFF7EDFC0546E7
:10102000306880077FF5E9AEFFF7E6FC401B022839
:101030004FF00300F4D914E720F001003067306F5F
:1010400020F004003067FFF7D7FC002D05469DD146
:1010500041F28837306F800707D5FFF7CDFC401B82
:10106000B8424FF00300F5D9FBE6B8F1000F3FF4AA
:10107000CAAE306C20F080503064C4E620F480307A
:101080003060306820F480203060FFF7B5FC002D20
:1010900005467FF44BAF07E0FFF7AEFC401B64282A
:1010A0004FF003003FF6DDAE30688003F4D486E6EF
:1010B00004F11C052FCD084340EA8210D9034FF6F6
:1010C000FF729143A1F5803140EA056008437060EA
:1010D00001203866FFF790FC044600BF30688001AD
:1010E0003FF5BEAEFFF788FC001B02284FF003005F
:1010F000F4D9B6E6411E0020B0EB116F1CBF0120F1
:1011000070474EF21002CEF2000251604EF62351AB
:10111000CEF20001F0230B70072190601160704740
:10112000704700007047000010B590F83C20012A7D
:101130004FF0020252D0012380F83C3080F83D206D
:101140000268D2F804E0D2F808C00C682EF07003F0
:10115000234341F2FF74C4F20004A24253600DDC49
:1011600040F2FF73C4F200039A4215DCB2F1804FE3
:1011700029D040F20043C4F2000322E040F2FF33E2
:10118000C4F201039A4212DC41F60003C4F20003E8
:101190009A4218D0002312E040F60003C4F2000384
:1011A0009A4210D040F60043C4F2000309E044F232
:1011B0000003C4F201039A4205D040F20043C4F296
:1011C00001039A4204D149682CF0800319439160CD
:1011D0000121002280F83D1080F83C20104610BD0F
:1011E000002804BF0120704710B5044690F83D0068
:1011F00028B9002084F83C00204600F01FF80220A7
:1012000084F83D002068211D01F0ACFE012084F827
:10121000460084F83E0084F83F0084F8400084F8DB
:10122000410084F8420084F8430084F8440084F8C4
:10123000450084F83D00002010BD000080B582B05C
:10124000006800F140404FEAB020042813D8DFE8DE
:1012500000F00312142E48000020019043F64000D5
:10126000C4F20200016841F001010160006800F071
:1012700001000190019802B080BD0020019043F66A
:101280004000C4F202000168002241F00401016044
:101290000068002100F00400019001981E20FFF773
:1012A0002BFC1E2002B0BDE88040FFF715BC0020DB
:1012B000019043F64000C4F202000168002241F0B0
:1012C000080101600068002100F008000190019809
:1012D0003220FFF711FC322002B0BDE88040FFF75A
:1012E000FBBB0020019043F64000C4F202000168FD
:1012F000002241F0100101600068012100F010009F
:10130000019001983620FFF7F7FB362002B0BDE8C8
:101310008040FFF7E1BB000090F83D1001291CBFA1
:1013200001207047022180F83D10006841F2FF72F1
:10133000C168C4F20002904241F00101C1600DDCBD
:1013400040F2FF71C4F20001884215DCB0F1804F19
:1013500029D040F20041C4F2000122E040F2FF3106
:10136000C4F20101884212DC41F60001C4F200011E
:10137000884218D0002112E040F60001C4F20001BA
:10138000884210D040F60041C4F2000109E044F266
:101390000001C4F20101884205D040F20041C4F2CC
:1013A0000101884206D1816801F00701062904BFC6
:1013B00000207047016841F0010101600020704782
:1013C00080B590F83C20012A4FF0020200F0C28064
:1013D000012380F83C3080F83D20D0F800C04FF663
:1013E0007772DCF8083023EA0202CCF808200B6898
:1013F0004F2B28DC1F2B43DD202B44D0302B42D039
:10140000402B40F0A980D1F804E0C968DCF8203016
:10141000DCF8202022F00102CCF82020DCF8182093
:1014200022F0F00242EA011123F00A0242EA0E021F
:10143000CCF81810CCF82020DCF8081041F0470157
:1014400021F030017DE06F2B25DDB3F5005F46D044
:10145000B3F5805F77D0702B7ED1D1E901E3C96805
:10146000DCF8082043EA0E0322F47F4243EA01211C
:101470001143CCF80810DCF8081041F0770160E067
:101480000BB1102B68D1DCF8081021F07001194362
:1014900041F0070155E0502B34D0602B5CD1D1F8DE
:1014A00004E0C968DCF8203023F01003CCF82030C9
:1014B000DCF81830DCF8202023F4704322F0A0027E
:1014C00043EA013142EA0E12CCF81810CCF8202081
:1014D000DCF8081041F0670121F0100131E0D1E99A
:1014E00001E3C968DCF8082043EA0E0322F47F42D6
:1014F00043EA01211143CCF80810DCF8081041F44C
:1015000080411EE0D1F804E0C968DCF82030DCF846
:10151000202022F00102CCF82020DCF8182022F054
:10152000F00242EA011123F00A0242EA0E02CCF86C
:101530001810CCF82020DCF8081041F0570121F0F9
:101540002001CCF808100022012180F83D10002174
:1015500080F83C10104680BD0122F5E7002804BF4A
:10156000012070472DE9F047044690F83D000D46F4
:1015700028B9002084F83C00204600F049F80220F9
:1015800084F83D00206844F207028168914381603D
:10159000211D01F0E7FC20684FF6FF788168826921
:1015A000D0F820C0D5E9003ED5E9026A43EA010936
:1015B000AB6922EA080246EA03234FF6FC46B3432E
:1015C000D5E9076742EA0A0229691A4342EA062274
:1015D00042EA01112CF0AA026B6942EA0E0241EACA
:1015E000073142EA0312C0F80890816102620120CB
:1015F00084F8460084F83E0084F83F0084F84200F6
:1016000084F8430084F83D000020BDE8F087000026
:1016100080B586B00021CDE90411CDE90211006842
:1016200040F20042C4F200029042019130D0002109
:10163000C4F20101884258D1002043F630010090E5
:10164000C4F202014A6942F001024A614A6902F0A9
:1016500001020092009A00900A6842F010020A60AB
:10166000096801F01001009100994FF42061019187
:101670000221CDE902100490012005900020C4F25F
:10168000020000F5805001A9FFF7D2F806B080BD36
:1016900043F630000091C4F20200026942F00202F7
:1016A0000261026902F002020092009A009102684F
:1016B00042F001020260006800F001000090009812
:1016C000C02001900220CDE90201CDE904100020E4
:1016D000C4F2020001A9FFF7ABF81D20002100228F
:1016E000FFF70AFA1D20FFF7F7F906B080BD0000EA
:1016F00080B590F83E2090F83F3090F842E090F8A6
:1017000043C0042909D0B1B9012A4FF0010208BF32
:10171000BEF1010F32D0104680BD012B4FF0010207
:1017200008BFBCF1010FF6D1022180F83F1080F80C
:10173000431000681EE0012A4FF0010208BF012B90
:10174000E9D1BEF1010FE6D1BCF1010FE3D10222D4
:1017500080F83E2080F83F2080F8422080F8432027
:1017600089B10068016A21F001010162016A41F05A
:101770000101016210216FF0100208E0022180F8DF
:101780003E1080F84210006801216FF00102036AE8
:101790001A400262026A114301620168002241F0AC
:1017A00001010160104680BD7047000010B501685E
:1017B00004460869800744BFC8685FEA807038D46F
:1017C0000869400744BFC8685FEA40703DD40869B3
:1017D000000744BFC8685FEA007043D40869C006C8
:1017E00044BFC8685FEAC06048D40869C0071CBF2E
:1017F000C8685FEAC0704ED10869000644BFC86877
:101800005FEA00604FD40869400644BFC8685FEAD9
:10181000406050D40869800646BFC8685FEA8060AF
:1018200010BD6FF0200220460A61BDE81040FFF7AE
:1018300079BC6FF002000861012020778869800779
:1018400041D02046FFF7B0FF43E06FF0040008618D
:1018500002202077886910F4407F3ED02046FFF7B1
:10186000A3FF40E06FF00800086104202077C869FA
:1018700080073CD02046FFF797FF3EE06FF0100056
:10188000086108202077C86910F4407F39D02046CD
:10189000FFF78AFF3BE06FF001000861204600F08F
:1018A000FBFB2168A8E76FF0800008612046FFF786
:1018B00037FC2168A7E76FF040000861204600F080
:1018C000EDFB2168A6E7204600F0BEF9204600F0B7
:1018D00045FB21680020207772E7204600F0B4F92C
:1018E000204600F03BFB2168002020776FE7204670
:1018F00000F0AAF9204600F031FB21680020207793
:101900006CE7204600F0A0F9204600F027FB216894
:101910000020207769E700002DE9F04186B00068DB
:1019200040F6FF31C4F2000188424FF000010591FA
:10193000CDE90311CDE9011126DCB0F1804F4CD087
:1019400040F60001C4F20001884240F09F80002070
:1019500043F630010090C4F202010A6842F0080226
:101960000A60096801F00801009100994FF4704184
:1019700001910221CDE90210CDE904010020C4F259
:10198000020000F540607EE040F60041C4F2000134
:1019900088425FD044F20001C4F20101884275D14F
:1019A000002043F630010090C4F202010A6842F0C0
:1019B00010020A60096801F010010091009960218D
:1019C00001910221CDE9021004900320059000202E
:1019D000C4F2020000F5805055E0002643F63000C6
:1019E0000096C4F202000168002441F00101016088
:1019F0000168C4F2020401F001010091009900960F
:101A000001680DF1040841F002010160006802273D
:101A100000F0020000900098012520464146CDE9E3
:101A20000177CDE903670595FEF702FF2420CDE994
:101A3000010720464146CDE903660595FEF7F8FE0D
:101A40004FF40060CDE90107CDE90366059504F583
:101A5000806018E0002043F630010090C4F20201DB
:101A60000A6842F001020A60096801F00101009170
:101A70000099012101910221CDE902100020C4F258
:101A80000200CDE9041101A9FEF7D2FE06B0BDE8BF
:101A9000F0810000F0B590F83C30012B04BF02202B
:101AA000F0BD4FEAB2020123032A80F83C3000F275
:101AB000C680DFE802F00234699E0268136A23F0F0
:101AC00001031362136AD2F804E095690C6825F0EB
:101AD00073058E6845EA040C40F2004523F00203CA
:101AE00042F48064C4F20105AC4243EA060305D126
:101AF000CE6823F00C0326F004063343AC4206D133
:101B0000D1E905542EF440762E4346EA040EC2F87D
:101B100004E0C2F818C04968516313628EE002689D
:101B2000136A42F4806423F010031362136AD2F83C
:101B300004E096690D6826F4E6468F6846EA052CAF
:101B400040F2004523F02003C4F20105AC4243EA11
:101B5000071307D1CE686FF0400723F0C00307EAF0
:101B600006163343AC4207D1D1E905652EF4406730
:101B700047EA860747EA850EC2F804E0C2F818C0B3
:101B800049689163136259E00268136A42F4806401
:101B900023F480731362136AD2F804E0D7690E68E5
:101BA00027F073078D6847EA060C40F2004623F4DD
:101BB0000073C4F20106B44243EA052307D1CD689D
:101BC00040F2FF472D0223F44063BD432B43B44250
:101BD00007D1D1E905652EF4405747EA061747EAD1
:101BE000051EC2F804E0C2F81CC04968D163136244
:101BF00024E0026840F20044136A42F4806523F452
:101C000080531362D2F820C05368D669C4F201042D
:101C1000A5420D6826F4E6468F6846EA05242CF4B2
:101C2000005646EA073504D14F6923F4804343EA5E
:101C300087135360D4614968116415620023002141
:101C400080F83C101846F0BD70470000002804BF23
:101C50000120704710B5044690F83D0028B90020D7
:101C600084F83C00204600F01FF8022084F83D0074
:101C70002068211D01F076F9012084F8460084F8DF
:101C80003E0084F83F0084F8400084F8410084F866
:101C9000420084F8430084F8440084F8450084F846
:101CA0003D00002010BD0000704700002DE9F0410C
:101CB00090F83C30012B04BF0220BDE8F0814FEAD0
:101CC000B2020123032A80F83C3000F2F780DFE8FB
:101CD00002F0023F7FC003681A6A22F001021A6212
:101CE0001A461C6AD3F804C052F8186F0D6826F023
:101CF00073068F6846EA050E40F2004624F002049F
:101D000043F48065C4F20106B54244EA070405D1F4
:101D1000CF6824F00C0427F004073C43B54206D1F9
:101D2000D1E905652CF44077374347EA050CC3F841
:101D300004C0C3F818E04F6809695F631C629F69BB
:101D400047F008079F619F6927F004079F61B1E092
:101D5000036840F200481A6AC4F2010822F0100237
:101D60001A621A461D6AD3F804C052F8187F0E682A
:101D700027F4E6478C6847EA062E25F0200743F44F
:101D80008065454547EA041407D1CF686FF04006E7
:101D900024F0C00406EA07163443454507D1D1E9CB
:101DA00005652CF4406747EA860747EA850CC3F8C7
:101DB00004C0C3F818E04F6809699F631C629F69FB
:101DC00047F400679F619F6927F480679F6170E017
:101DD000036840F200481A6AC4F2010822F48072D3
:101DE0001A621A461D6AD3F804C052F81C7F0E68A6
:101DF00027F073078C6847EA060E25F4007743F452
:101E00008065454547EA042408D1CF6840F2FF4683
:101E10003F0224F4406427EA06063443454507D1CF
:101E2000D1E905652CF4405747EA061747EA051C37
:101E3000C3F804C0C3F81CE04F680969DF631C6283
:101E4000DF6947F00807DF61DF6927F00407DF611A
:101E500030E0036840F200471A6A43F4806522F4D8
:101E600080521A621A46D3F820C05C6852F81C6F80
:101E7000C4F20107BD420F6826F4E6468D6846EAC3
:101E800007272CF4005646EA053604D14D6924F4A0
:101E9000804444EA85145C60DF614F6809691F640F
:101EA0001E62DF6947F40067DF61DF6927F480673E
:101EB000DF6109021368194300231160002180F8D3
:101EC0003C101846BDE8F081002804BF012070478F
:101ED00010B5044690F83D0028B9002084F83C0075
:101EE000204600F01FF8022084F83D002068211DE4
:101EF00001F038F8012084F8460084F83E0084F8A8
:101F00003F0084F8400084F8410084F8420084F8DF
:101F1000430084F8440084F8450084F83D00002024
:101F200010BD000081B0006844F20001C4F201015C
:101F3000884201D001B070470020009043F6440071
:101F4000C4F20200016841F480310160006800F4CD
:101F500080300090009801B070470000704700008A
:101F600041B1082909D0042914BF00F1410200F150
:101F70003F0204E000F13E0201E000F1400212786D
:101F8000012A1CBF01207047022241B1082909D053
:101F9000042914BF80F8412080F83F2004E080F835
:101FA0003E2001E080F84020006801F01F0101227E
:101FB000036A02FA01F123EA01020262026A0A4399
:101FC00041F2FF71C4F20001884202620FDC40F26C
:101FD000FF71C4F2000188421BDCB0F1804F4DD08C
:101FE00040F20041C4F20001884247D04DE040F287
:101FF000FF32C4F20102904218DC41F60003C4F241
:10200000000398423AD00023C4F20103984219D049
:102010003BE040F60001C4F2000188422ED040F6B9
:102020000041C4F20001884228D02EE044F20003AF
:10203000C4F20103984221D040F20043C4F20103EC
:10204000984222D1436C884243F400434364BEDD8E
:10205000904207DC41F60001C4F2000188420DD035
:10206000002107E044F20001C4F20101884205D0DA
:1020700040F20041C4F20101884206D1816801F0BA
:102080000701062904BF00207047016841F00101E3
:10209000016000207047000070470000704700009A
:1020A0007047000070470000F0B581B0044600683A
:1020B0000168C268456901F02F03202B02F020035C
:1020C00006D12BB1204601B0BDE8F04000F0ECBFD6
:1020D0005FEA017C07D005F0010E12F4907F8EF0CC
:1020E00001052FD175B3236B1140CA0618D5012BFA
:1020F00016D100210091016800914168009100997A
:102100004169490600F18281A18DE28DE38D002BAA
:102110001CBF891A5FEA014240F0FD8001B0F0BDAA
:102120000A0600F12B824906F8D5C16821F040016A
:10213000C1602021204684F83D1001B0BDE8F04088
:1021400000F01ABBCE0718BF12F4807603D0266CBD
:1021500046F00106266401F00407012686EA970787
:102160002F4303D1276C47F00207276401F00207D1
:1021700086EA5706354303D1256C45F004052564EE
:1021800053EA0E0318BF0123BCF1000F04D51BB1A5
:10219000236C43F008032364236C002BBED0114052
:1021A000890603D5204600F07FFF20684169226C34
:1021B00001F0400102F00802891800F0F08100BF30
:1021C00050E8030F216820F4907041E80302C2B385
:1021D000206850E8030F216820F4907041E8030262
:1021E0007AB3206850E8030F216820F4907041E82A
:1021F000030232B3206850E8030F216820F4907086
:1022000041E80302EAB12068DAE700BF206850E83D
:10221000050F216820F0010041E80502DAB12068CD
:1022200050E8050F216820F0010041E8050292B155
:10223000206850E8050F216820F0010041E8050200
:102240004AB1206850E8050F216820F0010041E8FC
:102250000502002ADAD1206B012824D1206850E839
:10226000030F216820F0100041E80302DAB1206872
:1022700050E8030F216820F0100041E8030292B1FA
:10228000206850E8030F216820F0100041E80302A5
:102290004AB1206850E8030F216820F0100041E89F
:1022A0000302002ADAD1202084F83E0000202063B7
:1022B00020684169490640F18B8150E8050F21688B
:1022C00020F0400041E80502002A00F06F812068FC
:1022D00050E8050F216820F0400041E80502002A7F
:1022E00000F06481206850E8050F216820F040006C
:1022F00041E80502002A00F05981206850E8050FE6
:10230000216820F0400041E80502002A00F04E81DB
:102310002068D2E7206850E8030F226820F490700C
:1023200042E80303BBB3206850E8030F226820F49F
:10233000907042E8030373B3206850E8030F2268EB
:1023400020F4907042E803032BB3206850E8030F99
:10235000226820F4907042E80303002BDAD11AE0DF
:10236000206850E8050F226820F0010042E80503CC
:10237000DBB1206850E8050F226820F0010042E838
:10238000050393B1206850E8050F226820F0010092
:1023900042E805034BB1206850E8050F226820F0A1
:1023A000010042E80503002BDAD1202084F83E002A
:1023B00000202063206850E8030F226820F01000FE
:1023C00042E80303DBB1206850E8030F226820F0E5
:1023D000100042E8030393B1206850E8030F22681D
:1023E00020F0100042E803034BB1206850E8030FCF
:1023F000226820F0100042E80303002BDAD189B2F2
:10240000204601B0BDE8F040FFF74ABEA26B11685C
:102410004B689EB2002E3FF481AEA18D8E42BFF478
:102420007DAEE385D269B2F5807F00F09E8050E8F2
:10243000030F216820F4807041E80302E2B12068B4
:1024400050E8030F216820F4807041E803029AB13C
:10245000206850E8030F216820F4807041E80302EF
:1024600052B1206850E8030F216820F4807041E8E1
:1024700003020AB12068DAE7206850E8050F2168F6
:1024800020F0010041E80502BAB3206850E8050FCA
:10249000216820F0010041E8050272B3206850E88D
:1024A000050F216820F0010041E805022AB32068E9
:1024B00050E8050F216820F0010041E80502002ADC
:1024C000DAD11AE0206850E8050F216820F04000BA
:1024D00041E80502DAB1206850E8050F216820F0D4
:1024E000400041E8050292B1206850E8050F2168DC
:1024F00020F0400041E805024AB1206850E8050F8D
:10250000216820F0400041E80502002ADAD12020AD
:1025100084F83E0000202063206850E8030F216803
:1025200020F0100041E80302DAB1206850E8030F00
:10253000216820F0100041E8030292B1206850E8C1
:10254000030F216820F0100041E803024AB120681F
:1025500050E8030F216820F0100041E80302002A30
:10256000DAD1A06BFDF750FFA18DE08D081A81B282
:10257000204601B0BDE8F040FFF792BD94F83D1051
:1025800021297FF4CBADA168B1F5805F01D121692C
:1025900021B3216A4A1C22620978416025E0204665
:1025A000FFF780FD0020206401B0F0BDA06B78B182
:1025B00043F29D01C0F600010165FDF76DFF0028A3
:1025C0003FF4ACADA06B016D01B0BDE8F040084731
:1025D000204601B0BDE8F040FFF764BD216A31F844
:1025E000022B6FF35F2242602162E18C01390A0401
:1025F000E1847FF493ADC16821F08001C160C168BE
:1026000041F04001C16001B0F0BD0000002804BFEE
:102610000120704710B5044690F83D0028B900200D
:1026200084F83C00204600F021F8242084F83D0086
:102630002068C16821F40051C160204600F0B2FD5D
:102640002068016921F490410161416921F02A016A
:102650004161C16841F40051C16000202021206423
:1026600084F83D1084F83E1010BD00002DE9F047BD
:1026700086B0002604460596CDE9036641F2004087
:102680002168C4F2010081420296019602D006B090
:10269000BDE8F08743F630010096C4F202014A69B2
:1026A00046F2284842F020024A614A6900F5744027
:1026B00002F020020092009A00960A68C4F2020812
:1026C00042F004020A60096801F0040100910099D7
:1026D000C02101910221CDE90216032104910821B4
:1026E000059101A9FEF7A4F840F28405C2F20005A5
:1026F0004FF0206A4FF480694FF48070C5E9008A7A
:10270000C5E90266C5E90496C5E906604FF480375D
:102710002846C5E90876FDF7B1FF002818BFFDF788
:102720006DFEA563AC6340F2E40508F17800C2F2E7
:1027300000054021C5E9000A05F10800002280E8F3
:1027400006022846C5E90522C5E907276A62FDF7A2
:1027500095FF002818BFFDF751FE472002210022F7
:102760006563AC63FEF7C8F94720FEF7B5F906B01C
:10277000BDE8F0877047000070470000FEE70000EA
:1027800080B582B00020019043F63000C4F2020010
:102790000168002241F4800101600068002100F41A
:1027A0008000019001983920FEF7A6F93920FEF744
:1027B00093F9452000210022FEF79EF9452002B042
:1027C000BDE88040FEF788B92DE9F04F87B00025BD
:1027D00043F63000CDE905550195C4F202000168C9
:1027E00040F2004A41F0100101600168C4F2020A9F
:1027F00001F010010191019901950168AAF5806429
:1028000041F0800101600168002201F08001019126
:10281000019901950168182641F0010101600168E4
:1028200001F00101019101990195016841F0040154
:102830000160016801F004010191019901950168AD
:1028400041F002010160016801F00201019101996A
:102850000195016841F0080101600068182100F04D
:102860000800019001982046FEF7C0F80AF580683C
:10287000404630210022FEF7B9F8504647F2870162
:102880000022FEF7B3F80AF5006948460421002249
:10289000FEF7ACF8102002904FF4041002AF039042
:1028A0004FF0010B0AF540603946CDF810B0FDF746
:1028B000BFFFCDE9026B022620463946CDF810B0A5
:1028C0000596FDF7B5FF3020CDE9020B40463946AD
:1028D000CDE90466FDF7ACFF0720CDE9020B5046B9
:1028E0003946CDE90466FDF7A3FF4FF4E140CDE999
:1028F000020B50463946CDE90455FDF799FF48F2E1
:102900002800CDE90205504639460495FDF790FFB1
:1029100040F2BA70CDE90205484639460495FDF704
:1029200087FF4FF4E050CDE9020540463946049553
:10293000FDF77EFF0420CDE9020B48463946CDE97C
:102940000455FDF775FF0A2000210022FEF7D4F898
:102950000A20FEF7C1F807B0BDE8F08F10B58CB0C3
:1029600040F2441000210024C2F20000C4F2010130
:10297000C0E900140321CDE90314012144F62062CB
:10298000CDE90514CDE90744CDE9091403A9CDE942
:102990000044C0E90242C0E9044484610B94FEF79C
:1029A000DDFD002818BFFDF729FD40F24410C2F2FA
:1029B00000006946CDE90044FEF7B6FB002818BFC9
:1029C000FDF71CFD0CB010BD10B58EB040F28C10A0
:1029D0000021C2F200004FF08042472344F61F64FA
:1029E0000D91CDE90B11CDE90911CDE90711CDE923
:1029F0000511CDE90311CDE90111C0E90023C0E9BA
:102A0000021401618161FEF7EBFB002818BFFDF79E
:102A1000F5FC4FF480500A9040F28C10C2F2000096
:102A20000AA9FEF7CDFC002818BFFDF7E7FC40F22D
:102A30008C10C2F20000FFF747FA002818BFFDF71C
:102A4000DDFC40F28C10C2F20000FFF7FFF8002816
:102A500018BFFDF7D3FC40F28C100024C2F2000036
:102A600008A9CDE90844FEF75FFB002818BFFDF771
:102A7000C5FC6020CDE9010440F28C10C2F20000D8
:102A800001A9002203940594FFF710F9002818BF4C
:102A9000FDF7B4FC40F28C10C2F2000001A9042240
:102AA000FFF704F9002818BFFDF7A8FC40F28C10CE
:102AB000C2F2000001A90822FFF7F8F8002818BFA9
:102AC000FDF79CFC0020019040F28C10C2F2000047
:102AD00001A90C22FEF7DEFF002818BFFDF78EFCCF
:102AE00040F28C10C2F20000FEF716FF0EB010BDCF
:102AF00010B58CB040F2D41040F200410024C2F274
:102B00000000C4F20001C0E900140321CDE9031460
:102B1000012144F62062CDE90514CDE90744CDE951
:102B2000091403A9CDE90044C0E9024204618461AB
:102B30000B94FEF713FD002818BFFDF75FFC40F271
:102B4000D410C2F200006946CDE90044FEF7ECFA69
:102B5000002818BFFDF752FC0CB010BD10B58EB0A8
:102B600040F21C2040F600020021C2F20000C4F234
:102B7000000241F61F43C7240D91CDE90B11CDE9A9
:102B80000911CDE90711CDE90511CDE90311CDE911
:102B90000111C0E90023C0E90214016180218161B3
:102BA000FEF71EFB002818BFFDF728FC4FF48050ED
:102BB0000A9040F21C20C2F200000AA9FEF700FCB5
:102BC000002818BFFDF71AFC40F21C20C2F20000DA
:102BD000FFF77AF9002818BFFDF710FC40F21C201F
:102BE0000024C2F2000008A9CDE90844FEF79CFACF
:102BF000002818BFFDF702FC6020CDE9010440F277
:102C00001C20C2F2000001A9002203940594FFF7E2
:102C10004DF8002818BFFDF7F1FB40F21C20C2F26E
:102C2000000001A90422FFF741F8002818BFFDF7B2
:102C3000E5FB40F21C20C2F2000001A90822FFF7C8
:102C400035F8002818BFFDF7D9FB40F21C20C2F26E
:102C5000000001A90C22FFF729F8002818BFFDF792
:102C6000CDFB40F21C20C2F20000FEF755FE0EB074
:102C700010BD000010B58EB040F2642040F6004256
:102C80000021C2F20000C4F2000241F61F43C72433
:102C90000D91CDE90B11CDE90911CDE90711CDE970
:102CA0000511CDE90311CDE90111C0E90023C0E907
:102CB0000214016180218161FEF792FA002818BF99
:102CC000FDF79CFB4FF480500A9040F26420C2F262
:102CD00000000AA9FEF774FB002818BFFDF78EFB61
:102CE00040F26420C2F20000FFF7EEF8002818BF9F
:102CF000FDF784FB40F264200024C2F2000008A922
:102D0000CDE90844FEF710FA002818BFFDF776FB5E
:102D10006020CDE9010440F26420C2F2000001A964
:102D2000002203940594FEF7C1FF002818BFFDF7A9
:102D300065FB40F26420C2F20000FEF7EDFD0EB02C
:102D400010BD000010B582B040F2AC2041F200018D
:102D50000024C2F20000C4F2000142F20F73CDE978
:102D6000004440F2CF2280E81600C3608461FEF781
:102D700037FA002818BFFDF741FB40F2AC20C2F241
:102D800000006946CDE90044FEF7CEF9002818BFDF
:102D9000FDF734FB02B010BD10B588B040F2F4204E
:102DA00044F200010024C2F20000C4F2010142F228
:102DB0000F730794CDE90544CDE90344CDE90144FF
:102DC000472280E81600C0E903348461FFF77CF8ED
:102DD000002818BFFDF712FB6020CDE9010440F286
:102DE000F420C2F2000001A9002203940594FEF72A
:102DF0005DFF002818BFFDF701FB40F2F420C2F28E
:102E0000000001A90422FEF751FF002818BFFDF7BA
:102E1000F5FA40F2F420C2F20000FEF77DFD08B0A2
:102E200010BD000080B540F23C3041F20041C2F2DA
:102E30000000C4F2010100234FF00C0C4FF4E1320A
:102E400080E80E00C0E90333C0E905C3C361FFF7A2
:102E5000DDFB002808BF80BDBDE88040FDF7CEBA8D
:102E6000FEE70000FEE7000070470000704700002A
:102E7000FDF7C8BDB0B592B0002443F64000CDE9DF
:102E80000A44CDE908440594CDE90344CDE9014461
:102E90000094C4F202000168022541F080510160F3
:102EA000006800F080500090009847F20000009405
:102EB000C4F20000016841F48041016000684821CB
:102EC00000F4804000900098012006904FF480307C
:102ED00007904FF480000D9004200C950E90CDE9E2
:102EE0000F15119006A8FDF751FF20B1EFF31080E8
:102EF00072B600BFFEE70F20CDE901054FF4805008
:102F00000394CDE9040401A80221FDF731FE20B1AC
:102F1000EFF3108072B600BFFEE712B0B0BD000044
:102F20004EF68850CEF20000016841F47001016055
:102F30007047000040F2D410C2F20000FEF736BC29
:102F400040F21C20C2F20000FEF730BC40F26420C8
:102F5000C2F20000FEF72ABC40F2AC20C2F2000030
:102F6000FEF724BC10B540F6FF3E0368C4F2000E25
:102F700040F2004C7045C4F2010C26DCB0F1804FE9
:102F800030D040F20042C4F2000290422AD040F613
:102F90000002C4F20002904224D041F6FF72C4F253
:102FA0000002904228DC70453ADCB0F1804F5CD0E2
:102FB00040F20042C4F20002904256D040F60002B5
:102FC000C4F20002904250D053E040F60042C4F2F6
:102FD0000002904206D0604504D00022C4F20102F3
:102FE0009042DAD14A6823F07003134341F6FF722E
:102FF000C4F200029042D6DD43F6FF72C4F2010231
:10300000904220DC42F20002C4F2000290422CD036
:103010000022C4F20102904227D0604525D028E06A
:1030200040F60042C4F2000290421ED041F6000277
:10303000C4F20002904218D041F60042C4F20002ED
:10304000904212D015E044F20002C4F20102904214
:103050000BD044F60002C4F20102904205D044F2C3
:103060000042C4F20102904203D1CA6823F44073C3
:10307000134323F080024B69D1F800E08C681A43B7
:103080000260C46240F48062C0F828E0624504BF78
:10309000096901630121416110BD0000806B0021BD
:1030A000C185C184FEF7FEBF81B090F83E10222991
:1030B00020D18368B3F5805F08D10169002964D00D
:1030C00000F128010A6803685B680AE0014651F8CC
:1030D000282F13B90369002BF5D003685B6803F050
:1030E0007F0313700A6801320A60C18D01390A0436
:1030F000C18501D001B070470168CA6822F0200282
:10310000CA60CA6822F48072CA604A6922F0010269
:103110004A61202280F83E20026B012A3ED1002223
:10312000026300BF51E8031F026821F0100142E86A
:1031300003130168DBB151E8031F026821F010019D
:1031400042E80313016893B151E8031F026821F0BC
:10315000100142E8031301684BB151E8031F0268F4
:1031600021F0100142E803130168002BDAD10A684C
:10317000D20606D5002200920A68009249680091A2
:103180000099818D01B0FEF78BBF0168826A4968A2
:103190006FF35F2122F8021B8262A6E701B0FFF7FE
:1031A000E9BA000010B504460068D4E902C22369F8
:1031B000016921F4405111430161626943EA0C0144
:1031C000E3691143C268194349F20C639A431143FE
:1031D000C1604169A26921F4407141F20043114389
:1031E00040F48062C4F201039A42416102D1FDF7CA
:1031F00083FD01E0FDF76CFDE16963681922B1F51B
:10320000004FA0FB02011FD15A00DB0FFDF72CF885
:1032100048F21F51C5F2EB11A0FB01235A096FF0D0
:10322000630302FB0300322303EBC000A0FB010198
:103230004FF4F87000EA111000EB0210C1F34211D4
:1032400022680843906010BD9A009B0FFDF70CF8B0
:1032500048F21F51C5F2EB11A0FB01235A096FF090
:10326000630302FB0300322303EB0010A0FB010108
:10327000F02000EA511000EB0210C1F34311226864
:103280000843906010BD000040F23C30C2F20000E4
:10329000FEF70ABFFEE70000FDF7C2FBFFF7EAFDFD
:1032A000FFF792FAFFF76CFAFFF7BCFDFFF756FB4A
:1032B000FFF71EFCFFF752FCFFF7DCFCFFF742FDB7
:1032C000FFF782FBFFF768FDFFF77EFAFFF758FA7A
:1032D000FFF7A8FDFFF742FBFFF70AFCFFF73EFCF4
:1032E000FFF7C8FCFFF72EFDFFF76EFB40F2F4245A
:1032F000C2F2000420460021FEF732FE20460421DF
:10330000FEF72EFE40F28C14C2F20004204600218B
:10331000FEF726FE20460421FEF722FE2046082165
:10332000FEF71EFE40F24410C2F200003C21FEF700
:10333000DFF940F2D410C2F200003C21FEF7D8F9C8
:1033400040F2AC20C2F20000FDF7E6FF00F006F804
:103350004FF47A70FDF740FAFAE7000070B540F2DA
:103360000044C4F2020420464FF4804100220025AC
:10337000FDF73CFB20464FF400510022FDF736FBE1
:1033800040F27006C2F200060A203580FDF724FAEA
:1033900030884FF480417080F081204601223580D2
:1033A000FDF724FB20464FF400510122FDF71EFBE0
:1033B0000A203580FDF710FA30884FF48041B08044
:1033C0003082204600223580FDF710FB20464FF466
:1033D00000510122FDF70AFB0A203580FDF7FCF9B8
:1033E00030884FF48041F080708220460122358081
:1033F000FDF7FCFA20464FF400510022BDE8704072
:10340000FDF7F4BAF1EE100A4FF6FF71C0F2C031C9
:1034100020EA010040F04070E1EE100A7047000021
:103420000000000000000102030406070809000074
:10343000000001020304000610160006101600002A
:10344000603400080000002010000000C4010008E3
:10345000703400081000002078090000E001000826
:1034600001000000100000000024F4000000000033
:040000050800018965
:00000001FF
