:020000040800F2
:10000000580A002029020008612F0008C5270008AF
:100010005D2F00082104000895430008000000003F
:10002000000000000000000000000000093100088E
:100030004D04000800000000053100080D310008E3
:10004000430200084302000843020008430200087C
:10005000430200084302000843020008430200086C
:10006000430200084302000851040008430200084C
:10007000430200084302000843020008430200084C
:10008000430200084302000843020008430200083C
:10009000430200084302000843020008430200082C
:1000A000430200084302000843020008430200081C
:1000B00043020008D131000843020008430200084F
:1000C00043020008430200084302000843020008FC
:1000D00043020008430200084302000843020008EC
:1000E00043020008430200084302000843020008DC
:1000F00043020008430200084302000843020008CC
:100100004302000843020008DD31000843020008F2
:100110004302000843020008E931000843020008D6
:1001200043020008350400084302000843020008A7
:10013000430200084302000843020008430200088B
:10014000430200084302000843020008430200087B
:1001500043020008410400084302000889430008E4
:10016000430200084302000843020008430200085B
:100170004302000843020008430200080000000098
:10018000430200084302000800F002F800F03CF8C7
:100190000AA090E8000C82448344AAF10107DA45E2
:1001A00001D100F031F8AFF2090EBAE80F0013F0F8
:1001B000010F18BFFB1A43F001031847B05D0000A0
:1001C000D05D0000103A24BF78C878C1FAD8520731
:1001D00024BF30C830C144BF04680C6070470000C1
:1001E0000023002400250026103A28BF78C1FBD840
:1001F000520728BF30C148BF0B6070471FB505F0DC
:100200008BFE1FBD10B510BD00F0D0F81146FFF7F2
:10021000F5FF04F015F900F0EEF803B4FFF7F2FF74
:1002200003BC00F0F5F80000094880470948004782
:10023000FEE7FEE7FEE7FEE7FEE7FEE7FEE7FEE796
:10024000FEE7FEE704480549054A064B70470000F3
:10025000BD3100088901000858040020580A002018
:10026000580600205806002053EA020C00F069806E
:100270002DE9F04B4FF00006002B1FBFB3FA83F5BA
:1002800003FA05F424FA05F65E4012BF1643B2FAEB
:1002900082F502FA05F4C5F120051EBF22FA05FC1D
:1002A00044EA0C04203556EA044C4FEA144418BFC3
:1002B000641C4FF000084FF00009904271EB030CF2
:1002C00039D3002919BFB1FA81F701FA07F6B0FA5C
:1002D00080F700FA07F6C7F120071EBF20FA07FCD7
:1002E00046EA0C062037B6FBF4FCA7EB0507103FE7
:1002F00007F01F0BCBF120062CFA06F60CFA0BFBCD
:1003000044BFB3460026202FA4BF5E464FF0000B2B
:100310005BEA060C08BF4FF0010B19EB0B0948EB29
:100320000608ABFB027C06FB02CC0BFB03CCC01B1C
:1003300071EB0C01C1E70B46024641464846BDE859
:10034000F08B13B5084318BF4FF0FF300146AFF3F1
:100350000080BDE81C4070474FF0000200B5134616
:1003600094469646203922BFA0E80C50A0E80C50D5
:10037000B1F12001BFF4F7AF090728BFA0E80C5086
:1003800048BF0CC05DF804EB890028BF40F8042B7F
:1003900008BF704748BF20F8022B11F0804F18BFEC
:1003A00000F8012B7047704770477047754600F0A2
:1003B0002BF8AE4605006946534620F007008546F7
:1003C00018B020B5FFF73EFFBDE820404FF0000613
:1003D0004FF000074FF000084FF0000BAC46ACE8C0
:1003E000C009ACE8C009ACE8C009ACE8C00921F01C
:1003F00007018D46704710B50446AFF300802046D4
:10040000BDE81040FFF709BF004870471800002002
:1004100001491820ABBEFEE726000200704700002D
:10042000FEE7000040F2D011C2F200010968486303
:100430007047000040F2C800C2F2000000F06CB843
:1004400040F22810C2F2000000F066B870470000C9
:10045000102000F013BA0000EFF3108072B600BF56
:10046000FEE7000070B5866D044600F0F3FA94F8DC
:100470003510022928D105462068216C026822F037
:1004800016020260426922F08002426109B9A16C41
:1004900019B1016821F008010160016821F0010132
:1004A000016000BF20680068C00715D000F0D2FAD4
:1004B000401B0628F6D320206065032084F8350011
:1004C000002184F8341070BD802060650120002177
:1004D00084F8341070BD00BFE06D3F2101FA00F0D8
:1004E000B060012084F835000020002184F8341029
:1004F00070BD000090F83510022909D1052180F85F
:1005000035100068016821F001010160002070478A
:100510008021416501207047F0B581B0044600207C
:10052000009040F21000C2F200000268D4E91660A8
:1005300048F2B51337680821C1F64E33814039427D
:10054000A2FB03250CD0226813685B0708D513684B
:1005500023F004031360B160616D41F00101616536
:1005600001218140394208D022685269120604D51F
:10057000B160616D41F00201616504218140394241
:1005800008D022681268920704D5B160616D41F00D
:100590000401616510218140394217D0206802684A
:1005A000120713D5B16002680168520308D4C90567
:1005B00008D4016821F008010160216C21B905E02F
:1005C00008033FD4216C09B120468847E16D202003
:1005D00000FA01F23A4241D020680368DB063DD5BB
:1005E000B26094F835300268052B1BD122F0160258
:1005F0000260426922F080024261226C0AB9A26C58
:100600001AB1026822F0080202603F208840B06000
:10061000012084F83500216D0020002984F8340081
:1006200052D157E00168520310D4C90512D40168B1
:1006300021F010010160012084F83500002084F8C9
:10064000340007E0A16C0029BED1BFE7080301D444
:10065000616C00E0E16B09B120468847606DC8B36A
:10066000606DC0072ED0052084F835002068A90AE7
:10067000026822F001020260009A01328A4200926E
:100680001AD80268D20717D0009A01328A42009223
:1006900012D80268D2070FD0009A01328A42009223
:1006A0000AD80268D20707D0009A01328A42009223
:1006B00002D80268D207DFD1012084F8350000207B
:1006C00084F83400E16C29B1204601B0BDE8F04067
:1006D000084700BF01B0F0BD2DE9F041044600F02D
:1006E000B9F9ECB10546022084F8350000202168F4
:1006F00084F83400086820F0010008602168086868
:10070000C00711D000F0A6F9401B0528F6D9032533
:1007100020230320636584F83550BDE8F08100BFD5
:100720000120BDE8F08100BF086848F23F02CFF227
:100730001002D4E9013500EA020C04F10C0898E833
:10074000C10143EA0C032B431843D4E9072E30437D
:1007500038431043626A40EA0E00042A40EA080364
:100760001CD1206BD4E90A2E40EA0E001843086021
:100770004869BEF1000F20F0030040EA020040F09B
:10078000040C11D0B8F5005F36D0B8F1000F45D198
:10079000022A46D0012A3BD032B942E00B604869B8
:1007A00020F0070040EA020C01F0F8004AF6AB2204
:1007B0001038CAF6AA22A0FB02231A0945F64A738A
:1007C000C0F600039A5C40F2FF335F284FF03F0011
:1007D000C1F814C021EA030100FA02F088BF043115
:1007E000C4E916128860002301250020636584F89F
:1007F0003550BDE8F08100BF032AD5D8012540233C
:100800000120DFE802F0030E030500BF82E700BF0E
:10081000AEF1C070B0FA80F0400904E0032A04D3BE
:10082000C2D1CEF300600028BED0012540230120B4
:10083000636584F83550BDE8F0810000B0B504462A
:1008400000F008F9054640F20800C2F20000007806
:10085000611C18BF044400BF00F0FCF8401BA0421C
:10086000FAD3B0BD102818BF704740F2B400C2F2EE
:1008700000000188013101807047000043F61441F7
:10088000C4F201010A68024214BF08607047FFF712
:10089000E9BF00002DE9F04F82B000F13E4241F681
:1008A000004502F1FF77C4F20205082243F6004E2C
:1008B0004FEAB726A84208BF0722C4F2010E072E4E
:1008C00038BF4FEAB7220125002600274FF0000865
:1008D000009208E008F101080437B8F1100F06F1A2
:1008E000020600F0A7800C6805FA08F914EA090F5F
:1008F000F0D0D1F804B003220BF0030CACF10104EA
:10090000B240012C6FEA020A10D88268CC6802EA71
:100910000A02B440224382604268CBF3001422EA08
:10092000090204FA08F42243426005E0BCF1030F17
:1009300002D14FF0030C20E0C2688C6802EA0A0280
:10094000B4402243BCF1020FC26016D16FF0030223
:1009500002EA58020244D2F820C007F01C050F2317
:100960000C69AB402CEA030304FA05F52B43136230
:10097000D1F804B001250BF0030C02680CFA06F361
:1009800002EA0A021A431BF4403F0260A2D000228E
:1009900043F644030192C4F202031A684FF6084C6E
:1009A00042F480421A601A68CFF6FF7C02F480425B
:1009B0000192019A28F00302724452F80C3007F0B9
:1009C0000C050F24AC40A343009C04FA05F52B430F
:1009D00042F80C30DEF808204B6842EA090543F67D
:1009E0000C4CDC0258BF22EA0905CEF80850C4F2CC
:1009F000010CDCF800209C0242EA090558BF22EAFB
:100A00000905CCF80050DEF804209C0342EA0905F1
:100A100058BF22EA0905CEF80450DEF80020DB03B7
:100A200042EA090558BF22EA0905CEF8005001251F
:100A300050E700BF02B0BDE8F08F00000069084039
:100A400018BF012070470000002A08BF0904816117
:100A50007047000040F25440C2F200000068704746
:100A600040F2080040F25441C2F20000C2F200011C
:100A700000780A68104408607047000080B543F6AB
:100A80000040C4F20200016841F400710160016895
:100A900041F480610160016841F4807101600320CC
:100AA00000F088F80F2000F005F800F027F800208B
:100AB00080BD000070B540F20806C2F2000640F2A8
:100AC00010013278C2F200014FF47A730968B3FB67
:100AD000F2F20446B1FBF2F1084600F043FB0F2CA2
:100AE0004FF0010508D838B94FF0FF3021460022F9
:100AF000002500F033F87460284670BD82B00020F5
:100B000043F640010190C4F202014A6842F4804277
:100B10004A604A6802F480420192019A0090086893
:100B200040F080500860086800F080500090009805
:100B300002B07047002848BF7047C1B200F01F00E4
:100B4000012202FA00F04EF20012CEF2000242EA56
:100B5000D10121F0030108607047000010B54EF686
:100B60000C5CCEF2000CDCF80030C3F3022E8EF0E9
:100B70000704042C28BF0424BEF103034FF0FF3EFA
:100B80000EFA04F438BF0023A14399400EFA03F390
:100B90009A43114300F00F0200F160430901043A47
:100BA00003F564436244002848BF02F10C03197046
:100BB00010BD00004EF60C51CEF200010A684FF64F
:100BC000FF031A4060F30A2242F0806040F0FD709B
:100BD000086070472DE9F041002800F08B8043F653
:100BE0000808C4F202080446D8F8F8030D4600F0DD
:100BF0000700884207D288F8F853D8F8F80300F0C5
:100C00000700A84276D12068810717D5410705D58E
:100C1000D8F8001041F4E051C8F80010010705D5DC
:100C2000D8F8001041F46041C8F80010D8F800105E
:100C3000A26821F0F0011143C8F80010C0073FD1AD
:100C4000D8F8F80300F00700A84207D988F8F8534D
:100C5000D8F8F80300F00700A8424BD120684107FC
:100C600007D5D8F80010E26821F4E0511143C8F824
:100C70000010000708D5D8F80000216920F4604072
:100C800040EAC100C8F8000000F07CF8D8F8001075
:100C900045F63272C1F30311C0F60002515C40F216
:100CA000100220FA01F140F20C00C2F200000068CC
:100CB000C2F200021160FFF7FDFE0020BDE8F081E6
:100CC0006068811E022907D258F8081C89015CBFA0
:100CD0000120BDE8F08111E0012807D158F8081C77
:100CE00089035CBF0120BDE8F08107E058F8081CCB
:100CF000890703D40120BDE8F08100BFD8F80010B7
:100D000021F003010843C8F80000FFF7A3FE0646E0
:100D100041F28837D8F80000616800F00C00B0EBB1
:100D2000810F8DD0FFF796FE801BB842F2D90320C9
:100D3000BDE8F08140F2100043F60801C2F2000065
:100D4000C4F202010068096845F64272C1F38221CB
:100D5000C0F60002515CC8407047000040F210002D
:100D600043F60801C2F20000C4F2020100680968FB
:100D700045F64272C1F34231C0F60002515CC840F0
:100D80007047000010B543F60404C4F20204606822
:100D900000F00C0142F200400829C0F2F40007D034
:100DA000042918BF10BD41F20020C0F27A0010BD26
:100DB000216801F03F02216823684902C3F38811CA
:100DC00006D4A1FB00010023FFF74EFA07E000BFA5
:100DD00041F20020C0F27A004843B0FBF2F02168F3
:100DE0000222C1F3014102EB4101B0FBF1F010BD61
:100DF0002DE9F04182B0002868D00446007843F61F
:100E00000006C007C4F202060BD0B06800F00C0068
:100E1000042840F09F803068800302D56068002875
:100E200054D0207880071AD5B06810F00C0F09D084
:100E3000B06800F00C00082840F0A68070684002FE
:100E400000F1A2803068800702D5E06801283DD11A
:100E50003068216920F0F80040EAC1003060207855
:100E6000000737D4207840074CD4A56955B3B06843
:100E700000F00C00082840F0BB80012D26D07068DF
:100E8000E16900F480028A4220D1216A00F03F0229
:100E90008A421BD147F6C071626A0140B1EB821FE2
:100EA00014D1A16A4FF6FF73C903994300F440328D
:100EB000A1F580318A4209D1E16A00F07060B0EB9F
:100EC000016F03D1002002B0BDE8F081012002B023
:100ED000BDE8F0816069002840F20000C4F24720BC
:100EE00076D00121C0F8801EFFF7B4FD054600BF93
:100EF000706F8007B6D4FFF7ADFD401B0228F7D90D
:100F0000DDE000BF306C10F080580AD10020019065
:100F1000306C40F080503064306C00F080500190B4
:100F2000019847F20007C4F200073868C00541D4B1
:100F3000386840F480703860FFF78CFD054600BFCC
:100F40003868C00536D4FFF785FD401B0228F7D965
:100F5000B5E000BFB06800F00C00082803D170684D
:100F600040023FF558AF6068B0F5803F07D0B0F55C
:100F7000A02F40F08D80306840F4802030603068D1
:100F800040F4803030608DE0E068002852D00020CE
:100F9000C4F2472001210160FFF75CFD054600BF58
:100FA000306880073FF554AFFFF754FD401B02281F
:100FB000F6D984E0A068012805D005284ED1306F0D
:100FC00040F004003067306F40F0010030674FE0C0
:100FD0000021C0F8801EFFF73DFD0546706F8007B9
:100FE0007FF540AFFFF736FD401B0228F6D966E0DB
:100FF0000027C4F2472700203866FFF72BFD022D9B
:1010000005460BD1306880015ED5FFF723FD401BFC
:1010100002284FF00300F5D955E700BF3068800182
:101020007FF550AFFFF716FD401B02284FF003007D
:10103000F4D948E70020C4F2472000210160FFF7FF
:1010400009FD0546306880077FF509AFFFF702FD0F
:10105000401B02284FF00300F4D934E7316F002819
:1010600021F001013167316F21F0040131674DD06A
:10107000FFF7F0FC054641F2883700BF306F80076C
:1010800056D4FFF7E7FC401BB842F7D917E000BF82
:101090003168002821F480313160316821F48021E9
:1010A00031604FD0FFF7D6FC054600BF30688003A3
:1010B0003FF5B7AEFFF7CEFC401B6428F6D90320FE
:1010C00002B0BDE8F08100BF04F11C052FCD08433C
:1010D00040EA8210D9034FF6FF729143A1F58031A7
:1010E00040EA05600843706001203866FFF7B2FCF3
:1010F000044600BF306880013FF5E4AEFFF7AAFC6C
:10110000001B02284FF00300F4D9DCE6FFF7A2FC35
:10111000054641F2883700BF306F800708D5FFF7DA
:1011200099FC401BB8424FF00300F5D9CBE600BF55
:10113000B8F1000F7FF499AE306C20F0805030642D
:1011400093E600BFFFF786FC054600BF30688003CA
:101150007FF567AEFFF77EFC401B64284FF003006D
:10116000F4D9B0E6411E0020B0EB116F1CBF012086
:1011700070474EF21002CEF2000251604EF623513B
:10118000CEF20001F0230B700721906011607047D0
:10119000704700007047000010B590F83C20012A0D
:1011A0004FF0020251D080F83D200268D2F804E0EE
:1011B000D2F808C00C682EF07003234341F2FF748C
:1011C000C4F20004A24253600EDC40F2FF73C4F28A
:1011D00000039A4216DCB2F1804F2BD040F200435C
:1011E000C4F2000324E000BF40F2FF33C4F2010365
:1011F0009A4213DC41F60003C4F200039A4219D06C
:10120000002313E040F60003C4F200039A4211D019
:1012100040F60043C4F200030AE000BF44F20003BA
:10122000C4F201039A4205D040F20043C4F2010324
:101230009A4204D149682CF080031943916001213E
:10124000002280F83D1080F83C20104610BD0000C0
:10125000002804BF0120704710B5044690F83D00F7
:1012600028B9002084F83C00204600F01FF8022036
:1012700084F83D002068211D01F0BCFF012084F8A6
:10128000460084F83E0084F83F0084F8400084F86B
:10129000410084F8420084F8430084F8440084F854
:1012A000450084F83D00002010BD000080B582B0EC
:1012B000006800F140404FEAB020042813D8DFE86E
:1012C00000F00312152741000020019043F6400072
:1012D000C4F20200016841F001010160006800F001
:1012E00001000190019802B080BD00BF0020019074
:1012F00043F64000C4F20200016841F004010160BD
:10130000006800F004000190019802B080BD00BFA9
:101310000020019043F64000C4F202000168002260
:1013200041F0080101600068002100F00800019010
:1013300001983220FFF712FC322002B0BDE8804055
:10134000FFF7F8BB0020019043F64000C4F2020012
:101350000168002241F0100101600068012100F0E5
:101360001000019001983620FFF7F8FB362002B0FC
:10137000BDE88040FFF7DEBB90F83D1001291CBF9F
:1013800001207047022180F83D10006841F2FF7291
:10139000C168C4F20002904241F00101C1600DDC5D
:1013A00040F2FF71C4F20001884215DCB0F1804FB9
:1013B0002AD040F20041C4F2000123E040F2FF31A4
:1013C000C4F20101884213DC41F60001C4F20001BD
:1013D000884219D0002113E040F60001C4F2000158
:1013E000884211D040F60041C4F200010AE000BF7B
:1013F00044F20001C4F20101884205D040F20041EC
:10140000C4F20101884206D1816801F00701062972
:1014100004BF00207047016841F001010160002015
:101420007047000080B590F83C20012A4FF002027E
:1014300000F0C28080F83D20D0F800C04FF67772EF
:10144000DCF8083023EA0202CCF808200B684F2BA6
:1014500028DC1F2B44DD202B45D0302B43D0402BE4
:1014600040F0AC80D1F804E0C968DCF82030DCF84A
:10147000202022F00102CCF82020DCF8182022F0F5
:10148000F00242EA011123F00A0242EA0E02CCF80D
:101490001810CCF82020DCF8081041F0470121F0AA
:1014A000300180E06F2B27DDB3F5005F48D0B3F546
:1014B000805F7AD0702B40F08180D1E901E3C96868
:1014C000DCF8082043EA0E0322F47F4243EA0121BC
:1014D0001143CCF80810DCF8081041F0770162E005
:1014E0000BB1102B6AD1DCF8081021F07001194300
:1014F00041F0070157E000BF502B35D0602B5DD184
:10150000D1F804E0C968DCF8203023F01003CCF8EF
:101510002030DCF81830DCF8202023F4704322F06F
:10152000A00243EA013142EA0E12CCF81810CCF8BE
:101530002020DCF8081041F0670121F0100132E0B2
:10154000D1E901E3C968DCF8082043EA0E0322F47C
:101550007F4243EA01211143CCF80810DCF808105F
:1015600041F480411FE000BFD1F804E0C968DCF815
:101570002030DCF8202022F00102CCF82020DCF81A
:10158000182022F0F00242EA011123F00A0242EA96
:101590000E02CCF81810CCF82020DCF8081041F02E
:1015A000570121F02001CCF808100022012180F819
:1015B0003D10002180F83C10104680BD0122F5E767
:1015C000002804BF012070472DE9F047044690F839
:1015D0003D000D4628B9002084F83C00204600F06C
:1015E00049F8022084F83D00206844F2070281682F
:1015F00091438160211D01F0FDFD20684FF6FF78C9
:1016000081688269D0F820C0D5E9003ED5E9026A38
:1016100043EA0109AB6922EA080246EA03234FF6CE
:10162000FC46B343D5E9076742EA0A0229691A432F
:1016300042EA062242EA01112CF0AA026B6942EA50
:101640000E0241EA073142EA0312C0F808908161B4
:101650000262012084F8460084F83E0084F83F00CE
:1016600084F8420084F8430084F83D000020BDE87F
:10167000F087000080B586B0006840F20042C4F2F6
:10168000000200219042CDE90411CDE9021101913F
:1016900030D00021C4F20101884258D1002043F625
:1016A00030010090C4F202014A6942F001024A612D
:1016B0004A6902F001020092009A00900A6842F022
:1016C00010020A60096801F01001009100994FF4BE
:1016D000206101910221CDE90210049001200590C2
:1016E0000020C4F2020000F5805001A9FFF7D2F8F3
:1016F00006B080BD43F630000091C4F202000269DA
:1017000042F002020261026902F002020092009AB3
:101710000091026842F001020260006800F00100DE
:1017200000900098C02001900220CDE90201CDE98F
:1017300004100020C4F2020001A9FFF7ABF81D203D
:1017400000210022FFF70AFA1D20FFF7F3F906B087
:1017500080BD000080B590F83E2090F83F3090F8B2
:1017600042E090F843C004290AD0B9B9012A4FF0E9
:10177000010208BFBEF1010F34D0104680BD00BF8A
:10178000012B4FF0010208BFBCF1010FF5D102217E
:1017900080F83F1080F8431000681EE0012A4FF0E7
:1017A000010208BF012BE8D1BEF1010FE5D1BCF168
:1017B000010FE2D1022280F83E2080F83F2080F81D
:1017C000422080F8432091B10068016A21F00101B4
:1017D0000162016A41F00101016210216FF0100203
:1017E00009E000BF022180F83E1080F84210006836
:1017F00001216FF00102036A1A400262026A11437A
:1018000001620168002241F001010160104680BDC3
:101810007047000010B5016804460869800744BF9E
:10182000C8685FEA807039D40869400744BFC86857
:101830005FEA40703ED40869000744BFC8685FEAA9
:10184000007045D40869C00644BFC8685FEAC0603C
:101850004AD40869C0071CBFC8685FEAC07051D18C
:101860000869000644BFC8685FEA006052D408698E
:10187000400644BFC8685FEA406053D408698006E8
:1018800046BFC8685FEA806010BD6FF02002204646
:101890000A61BDE81040FFF77DBC00BF6FF0020099
:1018A0000861012020778869800743D02046FFF730
:1018B000AFFF45E06FF004000861022020778869DF
:1018C00010F4407F40D02046FFF7A2FF42E000BF67
:1018D0006FF00800086104202077C86980073DD0B8
:1018E0002046FFF795FF3FE06FF0100008610820E9
:1018F0002077C86910F4407F3AD02046FFF788FF70
:101900003CE000BF6FF001000861204600F0EEFBF4
:101910002168A5E76FF0800008612046FFF738FCDA
:101920002168A4E76FF040000861204600F0E0FB6A
:101930002168A3E7204600F0BFF9204600F04AFBEB
:101940002168002020776FE7204600F0B5F9204697
:1019500000F040FB2168002020776CE7204600F073
:10196000ABF9204600F036FB21680020207769E7BC
:10197000204600F0A1F9204600F02CFB2168002051
:10198000207766E72DE9F04186B0006840F6FF3128
:10199000C4F2000188424FF000010591CDE9031126
:1019A000CDE9011126DCB0F1804F4DD040F60001A9
:1019B000C4F20001884240F0A180002043F63001CB
:1019C0000090C4F202010A6842F008020A60096845
:1019D00001F00801009100994FF47041019102213A
:1019E000CDE90210CDE904010020C4F2020000F5A7
:1019F000406080E040F60041C4F20001884261D0BE
:101A000044F20001C4F20101884277D1002043F67C
:101A100030010090C4F202010A6842F010020A602C
:101A2000096801F0100100910099602101910221E3
:101A3000CDE902100490032005900020C4F20200BA
:101A400000F5805057E000BF002643F630000096B6
:101A5000C4F202000168002441F001010160016844
:101A6000C4F2020401F0010100910099009601689E
:101A70000DF1040841F0020101600068022700F046
:101A8000020000900098012520464146CDE90177EB
:101A9000CDE903670595FEF7FDFE2420CDE901079A
:101AA00020464146CDE903660595FEF7F3FE4FF467
:101AB0000060CDE90107CDE90366059504F5806076
:101AC00019E000BF002043F630010090C4F202018B
:101AD0000A6842F001020A60096801F00101009100
:101AE0000099012101910221CDE902100020C4F2E8
:101AF0000200CDE9041101A9FEF7CCFE06B0BDE855
:101B0000F0810000F0B590F83C30012B04BF0220BA
:101B1000F0BD4FEAB202032A00F2C880DFE802F00B
:101B20000234689A026840F20046136A42F4806404
:101B300023F001031362136AD2F804E0D2F818C04C
:101B40008D6823F00203C4F20106B44243EA0503A0
:101B500005D1CD6823F00C0325F004052B430D6857
:101B6000B44207D1D1E905462EF4407E44EA0E0482
:101B700044EA060E2CF073062E43C2F804E0966188
:101B8000496851638BE000BF026840F20045136A68
:101B900042F4806423F010031362136AD2F804E065
:101BA000D2F818C08E6823F02003C4F20105AC42BD
:101BB00043EA061307D1CE686FF0400723F0C00355
:101BC00007EA061633430E68AC4206D1D1E9054553
:101BD0002EF44067254347EA850E2CF4E64747EA92
:101BE0000627C2F804E097614968916357E000BF97
:101BF000026840F20045136A42F4806423F4807363
:101C00001362136AD2F804E0D2F81CC08E6823F481
:101C10000073C4F20105AC4243EA062307D1CE6843
:101C200040F2FF47360223F44063BE4333430E685D
:101C3000AC4206D1D1E905452EF44057254347EA89
:101C4000051E2CF073073743C2F804E0D7614968DA
:101C5000D16324E0026840F20047136A42F48066D0
:101C600023F480531362D2F820E05368D4690D68DE
:101C7000D1F808C0C4F20107BE4204D14E6923F472
:101C8000804343EA861324F4E64646EA0526536079
:101C9000D6612EF40057496847EA0C3311640021DD
:101CA0001362002280F83C200846F0BD012100228A
:101CB00080F83C200846F0BD70470000002804BFB3
:101CC0000120704710B5044690F83D0028B9002067
:101CD00084F83C00204600F01FF8022084F83D0004
:101CE0002068211D01F086FA012084F8460084F85E
:101CF0003E0084F83F0084F8400084F8410084F8F6
:101D0000420084F8430084F8440084F8450084F8D5
:101D10003D00002010BD0000704700002DE9F04399
:101D200090F83C30012B04BF0220BDE8F0834FEA5D
:101D3000B202032A00F2FC80DFE802F0023E7EBE1F
:101D4000036840F200471A6A43F4806522F00102FA
:101D50001A621C6A1A46D3F804E052F818CF8E684B
:101D600024F00204C4F20107BD4244EA060405D18E
:101D7000CE6824F00C0426F0040634430E68BD42FD
:101D800007D1D1E905572EF4407E45EA0E0545EA14
:101D9000070E2CF073073743C3F804E09F614F68C8
:101DA00009695F631C629F6947F008079F619F692B
:101DB00027F004079F61B1E0036840F200481A6A07
:101DC00043F4806522F010021A621C6A1A46D3F8A6
:101DD00004C052F818EF8F6824F02004C4F2010800
:101DE000454544EA071407D1CF686FF0400624F058
:101DF000C00406EA07163443D1F80090454506D1E1
:101E0000D1E905562CF440672E4347EA860C2EF4A0
:101E1000E64747EA0927C3F804C09F614F6809698C
:101E20009F631C629F6947F400679F619F6927F465
:101E300080679F6171E000BF036840F200481A6A42
:101E400043F4806522F480721A621C6A1A46D3F841
:101E500004C052F81CEF8F6824F40074C4F2010827
:101E6000454544EA072408D1CF6840F2FF463F02C7
:101E700024F4406427EA06063443D1F8009045452F
:101E800006D1D1E905562CF440572E4347EA061CEB
:101E90002EF0730747EA0907C3F804C0DF614F68F3
:101EA0000969DF631C62DF6947F00807DF61DF69EA
:101EB00027F00407DF6131E0036840F200451A6A49
:101EC00043F4806722F480521A621A46D3F820C085
:101ED0005C6852F81CEFD1F800808E68C4F20105EE
:101EE000AF4204D14D6924F4804444EA85142CF4B3
:101EF000005747EA06372EF4E64646EA08265C60B5
:101F0000DE614E6809691E641F62DF6947F400677D
:101F1000DF61DF6927F48067DF6109021368194315
:101F200011600021002280F83C200846BDE8F083C3
:101F30000121002280F83C200846BDE8F083000023
:101F4000002804BF0120704710B5044690F83D00FA
:101F500028B9002084F83C00204600F01FF8022039
:101F600084F83D002068211D01F044F9012084F827
:101F7000460084F83E0084F83F0084F8400084F86E
:101F8000410084F8420084F8430084F8440084F857
:101F9000450084F83D00002010BD000081B00068BD
:101FA00044F20001C4F20101884201D001B070473F
:101FB0000020009043F64400C4F20200016841F49E
:101FC00080310160006800F480300090009801B01A
:101FD000704700007047000041B1082910D0042963
:101FE00014BF00F1410200F13F020BE090F83E20E7
:101FF000012A1CBF01207047022280F83E2013E016
:1020000000F140021278012A1CBF01207047022211
:10201000082907D0042914BF80F8412080F83F2008
:1020200002E000BF80F84020006801F01F0101229B
:10203000036A02FA01F123EA01020262026A114311
:1020400041F2FF72C4F20002904201620CDC40F2E5
:10205000FF71C4F20001884214DCB0F1804F37D028
:1020600040F2004116E000BF40F2FF31C4F201012E
:10207000884215DC41F60001C4F20001884227D0F5
:10208000002115E040F60001C4F2000188421FD093
:1020900040F60041C4F20001884219D01FE000BFA1
:1020A00044F20001C4F20101884211D040F2004123
:1020B000C4F20101884212D1416C40F2004340F465
:1020C0008062C4F2010341F400419A42416406D1A6
:1020D000816801F00701062904BF002070470168EC
:1020E00041F00101016000207047000070470000CE
:1020F000704700007047000070470000B0B582B024
:10210000044600680168C368426901F02F05202D6C
:1021100003F0200506D12DB1204602B0BDE8B04045
:1021200002F03AB85FEA017C1EBF02F0010E03F430
:10213000907212EB0E0253D1226B012A05D111F0DD
:10214000100218BF13F0100236D10A0622D513F080
:1021500080021FD094F83D1021293FD1A168B1F52C
:10216000805F03D12169002900F07282216A4A1C34
:10217000226209784160E18C01390A04E1842DD1A1
:10218000C16821F08001C160C16841F04001C160B7
:1021900002B0B0BD490621D513F040011ED0C16880
:1021A00021F04001C1602021204684F83D1002B09A
:1021B000BDE8B04000F004BB00210191016801912D
:1021C0004168019101994069400613D4A08DE18DC9
:1021D000E28D002A18BF884240F0BE8102B0B0BD37
:1021E000CA0718BF13F4807240F0BA804A0700F1A2
:1021F000BD80C2E0A16B0868426893B2002BEDD0AD
:10220000A08D8342EAD2E285C969B1F5807F00F0F2
:102210009D80206850E8030F216820F4807041E819
:102220000302DAB1206850E8030F216820F48070BF
:1022300041E8030292B1206850E8030F216820F4BE
:10224000807041E803024AB1206850E8030F21681A
:1022500020F4807041E80302002ADAD1206850E8B7
:10226000050F216820F0010041E80502DAB120687D
:1022700050E8050F216820F0010041E8050292B105
:10228000206850E8050F216820F0010041E80502B0
:102290004AB1206850E8050F216820F0010041E8AC
:1022A0000502002ADAD1206850E8050F216820F0E5
:1022B000400041E80502DAB1206850E8050F2168C6
:1022C00020F0400041E8050292B1206850E8050F77
:1022D000216820F0400041E805024AB1206850E83A
:1022E000050F216820F0400041E80502002ADAD1FC
:1022F000202084F83E0000202063206850E8030F6F
:10230000216820F0100041E80302DAB1206850E8AB
:10231000030F216820F0100041E8030292B1206809
:1023200050E8030F216820F0100041E803024AB191
:10233000206850E8030F216820F0100041E80302F4
:10234000002ADAD1A06BFEF78DF8A08DE18D401A3E
:1023500081B2204602B0BDE8B040FFF7CBBE00BF5F
:10236000226C42F0010222644A0706D5BEF1000F3A
:1023700003D0226C42F0020222648A0706D5BEF125
:10238000000F03D0226C42F004022264BCF1000F63
:1023900009D545EA0E02B2FA82F2520903D1226C43
:1023A00042F008022264226C002A3FF417AF11F0B9
:1023B000200118BF002D03D0204601F0EDFE20685B
:1023C0004069216C00F0400001F00801401800F065
:1023D000B58000BF206850E8030F216820F490709A
:1023E00041E80302BAB3206850E8030F216820F4E3
:1023F000907041E8030272B3206850E8030F21682F
:1024000020F4907041E803022AB3206850E8030FDB
:10241000216820F4907041E80302002ADAD11AE022
:10242000206850E8050F216820F0010041E805020E
:10243000DAB1206850E8050F216820F0010041E87A
:10244000050292B1206850E8050F216820F00100D4
:1024500041E805024AB1206850E8050F216820F0E4
:10246000010041E80502002ADAD1206B012824D1BD
:10247000206850E8030F216820F0100041E80302B3
:10248000DAB1206850E8030F216820F0100041E81D
:10249000030292B1206850E8030F216820F0100079
:1024A00041E803024AB1206850E8030F216820F098
:1024B000100041E80302002ADAD1202084F83E000F
:1024C000002020632068406940063FD5206850E81E
:1024D000050F216820F0400041E80502DAB12068CC
:1024E00050E8050F216820F0400041E8050292B154
:1024F000206850E8050F216820F0400041E80502FF
:102500004AB1206850E8050F216820F0400041E8FA
:102510000502002ADAD1A06BC0B144F28D11C0F6D9
:1025200000010165FDF7E6FF00283FF457AEA06B00
:10253000016D02B0BDE8B040084700BF2046FFF77C
:10254000DBFD0020206402B0B0BD00BF204602B019
:10255000BDE8B040FFF7D0BD401A216851E8031F25
:10256000226821F4907142E80313DBB1216851E83D
:10257000031F226821F4907142E8031393B121688C
:1025800051E8031F226821F4907142E803134BB114
:10259000216851E8031F226821F4907142E8031377
:1025A000002BDAD1216851E8051F226821F00101D2
:1025B00042E80513DBB1216851E8051F226821F0CC
:1025C000010142E8051393B1216851E8051F226813
:1025D00021F0010142E805134BB1216851E8051FC4
:1025E000226821F0010142E80513002BDAD12021F5
:1025F00084F83E1000212163216851E8031F2268FE
:1026000021F0100142E80313002B3FF4A1AE216832
:1026100051E8031F226821F0100142E80313002B48
:102620003FF496AE216851E8031F226821F01001A3
:1026300042E80313002B3FF48BAE216851E8031FDF
:10264000226821F0100142E80313002BD4D17FE669
:10265000216A31F8022B6FF35F22426021628AE522
:10266000002804BF0120704710B5044690F83D00D3
:1026700028B9002084F83C00204600F021F82420EE
:1026800084F83D002068C16821F40051C1602046F3
:1026900001F002FE2068016921F490410161416965
:1026A00021F02A014161C16841F40051C16000205C
:1026B0002021206484F83D1084F83E1010BD0000F5
:1026C0002DE9F04786B00446016841F20040C4F2AB
:1026D0000100814202D006B0BDE8F087002643F633
:1026E00030010196C4F202014A6946F2284842F0DC
:1026F00020024A614A6900F5744002F0200201920A
:10270000019A01960A68C4F2020842F004020A60C3
:10271000096801F0040101910199C0210191022190
:10272000CDE90216032104910821059101A9FEF7C4
:10273000B1F840F2C805C2F200054FF480704FF0C6
:10274000206A4FF48069C5E906604FF48037284657
:10275000C5E9008AC5E90266C5E90496C5E90876B7
:10276000FDF7BAFF002818BFFDF776FEA563AC633E
:1027700040F2281508F17800C2F200054021C5E9B1
:10278000000A05F1080080E842022846C5E905660E
:10279000C5E907676E62FDF79FFF002818BFFDF7C8
:1027A0005BFE4720022100226563AC63FEF7D6F989
:1027B0004720FEF7BFF906B0BDE8F087704700007C
:1027C00070470000FEE7000040F26020C2F2000007
:1027D00000684FF4487141637047000040F2602088
:1027E000C2F20000006840F28A2181637047000055
:1027F00040F26020C2F2000000684FF4C871C1636B
:102800007047000040F2D010C2F2000000684FF4A0
:102810004871C1637047000040F26020C2F20000BE
:10282000006840F28A2101647047000040F2602095
:10283000C2F20000006840F6980141637047000052
:1028400040F26020C2F2000000684FF4FA61816338
:102850007047000040F26020C2F2000000684FF4B0
:10286000AF61C1637047000040F2D010C2F20000B7
:10287000006840F63401C1637047000040F26020F8
:10288000C2F2000000684FF4FA6101647047000072
:1028900080B582B00020019043F63000C4F20200FF
:1028A0000168002241F4800101600068002100F409
:1028B0008000019001983920FEF750F93920FEF789
:1028C00039F9452000210022FEF748F9452002B0E1
:1028D000BDE88040FEF72EB92DE9F04F87B0002506
:1028E00043F63000CDE905550195C4F202000168B8
:1028F00040F2004A41F0100101600168C4F2020A8E
:1029000001F010010191019901950168AAF5806417
:1029100041F0800101600168002201F08001019115
:10292000019901950168182641F0010101600168D3
:1029300001F00101019101990195016841F0040143
:102940000160016801F0040101910199019501689C
:1029500041F002010160016801F002010191019959
:102960000195016841F0080101600068182100F03C
:102970000800019001982046FEF766F80AF5806885
:10298000404630210022FEF75FF8504647F28701AB
:102990000022FEF759F80AF5006948460421002292
:1029A000FEF752F8102002904FF4041002AF03908B
:1029B0004FF0010B0AF540603946CDF810B0FDF735
:1029C00069FFCDE9026B022620463946CDF810B0EA
:1029D0000596FDF75FFF3020CDE9020B40463946F2
:1029E000CDE90466FDF756FF0720CDE9020B5046FE
:1029F0003946CDE90466FDF74DFF4FF4E140CDE9DE
:102A0000020B50463946CDE90455FDF743FF48F225
:102A10002800CDE90205504639460495FDF73AFFF6
:102A200040F2BA70CDE90205484639460495FDF7F3
:102A300031FF4FF4E050CDE9020540463946049598
:102A4000FDF728FF0420CDE9020B48463946CDE9C1
:102A50000455FDF71FFF0A2000210022FEF77EF833
:102A60000A20FEF767F807B0BDE8F08F10B58CB00C
:102A700040F2881000210024C2F20000C4F20101DB
:102A8000C0E900140321CDE90314012144F62062BA
:102A9000CDE90514CDE9091403A9CDE90044C0E945
:102AA0000242C0E904448461CDE907440B94FEF777
:102AB00087FD002818BFFDF7CFFC40F28810C2F256
:102AC00000006946CDE90044FEF766FB002818BF08
:102AD000FDF7C2FC0CB010BD10B58EB040F2D010A6
:102AE0000021C2F200004FF08042472344F61F64E9
:102AF0000D91CDE90B110991CDE90711CDE9051132
:102B0000CDE90311CDE90111C0E90023C0E90214A8
:102B100001618161FEF79CFB002818BFFDF79CFC5A
:102B20004FF480500A9040F2D010C2F200000AA97F
:102B3000FEF778FC002818BFFDF78EFC40F2D0109D
:102B4000C2F20000FFF7FCF9002818BFFDF784FC73
:102B500040F2D010C2F20000FFF7B0F8002818BF12
:102B6000FDF77AFC40F2D0100024C2F2000008A960
:102B7000CDE90844FEF710FB002818BFFDF76CFCF8
:102B80006020CDE9010440F2D010C2F2000001A99A
:102B9000002203940594FFF7C1F8002818BFFDF741
:102BA0005BFC40F2D010C2F2000001A90422FFF742
:102BB000B5F8002818BFFDF74FFC40F2D010C2F264
:102BC000000001A90822FFF7A9F8002818BFFDF7A7
:102BD00043FC0020019040F2D010C2F2000001A995
:102BE0000C22FEF78FFF002818BFFDF735FC40F2DE
:102BF000D010C2F20000FEF7C5FE0EB010BD0000FE
:102C000080B58CB040F2182040F200420021C2F2A0
:102C10000000C4F20002C0E90021032244F6206350
:102C2000CDE903210122CDE90011C0E902130161C0
:102C30008161CDE90521CDE90711CDE909210B918C
:102C400003A9FEF7BDFC002818BFFDF705FC40F204
:102C50001820C2F200006946FEF79EFA002818BF4D
:102C6000FDF7FAFB0CB080BD10B58EB040F26020CD
:102C700040F600020021C2F20000C4F20002472325
:102C800044F61F640D91CDE90B110991CDE90711AF
:102C9000CDE90511CDE90311CDE90111C0E900230A
:102CA000C0E9021401618161FEF7D2FA002818BF61
:102CB000FDF7D2FB4FF480500A9040F26020C2F240
:102CC00000000AA9FEF7AEFB002818BFFDF7C4FB01
:102CD00040F26020C2F20000FFF732F9002818BF6E
:102CE000FDF7BAFB40F260200024C2F2000008A900
:102CF000CDE90844FEF750FA002818BFFDF7ACFBF9
:102D00006020CDE9010440F26020C2F2000001A978
:102D1000002203940594FFF701F8002818BFFDF77F
:102D20009BFB40F26020C2F2000001A90422FEF7E2
:102D3000F5FF002818BFFDF78FFB40F26020C2F2BC
:102D4000000001A90822FEF7E9FF002818BFFDF7DF
:102D500083FB40F26020C2F2000001A90C22FEF7C2
:102D6000DDFF002818BFFDF777FB40F26020C2F2BC
:102D70000000FEF707FE0EB010BD000010B58EB0CB
:102D800040F2A8200021C2F2000040F60042C72411
:102D90000D91CDE90B110991CDE90711CDE905118F
:102DA000CDE90311CDE90111C4F2000241F61F4340
:102DB000C0E9021401618021C0E900238161FEF7AE
:102DC00047FA002818BFFDF747FB4FF480500A90E0
:102DD00040F2A820C2F200000AA9FEF723FB002857
:102DE00018BFFDF739FB40F2A820C2F20000FFF740
:102DF000A7F8002818BFFDF72FFB40F2A8200024F9
:102E0000C2F2000008A9CDE90844FEF7C5F9002880
:102E100018BFFDF721FB6020CDE9010440F2A82096
:102E2000C2F2000001A9002203940594FEF776FF88
:102E3000002818BFFDF710FB40F2A820C2F20000E6
:102E4000FEF7A0FD0EB010BD80B582B040F2F020BC
:102E500041F200020021C2F20000C4F2000240F27E
:102E6000CF2342F20F7CCDE90011C0E90023C0E975
:102E7000021C8161FEF7ECF9002818BFFDF7ECFA9F
:102E800040F2F020C2F200006946FEF785F9002802
:102E900018BFFDF7E1FA02B080BD000010B588B0A0
:102EA00040F2383044F200010024C2F20000C4F2C3
:102EB000010142F20F73CDE90644CDE904444722F3
:102EC00080E81600C0E903348461FFF739F8002870
:102ED00018BFFDF7C1FA6020CDE9010440F2383097
:102EE000C2F2000001A9002203940594FEF716FF28
:102EF000002818BFFDF7B0FA40F23830C2F20000E7
:102F000001A90422FEF70AFF002818BFFDF7A4FA62
:102F100040F23830C2F20000FEF734FD08B010BDB8
:102F200080B540F2803041F20041C2F20000C4F2AC
:102F3000010100234FF00C0C4FF4E13280E80E0049
:102F4000C0E90333C0E905C3C361FFF789FB00286B
:102F500008BF80BDBDE88040FDF77EBAFEE70000F7
:102F6000FEE70000002857D0017890ED0F1A90ED91
:102F7000102A80ED070A30EEC00A0029C0ED060ACB
:102F800080ED0F0A80ED101A80ED112A48D001293A
:102F900040F0908090ED015A90ED026A30EE414A87
:102FA00031EE011A90ED037A24EE054A20EE065A1E
:102FB00030EE410A32EE000AD0E90C1280ED0C0A24
:102FC00020EE070A34EE051A90ED082A90ED043A37
:102FD00080ED0B0A31EE000A32EE000AB4EE430A2D
:102FE000F1EE10FA80ED094A80ED0A5AC0E90D129F
:102FF00080ED080AC2BF80ED083AB0EE430A704780
:10300000B1EE431AB4EE410AF1EE10FABCBF80ED06
:10301000081AB0EE410A70479FED280A704700BFBA
:1030200090ED024A90ED0A6A90ED012A90ED053A82
:1030300024EE004A90ED035A34EE064A20EE022AAE
:10304000D0E90C1230EE410AB4EE434A80ED0C0A8E
:1030500020EE050AF1EE10FA80ED092A80ED0A4A09
:10306000C0E90D1280ED0B0A06DCB1EE433AB4EE76
:10307000434AF1EE10FA03DAB0EE434A80ED0A3A21
:1030800032EE042A90ED041A30EE020AB4EE410A40
:10309000F1EE10FA80ED080A07DCB1EE411AB4EE49
:1030A000410AF1EE10FAA8BF7047B0EE410A80ED78
:1030B000081A704790ED080A704700BF0000000032
:1030C000002808BF704780B518303021FDF744F95B
:1030D00080BD0000002818BF002A01D1704700BF42
:1030E00080B501701168416051688160916880ED20
:1030F000040AC160C0ED050A20302821FDF72CF933
:1031000080BD00007047000070470000FDF7A8BCBC
:10311000B0B592B0002443F64000CDE90A44CDE9B1
:1031200008440594CDE90344CDE901440094C4F278
:1031300002000168022541F080510160006800F042
:1031400080500090009847F200000094C4F2000004
:10315000016841F4804101600068482100F480402A
:1031600000900098012006904FF4803007904FF4B3
:1031700080000D9004200E90119006A80C95CDE9CA
:103180000F15FDF735FE28B1EFF3108072B600BFC2
:10319000FEE700BF0F20CDE901054FF48050CDE9D7
:1031A000040401A802210394FDF714FD20B1EFF3FC
:1031B000108072B6FEE700BF12B0B0BD4EF6885068
:1031C000CEF20000016841F4700101607047000018
:1031D00040F21820C2F20000FEF71CBB40F2A8200B
:1031E000C2F20000FEF716BB40F2F020C2F200006F
:1031F000FEF710BB10B540F6FF3E0368C4F2000EA8
:1032000040F2004C7045C4F2010C27DCB0F1804F55
:1032100031D040F20042C4F2000290422BD040F67E
:103220000002C4F20002904225D041F6FF72C4F2BF
:103230000002904229DC70453CDCB0F1804F5FD049
:1032400040F20042C4F20002904259D040F600021F
:10325000C4F20002904253D056E000BF40F6004254
:10326000C4F20002904206D0604504D00022C4F2AD
:1032700001029042D9D14A6823F07003134341F60A
:10328000FF72C4F200029042D5DD43F6FF72C4F231
:103290000102904222DC42F20002C4F2000290429B
:1032A0002ED00022C4F20102904229D0604527D0DE
:1032B0002AE000BF40F60042C4F2000290421FD054
:1032C00041F60002C4F20002904219D041F60042D9
:1032D000C4F20002904213D016E000BF44F2000294
:1032E000C4F2010290420BD044F60002C4F2010283
:1032F000904205D044F20042C4F20102904203D150
:10330000CA6823F44073134323F080024B69D1F859
:1033100000E08C681A430260C46240F48062C0F826
:1033200028E0624504BF096901630121416110BDC4
:103330002DE9F04F81B02DED048B82B040F2C438FE
:10334000C2F2000840F6004B4046C4F2020BFFF701
:10335000B7FE08F148042046FFF7B2FE40F2780AB3
:103360009FED868A9FED869AC2F2000A002045F6FC
:103370005472CAE90500C0F6000240460021B0EED2
:10338000480AF0EE490AFFF7A5FE45F66072C0F65E
:10339000000220460021B0EE480AF0EE490A0194EE
:1033A000FFF798FE2424ABF5006944F62066002759
:1033B000C4F2010408E000BF28213C20AAF80A005A
:1033C000AAF80C1001F020F840F22442C4F20002E6
:1033D000106842F2107C81B2614588BF301ADAF879
:1033E0001410AAF8020001FA80F1CAF8141017604C
:1033F000DAF81810BAF90420BAF90A301144CAF8F8
:103400001810216802B28DB200EE102A01EE103AB7
:10341000654588BF711AAAF80010AAF80410276041
:10342000AAF80600B8EEC00AF8EEC10A4046AAF8AB
:103430000810FFF797FDBAF90800BAF90C1000EE72
:10344000100A01EE101A0198B8EEC00AF8EEC10A8F
:10345000FFF788FD98ED080A98ED1A1A44F2340037
:10346000BCEEC00AC4F2010080ED000ABCEEC10A45
:1034700080ED010A3220FDF7E1F948464FF40041A2
:10348000FDF7DCFA012806D058464FF48071FDF7AD
:10349000D5FA01280BD1DAF8140041F27C518842A8
:1034A00064DCDAF8180041F27D5188425EDA484661
:1034B0002021FDF7C3FA58B958460821FDF7BEFA96
:1034C000012805D158461021FDF7B8FA90B100BF88
:1034D00048462021FDF7B2FA01280FD158460821AD
:1034E000FDF7ACFA012809D158461021FDF7A6FADC
:1034F000012803D13C203C2160E700BF4846202141
:10350000FDF79CFA01280BD158460821FDF796FAE1
:1035100030B958461021FDF791FA00283FF44CAF1E
:1035200058460221FDF78AFA01283FF445AF484684
:103530002021FDF783FA68B958460821FDF77EFA85
:1035400040B958461021FDF779FA012802D13C21F3
:10355000282033E758462021FDF770FA3C21012846
:103560004FF03C0008BF282028E700BF02B0BDECA8
:10357000048B01B0BDE8F04F00F02ABF00803B454E
:103580000000C8422DE9F04F81B02DED048B82B0D0
:1035900040F2C434C2F200042046FFF791FD04F16A
:1035A00048052846FFF78CFD40F278069FED4E8ACD
:1035B0009FED4E9AC2F200064FF0281045F6547265
:1035C000C6F80A00C0F6000220460021B0EE480A04
:1035D000F0EE490AFFF77EFD45F66072C0F6000284
:1035E00028460021B0EE480AF0EE490A0195FFF79F
:1035F00071FDB6F90210B6F90400B1F5E17F716111
:10360000B061A8BFB0F5E17F63DA44F2340A40F25A
:10361000240B40F22449C4F2010AC4F2010BC4F2A3
:10362000000944F6206542F210780027D9F800001E
:1036300081B2414588BF281A7080C9F80070DBF854
:10364000001002B28BB2434588BF691A3180B18045
:10365000CBF80070F080B6F90A0000EE102A01EEF7
:10366000100AB8EEC00AF8EEC10A20463181FFF711
:1036700079FCB6F90800B6F90C1000EE100A01EE5C
:10368000101A0198B8EEC00AF8EEC10AFFF76AFCFA
:1036900094ED080A94ED1A1ABCEEC00A8AED000AED
:1036A000BCEEC10A32208AED010AFDF7C7F800F02E
:1036B00073FE7069B6F90210B6F904200144B069CE
:1036C000B1F5E17F10447161B061AFDBB0F5E17F2E
:1036D000ACDB0020C6E9050002B0BDEC048B01B0F4
:1036E000BDE8F04F00F074BE00803B450000C842CA
:1036F0002DE9F04F81B02DED048B40F2C434C2F2BD
:1037000000042046FFF7DCFC04F1480B5846FFF7A5
:10371000D7FC40F278079FED408A9FED409AC2F2B5
:1037200000074FF0281045F65472C7F80A00C0F69B
:10373000000220460021B0EE480AF0EE490A4FF0A0
:10374000000AFFF7C7FC45F66072C0F60002584653
:103750000021B0EE480AF0EE490AFFF7BBFC242630
:103760000A2544F6206842F21079C4F2010600BF2F
:1037700040F22442C4F20002106881B2494588BF79
:10378000A8EB00007880C2F800A0316802B28BB2CA
:103790004B4588BFA8EB01013980B980C6F800A06D
:1037A000F880B7F90A0000EE102A01EE100AB8EE10
:1037B000C00AF8EEC10A20463981FFF7D3FBB7F9FA
:1037C0000800B7F90C1000EE100A01EE101AB8EE5E
:1037D000C00AF8EEC10A5846FFF7C4FB94ED080A88
:1037E00094ED1A1A44F23400BCEEC00AC4F201008F
:1037F00080ED000ABCEEC10A80ED010A3220FDF71F
:103800001DF800F001FE013DB2D1BDEC048B01B00A
:10381000BDE8F04F00F0DCBD00803B450000C84231
:103820002DE9F04F81B02DED048B82B040F2C43809
:10383000C2F2000840F6004B4046C4F2020BFFF70C
:103840003FFC08F148042046FFF73AFC40F2780AB2
:103850009FED848A9FED849AC2F2000A002045F60B
:103860005472CAE90500C0F6000240460021B0EEDD
:10387000480AF0EE490AFFF72DFC45F66072C0F6E3
:10388000000220460021B0EE480AF0EE490A0194F9
:10389000FFF720FC2424ABF5006944F620660027DE
:1038A000C4F2010408E000BF19213C20AAF80A0074
:1038B000AAF80C1000F0A8FD40F22442C4F2000265
:1038C000106842F2107C81B2614588BF301ADAF884
:1038D0001410AAF8020001FA80F1CAF81410176057
:1038E000DAF81810BAF90420BAF90A301144CAF803
:1038F0001810216802B28DB200EE102A01EE103AC3
:10390000654588BF711AAAF80010AAF8041027604C
:10391000AAF80600B8EEC00AF8EEC10A4046AAF8B6
:103920000810FFF71FFBBAF90800BAF90C1000EEF7
:10393000100A01EE101A0198B8EEC00AF8EEC10A9A
:10394000FFF710FB98ED080A98ED1A1A44F23400BC
:10395000BCEEC00AC4F2010080ED000ABCEEC10A50
:1039600080ED010A3220FCF769FF48464FF4004120
:10397000FDF764F8012806D058464FF48071FDF732
:103980005DF8012807D1DAF81400962862DCDAF82D
:10399000180097285EDA48462021FDF74FF858B9FD
:1039A00058460821FDF74AF8012805D1584610214C
:1039B000FDF744F890B100BF48462021FDF73EF8DE
:1039C00001280FD158460821FDF738F8012809D100
:1039D00058461021FDF732F8012803D13C203C2144
:1039E00064E700BF48462021FDF728F801280BD1E5
:1039F00058460821FDF722F830B958461021FDF746
:103A00001DF800283FF450AF58460221FDF716F884
:103A100001283FF449AF48462021FDF70FF868B967
:103A200058460821FDF70AF840B958461021FDF71D
:103A300005F8012802D13C21192037E758462021FA
:103A4000FCF7FCFF3C2101284FF03C0008BF192087
:103A50002CE700BF02B0BDEC048B01B0BDE8F04F15
:103A600000F0B6BC00803B450000C8422DE9F04F95
:103A700081B02DED048B82B040F2C438C2F2000850
:103A800040F6004A4046C4F2020AFFF719FB08F16B
:103A900048052846FFF714FB40F278099FED8B8A12
:103AA0009FED8B9AC2F20009002045F65472C9E9D5
:103AB0000500C0F6000240460021B0EE480AF0EED4
:103AC000490AFFF707FB45F66072C0F60002284678
:103AD0000021B0EE480AF0EE490A0195FFF7FAFA24
:103AE0002425AAF5806B44F620640027C4F2010562
:103AF00008E000BF19213220A9F80A00A9F80C102B
:103B000000F082FC40F22442C4F20002106842F24B
:103B1000107C81B2614588BF201AD9F81410A9F829
:103B2000020001FA80F1C9F814101760D9F81810D2
:103B3000B9F90420B9F90A301144C9F818102968F4
:103B400002B28EB200EE102A01EE103A664588BF2E
:103B5000611AA9F80010A9F804102F60A9F806004E
:103B6000B8EEC00AF8EEC10A4046A9F80810FFF7FF
:103B7000F9F9B9F90800B9F90C1000EE100A01EED4
:103B8000101A0198B8EEC00AF8EEC10AFFF7EAF978
:103B900098ED080A98ED1A1A44F23400BCEEC00AF7
:103BA000C4F2010080ED000ABCEEC10A80ED010AFA
:103BB0003220FCF743FE58464FF48061FCF73EFF8D
:103BC000012819D158464FF48051FCF737FF0128DE
:103BD00012D150468021FCF731FF01280CD1D9F8D1
:103BE000140040F62231884268DCD9F8180040F60B
:103BF0002331884262DA00BFAAF5006630462021F0
:103C0000FCF71CFF50B950460821FCF717FF0128AC
:103C100004D150461021FCF711FF88B13046202115
:103C2000FCF70CFF01280FD150460821FCF706FFD6
:103C3000012809D150461021FCF700FF012803D1CB
:103C40003C203C2158E700BF30462021FCF7F6FE1F
:103C500001280BD150460821FCF7F0FE30B9504640
:103C60001021FCF7EBFE00283FF444AF5046022140
:103C7000FCF7E4FE01283FF43DAF30462021FCF77D
:103C8000DDFE68B950460821FCF7D8FE40B9504621
:103C90001021FCF7D3FE012802D1322119202BE795
:103CA00050462021FCF7CAFE01284FF03C004FF09F
:103CB0003C0108BF192008BF32211DE702B0BDEC4E
:103CC000048B01B0BDE8F04F00F082BB00803B45A3
:103CD0000000C8422DE9F04F81B02DED048B82B079
:103CE00040F2C435C2F2000540F600042846C4F292
:103CF0000204FFF7E5F905F1480B5846FFF7E0F934
:103D00009FED918A9FED919A45F65472C0F600029C
:103D100028460021B0EE480AF0EE490A0027FFF7D6
:103D2000D9F945F66072C0F6000258460021B0EE9F
:103D3000480AF0EE490AFFF7CDF940F2780804F599
:103D400080602426C2F2000844F6206942F2107A0C
:103D500001900020C4F20106C8E9057710E000BF19
:103D600020464FF48061FCF769FE002800F0C48013
:103D70004FF03C10C8F80A0000F00EFBD8F8140011
:103D800040F22443C4F2000319688AB2524588BF46
:103D9000A9EB010100FA81F0A8F80210C8F814009C
:103DA0001F6030680AB283B2534588BFA9EB000098
:103DB000D8F81830A8F8000003FA80F3A8F8040037
:103DC000C8F818303760A8F80800B8F90A0000EE03
:103DD000102A01EE100AB8EEC00AF8EEC10A284611
:103DE000A8F80610FFF7BEF8B8F90800B8F90C10EB
:103DF00000EE100A01EE101AB8EEC00AF8EEC10A81
:103E00005846FFF7AFF895ED080A95ED1A1A44F2F7
:103E10003400BCEEC00AC4F2010080ED000ABCEE22
:103E2000C10A80ED010A3220FCF708FD20464FF45C
:103E30008061FCF703FE012816D120464FF4805123
:103E4000FCF7FCFD01280FD101988021FCF7F6FD5D
:103E5000012809D1D8F81400B0F57A7F68DAD8F8CB
:103E60001800B0F57A7F63DC20464FF48061FCF7E0
:103E7000E5FD68B920464FF48051FCF7DFFD0128CD
:103E800006D101988021FCF7D9FD00283FF470AFDE
:103E900020464FF48061FCF7D1FD68B920464FF40D
:103EA0008051FCF7CBFD38B901988021FCF7C6FDA5
:103EB00000283FF45DAF00BF20464FF48061FCF75F
:103EC000BDFD01287FF44CAF20464FF48051FCF734
:103ED000B5FD00287FF444AF01988021FCF7AEFDCA
:103EE00000287FF43DAF3C20C0F22800C8F80A004B
:103EF00000F052FA012016E020464FF48051FCF702
:103F00009DFD00287FF434AF01988021FCF796FDD9
:103F100001287FF42DAF2820C0F23C00C8F80A0029
:103F200000F03AFA0220C8F81000D8F8140027E789
:103F30000020C8E9050002B0BDEC048B01B0BDE86B
:103F4000F04F00F045BA00BF00803B450000C8427A
:103F50002DE9F04F81B02DED048B82B040F2C435D5
:103F6000C2F2000540F600042846C4F20204FFF73E
:103F7000A7F805F1480B5846FFF7A2F89FED818A94
:103F80009FED819A45F65472C0F600022846002142
:103F9000B0EE480AF0EE490A0027FFF79BF845F615
:103FA0006072C0F6000258460021B0EE480AF0EEFA
:103FB000490AFFF78FF840F2780A242644F6206871
:103FC00042F21079C2F2000A04F58060C4F20106E0
:103FD00001900DE020464FF48061FCF72FFD002892
:103FE00000F0AE804FF03C10CAF80A0000F0D4F99F
:103FF00040F22442C4F20002106881B2494588BFF1
:10400000A8EB0000AAF802001760316802B28BB278
:104010004B4588BFA8EB0101AAF80010AAF80410CC
:104020003760AAF80600BAF90A0000EE102A01EE7D
:10403000100AB8EEC00AF8EEC10A2846AAF808101D
:10404000FEF790FFBAF90800BAF90C1000EE100A5A
:1040500001EE101AB8EEC00AF8EEC10A5846FEF793
:1040600081FF95ED080A95ED1A1A44F23400BCEE72
:10407000C00AC4F2010080ED000ABCEEC10A80ED66
:10408000010A3220FCF7DAFB20464FF48061FCF78E
:10409000D5FC58B920464FF48051FCF7CFFC28B925
:1040A00001988021FCF7CAFC002863D020464FF419
:1040B0008061FCF7C3FC68B920464FF48051FCF7DF
:1040C000BDFC012806D101988021FCF7B7FC00282F
:1040D0003FF488AF20464FF48061FCF7AFFC68B92D
:1040E00020464FF48051FCF7A9FC38B90198802193
:1040F000FCF7A4FC00283FF475AF00BF20464FF446
:104100008061FCF79BFC01287FF464AF20464FF4EC
:104110008051FCF793FC00287FF45CAF019880216C
:10412000FCF78CFC00287FF455AF3C20C0F228003F
:10413000CAF80A0000F030F90120CAF8100057E769
:1041400020464FF48051FCF779FC00287FF44AAFF9
:1041500001988021FCF772FC01287FF443AF2820EE
:10416000C0F23C00CAF80A0000F016F90220CAF8B2
:1041700010003DE702B0BDEC048B01B0BDE8F04F8C
:1041800000F026B900803B450000C842806B00214A
:10419000C185C184FDF7B0BF81B090F83E102229DF
:1041A00021D183680246B3F5805F09D152F8281FF8
:1041B00052F8183C002B63D003685B680AE000BF2C
:1041C00052F8281F13B90369002BF5D003685B6808
:1041D00003F07F030B70116801311160C18D01394B
:1041E0000A04C18502D001B0704700BF0168CA68E7
:1041F00022F02002CA60CA6822F48072CA604A694A
:1042000022F001024A61202180F83E10016B012951
:104210003ED10021016300BF016851E8031F02681D
:1042200021F0100142E80313DBB1016851E8031FDC
:10423000026821F0100142E8031393B1016851E8CC
:10424000031F026821F0100142E803134BB101681B
:1042500051E8031F026821F0100142E80313002B0C
:10426000DAD101680A68D20606D5002200920A68EF
:104270000092496800910099818D01B0FDF73ABF25
:10428000026852686FF35F2221F8022B8162A5E772
:1042900001B0FEF793BA000010B504460068D4E9F7
:1042A00002C22369016921F440511143016162692D
:1042B00043EA0C01E3691143C268194349F20C63F4
:1042C0009A431143C1604169A26921F4407141F2EE
:1042D0000043114340F48062C4F201039A424161F9
:1042E00002D1FCF73BFD01E0FCF724FDE1696368C6
:1042F0001922B1F5004FA0FB020123D15A00DB0FB8
:10430000FBF7B2FF48F21F51C5F2EB11A0FB0123EE
:104310005A094FF69C73C0F6FF7303F1805302FBFA
:104320000300322303EBC000A0FB01014FF4F8703F
:1043300000EA111000EB0210C1F342110844216899
:10434000886010BD9A009B0FFBF78EFF48F21F514B
:10435000C5F2EB11A0FB01235A094FF69C73C0F67E
:10436000FF7302FB0300322303EB0010A0FB0101EB
:10437000F02000EA511000EB0210C1F34311084491
:104380002168886010BD000040F28030C2F2000059
:10439000FDF7B4BEFEE7000010B50024C4F202042D
:1043A000204608210122FCF74FFB20461021002265
:1043B000FCF74AFB04F50064204610210122FCF7BB
:1043C00043FB204620210022BDE81040FCF73CBB07
:1043D00010B50024C4F20204204608210022FCF794
:1043E00033FB204610210022FCF72EFB04F500646D
:1043F000204610210022FCF727FB20462021002226
:10440000BDE81040FCF720BB10B50024C4F2020444
:10441000204608210022FCF717FB2046102101222C
:10442000FCF712FB04F50064204610210022FCF783
:104430000BFB204620210122BDE81040FCF704BB05
:10444000FCF71CFBFEF764FEFEF746FAFEF720FAC7
:10445000FEF766FDFEF70AFBFEF7D2FBFEF704FC53
:10446000FEF78CFCFEF7F0FCFEF736FBFEF716FDC0
:10447000FEF732FAFEF70CFAFEF752FDFEF7F6FAF7
:10448000FEF7BEFBFEF7F0FBFEF778FCFEF7DCFC68
:10449000FEF722FB40F23834C2F20004204600212D
:1044A0000025FDF799FD20460421FDF795FD40F21A
:1044B000D014C2F2000420460021FDF78DFD2046F5
:1044C0000821FDF789FD40F26024C2F20004204675
:1044D0000021FDF781FD20460421FDF77DFD2046EA
:1044E0000821FDF779FD20460C21FDF775FD40F20E
:1044F0008810C2F200003C21FDF72CF940F2182090
:10450000C2F200003C21FDF725F940F2F020C2F292
:104510000000FCF731FF01F007F940F66600FBF7F9
:1045200081FFFEF705FF4FF47A70FCF787F9FEF77D
:104530004BF94FF47A70FCF781F94FF4C870FBF730
:1045400071FFFFF7C7FB4FF47A70FCF777F9FFF7BD
:1045500019F84FF47A70FCF771F901F0F3F94FF4A0
:104560007A70FCF76BF9FFF75BF94FF47A70FCF7A0
:1045700065F9FEF733F94FF47A70FCF75FF94FF401
:104580006170FBF74FFF4FF47A70FCF757F9FFF7B4
:10459000A1FB4FF47A70FCF751F9FEF7F3FF4FF4EB
:1045A0007A70FCF74BF901F0FBFB4FF47A70FCF7E3
:1045B00045F9FFF735F94FF47A70FCF73FF9FEF74C
:1045C00017F94FF47A70FCF739F9FFF783FB4FF4D2
:1045D0007A70FCF733F9FEF7D5FF4FF47A70FCF7E9
:1045E0002DF901F0AFF940F66600FBF71BFF4FF421
:1045F000FA70FCF723F94FF4FA70FBF713FF4FF44E
:10460000FA70FCF71BF940F20140FBF70BFF4FF487
:104610007A70FCF713F900F00FFE40F29404C2F236
:10462000000420604FF4FA70FBF7FCFE4FF4FA70C0
:10463000FCF704F940F66600FBF7F4FE6420FCF793
:10464000FDF8206800F07EFF6420FCF7F7F8FFF724
:10465000E7F86420FCF7F2F8FFF74AF86420FCF76B
:10466000EDF8FFF7DDF86420FCF7E8F8FEF7DEF878
:104670004FF47A70FCF7E2F8FFF72CFB4FF4FA7076
:10468000FCF7DCF8FEF77EFF4FF4FA70FCF7D6F883
:10469000206800F0FDFF4FF47A70FCF7CFF84FF47C
:1046A000C870FBF7BFFE4FF4FA70FCF7C7F840F292
:1046B0006B30FBF7B7FE4FF4FA70FCF7BFF84FF41E
:1046C000AF60FBF7AFFE4FF47A70FCF7B7F800F07D
:1046D000B3FD206040F26B30FBF7A4FE4FF4FA709C
:1046E000FCF7ACF84FF4C870FBF79CFE6420FCF7B5
:1046F000A5F8206800F026FF6420FCF79FF8FFF77C
:104700008FF86420FCF79AF8FEF7F2FF6420FCF7BC
:1047100095F8FFF785F86420FCF790F8FEF790F81D
:104720004FF47A70FCF78AF8FFF7D4FA4FF4FA7076
:10473000FCF784F8FEF726FF4FF4FA70FCF77EF8DA
:10474000206800F0A5FF4FF47A70FCF777F84FF47B
:104750006170FBF767FE4FF4FA70FCF76FF840F2F8
:10476000E240FBF75FFE4FF4FA70FCF767F84FF496
:10477000E160FBF757FE4FF47A70FCF75FF800F04A
:104780005BFD206040F2E240FBF74CFE4FF4FA7014
:10479000FCF754F84FF46170FBF744FE6420FCF71B
:1047A0004DF8206800F0CEFE6420FCF747F8FFF7D4
:1047B00037F86420FCF742F8FEF79AFF6420FCF714
:1047C0003DF8FFF72DF86420FCF738F8FEF742F8C3
:1047D0004FF47A70FCF732F8FFF77CFA4FF4FA7076
:1047E000FCF72CF8FEF7CEFE4FF4FA70FCF726F833
:1047F000206800F04DFF4FF4FA70FBF713FE4FF402
:10480000FA70FCF71BF840F66600FBF70BFE01F0B0
:104810000DFA01F051F94FF47A70FCF70FF8FFF739
:1048200025F96420FCF70AF8FDF7CEFFFDF7D6FF67
:10483000FDF7DEFFFDF7E6FFFDF7EEFF4FF47A70C0
:10484000FBF7FCFFFFF746FA6420FBF7F7FFFEF7E4
:1048500099FE6420FBF7F2FF00F0BAFF01F072F856
:104860004FF47A70FBF7EAFF40F24650FBF7DAFDAF
:104870004FF47A70FBF7E2FF00F0DEFC206040F2BC
:104880007260FBF7CFFD4FF4FA70FBF7D7FF40F2F1
:104890004650FBF7C7FD6420FBF7D0FF206800F00F
:1048A00051FE6420FBF7CAFFFEF7BAFF6420FBF756
:1048B000C5FFFEF71DFF6420FBF7C0FFFEF7B0FF4A
:1048C0006420FBF7BBFFFDF7CFFF4FF47A70FBF7D7
:1048D000B5FFFFF7FFF94FF4FA70FBF7AFFFFEF7F4
:1048E00051FE4FF4FA70FBF7A9FF206800F0D0FEEC
:1048F0004FF47A70FBF7A2FF40F2D660FBF792FD0F
:104900004FF4FA70FBF79AFF40F60200FBF78AFDBE
:104910004FF4FA70FBF792FF4FF47A70FBF782FDC9
:104920004FF47A70FBF78AFF00F086FC206040F6B7
:104930000200FBF777FD4FF4FA70FBF77FFF40F2C0
:10494000D660FBF76FFD6420FBF778FF206800F06E
:10495000F9FD6420FBF772FFFEF762FF6420FBF7AE
:104960006DFFFEF7C5FE6420FBF768FFFEF758FFFA
:104970006420FBF763FFFDF781FF4FF47A70FBF7CC
:104980005DFFFFF7A7F94FF4FA70FBF757FFFEF74B
:10499000F9FD4FF4FA70FBF751FF206800F078FE44
:1049A0004FF47A70FBF74AFF40F66600FBF73AFDDA
:1049B0004FF4FA70FBF742FF4FF4FA70FBF732FD49
:1049C0004FF4FA70FBF73AFF40F20140FBF72AFD83
:1049D0004FF47A70FBF732FF00F02EFC20604FF4AA
:1049E000FA70FBF71FFD4FF4FA70FBF727FF40F654
:1049F0006600FBF717FD6420FBF720FF206800F03E
:104A0000A1FD6420FBF71AFFFEF70AFF6420FBF705
:104A100015FFFEF76DFE6420FBF710FFFEF700FFA9
:104A20006420FBF70BFFFDF701FF4FF47A70FBF7F3
:104A300005FFFFF74FF94FF4FA70FBF7FFFEFEF7A3
:104A4000A1FD4FF4FA70FBF7F9FE206800F020FE9C
:104A50004FF47A70FBF7F2FE4FF4C870FBF7E2FCFC
:104A60004FF4FA70FBF7EAFE40F26B30FBF7DAFC2A
:104A70004FF4FA70FBF7E2FE4FF4AF60FBF7D2FCA5
:104A80004FF47A70FBF7DAFE00F0D6FB206040F2BC
:104A90006B30FBF7C7FC4FF4FA70FBF7CFFE4FF417
:104AA000C870FBF7BFFC6420FBF7C8FE206800F06D
:104AB00049FD6420FBF7C2FEFEF7B2FE6420FBF75F
:104AC000BDFEFEF715FE6420FBF7B8FEFEF7A8FE5C
:104AD0006420FBF7B3FEFDF7B3FE4FF47A70FBF7EB
:104AE000ADFEFFF7F7F84FF4FA70FBF7A7FEFEF7FD
:104AF00049FD4FF4FA70FBF7A1FE206800F0C8FDF5
:104B00004FF47A70FBF79AFE4FF46170FBF78AFC62
:104B10004FF4FA70FBF792FE40F2E240FBF782FCA2
:104B20004FF4FA70FBF78AFE4FF4E160FBF77AFC72
:104B30004FF47A70FBF782FE00F07EFB206040F2BB
:104B4000E240FBF76FFC4FF4FA70FBF777FE4FF48F
:104B50006170FBF767FC6420FBF770FE206800F0D3
:104B6000F1FC6420FBF76AFEFEF75AFE6420FBF7B7
:104B700065FEFEF7BDFD6420FBF760FEFEF750FE0C
:104B80006420FBF75BFEFDF765FE4FF47A70FBF7E0
:104B900055FEFFF79FF84FF4FA70FBF74FFEFEF754
:104BA000F1FC4FF4FA70FBF749FE206800F070FD4D
:104BB0004FF4FA70FBF736FC4FF4FA70FBF73EFE49
:104BC00040F66600FBF72EFC00F0BCFE00F000FE95
:104BD0004FF47A70FBF732FEFEF748FF6420FBF7D4
:104BE0002DFEFDF7F1FDFDF7F9FDFDF701FEFDF7E7
:104BF00009FEFDF711FE4FF47A70FBF71FFEFFF779
:104C000069F86420FBF71AFEFEF7BCFC6420FBF792
:104C100015FE00F051FF01F009F84FF47A70FBF730
:104C20000DFE40F69800FBF7FDFB4FF47A70FBF7A2
:104C300005FE00F001FB206040F27260FBF7F2FB22
:104C40004FF4FA70FBF7FAFD40F24650FBF7EAFB2F
:104C50006420FBF7F3FD206800F074FC6420FBF790
:104C6000EDFDFEF7DDFD6420FBF7E8FDFEF740FDFE
:104C70006420FBF7E3FDFEF7D3FD6420FBF7DEFDC8
:104C8000FDF7F2FD4FF47A70FBF7D8FDFFF722F83D
:104C90004FF4FA70FBF7D2FDFEF774FC4FF4FA7094
:104CA000FBF7CCFD206800F0F3FC4FF47A70FBF7C3
:104CB000C5FD40F2D660FBF7B5FB4FF4FA70FBF789
:104CC000BDFD40F60200FBF7ADFB4FF4FA70FBF7B9
:104CD000B5FD4FF47A70FBF7A5FB4FF47A70FBF744
:104CE000ADFD00F0A9FA206040F60200FBF79AFB48
:104CF0004FF4FA70FBF7A2FD40F2D660FBF792FB8F
:104D00006420FBF79BFD206800F01CFC6420FBF78F
:104D100095FDFEF785FD6420FBF790FDFEF7E8FCAE
:104D20006420FBF78BFDFEF77BFD6420FBF786FD1F
:104D3000FDF7A4FD4FF47A70FBF780FDFEF7CAFF84
:104D40004FF4FA70FBF77AFDFEF71CFC4FF4FA7093
:104D5000FBF774FD206800F09BFC4FF47A70FBF7C2
:104D60006DFD40F66600FBF75DFB4FF4FA70FBF754
:104D700065FD4FF4FA70FBF755FB4FF4FA70FBF743
:104D80005DFD40F20140FBF74DFB4FF47A70FBF7FD
:104D900055FD00F051FA20604FF4FA70FBF742FB2A
:104DA0004FF4FA70FBF74AFD40F66600FBF73AFB5A
:104DB0006420FBF743FD206800F0C4FB6420FBF790
:104DC0003DFDFEF72DFD6420FBF738FDFEF790FC5E
:104DD0006420FBF733FDFEF723FD6420FBF72EFD77
:104DE000FDF724FD4FF47A70FBF728FDFEF772FF04
:104DF0004FF4FA70FBF722FDFEF7C4FB4FF4FA7094
:104E0000FBF71CFD206800F043FC4FF47A70FBF7C1
:104E100015FD4FF4C870FBF705FB4FF4FA70FBF774
:104E20000DFD40F26B30FBF7FDFA4FF4FA70FBF723
:104E300005FD4FF4AF60FBF7F5FA4FF47A70FBF71E
:104E4000FDFC00F0F9F9206040F26B30FBF7EAFA64
:104E50004FF4FA70FBF7F2FC4FF4C870FBF7E2FA7C
:104E60006420FBF7EBFC206800F06CFB6420FBF790
:104E7000E5FCFEF7D5FC6420FBF7E0FCFEF738FC10
:104E80006420FBF7DBFCFEF7CBFC6420FBF7D6FCD1
:104E9000FDF7D6FC4FF47A70FBF7D0FCFEF71AFF53
:104EA0004FF4FA70FBF7CAFCFEF76CFB4FF4FA7094
:104EB000FBF7C4FC206800F0EBFB4FF47A70FBF7C3
:104EC000BDFC4FF46170FBF7ADFA4FF4FA70FBF7DD
:104ED000B5FC40F24650FBF7A5FA4FF4FA70FBF729
:104EE000ADFC4FF4E160FBF79DFA4FF47A70FBF7ED
:104EF000A5FC00F0A1F9206040F2E240FBF792FA35
:104F00004FF4FA70FBF79AFC4FF46170FBF78AFAE2
:104F10006420FBF793FC206800F014FB6420FBF78F
:104F20008DFCFEF77DFC6420FBF788FCFEF7E0FBC0
:104F30006420FBF783FCFEF773FC6420FBF77EFC28
:104F4000FDF788FC4FF47A70FBF778FCFEF7C2FEA1
:104F50004FF4FA70FBF772FCFEF714FB4FF4FA7093
:104F6000FBF76CFC206800F093FB4FF4FA70FBF742
:104F700059FA4FF4FA70FBF761FC40F66600FBF754
:104F800051FAFEF7E5FF9FEDA69A9FEDA6AA9FEDC9
:104F9000A6BA9FEDA2CA9FEDA6DA9FEDA6EA9FED05
:104FA000A3FA4FF07E56B7EE008AF6EE008A01E0D3
:104FB0000220206000F040FB00EE100AB8EE400A2C
:104FC00084ED010A00F00CFB00EE100AB8EE400A76
:104FD00084ED020A00F0D8FA94ED010A94ED021A69
:104FE00002EE100AB4EE410AB8EE422AF1EE10FACF
:104FF00084ED032A12D1B4EE421AF1EE10FA0DD16B
:105000002661B0EE484AB0EE483AB4EE403AF1EECE
:1050100010FA84ED054A6BD074E000BFB4EE410A8B
:10502000F1EE10FA06DBB4EE420AF1EE10FAB0EE41
:10503000403A1BDAB4EE401AF1EE10FA06DBB4EE99
:10504000421AF1EE10FAB0EE413A0FDAB4EE420A2B
:10505000B0EE423AF1EE10FAC8BFB0EE4C3AB4EE00
:10506000421AF1EE10FAC8BFB0EE4C3AB4EE410A63
:10507000F1EE10FA84ED043A0EDCB4EE420AF1EEE1
:1050800010FA09DCB0EE404AB4EE403AF1EE10FA04
:1050900084ED054A2CD035E0B4EE410AF1EE10FA69
:1050A0000EDBB4EE421AF1EE10FA09DCB0EE414A22
:1050B000B4EE403AF1EE10FA84ED054A18D021E042
:1050C000B4EE420AB0EE424AF1EE10FAB8BFB0EECA
:1050D0004C4AB4EE421AF1EE10FAB8BFB0EE4C4AA8
:1050E000B4EE403AF1EE10FA84ED054A0AD100BF61
:1050F00031EE425A33EE446A85EE065A25EE095ADD
:1051000084ED065AB4EE413AF1EE10FA0BD132EECC
:10511000405A33EE446A85EE065A25EE095A35EEBA
:105120000A5A84ED065AB4EE423AF1EE10FA0BD167
:1051300030EE415A33EE446A85EE065A25EE095A9E
:1051400035EE0B5A84ED065AB4EE443AF1EE10FAFD
:10515000B0EE4C5A08D094ED065AB5EE405AF1EE36
:1051600010FA03DA35EE0F5A84ED065A33EE043A9C
:10517000B4EE4D0A23EE283AF1EE10FA84ED073A28
:1051800007DDB4EE4D1AF1EE10FA02DDC8283FF645
:105190000FAFB4EE401AF1EE10FA0DDDB4EE421A84
:1051A000F1EE10FA08DDB4EE4D5AF1EE10FA03DA22
:1051B00001202060FEE600BFB4EE4E0AF1EE10FAC8
:1051C0000ADAB4EE4E1AF1EE10FA05DA322803D2FA
:1051D00004202060EEE600BFB4EE421AF1EE10FAB1
:1051E0000CDAB4EE420AF1EE10FA07DAB4EE4D5AD8
:1051F000F1EE10FA02DD05202060DBE6B4EE420A93
:105200000020F1EE10FAC8BF0320B4EE410AF1EE1F
:1052100010FAD8BF28462060CCE600BF000000008E
:10522000000070420000F042000070430000B443F0
:1052300000004843000048422DE9F0472DED048B63
:1052400040F20044C4F2020420464FF480410022A0
:105250004FF0000AFBF7F8FB20464FF40051002204
:10526000FBF7F2FB40F2B407C2F200070A20A7F8EE
:1052700000A0FBF7E3FA40F200053888C2F200050F
:105280002988C0EB0020B0FBF1F0FF2610F47F4F1F
:1052900018BF30461FFA80F8388100EE108A204689
:1052A0004FF480410122B8EE408AFBF7CDFB204647
:1052B0004FF400510122FBF7C7FB0A20A7F800A01A
:1052C000FBF7BCFA38886988C0EB0020B0FBF1F02E
:1052D0004FF4804110F47F4F18BF30461FFA80F919
:1052E000788100EE109A20460022B8EE409AFBF733
:1052F000ABFB20464FF400510122FBF7A5FB0A202F
:10530000A7F800A0FBF79AFA3888A988C0EB00201C
:10531000B0FBF1F0B4EE498A10F47F4F08BF0646A7
:10532000B0B200EE100AF1EE10FAB8EE400ABE81FB
:105330000AD1B4EE409AF1EE10FA05D1B7EE001A98
:10534000B0EE413A58E000BFB4EE498AF1EE10FAEF
:1053500006DBB4EE408AF1EE10FAB0EE481A1DDA20
:10536000B4EE489AF1EE10FA06DBB4EE409AF1EE94
:1053700010FAB0EE491A11DAB4EE480AB0EE401A4B
:105380009FED6A2AF1EE10FAB8BFB0EE421AB4EE01
:10539000490AF1EE10FAB8BFB0EE421AB4EE498AEB
:1053A000F1EE10FA08DCB4EE408AF1EE10FA03DCFC
:1053B000B0EE483A20E000BFB4EE498AF1EE10FAB0
:1053C00008DBB4EE409AF1EE10FA03DCB0EE493A95
:1053D00012E000BFB4EE408AB0EE403A9FED532A8F
:1053E000F1EE10FAB8BFB0EE423AB4EE490AF1EE6F
:1053F00010FAC8BFB0EE423A31EE434A30EE485A96
:1054000039EE402A85EE045A82EE042A38EE496AC3
:1054100086EE044A9FED466A9FED467AB4EE491A3D
:10542000F1EE10FAB4EE401A25EE065A22EE062AE4
:1054300035EE075A08BFB0EE452A9FED3F5A24EEDD
:10544000064A34EE054AF1EE10FA08BFB0EE442ADF
:10545000B4EE431A9FED354AF1EE10FA9FED371A7C
:1054600008BFB0EE442AB5EE402AF1EE10FA32EE53
:10547000011AB8BFB0EE412AB8F1C90F28BFB9F17F
:10548000C90F31D2B4EE489AF1EE10FA10DDB4EE45
:10549000409AF1EE10FA0BDD9FED291AB4EE412A85
:1054A000F1EE10FA04DA0120BDEC048BBDE8F087C0
:1054B000B8F13B0F98BFB9F13B0F2FD9B4EE490AB1
:1054C000F1EE10FA18DDB4EE480AF1EE10FA13DD31
:1054D0009FED1B1AB4EE412AF1EE10FA0CDD052007
:1054E000BDEC048BBDE8F087C828CBD90220BDEC09
:1054F000048BBDE8F08700BFB4EE408A0020F1EED7
:1055000010FAC8BF0320B4EE498A0021F1EE10FA68
:10551000D8BF0846BDEC048BBDE8F0873C28CDD24F
:105520000420BDEC048BBDE8F08700BF0000000044
:10553000000070420000F042000070430000B443DD
:10554000000048430138042888BF704780B5DFE871
:1055500000F00309170F150000F068FBBDE880405C
:10556000FEF75EB900F0A8FABDE88040FEF758B932
:1055700000F02EF9BDE88040FEF752B900F0E2F9E4
:10558000BDE88040FEF74CB9B0B540F20044C4F22B
:10559000020420464FF4804100220025FBF754FA14
:1055A00020464FF400510122FBF74EFA40F2B404BA
:1055B000C2F200040A202580FBF740F940F2000106
:1055C0002088C2F200018988C0EB0020B0FBF1F115
:1055D00011F47F4F18BFFF2188B2A181B0BD000038
:1055E00010B540F20044C4F2020420464FF480415A
:1055F0000122FBF729FA20464FF400510122FBF764
:1056000023FA40F2B404C2F20004002020800A20F1
:10561000FBF714F940F200012088C2F2000149882A
:10562000C0EB0020B0FBF1F111F47F4F18BFFF2158
:1056300088B2618110BD0000B0B540F20044C4F2F0
:10564000020420464FF4804100220025FBF7FCF9BC
:1056500020464FF400510022FBF7F6F940F2B40463
:10566000C2F200040A202580FBF7E8F840F20001AE
:105670002088C2F200010988C0EB0020B0FBF1F1E4
:1056800011F47F4F18BFFF2188B22181B0BD000007
:105690000138042888BF7047DFE800F004080C06D2
:1056A0000A0000BF00F04EB900F006BA00F090B852
:1056B00000F0BCBA7047000010B50024C4F2020428
:1056C000204608210022FBF7BFF9204610210122C5
:1056D000FBF7BAF904F50064204610210122FBF71C
:1056E000B3F9204620210022BDE81040FBF7ACB9F9
:1056F00010B50024C4F20204204608210122FBF761
:10570000A3F9204610210022FBF79EF904F500645E
:10571000204610210022FBF797F920462021012284
:10572000BDE81040FBF790B970B540F20044C4F2F8
:10573000020420464FF4804100220025FBF784F943
:1057400020464FF400510022FBF77EF940F2B406E8
:10575000C2F200060A203580FBF770F830884FF45B
:1057600080417080F081204601223580FBF76CF982
:1057700020464FF400510122FBF766F90A203580DC
:10578000FBF75CF830884FF48041B08030822046CF
:1057900000223580FBF758F920464FF400510122D2
:1057A000FBF752F90A203580FBF748F830884FF4B0
:1057B0008041F0807082204601223580FBF744F959
:1057C00020464FF400510022BDE87040FBF73CB981
:1057D0002DE9F04F81B02DED048B40F2C434C2F2BC
:1057E000000440F2240A40F2244B2046C4F2010A8D
:1057F000C4F2000BFDF764FC04F148052846FDF7F0
:105800005FFC40F278069FED4D8A9FED4D9AC2F203
:1058100000064FF01E1045F654720027C6F80A0025
:10582000C0F6000220460021B0EE480AF0EE490A18
:10583000C6E90577FDF74EFC45F66072C0F600023A
:1058400028460021B0EE480AF0EE490AFDF742FC76
:1058500044F6206842F210794CE000BFDBF800000B
:1058600081B2494588BFA8EB00007080CBF800707A
:10587000DAF800108AB24A4588BFA8EB01013180EE
:10588000B180CAF80070F0803181FFF731FFB6F9BE
:105890000600B6F90A1000EE100A01EE101AB8EE72
:1058A000C00AF8EEC10A2046FDF75CFBB6F9080015
:1058B000B6F90C1000EE100A01EE101AB8EEC00A8C
:1058C000F8EEC10A2846FDF74DFB94ED080A94ED69
:1058D0001A1A44F23400BCEEC00AC4F2010080ED92
:1058E000000ABCEEC10A80ED010A3220FAF7A6FFD9
:1058F000FFF7FEFE7069B6F90210B6F90420014404
:10590000B069B1F5BE7F10447161B061B8BFB0F548
:10591000BE7FA3DB40F60040C4F202000821FBF783
:105920008DF801289AD10020C6E90500BDEC048B52
:1059300001B0BDE8F04FFEF74BBD00BF00803B4516
:105940000000C8422DE9F04F81B02DED048B40F2EC
:10595000C434C2F2000440F2240A40F2244B204630
:10596000C4F2010AC4F2000BFDF7AAFB04F14805DA
:105970002846FDF7A5FB40F278069FED4D8A9FED86
:105980004D9AC2F200064FF01E1045F654720027E1
:10599000C6F80A00C0F6000220460021B0EE480A10
:1059A000F0EE490AC6E90577FDF794FB45F660720B
:1059B000C0F6000228460021B0EE480AF0EE490A7F
:1059C000FDF788FB44F6206842F210794CE000BFF6
:1059D000DBF8000081B2494588BFA8EB0000708069
:1059E000CBF80070DAF800108AB24A4588BFA8EBFD
:1059F00001013180B180CAF80070F0803181FFF779
:105A000077FEB6F90600B6F90A1000EE100A01EEAC
:105A1000101AB8EEC00AF8EEC10A2046FDF7A2FA45
:105A2000B6F90800B6F90C1000EE100A01EE101AD3
:105A3000B8EEC00AF8EEC10A2846FDF793FA94EDD5
:105A4000080A94ED1A1A44F23400BCEEC00AC4F2FB
:105A5000010080ED000ABCEEC10A80ED010A32208F
:105A6000FAF7ECFEFFF744FE7069B6F90210B6F9DA
:105A700004200144B069B1F5437F10447161B06105
:105A8000B8BFB0F5437FA3DB40F60040C4F202008C
:105A90000821FAF7D3FF01289AD10020C6E90500B2
:105AA000BDEC048B01B0BDE8F04FFEF791BC00BF28
:105AB00000803B450000C8422DE9F04F81B02DED3C
:105AC000048B40F2C434C2F2000440F2240A40F2D3
:105AD000244B2046C4F2010AC4F2000BFDF7F0FA91
