:020000040800F2
:10000000580A0020290200087D2F0008D127000887
:10001000792F000821040008C547000800000000EF
:100020000000000000000000000000002531000872
:100030004D040008000000002131000829310008AB
:10004000430200084302000843020008430200087C
:10005000430200084302000843020008430200086C
:10006000430200084302000851040008430200084C
:10007000430200084302000843020008430200084C
:10008000430200084302000843020008430200083C
:10009000430200084302000843020008430200082C
:1000A000430200084302000843020008430200081C
:1000B00043020008ED310008430200084302000833
:1000C00043020008430200084302000843020008FC
:1000D00043020008430200084302000843020008EC
:1000E00043020008430200084302000843020008DC
:1000F00043020008430200084302000843020008CC
:100100004302000843020008F931000843020008D6
:1001100043020008430200080532000843020008B9
:1001200043020008350400084302000843020008A7
:10013000430200084302000843020008430200088B
:10014000430200084302000843020008430200087B
:10015000430200084104000843020008B9470008B0
:10016000430200084302000843020008430200085B
:100170004302000843020008430200080000000098
:10018000430200084302000800F002F800F03CF8C7
:100190000AA090E8000C82448344AAF10107DA45E2
:1001A00001D100F031F8AFF2090EBAE80F0013F0F8
:1001B000010F18BFFB1A43F00103184798610000B4
:1001C000B8610000103A24BF78C878C1FAD8520745
:1001D00024BF30C830C144BF04680C6070470000C1
:1001E0000023002400250026103A28BF78C1FBD840
:1001F000520728BF30C148BF0B6070471FB506F0DB
:100200007FF81FBD10B510BD00F0D0F81146FFF704
:10021000F5FF04F02DFB00F0EEF803B4FFF7F2FF5A
:1002200003BC00F0F5F80000094880470948004782
:10023000FEE7FEE7FEE7FEE7FEE7FEE7FEE7FEE796
:10024000FEE7FEE704480549054A064B70470000F3
:10025000D93100088901000858040020580A0020FC
:10026000580600205806002053EA020C00F069806E
:100270002DE9F04B4FF00006002B1FBFB3FA83F5BA
:1002800003FA05F424FA05F65E4012BF1643B2FAEB
:1002900082F502FA05F4C5F120051EBF22FA05FC1D
:1002A00044EA0C04203556EA044C4FEA144418BFC3
:1002B000641C4FF000084FF00009904271EB030CF2
:1002C00039D3002919BFB1FA81F701FA07F6B0FA5C
:1002D00080F700FA07F6C7F120071EBF20FA07FCD7
:1002E00046EA0C062037B6FBF4FCA7EB0507103FE7
:1002F00007F01F0BCBF120062CFA06F60CFA0BFBCD
:1003000044BFB3460026202FA4BF5E464FF0000B2B
:100310005BEA060C08BF4FF0010B19EB0B0948EB29
:100320000608ABFB027C06FB02CC0BFB03CCC01B1C
:1003300071EB0C01C1E70B46024641464846BDE859
:10034000F08B13B5084318BF4FF0FF300146AFF3F1
:100350000080BDE81C4070474FF0000200B5134616
:1003600094469646203922BFA0E80C50A0E80C50D5
:10037000B1F12001BFF4F7AF090728BFA0E80C5086
:1003800048BF0CC05DF804EB890028BF40F8042B7F
:1003900008BF704748BF20F8022B11F0804F18BFEC
:1003A00000F8012B7047704770477047754600F0A2
:1003B0002BF8AE4605006946534620F007008546F7
:1003C00018B020B5FFF73EFFBDE820404FF0000613
:1003D0004FF000074FF000084FF0000BAC46ACE8C0
:1003E000C009ACE8C009ACE8C009ACE8C00921F01C
:1003F00007018D46704710B50446AFF300802046D4
:10040000BDE81040FFF709BF004870471800002002
:1004100001491820ABBEFEE726000200704700002D
:10042000FEE7000040F2D011C2F200010968486303
:100430007047000040F2C800C2F2000000F06CB843
:1004400040F22810C2F2000000F066B870470000C9
:10045000102000F00FBA0000EFF3108072B600BF5A
:10046000FEE7000070B5866D044600F0F9FA94F8D6
:10047000351002292ED105462068216C026822F031
:1004800016020260426922F08002426109B9A16C41
:1004900019B1016821F008010160016821F0010132
:1004A00001600068C00708D000F0DAFA401B052898
:1004B00017D820680068C007F6D1E06D3F2101FA27
:1004C00000F0B060012084F835000020002184F89D
:1004D000341070BD802060650120002184F8341044
:1004E00070BD20206065032084F83500002184F869
:1004F000341070BD90F83510022909D1052180F81B
:1005000035100068016821F001010160002070478A
:100510008021416501207047F0B581B0044600207C
:10052000009040F21000C2F200000268D4E91660A8
:1005300048F2B51337680821C1F64E33814039427D
:10054000A2FB03250CD0226813685B0708D513684B
:1005500023F004031360B160616D41F00101616536
:1005600001218140394208D022685269120604D51F
:10057000B160616D41F00201616504218140394241
:1005800008D022681268920704D5B160616D41F00D
:100590000401616510218140394217D0206802684A
:1005A000120713D5B16002680168520308D4C90567
:1005B00008D4016821F008010160216C21B905E02F
:1005C000080342D4216C09B120468847E16D202000
:1005D00000FA01F23A4244D020680368DB0640D5B5
:1005E000B26094F835300268052B1ED122F0160255
:1005F0000260426922F080024261226C0AB9A26C58
:100600001AB1026822F0080202603F208840B06000
:10061000012084F83500216D0020002984F8340081
:1006200057D02046884701B0F0BD0168520310D46E
:10063000C90512D4016821F010010160012084F87D
:100640003500002084F8340007E0A16C0029BBD1FC
:10065000BCE7080301D4616C00E0E16B09B12046FE
:100660008847606DA8B3606DC0072ED0052084F860
:1006700035002068A90A026822F001020260009A8F
:1006800001328A4200921AD80268D20717D0009A23
:1006900001328A42009212D80268D2070FD0009A23
:1006A00001328A4200920AD80268D20707D0009A23
:1006B00001328A42009202D80268D207DFD10120BB
:1006C00084F83500002084F83400E16C09B120463C
:1006D000884701B0F0BD00002DE9F041044600F06C
:1006E000BFF9002C4ED00546022084F835000020CA
:1006F000216884F83400086820F001000860086868
:10070000C00708D000F0ACF9401B05286BD8216861
:100710000868C007F6D1086848F23F02CFF210021D
:10072000D4E90135024004F10C0E9EE8C1511A4390
:100730002A4310433043384340EA0800626A40EAE3
:100740000C00042A40EA0E031FD1D4E90A5E206B94
:100750004EEA0302104308604869BEF1000F20F022
:10076000030040EA050040F0040C14D0B8F5005F27
:1007700041D0B8F1000F4ED1022D4FD0012D44D001
:100780004DB94BE00120BDE8F0810B60486920F0D5
:10079000070040EA020C6FF00F004AF6AB2250FA55
:1007A00081F0CAF6AA22A0FB02231A0946F23233CC
:1007B000C0F600039A5C40F2FF335F284FF03F0021
:1007C000C1F814C021EA030100FA02F088BF043125
:1007D000C4E916128860002301220020636584F8B2
:1007E0003520BDE8F081032220230320636584F8CF
:1007F0003520BDE8F081032DCDD801224023012012
:10080000DFE805F0020C0203E8E7AEF1C070B0FAD1
:1008100080F0400904E0032D04D3BCD1CEF3006086
:100820000028B8D0012240230120636584F83520D8
:10083000BDE8F081B0B5044600F012F9054640F27B
:100840000800C2F200000078611C18BF044400BF19
:1008500000F006F9401BA042FAD3B0BD102818BF23
:10086000704740F2B400C2F20000018801310180FB
:100870007047000043F61441C4F201010A680242C5
:1008800014BF08607047FFF7E9BF00002DE9F04F83
:1008900082B000F13E4241F6004502F1FF77C4F21A
:1008A000020508224FEAB726A84208BF0722072EF2
:1008B00038BF4FEAB7224FF0010A002400274FF05B
:1008C0000008009208E000BF023708F10108202F5D
:1008D00004F1040400F0B4800E680AFA08F916EA7C
:1008E000090FF1D0D1F804A00AF0030BABF1010617
:1008F000012E17D80322866802FA07FECA6826EA84
:100900000E06BA40324382604268CAF3001522EAFA
:10091000090205FA08F54FEA480C6FEA0E062A4369
:1009200042600BE00322BA40D643BBF1030FBC4642
:1009300004D1BC464FF0030B22E000BFC2688D68B3
:10094000324005FA0CF52A43BBF1020FC26017D101
:100950006FF0030202EA5802024404F01C030F2560
:10096000D2F820E005FA03FA0D692EEA0A0E05FA1C
:1009700003F343EA0E031362D1F804A00AF0030B59
:1009800002680BFA0CF332401A431AF4403F4FF05E
:10099000010A026098D0002243F644030192C4F297
:1009A00002031A6843F6004E42F480421A601A6845
:1009B000C4F2010E02F480420192019A28F003026F
:1009C0004FF6084C7244CFF6FF7C52F80C3004F01E
:1009D0000C060F25B540AB43009D05FA06F63343E0
:1009E00042F80C30DEF808204B6842EA090643F66C
:1009F0000C4CDD0258BF22EA0906CEF80860C4F2AA
:100A0000010CDCF800209D0242EA090658BF22EAE8
:100A10000906CCF80060DEF804209D0342EA0906CE
:100A200058BF22EA0906CEF80460DEF80020DB0396
:100A300042EA090658BF22EA0906CEF8006043E7F9
:100A400002B0BDE8F08F00000069084018BF012027
:100A500070470000002A08BF090481617047000048
:100A600040F25440C2F200000068704740F20800B3
:100A700040F25441C2F20000C2F2000100780A685C
:100A8000104408607047000080B543F60040C4F28F
:100A90000200016841F400710160016841F4806165
:100AA0000160016841F480710160032000F084F866
:100AB0000F2000F005F800F027F8002080BD0000AE
:100AC00070B540F20806C2F2000640F2100132781A
:100AD000C2F200014FF47A730968B3FBF2F20446E4
:100AE000B1FBF2F1084600F039FB0F2C4FF0010585
:100AF00008D838B94FF0FF3021460022002500F019
:100B00002FF87460284670BD82B0002043F6400183
:100B10000190C4F202014A6842F480424A604A6885
:100B200002F480420192019A0090086840F08050DF
:100B30000860086800F080500090009802B070478C
:100B4000002848BF704700F01F01012202FA01F19E
:100B50004EF200124009CEF2000242F82010704717
:100B600010B54EF60C5CCEF2000CDCF80030C3F38E
:100B7000022E8EF00704042C28BF0424BEF10303C8
:100B80004FF0FF3E0EFA04F438BF0023A143994012
:100B90000EFA03F39A4300F00F03043B114363443E
:100BA00009010C3300F16042B0F1FF3FC8BF02F50C
:100BB0006443197010BD00004EF60C51CEF20001D6
:100BC0000A684FF6FF031A4060F30A2242F0806081
:100BD00040F0FD70086070472DE9F041002800F0FA
:100BE0008B8043F60808C4F202080446D8F8F803DC
:100BF0000D4600F00700884207D288F8F853D8F86D
:100C0000F80300F00700A84276D12068810717D5C5
:100C1000410705D5D8F8001041F4E051C8F800109C
:100C2000010705D5D8F8001041F46041C8F800105C
:100C3000D8F80010A26821F0F0011143C8F80010A4
:100C4000C0073FD1D8F8F80300F00700A84207D941
:100C500088F8F853D8F8F80300F00700A8424BD101
:100C60002068410707D5D8F80010E26821F4E05168
:100C70001143C8F80010000708D5D8F80000216912
:100C800020F4604040EAC100C8F8000000F07CF8A1
:100C9000D8F8001046F21A32C1F30311C0F6000270
:100CA000515C40F2100220FA01F140F20C00C2F255
:100CB00000000068C2F200021160FFF701FF00208F
:100CC000BDE8F0816068811E022907D258F8081C2F
:100CD00089015CBF0120BDE8F08110E0012807D147
:100CE00058F8081C89035CBF0120BDE8F08106E0CC
:100CF00058F8081C890702D40120BDE8F081D8F813
:100D0000001021F003010843C8F80000FFF7A8FE17
:100D1000064641F2883700BFD8F80000616800F04D
:100D20000C00B0EB810F8DD0FFF79AFE801BB8420C
:100D3000F2D90320BDE8F08140F2100043F608012B
:100D4000C2F20000C4F202010068096846F22A32C9
:100D5000C1F38221C0F60002515CC8407047000018
:100D600040F2100043F60801C2F20000C4F2020192
:100D70000068096846F22A32C1F34231C0F6000227
:100D8000515CC8407047000010B543F60404C4F23B
:100D90000204606800F00C0142F200400829C0F231
:100DA000F40007D0042918BF10BD41F20020C0F2A2
:100DB0007A0010BD216801F03F02216823684902D2
:100DC000C3F3881105D4A1FB00010023FFF74CFAFF
:100DD00006E041F20020C0F27A004843B0FBF2F096
:100DE00021680222C1F3014102EB4101B0FBF1F0A5
:100DF00010BD00002DE9F04182B0002868D0044603
:100E0000007843F60006C007C4F202060BD0B068B3
:100E100000F00C00042840F0A0803068800302D568
:100E20006068002854D0207880071AD5B06810F088
:100E30000C0F09D0B06800F00C00082840F0B48016
:100E40007068400200F1B0803068800702D5E06829
:100E500001283DD13068216920F0F80040EAC10046
:100E600030602078000737D4207840074BD4A5693C
:100E700055B3B06800F00C00082840F0DA80012D6E
:100E800026D07068E16900F480028A4220D1216A8C
:100E900000F03F028A421BD147F6C071626A0140EE
:100EA000B1EB821F14D1A16A4FF6FF73C9039943B6
:100EB00000F44032A1F580318A4209D1E16A00F0A4
:100EC0007060B0EB016F03D1002002B0BDE8F0818B
:100ED000012002B0BDE8F0816069002840F2000006
:100EE000C4F2472000F091800121C0F8801EFFF776
:100EF000B7FD0546706F8007B6D4FFF7B1FD401B04
:100F00000228F7D991E0306C4FF00008C0000CD4F3
:100F1000CDF80480306C4FF0010840F08050306410
:100F2000306C00F080500190019847F20007C4F245
:100F300000073868C0054DD4386840F480703860C8
:100F4000FFF78EFD054600BF3868C00542D4FFF7A5
:100F500087FD401B0228F7D967E0B06800F00C005D
:100F6000082803D1706840023FF557AF6568B5F5B2
:100F7000803F07D03068B5F5A02F40F0B38040F433
:100F800080203060306840F480303060FFF768FDCA
:100F9000054600BF306880033FF545AFFFF760FDB1
:100FA000401B6428F6D940E0E068002864D00020A7
:100FB000C4F2472001210160FFF752FD054600BF42
:100FC000306880073FF546AFFFF74AFD401B022817
:100FD000F6D92AE0A568012D05D0306F052D5FD127
:100FE00040F004003067306F40F001003067FFF7D9
:100FF00037FD054641F28837306F800769D4FFF727
:101000002FFD401BB842F7D90FE00021C0F8801E29
:10101000FFF726FD054600BF706F80077FF524AF00
:10102000FFF71EFD401B0228F6D9032002B0BDE8E1
:10103000F0810027C4F2472700203866FFF710FD33
:10104000022D05460CD100BF3068800164D5FFF742
:1010500007FD401B02284FF00300F5D935E700BF1C
:10106000306880017FF530AFFFF7FAFC401B0228A3
:101070004FF00300F4D928E70020C4F247200021F4
:101080000160FFF7EDFC0546306880077FF5E9AEAB
:10109000FFF7E6FC401B02284FF00300F4D914E7E9
:1010A00020F001003067306F20F004003067FFF758
:1010B000D7FC002D05469DD141F28837306F80075F
:1010C00007D5FFF7CDFC401BB8424FF00300F5D920
:1010D000FBE6B8F1000F3FF4CAAE306C20F0805050
:1010E0003064C4E620F480303060306820F4802022
:1010F0003060FFF7B5FC002D05467FF44BAF07E0ED
:10110000FFF7AEFC401B64284FF003003FF6DDAE56
:1011100030688003F4D486E604F11C052FCD084323
:1011200040EA8210D9034FF6FF729143A1F5803156
:1011300040EA05600843706001203866FFF790FCC4
:10114000044600BF306880013FF5BEAEFFF788FC63
:10115000001B02284FF00300F4D9B6E6411E002020
:10116000B0EB116F1CBF012070474EF21002CEF29F
:10117000000251604EF62351CEF20001F0230B70B5
:1011800007219060116070477047000070470000B1
:1011900010B590F83C20012A4FF0020252D00123F2
:1011A00080F83C3080F83D200268D2F804E0D2F8A4
:1011B00008C00C682EF07003234341F2FF74C4F2A0
:1011C0000004A24253600DDC40F2FF73C4F200033E
:1011D0009A4215DCB2F1804F29D040F20043C4F2AC
:1011E000000322E040F2FF33C4F201039A4212DC12
:1011F00041F60003C4F200039A4218D0002312E023
:1012000040F60003C4F200039A4210D040F60043B7
:10121000C4F2000309E044F20003C4F201039A425D
:1012200005D040F20043C4F201039A4204D1496858
:101230002CF08003194391600121002280F83D10B9
:1012400080F83C20104610BD002804BF01207047E4
:1012500010B5044690F83D0028B9002084F83C0001
:10126000204600F01FF8022084F83D002068211D70
:1012700001F0CEFF012084F8460084F83E0084F897
:101280003F0084F8400084F8410084F8420084F86C
:10129000430084F8440084F8450084F83D000020B1
:1012A00010BD000080B582B0006800F140404FEAF8
:1012B000B020042813D8DFE800F0031214253F0003
:1012C0000020019043F64000C4F20200016841F0A2
:1012D00001010160006800F001000190019802B076
:1012E00080BD0020019043F64000C4F20200016876
:1012F00041F004010160006800F0040001900198D1
:1013000002B080BD0020019043F64000C4F202000C
:101310000168002241F0080101600068002100F02E
:101320000800019001983220FFF71AFC322002B029
:10133000BDE88040FFF704BC0020019043F6400068
:10134000C4F202000168002241F01001016000684F
:10135000012100F01000019001983620FFF700FCF9
:10136000362002B0BDE88040FFF7EABB90F83D10A0
:1013700001291CBF01207047022180F83D10006840
:1013800041F2FF72C168C4F20002904241F00101D3
:10139000C1600DDC40F2FF71C4F20001884215DC2F
:1013A000B0F1804F29D040F20041C4F2000122E0A8
:1013B00040F2FF31C4F20101884212DC41F6000123
:1013C000C4F20001884218D0002112E040F600016A
:1013D000C4F20001884210D040F60041C4F200017E
:1013E00009E044F20001C4F20101884205D040F254
:1013F0000041C4F20101884206D1816801F0070171
:10140000062904BF00207047016841F00101016016
:101410000020704780B590F83C20012A4FF002026E
:1014200000F0C280012380F83C3080F83D20D0F8E5
:1014300000C04FF67772DCF8083023EA0202CCF8DD
:1014400008200B684F2B28DC1F2B43DD202B44D0BA
:10145000302B42D0402B40F0A980D1F804E0C9687D
:10146000DCF82030DCF8202022F00102CCF820202B
:10147000DCF8182022F0F00242EA011123F00A02FF
:1014800042EA0E02CCF81810CCF82020DCF8081044
:1014900041F0470121F030017DE06F2B25DDB3F5F0
:1014A000005F46D0B3F5805F77D0702B7ED1D1E955
:1014B00001E3C968DCF8082043EA0E0322F47F4206
:1014C00043EA01211143CCF80810DCF8081041F080
:1014D000770160E00BB1102B68D1DCF8081021F027
:1014E0007001194341F0070155E0502B34D0602BB7
:1014F0005CD1D1F804E0C968DCF8203023F0100397
:10150000CCF82030DCF81830DCF8202023F47043CD
:1015100022F0A00243EA013142EA0E12CCF8181080
:10152000CCF82020DCF8081041F0670121F0100110
:1015300031E0D1E901E3C968DCF8082043EA0E0391
:1015400022F47F4243EA01211143CCF80810DCF871
:10155000081041F480411EE0D1F804E0C968DCF8CD
:101560002030DCF8202022F00102CCF82020DCF82A
:10157000182022F0F00242EA011123F00A0242EAA6
:101580000E02CCF81810CCF82020DCF8081041F03E
:10159000570121F02001CCF808100022012180F829
:1015A0003D10002180F83C10104680BD0122F5E777
:1015B000002804BF012070472DE9F047044690F849
:1015C0003D000D4628B9002084F83C00204600F07C
:1015D00049F8022084F83D00206844F2070281683F
:1015E00091438160211D01F013FE20684FF6FF78C2
:1015F00081688269D0F820C0D5E9003ED5E9026A49
:1016000043EA0109AB6922EA080246EA03234FF6DE
:10161000FC46B343D5E9076742EA0A0229691A433F
:1016200042EA062242EA01112CF0AA026B6942EA60
:101630000E0241EA073142EA0312C0F808908161C4
:101640000262012084F8460084F83E0084F83F00DE
:1016500084F8420084F8430084F83D000020BDE88F
:10166000F087000080B586B00021CDE90411CDE9F6
:101670000211006840F20042C4F20002904201915F
:1016800030D00021C4F20101884258D1002043F635
:1016900030010090C4F202014A6942F001024A613D
:1016A0004A6902F001020092009A00900A6842F032
:1016B00010020A60096801F01001009100994FF4CE
:1016C000206101910221CDE90210049001200590D2
:1016D0000020C4F2020000F5805001A9FFF7D6F8FF
:1016E00006B080BD43F630000091C4F202000269EA
:1016F00042F002020261026902F002020092009AC4
:101700000091026842F001020260006800F00100EE
:1017100000900098C02001900220CDE90201CDE99F
:1017200004100020C4F2020001A9FFF7AFF81D2049
:1017300000210022FFF714FA1D20FFF701FA06B07E
:1017400080BD000080B590F83E2090F83F3090F8C2
:1017500042E090F843C0042909D0B1B9012A4FF002
:10176000010208BFBEF1010F32D0104680BD012B2F
:101770004FF0010208BFBCF1010FF6D1022180F841
:101780003F1080F8431000681EE0012A4FF001026C
:1017900008BF012BE9D1BEF1010FE6D1BCF1010F69
:1017A000E3D1022280F83E2080F83F2080F84220DA
:1017B00080F8432089B10068016A21F001010162CB
:1017C000016A41F00101016210216FF0100208E08E
:1017D000022180F83E1080F84210006801216FF06D
:1017E0000102036A1A400262026A1143016201683F
:1017F000002241F001010160104680BD70470000E9
:1018000010B5016804460869800744BFC8685FEAEC
:10181000807038D40869400744BFC8685FEA4070E8
:101820003DD40869000744BFC8685FEA007043D42C
:101830000869C00644BFC8685FEAC06048D4086948
:10184000C0071CBFC8685FEAC0704ED108690006B7
:1018500044BFC8685FEA00604FD40869400644BFCF
:10186000C8685FEA406050D40869800646BFC8680F
:101870005FEA806010BD6FF0200220460A61BDE87B
:101880001040FFF783BC6FF0020008610120207751
:101890008869800741D02046FFF7B0FF43E06FF032
:1018A0000400086102202077886910F4407F3ED050
:1018B0002046FFF7A3FF40E06FF008000861042016
:1018C0002077C86980073CD02046FFF797FF3EE0AD
:1018D0006FF01000086108202077C86910F4407F7D
:1018E00039D02046FFF78AFF3BE06FF00100086126
:1018F000204600F0FBFB2168A8E76FF0800008613C
:101900002046FFF741FC2168A7E76FF0400008611F
:10191000204600F0EDFB2168A6E7204600F0BEF966
:10192000204600F045FB21680020207772E7204622
:1019300000F0B4F9204600F03BFB2168002020773E
:101940006FE7204600F0AAF9204600F031FB21683D
:10195000002020776CE7204600F0A0F9204600F038
:1019600027FB21680020207769E700002DE9F0417E
:1019700086B0006840F6FF31C4F2000188424FF0A3
:1019800000010591CDE90311CDE9011126DCB0F18B
:10199000804F4CD040F60001C4F20001884240F074
:1019A0009F80002043F630010090C4F202010A68D3
:1019B00042F008020A60096801F0080100910099EC
:1019C0004FF4704101910221CDE90210CDE90401EB
:1019D0000020C4F2020000F540607EE040F60041C5
:1019E000C4F2000188425FD044F20001C4F2010158
:1019F000884275D1002043F630010090C4F2020104
:101A00000A6842F010020A60096801F010010091B2
:101A10000099602101910221CDE902100490032078
:101A200005900020C4F2020000F5805055E0002629
:101A300043F630000096C4F202000168002441F031
:101A4000010101600168C4F2020401F0010100918A
:101A50000099009601680DF1040841F0020101604F
:101A60000068022700F0020000900098012520463F
:101A70004146CDE90177CDE903670595FEF706FFFD
:101A80002420CDE9010720464146CDE903660595AE
:101A9000FEF7FCFE4FF40060CDE90107CDE90366D7
:101AA000059504F5806018E0002043F630010090B1
:101AB000C4F202010A6842F001020A60096801F0FA
:101AC000010100910099012101910221CDE902104B
:101AD0000020C4F20200CDE9041101A9FEF7D6FEF0
:101AE00006B0BDE8F0810000F0B590F83C30012B65
:101AF00004BF0220F0BD4FEAB2020123032A80F89E
:101B00003C3000F2C680DFE802F00234699E0268D1
:101B1000136A23F001031362136AD2F804E0956993
:101B20000C6825F073058E6845EA040C40F2004508
:101B300023F0020342F48064C4F20105AC4243EA9C
:101B4000060305D1CE6823F00C0326F004063343C8
:101B5000AC4206D1D1E905542EF440762E4346EA34
:101B6000040EC2F804E0C2F818C049685163136259
:101B70008EE00268136A42F4806423F0100313625B
:101B8000136AD2F804E096690D6826F4E6468F6879
:101B900046EA052C40F2004523F02003C4F201057B
:101BA000AC4243EA071307D1CE686FF0400723F039
:101BB000C00307EA06163343AC4207D1D1E90565F5
:101BC0002EF4406747EA860747EA850EC2F804E02C
:101BD000C2F818C049689163136259E00268136A39
:101BE00042F4806423F480731362136AD2F804E031
:101BF000D7690E6827F073078D6847EA060C40F234
:101C0000004623F40073C4F20106B44243EA0523FC
:101C100007D1CD6840F2FF472D0223F44063BD4356
:101C20002B43B44207D1D1E905652EF4405747EA6A
:101C3000061747EA051EC2F804E0C2F81CC049684E
:101C4000D163136224E0026840F20044136A42F454
:101C5000806523F480531362D2F820C05368D6699C
:101C6000C4F20104A5420D6826F4E6468F6846EAF0
:101C700005242CF4005646EA073504D14F6923F4B5
:101C8000804343EA87135360D46149681164156245
:101C90000023002180F83C101846F0BD704700007A
:101CA000002804BF0120704710B5044690F83D009D
:101CB00028B9002084F83C00204600F01FF80220DC
:101CC00084F83D002068211D01F0A2FA012084F86B
:101CD000460084F83E0084F83F0084F8400084F811
:101CE000410084F8420084F8430084F8440084F8FA
:101CF000450084F83D00002010BD00007047000042
:101D00002DE9F04190F83C30012B04BF0220BDE8E2
:101D1000F0814FEAB2020123032A80F83C3000F23E
:101D2000F780DFE802F0023F7FC003681A6A22F002
:101D300001021A621A461C6AD3F804C052F8186FDE
:101D40000D6826F073068F6846EA050E40F20046DD
:101D500024F0020443F48065C4F20106B54244EA6B
:101D6000070405D1CF6824F00C0427F004073C4396
:101D7000B54206D1D1E905652CF44077374347EAEF
:101D8000050CC3F804C0C3F818E04F6809695F6325
:101D90001C629F6947F008079F619F6927F004074D
:101DA0009F61B1E0036840F200481A6AC4F201087A
:101DB00022F010021A621A461D6AD3F804C052F8C3
:101DC000187F0E6827F4E6478C6847EA062E25F050
:101DD000200743F48065454547EA041407D1CF68DE
:101DE0006FF0400624F0C00406EA07163443454568
:101DF00007D1D1E905652CF4406747EA860747EA31
:101E0000850CC3F804C0C3F818E04F6809699F63E4
:101E10001C629F6947F400679F619F6927F4806790
:101E20009F6170E0036840F200481A6AC4F201083A
:101E300022F480721A621A461D6AD3F804C052F85E
:101E40001C7F0E6827F073078C6847EA060E25F49E
:101E5000007743F48065454547EA042408D1CF68FC
:101E600040F2FF463F0224F4406427EA060634436A
:101E7000454507D1D1E905652CF4405747EA0617D7
:101E800047EA051CC3F804C0C3F81CE04F680969A1
:101E9000DF631C62DF6947F00807DF61DF6927F055
:101EA0000407DF6130E0036840F200471A6A43F438
:101EB000806522F480521A621A46D3F820C05C680A
:101EC00052F81C6FC4F20107BD420F6826F4E646C3
:101ED0008D6846EA07272CF4005646EA053604D1F9
:101EE0004D6924F4804444EA85145C60DF614F68E6
:101EF00009691F641E62DF6947F40067DF61DF69FB
:101F000027F48067DF610902136819430023116019
:101F1000002180F83C101846BDE8F081002804BF7D
:101F20000120704710B5044690F83D0028B9002004
:101F300084F83C00204600F01FF8022084F83D00A1
:101F40002068211D01F064F9012084F8460084F81E
:101F50003E0084F83F0084F8400084F8410084F893
:101F6000420084F8430084F8440084F8450084F873
:101F70003D00002010BD000081B0006844F2000167
:101F8000C4F20101884201D001B0704700200090E6
:101F900043F64400C4F20200016841F4803101605C
:101FA000006800F480300090009801B07047000095
:101FB0007047000041B1082909D0042914BF00F17D
:101FC000410200F13F0204E000F13E0201E000F1B5
:101FD00040021278012A1CBF01207047022241B141
:101FE000082909D0042914BF80F8412080F83F2037
:101FF00004E080F83E2001E080F84020006801F015
:102000001F010122036A02FA01F123EA01020262BE
:10201000026A0A4341F2FF71C4F20001884202627F
:102020000FDC40F2FF71C4F2000188421BDCB0F10A
:10203000804F4DD040F20041C4F20001884247D0A9
:102040004DE040F2FF32C4F20102904218DC41F64A
:102050000003C4F2000398423AD00023C4F2010303
:10206000984219D03BE040F60001C4F200018842DA
:102070002ED040F60041C4F20001884228D02EE064
:1020800044F20003C4F20103984221D040F200431D
:10209000C4F20103984222D1436C884243F40043C6
:1020A0004364BEDD904207DC41F60001C4F200014A
:1020B00088420DD0002107E044F20001C4F2010182
:1020C000884205D040F20041C4F20101884206D1A5
:1020D000816801F00701062904BF002070470168EC
:1020E00041F00101016000207047000070470000CE
:1020F000704700007047000070470000F0B581B0E5
:10210000044600680168C268456901F02F03202B6E
:1021100002F0200306D12BB1204601B0BDE8F0400B
:1021200002F05ABA5FEA017C07D005F0010E12F402
:10213000907F8EF001052FD175B3236B1140CA0635
:1021400018D5012B16D1002100910168009141683A
:10215000009100994169490600F18281A18DE28DCB
:10216000E38D002B1CBF891A5FEA014240F0FD801D
:1021700001B0F0BD0A0600F12B824906F8D5C1680E
:1021800021F04001C1602021204684F83D1001B0BB
:10219000BDE8F04000F01ABBCE0718BF12F48076FD
:1021A00003D0266C46F00106266401F004070126E0
:1021B00086EA97072F4303D1276C47F0020727646D
:1021C00001F0020786EA5706354303D1256C45F036
:1021D0000405256453EA0E0318BF0123BCF1000F68
:1021E00004D51BB1236C43F008032364236C002B3C
:1021F000BED01140890603D5204602F0EDF92068D3
:102200004169226C01F0400102F00802891800F0D7
:10221000F08100BF50E8030F216820F4907041E87E
:102220000302C2B3206850E8030F216820F49070C5
:1022300041E803027AB3206850E8030F216820F4D4
:10224000907041E8030232B3206850E8030F216820
:1022500020F4907041E80302EAB12068DAE700BF99
:10226000206850E8050F216820F0010041E80502D0
:10227000DAB1206850E8050F216820F0010041E83C
:10228000050292B1206850E8050F216820F0010096
:1022900041E805024AB1206850E8050F216820F0A6
:1022A000010041E80502002ADAD1206B012824D17F
:1022B000206850E8030F216820F0100041E8030275
:1022C000DAB1206850E8030F216820F0100041E8DF
:1022D000030292B1206850E8030F216820F010003B
:1022E00041E803024AB1206850E8030F216820F05A
:1022F000100041E80302002ADAD1202084F83E00D1
:102300000020206320684169490640F18B8150E834
:10231000050F216820F0400041E80502002A00F086
:102320006F81206850E8050F216820F0400041E8E7
:102330000502002A00F06481206850E8050F21683A
:1023400020F0400041E80502002A00F05981206891
:1023500050E8050F216820F0400041E80502002AFE
:1023600000F04E812068D2E7206850E8030F226811
:1023700020F4907042E80303BBB3206850E8030FD9
:10238000226820F4907042E8030373B3206850E899
:10239000030F226820F4907042E803032BB32068F7
:1023A00050E8030F226820F4907042E80303002BEA
:1023B000DAD11AE0206850E8050F226820F0010009
:1023C00042E80503DBB1206850E8050F226820F0E1
:1023D000010042E8050393B1206850E8050F226828
:1023E00020F0010042E805034BB1206850E8050FDA
:1023F000226820F0010042E80503002BDAD12020FA
:1024000084F83E0000202063206850E8030F226813
:1024100020F0100042E80303DBB1206850E8030F0E
:10242000226820F0100042E8030393B1206850E8CE
:10243000030F226820F0100042E803034BB120682C
:1024400050E8030F226820F0100042E80303002B3D
:10245000DAD189B2204601B0BDE8F040FFF74ABEAC
:10246000A26B11684B689EB2002E3FF481AEA18D25
:102470008E42BFF47DAEE385D269B2F5807F00F075
:102480009E8050E8030F216820F4807041E8030229
:10249000E2B1206850E8030F216820F4807041E821
:1024A00003029AB1206850E8030F216820F480707D
:1024B00041E8030252B1206850E8030F216820F47C
:1024C000807041E803020AB12068DAE7206850E82A
:1024D000050F216820F0010041E80502BAB3206829
:1024E00050E8050F216820F0010041E8050272B3B1
:1024F000206850E8050F216820F0010041E805023E
:102500002AB3206850E8050F216820F0010041E857
:102510000502002ADAD11AE0206850E8050F216888
:1025200020F0400041E80502DAB1206850E8050FCC
:10253000216820F0400041E8050292B1206850E88F
:10254000050F216820F0400041E805024AB12068EB
:1025500050E8050F216820F0400041E80502002AFC
:10256000DAD1202084F83E0000202063206850E863
:10257000030F216820F0100041E80302DAB120685F
:1025800050E8030F216820F0100041E8030292B1E7
:10259000206850E8030F216820F0100041E8030292
:1025A0004AB1206850E8030F216820F0100041E88C
:1025B0000302002ADAD1A06BFDF754FFA18DE08D54
:1025C000081A81B2204601B0BDE8F040FFF792BD85
:1025D00094F83D1021297FF4CBADA168B1F5805F5F
:1025E00001D1216921B3216A4A1C22620978416024
:1025F00025E02046FFF780FD0020206401B0F0BDFB
:10260000A06B78B144F2CD51C0F600010165FDF731
:1026100071FF00283FF4ACADA06B016D01B0BDE8C7
:10262000F0400847204601B0BDE8F040FFF764BD28
:10263000216A31F8022B6FF35F2242602162E18C44
:1026400001390A04E1847FF493ADC16821F080016F
:10265000C160C16841F04001C16001B0F0BD00003F
:10266000002804BF0120704710B5044690F83D00D3
:1026700028B9002084F83C00204600F021F82420EE
:1026800084F83D002068C16821F40051C1602046F3
:1026900002F020F82068016921F49041016141694C
:1026A00021F02A014161C16841F40051C16000205C
:1026B0002021206484F83D1084F83E1010BD0000F5
:1026C0002DE9F04786B0002604460596CDE903665D
:1026D00041F200402168C4F2010081420296019655
:1026E00002D006B0BDE8F08743F630010096C4F290
:1026F00002014A6946F2284842F020024A614A69CA
:1027000000F5744002F020020092009A00960A68D8
:10271000C4F2020842F004020A60096801F00401F0
:1027200000910099C02101910221CDE902160321F7
:1027300004910821059101A9FEF7A8F840F2C80507
:10274000C2F200054FF0206A4FF480694FF48070A8
:10275000C5E9008AC5E90266C5E90496C5E90660CF
:102760004FF480372846C5E90876FDF7B5FF002805
:1027700018BFFDF771FEA563AC6340F2281508F1A0
:102780007800C2F200054021C5E9000A05F1080001
:10279000002280E806022846C5E90522C5E9072788
:1027A0006A62FDF799FF002818BFFDF755FE472024
:1027B000022100226563AC63FEF7D2F94720FEF7E1
:1027C000BFF906B0BDE8F087704700007047000011
:1027D000FEE7000040F26020C2F2000000684FF403
:1027E000487141637047000040F26020C2F200006F
:1027F000006840F28A2181637047000040F2602047
:10280000C2F2000000684FF4C871C1637047000055
:1028100040F2D010C2F2000000684FF44871C1636A
:102820007047000040F26020C2F20000006840F2F1
:102830008A2101647047000040F26020C2F200006B
:10284000006840F6980141637047000040F2602044
:10285000C2F2000000684FF4FA6181637047000023
:1028600040F26020C2F2000000684FF4AF61C16323
:102870007047000040F2D010C2F20000006840F63D
:102880003401C1637047000040F26020C2F20000D2
:1028900000684FF4FA6101647047000080B582B0AF
:1028A0000020019043F63000C4F2020001680022CB
:1028B00041F4800101600068002100F48000019073
:1028C00001983920FEF74CF93920FEF739F94520F7
:1028D00000210022FEF744F9452002B0BDE8804007
:1028E000FEF72EB92DE9F04F87B0002543F63000F2
:1028F000CDE905550195C4F20200016840F2004A95
:1029000041F0100101600168C4F2020A01F01001F7
:102910000191019901950168AAF5806441F0800157
:1029200001600168002201F0800101910199019587
:102930000168182641F001010160016801F0010100
:10294000019101990195016841F00401016001685C
:1029500001F00401019101990195016841F0020122
:102960000160016801F0020101910199019501687E
:1029700041F0080101600068182100F00800019092
:1029800001982046FEF766F80AF580684046302137
:102990000022FEF75FF8504647F287010022FEF75B
:1029A00059F80AF50069484604210022FEF752F85A
:1029B000102002904FF4041002AF03904FF0010B6F
:1029C0000AF540603946CDF810B0FDF75FFFCDE95C
:1029D000026B022620463946CDF810B00596FDF769
:1029E00055FF3020CDE9020B40463946CDE904665B
:1029F000FDF74CFF0720CDE9020B50463946CDE9E3
:102A00000466FDF743FF4FF4E140CDE9020B504669
:102A10003946CDE90455FDF739FF48F22800CDE9E4
:102A20000205504639460495FDF730FF40F2BA7072
:102A3000CDE90205484639460495FDF727FF4FF4D6
:102A4000E050CDE90205404639460495FDF71EFFEA
:102A50000420CDE9020B48463946CDE90455FDF77F
:102A600015FF0A2000210022FEF77AF80A20FEF75F
:102A700067F807B0BDE8F08F10B58CB040F2881051
:102A800000210024C2F20000C4F20101C0E90014D8
:102A90000321CDE90314012144F62062CDE9051498
:102AA000CDE90744CDE9091403A9CDE90044C0E903
:102AB0000242C0E9044484610B94FEF779FD0028CA
:102AC00018BFFDF7C9FC40F28810C2F20000694649
:102AD000CDE90044FEF75CFB002818BFFDF7BCFC05
:102AE0000CB010BD10B58EB040F2D0100021C2F273
:102AF00000004FF08042472344F61F640D91CDE95A
:102B00000B11CDE90911CDE90711CDE90511CDE989
:102B10000311CDE90111C0E90023C0E902140161EC
:102B20008161FEF791FB002818BFFDF795FC4FF47B
:102B300080500A9040F2D010C2F200000AA9FEF7BD
:102B400069FC002818BFFDF787FC40F2D010C2F2E4
:102B50000000FFF7E3F9002818BFFDF77DFC40F205
:102B6000D010C2F20000FFF79BF8002818BFFDF755
:102B700073FC40F2D0100024C2F2000008A9CDE995
:102B80000844FEF705FB002818BFFDF765FC602030
:102B9000CDE9010440F2D010C2F2000001A90022E8
:102BA00003940594FFF7ACF8002818BFFDF754FC18
:102BB00040F2D010C2F2000001A90422FFF7A0F8F1
:102BC000002818BFFDF748FC40F2D010C2F2000008
:102BD00001A90822FFF794F8002818BFFDF73CFC74
:102BE0000020019040F2D010C2F2000001A90C2296
:102BF000FEF77AFF002818BFFDF72EFC40F2D01038
:102C0000C2F20000FEF7B2FE0EB010BD10B58CB0DF
:102C100040F2182040F200410024C2F20000C4F249
:102C20000001C0E900140321CDE90314012144F699
:102C30002062CDE90514CDE90744CDE9091403A9C3
:102C4000CDE90044C0E90242046184610B94FEF7BF
:102C5000AFFC002818BFFDF7FFFB40F21820C2F2BE
:102C600000006946CDE90044FEF792FA002818BF3B
:102C7000FDF7F2FB0CB010BD10B58EB040F2602035
:102C800040F600020021C2F20000C4F20002472315
:102C900044F61F640D91CDE90B11CDE90911CDE981
:102CA0000711CDE90511CDE90311CDE90111C0E905
:102CB0000023C0E9021401618161FEF7C5FA002812
:102CC00018BFFDF7C9FB4FF480500A9040F2602016
:102CD000C2F200000AA9FEF79DFB002818BFFDF70D
:102CE000BBFB40F26020C2F20000FFF717F900289A
:102CF00018BFFDF7B1FB40F260200024C2F20000D3
:102D000008A9CDE90844FEF743FA002818BFFDF7EB
:102D1000A3FB6020CDE9010440F26020C2F2000074
:102D200001A9002203940594FEF7EAFF002818BFCA
:102D3000FDF792FB40F26020C2F2000001A90422DC
:102D4000FEF7DEFF002818BFFDF786FB40F260208B
:102D5000C2F2000001A90822FEF7D2FF002818BF26
:102D6000FDF77AFB40F26020C2F2000001A90C22BC
:102D7000FEF7C6FF002818BFFDF76EFB40F260208B
:102D8000C2F20000FEF7F2FD0EB010BD10B58EB01D
:102D900040F2A82040F600420021C2F20000C4F236
:102DA000000241F61F43C7240D91CDE90B11CDE977
:102DB0000911CDE90711CDE90511CDE90311CDE9DF
:102DC0000111C0E90023C0E9021401618021816181
:102DD000FEF73AFA002818BFFDF73EFB4FF480508B
:102DE0000A9040F2A820C2F200000AA9FEF712FBE6
:102DF000002818BFFDF730FB40F2A820C2F2000007
:102E0000FFF78CF8002818BFFDF726FB40F2A8203A
:102E10000024C2F2000008A9CDE90844FEF7B8F981
:102E2000002818BFFDF718FB6020CDE9010440F22F
:102E3000A820C2F2000001A9002203940594FEF725
:102E40005FFF002818BFFDF707FB40F2A820C2F281
:102E50000000FEF78BFD0EB010BD000010B582B073
:102E600040F2F02041F200010024C2F20000C4F25E
:102E7000000142F20F73CDE9004440F2CF2280E816
:102E80001600C3608461FEF7DFF9002818BFFDF764
:102E9000E3FA40F2F020C2F200006946CDE90044B6
:102EA000FEF776F9002818BFFDF7D6FA02B010BD7C
:102EB00010B588B040F2383044F200010024C2F26C
:102EC0000000C4F2010142F20F730794CDE90544FA
:102ED000CDE90344CDE90144472280E81600C0E96A
:102EE00003348461FFF71AF8002818BFFDF7B4FA1D
:102EF0006020CDE9010440F23830C2F2000001A99F
:102F0000002203940594FEF7FBFE002818BFFDF78E
:102F1000A3FA40F23830C2F2000001A90422FEF701
:102F2000EFFE002818BFFDF797FA40F23830C2F2E2
:102F30000000FEF71BFD08B010BD000080B540F298
:102F4000803041F20041C2F20000C4F201010023CE
:102F50004FF00C0C4FF4E13280E80E00C0E903336F
:102F6000C0E905C3C361FFF77BFB002808BF80BD34
:102F7000BDE88040FDF770BAFEE70000FEE7000004
:102F8000002857D0D0E90F31C0E91031027880ED28
:102F9000070A30EEC00A002A01EE103AC0ED060A18
:102FA00080ED0F0A49D0012A40F0918090ED015A3E
:102FB00090ED026A30EE414A25EE044A20EE065AB0
:102FC00080ED094A80ED0A5A03EE101AD0E90C127E
:102FD00031EE011A90ED037A30EE410A90ED042AA9
:102FE000C0E90D1230EE030A80ED0C0A20EE070A4C
:102FF00034EE051A90ED083A80ED0B0A31EE000A26
:1030000033EE000AB4EE420AF1EE10FA80ED080A3F
:10301000C2BF80ED082AB0EE420A7047B1EE421AF4
:10302000B4EE410AF1EE10FABCBF80ED081AB0EE22
:10303000410A70479FED270A704790ED024A90EDD4
:10304000012A90ED0A6A20EE044A20EE022A36EEAA
:10305000044A90ED053A80ED092A80ED0A4A90ED88
:10306000035AD0E90C1230EE410AB4EE434AC0E9EB
:103070000D1280ED0C0A20EE050AF1EE10FA80ED3B
:103080000B0A06DCB1EE433AB4EE434AF1EE10FA15
:1030900003DAB0EE434A80ED0A3A32EE042A90EDAC
:1030A000041A30EE020AB4EE410AF1EE10FA80ED95
:1030B000080A07DCB1EE411AB4EE410AF1EE10FA4B
:1030C000A8BF7047B0EE410A80ED081A704790ED36
:1030D000080A704700000000002808BF704780B54C
:1030E00018303021FDF738F9BDE880407047000006
:1030F000002818BF002A00D1704780B513680170FE
:103100004360536828218360926880ED040AC2609E
:10311000C0ED050A2030FDF71FF9BDE8804070477B
:103120007047000070470000FDF7A0BCB0B592B03A
:10313000002443F64000CDE90A44CDE90844059453
:10314000CDE90344CDE901440094C4F202000168D2
:10315000022541F080510160006800F0805000902D
:10316000009847F200000094C4F20000016841F4A6
:10317000804101600068482100F480400090009880
:10318000012006904FF4803007904FF480000D909E
:1031900004200C950E90CDE90F15119006A8FDF7AF
:1031A00029FE20B1EFF3108072B600BFFEE70F20BA
:1031B000CDE901054FF480500394CDE9040401A842
:1031C0000221FDF709FD20B1EFF3108072B600BFB8
:1031D000FEE712B0B0BD00004EF68850CEF20000FF
:1031E000016841F4700101607047000040F218204E
:1031F000C2F20000FEF704BB40F2A820C2F20000B9
:10320000FEF7FEBA40F2F020C2F20000FEF7F8BA74
:1032100010B540F6FF3E0368C4F2000E40F2004CC9
:103220007045C4F2010C26DCB0F1804F30D040F282
:103230000042C4F2000290422AD040F60002C4F2DA
:103240000002904224D041F6FF72C4F20002904284
:1032500028DC70453ADCB0F1804F5CD040F200428F
:10326000C4F20002904256D040F60002C4F20002BE
:10327000904250D053E040F60042C4F20002904227
:1032800006D0604504D00022C4F201029042DAD197
:103290004A6823F07003134341F6FF72C4F2000240
:1032A0009042D6DD43F6FF72C4F20102904220DC68
:1032B00042F20002C4F2000290422CD00022C4F27A
:1032C0000102904227D0604525D028E040F6004218
:1032D000C4F2000290421ED041F60002C4F2000285
:1032E000904218D041F60042C4F20002904212D03F
:1032F00015E044F20002C4F2010290420BD044F601
:103300000002C4F20102904205D044F20042C4F22D
:103310000102904203D1CA6823F44073134323F09F
:1033200080024B69D1F800E08C681A430260C462E5
:1033300040F48062C0F828E0624504BF0969016377
:103340000121416110BD00002DE9F04F81B02DED4C
:10335000048B82B040F2C438C2F2000840F6004B41
:103360004046C4F2020BFFF7B7FE08F148042046BE
:10337000FFF7B2FE40F2780A9FED878A9FED879AA9
:10338000C2F2000A002046F23C32CAE90500C0F64B
:10339000000240460021B0EE480AF0EE490AFFF76D
:1033A000A7FE46F24832C0F6000220460021B0EEE9
:1033B000480AF0EE490A0194FFF79AFE2424ABF57F
:1033C000006944F620660027C4F2010408E000BF4B
:1033D0001E213220AAF80A00AAF80C1001F02CFADB
:1033E00040F22442C4F20002106842F2107C81B222
:1033F000614588BF301ADAF81410AAF8020001FA01
:1034000080F1CAF814101760DAF81810BAF904201D
:10341000BAF90A301144CAF81810216802B28DB204
:1034200000EE102A01EE103A654588BF711AAAF81D
:103430000010AAF804102760AAF80600AAF80810DD
:10344000B8EEC00AF8EEC10A4046FFF799FDBAF996
:103450000800BAF90C1000EE100A01EE101AB8EECE
:10346000C00AF8EEC10A0198FFF78AFD98ED080A34
:1034700098ED1A1A44F23400BCEEC00AC4F20100FE
:1034800080ED000ABCEEC10A80ED010A3220FDF792
:10349000D1F948464FF40041FDF7D6FA012806D08D
:1034A00058464FF48071FDF7CFFA01280BD1DAF8B6
:1034B000140041F27C51884266DCDAF8180041F2CF
:1034C0007D51884260DA48462021FDF7BDFA58B99F
:1034D00058460821FDF7B8FA012805D158461021B1
:1034E000FDF7B2FA90B100BF48462021FDF7ACFAD3
:1034F00001280FD158460821FDF7A6FA012809D165
:1035000058461021FDF7A0FA012803D132203221BC
:1035100060E700BF48462021FDF796FA01280BD14D
:1035200058460821FDF790FA30B958461021FDF7AA
:103530008BFA00283FF44CAF58460221FDF784FA7D
:1035400001283FF445AF48462021FDF77DFA68B9D0
:1035500058460821FDF778FA40B958461021FDF782
:1035600073FA012802D132211E2033E75846202168
:10357000FDF76AFA01284FF03C004FF03C0108BF0C
:103580001E2008BF322125E702B0BDEC048B01B03C
:10359000BDE8F04F01F034B900803B450000C8425F
:1035A0002DE9F04F81B02DED048B82B040F2C43490
:1035B000C2F200042046FFF78FFD04F148052846BB
:1035C000FFF78AFD40F278069FED4E8A9FED4E9AF6
:1035D000C2F200064FF0281046F23C32C6F80A004C
:1035E000C0F6000220460021B0EE480AF0EE490A7B
:1035F000FFF77EFD46F24832C0F600022846002161
:10360000B0EE480AF0EE490A0195FFF771FDB6F9F0
:103610000210B6F90400B1F5D27F7161B061A8BFA4
:10362000B0F5D27F63DA44F2340A40F2240B40F260
:103630002449C4F2010AC4F2010BC4F2000944F6A1
:10364000206542F210780027D9F8000081B2414588
:1036500088BF281A7080C9F80070DBF8001002B229
:103660008BB200EE102A434588BF691A3180B180C1
:10367000CBF80070F0803181B8EEC00AB6F90A00CC
:1036800001EE100AF8EEC10A2046FFF779FCB6F900
:103690000800B6F90C1000EE100A01EE101AB8EE90
:1036A000C00AF8EEC10A0198FFF76AFC94ED080A17
:1036B00094ED1A1ABCEEC00A8AED000ABCEEC10AEB
:1036C00032208AED010AFDF7B5F801F07DF8706946
:1036D000B6F90210B6F904200144B069B1F5D27F01
:1036E00010447161B061AFDBB0F5D27FACDB00207C
:1036F000C6E9050002B0BDEC048B01B0BDE8F04F97
:1037000001F07EB800803B450000C8422DE9F04F33
:1037100081B02DED048B40F2C434C2F20004204687
:10372000FFF7DAFC04F1480B5846FFF7D5FC40F2EE
:1037300078079FED408A9FED409AC2F200074FF054
:10374000281046F23C32C7F80A00C0F600022046B4
:103750000021B0EE480AF0EE490A4FF0000AFFF7E8
:10376000C7FC46F24832C0F6000258460021B0EECF
:10377000480AF0EE490AFFF7BBFC24260A2544F666
:10378000206842F21079C4F2010600BF40F22442E0
:10379000C4F20002106881B2494588BFA8EB00005E
:1037A0007880C2F800A0316802B28BB200EE102A15
:1037B0004B4588BFA8EB01013980B980C6F800A04D
:1037C000F8803981B8EEC00AB7F90A0001EE100A94
:1037D000F8EEC10A2046FFF7D3FBB7F90800B7F9A6
:1037E0000C1000EE100A01EE101AB8EEC00AF8EE46
:1037F000C10A5846FFF7C4FB94ED080A94ED1A1A63
:1038000044F23400BCEEC00AC4F2010080ED000AAC
:10381000BCEEC10A80ED010A3220FDF70BF801F081
:103820000BF8013DB2D1BDEC048B01B0BDE8F04F07
:1038300000F0E6BF00803B450000C8422DE9F04F94
:1038400081B02DED048B82B040F2C438C2F2000882
:1038500040F6004B4046C4F2020BFFF73DFC08F176
:1038600048042046FFF738FC40F2780A9FED848A2E
:103870009FED849AC2F2000A002046F23C32CAE967
:103880000500C0F6000240460021B0EE480AF0EE06
:10389000490AFFF72DFC46F24832C0F600022046E6
:1038A0000021B0EE480AF0EE490A0194FFF720FC2F
:1038B0002424ABF5006944F620660027C4F2010415
:1038C00008E000BF19213C20AAF80A00AAF80C1051
:1038D00000F0B2FF40F22442C4F20002106842F24B
:1038E000107C81B2614588BF301ADAF81410AAF84A
:1038F000020001FA80F1CAF814101760DAF8181003
:10390000BAF90420BAF90A301144CAF8181021682B
:1039100002B28DB200EE102A01EE103A654588BF62
:10392000711AAAF80010AAF804102760AAF8060075
:10393000AAF80810B8EEC00AF8EEC10A4046FFF730
:103940001FFBBAF90800BAF90C1000EE100A01EEDC
:10395000101AB8EEC00AF8EEC10A0198FFF710FB82
:1039600098ED080A98ED1A1A44F23400BCEEC00A29
:10397000C4F2010080ED000ABCEEC10A80ED010A2C
:103980003220FCF757FF48464FF40041FDF75CF842
:10399000012806D058464FF48071FDF755F80128EC
:1039A00007D1DAF81400462861DCDAF81800472855
:1039B0005DDA48462021FDF747F858B958460821F6
:1039C000FDF742F8012805D158461021FDF73CF8D3
:1039D00090B100BF48462021FDF736F801280FD1ED
:1039E00058460821FDF730F8012809D15846102122
:1039F000FDF72AF8012803D13C203C2164E700BFF1
:103A000048462021FDF720F801280BD1584608210F
:103A1000FDF71AF830B958461021FDF715F80028BF
:103A20003FF450AF58460221FDF70EF801283FF44D
:103A300049AF48462021FDF707F868B958460821E4
:103A4000FDF702F840B958461021FCF7FDFF0128A8
:103A500002D13C21192037E758462021FCF7F4FF1A
:103A60003C2101284FF03C0008BF19202CE702B090
:103A7000BDEC048B01B0BDE8F04F00F0C1BE00BF4B
:103A800000803B450000C8422DE9F04F81B02DED8C
:103A9000048B82B040F2C43BC2F2000B40F6004AF5
:103AA0005846C4F2020AFFF717FB0BF148063046EE
:103AB000FFF712FB40F278099FED8D8A9FED8D9AFA
:103AC000C2F20009002046F23C32C9E90500C0F606
:103AD000000258460021B0EE480AF0EE490AFFF70E
:103AE00007FB46F24832C0F6000230460021B0EE35
:103AF000480AF0EE490A0196FFF7FAFA2427AAF5D8
:103B0000806844F620640025C4F2010708E000BF85
:103B100019213220A9F80A00A9F80C1000F08CFE37
:103B200040F22442C4F20002106842F2107C81B2DA
:103B3000614588BF201AD9F81410A9F8020001FACB
:103B400080F1C9F814101560D9F81810B9F90420DB
:103B5000B9F90A301144C9F81810396802B28EB2A6
:103B600000EE102A01EE103A664588BF611AA9F8E6
:103B70000010A9F804103D60A9F80600A9F8081083
:103B8000B8EEC00AF8EEC10A5846FFF7F9F9B9F9DC
:103B90000800B9F90C1000EE100A01EE101AB8EE88
:103BA000C00AF8EEC10A0198FFF7EAF99BED080A8E
:103BB0009BED1A1A44F23400BCEEC00AC4F20100B4
:103BC00080ED000ABCEEC10A80ED010A3220FCF74C
:103BD00031FE40464FF48061FCF736FF012819D1D1
:103BE00050468021FCF730FF012813D140464FF4A6
:103BF0008051FCF729FF01280CD1D9F8140040F6B8
:103C00002231884268DCD9F8180040F62331884216
:103C100062DA00BFAAF5006630462021FCF714FFE7
:103C200050B950460821FCF70FFF012804D1504637
:103C30001021FCF709FF88B130462021FCF704FF72
:103C400001280FD150460821FCF7FEFE012809D1BA
:103C500050461021FCF7F8FE012803D13C203C21FE
:103C600058E700BF30462021FCF7EEFE01280BD1BB
:103C700050460821FCF7E8FE30B950461021FCF709
:103C8000E3FE00283FF444AF50460221FCF7DCFE7F
:103C900001283FF43DAF30462021FCF7D5FE68B93E
:103CA00050460821FCF7D0FE40B950461021FCF7E1
:103CB000CBFE012802D1322119202BE750462021CA
:103CC000FCF7C2FE01284FF03C004FF03C0108BF5A
:103CD000192008BF32211DE70020C9E9050002B004
:103CE000BDEC048B01B0BDE8F04F00F089BD00BF12
:103CF00000803B450000C8422DE9F04F81B02DED1A
:103D0000048B82B040F2C434C2F200042046FFF7B4
:103D1000E3F904F148052846FFF7DEF940F278069A
:103D20009FED4C8A9FED4C9AC2F200064FF028108E
:103D300046F23C32C6F80A00C0F6000220460021D6
:103D4000B0EE480AF0EE490AFFF7D2F946F24832DF
:103D5000C0F6000228460021B0EE480AF0EE490AFB
:103D60000195FFF7C5F9B6F90210B6F90400C829A4
:103D70007161B061A8BFC72861DC44F2340A40F227
:103D8000240B40F22449C4F2010AC4F2010BC4F22C
:103D9000000944F6206542F210780027D9F80000A7
:103DA00081B2414588BF281A7080C9F80070DBF8DD
:103DB000001002B28BB200EE102A434588BF691A88
:103DC0003180B180CBF80070F0803181B8EEC00A4C
:103DD000B6F90A0001EE100AF8EEC10A2046FFF714
:103DE000CFF8B6F90800B6F90C1000EE100A01EE93
:103DF000101AB8EEC00AF8EEC10A0198FFF7C0F831
:103E000094ED080A94ED1A1ABCEEC00A8AED000A75
:103E1000BCEEC10A32208AED010AFCF70BFD00F06E
:103E2000D3FC7069B6F90210B6F904200144B069F8
:103E3000C82910447161B061B0DBC728AEDD002035
:103E4000C6E9050002B0BDEC048B01B0BDE8F04F3F
:103E500000F0D6BC00803B450000C8422DE9F04F81
:103E600081B02DED048B82B040F2C435C2F2000562
:103E700040F600042846C4F20204FFF72DF905F1CC
:103E8000480B5846FFF728F99FED918A9FED919ACC
:103E900046F23C32C0F6000228460021B0EE480A45
:103EA000F0EE490A0027FFF723F946F24832C0F640
:103EB000000258460021B0EE480AF0EE490AFFF72A
:103EC00017F940F27808C2F2000804F58060242651
:103ED000C8E9057744F6206942F2107A0190002083
:103EE000C4F2010610E000BF20464FF48061FCF7E9
:103EF000ABFD002800F0C4804FF03C10C8F80A0069
:103F000000F062FCD8F8140040F22443C4F200032D
:103F100019688AB2524588BFA9EB010100FA81F005
:103F2000A8F80210C8F814001F6030680AB283B203
:103F3000534588BFA9EB0000D8F8183000EE102ACE
:103F400003FA80F3A8F80000A8F80400C8F81830B5
:103F50003760A8F80610A8F80800B8EEC00AB8F94B
:103F60000A0001EE100AF8EEC10A2846FFF708F829
:103F7000B8F90800B8F90C1000EE100A01EE101A9A
:103F8000B8EEC00AF8EEC10A5846FEF7F9FF95ED03
:103F9000080A95ED1A1A44F23400BCEEC00AC4F2C5
:103FA000010080ED000ABCEEC10A80ED010A32205A
:103FB000FCF740FC20464FF48061FCF745FD0128EA
:103FC00016D120464FF48051FCF73EFD01280FD159
:103FD00001988021FCF738FD012809D1D8F8140098
:103FE000B0F57A7F68DAD8F81800B0F57A7F63DC2C
:103FF00020464FF48061FCF727FD68B920464FF456
:104000008051FCF721FD012806D101988021FCF7A1
:104010001BFD00283FF470AF20464FF48061FCF791
:1040200013FD68B920464FF48051FCF70DFD38B9F7
:1040300001988021FCF708FD00283FF45DAF00BF28
:1040400020464FF48061FCF7FFFC01287FF44CAF61
:1040500020464FF48051FCF7F7FC00287FF444AF72
:1040600001988021FCF7F0FC00287FF43DAF3C2054
:10407000C0F22800C8F80A0000F0A6FB012016E0F4
:1040800020464FF48051FCF7DFFC00287FF434AF6A
:1040900001988021FCF7D8FC01287FF42DAF28205F
:1040A000C0F23C00C8F80A0000F08EFB0220C8F8FD
:1040B0001000D8F8140027E70020C8E9050002B076
:1040C000BDEC048B01B0BDE8F04F00F099BB00BF20
:1040D00000803B450000C8422DE9F04F81B02DED36
:1040E000048B82B040F2C435C2F2000540F60004F1
:1040F0002846C4F20204FEF7EFFF05F1480B5846CC
:10410000FEF7EAFF9FED908A9FED909A46F23C32CF
:10411000C0F6000228460021B0EE480AF0EE490A37
:104120000027FEF7E5FF46F24832C0F60002584687
:104130000021B0EE480AF0EE490AFEF7D9FF40F23E
:104140007808C2F2000804F580602426C8E90577E3
:1041500044F6206942F2107A01900020C4F2010670
:1041600010E000BF20464FF48061FCF76DFC002892
:1041700000F0C2804FF03C10C8F80A0000F024FBA9
:10418000D8F8140040F22443C4F2000319688AB23C
:10419000524588BFA9EB010100FA81F0A8F802108E
:1041A000C8F814001F6030680AB283B2534588BF54
:1041B000A9EB0000D8F8183000EE102A03FA80F3BB
:1041C000A8F80000A8F80400C8F818303760A8F86C
:1041D0000610A8F80800B8EEC00AB8F90A0001EE07
:1041E000100AF8EEC10A2846FEF7CAFEB8F9080020
:1041F000B8F90C1000EE100A01EE101AB8EEC00A61
:10420000F8EEC10A5846FEF7BBFE95ED080A95ED9B
:104210001A1A44F23400BCEEC00AC4F2010080ED68
:10422000000ABCEEC10A80ED010A3220FCF702FB55
:1042300020464FF48061FCF707FCA8B920464FF4F4
:104240008051FCF701FC78B901988021FCF7FCFB58
:1042500050B9D8F81400B0F57A6F69DAD8F81800B8
:10426000B0F57A6F64DA00BF20464FF48061FCF746
:10427000EBFB68B920464FF48051FCF7E5FB0128C1
:1042800006D101988021FCF7DFFB00283FF472AFD4
:1042900020464FF48061FCF7D7FB68B920464FF405
:1042A0008051FCF7D1FB38B901988021FCF7CCFB99
:1042B00000283FF45FAF00BF20464FF48061FCF759
:1042C000C3FB01287FF44EAF20464FF48051FCF72A
:1042D000BBFB00287FF446AF01988021FCF7B4FBBC
:1042E00000287FF43FAF3C20C0F22800C8F80A0045
:1042F00000F06AFA012016E020464FF48051FCF7E6
:10430000A3FB00287FF436AF01988021FCF79CFBCB
:1043100001287FF42FAF2820C0F23C00C8F80A0023
:1043200000F052FA0220C8F81000D8F8140029E76B
:104330000020C8E9050002B0BDEC048B01B0BDE867
:10434000F04F00F05DBA00BF00803B450000C8425E
:104350002DE9F04F81B02DED048B82B040F2C435D1
:10436000C2F2000540F600042846C4F20204FEF73B
:10437000B3FE05F1480B5846FEF7AEFE9FED918A5D
:104380009FED919A46F23C32C0F600022846002189
:10439000B0EE480AF0EE490A0027FEF7A9FE46F201
:1043A0004832C0F6000258460021B0EE480AF0EE4E
:1043B000490AFEF79DFE40F27808C2F2000804F5B3
:1043C00080602426C8E9057744F6206942F2107A15
:1043D00001900020C4F2010610E000BF20464FF417
:1043E0008061FCF731FB002800F0C4804FF03210F0
:1043F000C8F80A0000F0E8F9D8F8140040F22443A5
:10440000C4F2000319688AB2524588BFA9EB0101C2
:1044100000FA81F0A8F80210C8F814001F60306894
:104420000AB283B2534588BFA9EB0000D8F8183010
:1044300000EE102A03FA80F3A8F80000A8F80400A0
:10444000C8F818303760A8F80610A8F80800B8EEC9
:10445000C00AB8F90A0001EE100AF8EEC10A2846AF
:10446000FEF78EFDB8F90800B8F90C1000EE100A3E
:1044700001EE101AB8EEC00AF8EEC10A5846FEF76F
:104480007FFD95ED080A95ED1A1A44F23400BCEE52
:10449000C00AC4F2010080ED000ABCEEC10A80ED42
:1044A000010A3220FCF7C6F920464FF48061FCF780
:1044B000CBFA012816D120464FF48051FCF7C4FAFC
:1044C00001280FD101988021FCF7BEFA012809D1FB
:1044D000D8F81400B0F5FA6F68DAD8F81800B0F51B
:1044E000FA6F63DA20464FF48061FCF7ADFA68B9E1
:1044F00020464FF48051FCF7A7FA012806D1019815
:104500008021FCF7A1FA00283FF470AF20464FF459
:104510008061FCF799FA68B920464FF48051FCF7A6
:1045200093FA38B901988021FCF78EFA00283FF4FD
:104530005DAF00BF20464FF48061FCF785FA01288B
:104540007FF44CAF20464FF48051FCF77DFA0028F1
:104550007FF444AF01988021FCF776FA00287FF4BD
:104560003DAF3220C0F21E00C8F80A0000F02CF95E
:10457000012016E020464FF48051FCF765FA002830
:104580007FF434AF01988021FCF75EFA01287FF4B4
:104590002DAF1E20C0F23200C8F80A0000F014F956
:1045A0000220C8F81000D8F8140027E70020C8E956
:1045B000050002B0BDEC048B01B0BDE8F04F00F087
:1045C0001FB900BF00803B450000C842806B00213E
:1045D000C185C184FDF790BD81B090F83E102229BD
:1045E00020D18368B3F5805F08D10169002964D0C8
:1045F00000F128010A6803685B680AE0014651F887
:10460000282F13B90369002BF5D003685B6803F00A
:104610007F0313700A6801320A60C18D01390A04F0
:10462000C18501D001B070470168CA6822F020023C
:10463000CA60CA6822F48072CA604A6922F0010224
:104640004A61202280F83E20026B012A3ED10022DE
:10465000026300BF51E8031F026821F0100142E825
:1046600003130168DBB151E8031F026821F0100158
:1046700042E80313016893B151E8031F026821F077
:10468000100142E8031301684BB151E8031F0268AF
:1046900021F0100142E803130168002BDAD10A6807
:1046A000D20606D5002200920A680092496800915D
:1046B0000099818D01B0FDF71DBD0168826A4968CE
:1046C0006FF35F2122F8021B8262A6E701B0FEF7BA
:1046D0007BB8000010B504460068D4E902C2236923
:1046E000016921F4405111430161626943EA0C01FF
:1046F000E3691143C268194349F20C639A431143B9
:10470000C1604169A26921F4407141F20043114343
:1047100040F48062C4F201039A42416102D1FCF785
:104720001FFB01E0FCF708FBE16963681922B1F5A2
:10473000004FA0FB02011FD15A00DB0FFBF794FDD5
:1047400048F21F51C5F2EB11A0FB01235A096FF08B
:10475000630302FB0300322303EBC000A0FB010153
:104760004FF4F87000EA111000EB0210C1F342118F
:1047700022680843906010BD9A009B0FFBF774FD00
:1047800048F21F51C5F2EB11A0FB01235A096FF04B
:10479000630302FB0300322303EB0010A0FB0101C3
:1047A000F02000EA511000EB0210C1F3431122681F
:1047B0000843906010BD000040F28030C2F200005B
:1047C000FDF79CBCFEE7000010B50024C4F2020413
:1047D000204608210122FCF73DF920461021002245
:1047E000FCF738F904F50064204610210122FCF79B
:1047F00031F9204620210022BDE81040FCF72AB9FB
:1048000010B50024C4F20204204608210022FCF75F
:1048100021F9204610210022FCF71CF904F5006460
:10482000204610210022FCF715F920462021002205
:10483000BDE81040FCF70EB910B50024C4F2020424
:10484000204608210022FCF705F92046102101220C
:10485000FCF700F904F50064204610210022FCF763
:10486000F9F8204620210122BDE81040FCF7F2B8FB
:10487000FCF70AF9FEF75AFCFEF734F8FEF70EF8DB
:10488000FEF75CFBFEF7F8F8FEF7C0F9FEF7F4F967
:10489000FEF77CFAFEF7E2FAFEF724F9FEF708FBD2
:1048A000FEF720F8FDF7FAFFFEF748FBFEF7E4F805
:1048B000FEF7ACF9FEF7E0F9FEF768FAFEF7CEFA7C
:1048C000FEF710F940F23834C2F20004204600210D
:1048D0000025FDF76FFB20460421FDF76BFB40F23E
:1048E000D014C2F2000420460021FDF763FB2046ED
:1048F0000821FDF75FFB40F26024C2F2000420466D
:104900000021FDF757FB20460421FDF753FB20460D
:104910000821FDF74FFB20460C21FDF74BFB40F231
:104920008810C2F200003C21FCF70CFF40F2182076
:10493000C2F200003C21FCF705FF40F2F020C2F279
:104940000000FCF713FD01F0E3F840F66600FBF70A
:1049500069FDFDF771FFFDF779FFFDF781FFFDF7B9
:1049600089FFFDF791FFFEF7EFFC4FF47A70FBF73C
:1049700061FFFDF72FFF4FF47A70FBF75BFF4FF4F9
:10498000C870FBF74FFDFFF769FA4FF47A70FBF739
:1049900051FFFEF705FE4FF47A70FBF74BFF01F075
:1049A000C5F94FF47A70FBF745FFFEF747FF4FF468
:1049B0007A70FBF73FFFFDF717FF4FF47A70FBF7B4
:1049C00039FF4FF46170FBF72DFD4FF47A70FBF760
:1049D00031FFFFF743FA4FF47A70FBF72BFFFEF736
:1049E000DFFD4FF47A70FBF725FF01F0CFFB4FF4AA
:1049F0007A70FBF71FFFFEF721FF4FF47A70FBF789
:104A000019FFFDF7FBFE4FF47A70FBF713FFFFF77A
:104A100025FA4FF47A70FBF70DFFFEF7C1FD4FF456
:104A20007A70FBF707FF01F081F940F66600FBF7AB
:104A3000F9FC4FF4FA70FBF7FDFE40F2EE20FBF7B5
:104A4000F1FC4FF47A70FBF7F5FE00F0D9FD40F26F
:104A50009404C2F20004206040F66600FBF7E2FC1A
:104A60006420FBF7E7FE206800F062FF6420FBF79C
:104A7000E1FEFEF7E3FE6420FBF7DCFEFEF746FEF8
:104A80006420FBF7D7FEFEF7D9FE6420FBF7D2FEC9
:104A9000FDF7D2FE4FF47A70FBF7CCFEFFF7DEF99C
:104AA0004FF4FA70FBF7C6FEFEF77AFD4FF4FA708A
:104AB000FBF7C0FE206800F0E1FF4FF47A70FBF7CF
:104AC000B9FE4FF4C870FBF7ADFC4FF4FA70FBF77A
:104AD000B1FE40F27E40FBF7A5FC4FF47A70FBF785
:104AE000A9FE00F08DFD20604FF4C870FBF79AFC22
:104AF0006420FBF79FFE206800F01AFF6420FBF79C
:104B000099FEFEF79BFE6420FBF794FEFEF7FEFD88
:104B10006420FBF78FFEFEF791FE6420FBF78AFE10
:104B2000FDF794FE4FF47A70FBF784FEFFF796F9D9
:104B30004FF4FA70FBF77EFEFEF732FD4FF4FA7089
:104B4000FBF778FE206800F099FF4FF47A70FBF7CE
:104B500071FE4FF46170FBF765FC4FF4FA70FBF7E0
:104B600069FE40F24650FBF75DFC4FF4FA70FBF72C
:104B700061FE4FF4E160FBF755FC4FF47A70FBF7F0
:104B800059FE00F03DFD206040F24650FBF74AFC24
:104B90004FF4FA70FBF74EFE4FF46170FBF742FCE6
:104BA0006420FBF747FE206800F0C2FE6420FBF79C
:104BB00041FEFEF743FE6420FBF73CFEFEF7A6FD38
:104BC0006420FBF737FEFEF739FE6420FBF732FE68
:104BD000FDF746FE4FF47A70FBF72CFEFFF73EF927
:104BE0004FF4FA70FBF726FEFEF7DAFC4FF4FA708A
:104BF000FBF720FE206800F041FF40F66600FBF75F
:104C000011FC01F007FA01F04BF94FF47A70FBF751
:104C100011FEFEF739FF4FF47A70FBF70BFEFFF73A
:104C20006BF84FF47A70FBF705FEFDF7D3FDFDF747
:104C3000DBFDFDF7E3FDFDF7EBFDFDF7F3FD4FF4C5
:104C40007A70FBF7F7FDFFF783FB6420FBF7F2FDBB
:104C5000FEF7A6FC6420FBF7EDFD00F0ADFF01F0D0
:104C600065F84FF47A70FBF7E5FD4FF4FA60FBF757
:104C7000D9FB4FF47A70FBF7DDFD00F0C1FC20603A
:104C800040F2D660FBF7CEFB4FF4FA70FBF7D2FD93
:104C900040F24650FBF7C6FB6420FBF7CBFD2068D3
:104CA00000F046FE6420FBF7C5FDFEF7C7FD64205B
:104CB000FBF7C0FDFEF72AFD6420FBF7BBFDFEF706
:104CC000BDFD6420FBF7B6FDFDF7D4FD4FF47A700F
:104CD000FBF7B0FDFFF7C2F84FF4FA70FBF7AAFD3F
:104CE000FEF75EFC4FF4FA70FBF7A4FD206800F0BD
:104CF000C5FE4FF47A70FBF79DFD40F2D660FBF7DE
:104D000091FB40F2DC50FBF795FD40F66600FBF7A7
:104D100089FB40F2DC50FBF78DFD40F62E10FBF7CF
:104D200081FB4FF47A70FBF785FD00F069FC206091
:104D300040F66600FBF776FB4FF4FA70FBF77AFD5E
:104D400040F2D660FBF76EFB6420FBF773FD206832
:104D500000F0EEFD6420FBF76DFDFEF76FFD6420B3
:104D6000FBF768FDFEF7D2FC6420FBF763FDFEF75E
:104D700065FD6420FBF75EFDFDF786FD4FF47A705C
:104D8000FBF758FDFFF76AF84FF4FA70FBF752FD96
:104D9000FEF706FC4FF4FA70FBF74CFD206800F0BC
:104DA0006DFE4FF47A70FBF745FD40F66600FBF7A9
:104DB00039FB40F2DC50FBF73DFD40F2EE20FBF703
:104DC00031FB40F2DC50FBF735FD00F019FC2060B0
:104DD00040F66600FBF726FB6420FBF72BFD2068FE
:104DE00000F0A6FD6420FBF725FDFEF727FD6420FB
:104DF000FBF720FDFEF78AFC6420FBF71BFDFEF7A6
:104E00001DFD6420FBF716FDFDF716FD4FF47A70CB
:104E1000FBF710FDFFF722F84FF4FA70FBF70AFDDD
:104E2000FEF7BEFB4FF4FA70FBF704FD206800F0BC
:104E300025FE4FF47A70FBF7FDFC4FF4C870FBF7CA
:104E4000F1FA40F2DC50FBF7F5FC4FF46170FBF730
:104E5000E9FA4FF4FA70FBF7EDFC40F27E40FBF705
:104E6000E1FA40F2DC50FBF7E5FC00F0C9FB206002
:104E70004FF46170FBF7D6FA4FF4FA70FBF7DAFCE7
:104E80004FF4C870FBF7CEFA6420FBF7D3FC206820
:104E900000F04EFD6420FBF7CDFCFEF7CFFC642054
:104EA000FBF7C8FCFEF732FC6420FBF7C3FCFEF7FF
:104EB000C5FC6420FBF7BEFCFDF7C8FC4FF47A701C
:104EC000FBF7B8FCFEF7CAFF4FF4FA70FBF7B2FC31
:104ED000FEF766FB4FF4FA70FBF7ACFC206800F0BD
:104EE000CDFD4FF47A70FBF7A5FC4FF46170FBF732
:104EF00099FA40F2DC50FBF79DFC40F24650FBF77C
:104F000091FA40F2DC50FBF795FC4FF4C860FBF7D8
:104F100089FA40F2DC50FBF78DFC00F071FB206059
:104F200040F24650FBF77EFA4FF4FA70FBF782FC32
:104F30004FF46170FBF776FA6420FBF77BFC206886
:104F400000F0F6FC6420FBF775FCFEF777FC6420AC
:104F5000FBF770FCFEF7DAFB6420FBF76BFCFEF757
:104F60006DFC6420FBF766FCFDF77AFC4FF47A7069
:104F7000FBF760FCFEF772FF4FF4FA70FBF75AFC88
:104F8000FEF70EFB4FF4FA70FBF754FC206800F0BC
:104F900075FD4FF4FA70FBF745FA4FF4FA70FBF722
:104FA00049FC40F66600FBF73DFA00F0BFFE00F05A
:104FB00003FE4FF47A70FBF73DFCFEF765FDFEF74C
:104FC0009BFE6420FBF736FCFDF704FCFDF70CFCB0
:104FD000FDF714FCFDF71CFCFDF724FC4FF47A7080
:104FE000FBF728FCFFF7B4F96420FBF723FCFEF77E
:104FF000D7FA6420FBF71EFC00F052FF01F00AF81C
:105000004FF47A70FBF716FC4FF4FA60FBF70AFADC
:105010004FF47A70FBF70EFC00F0F2FA206040F2D9
:10502000D660FBF7FFF94FF4FA70FBF703FC40F290
:105030004650FBF7F7F96420FBF7FCFB206800F013
:1050400077FC6420FBF7F6FBFEF7F8FB6420FBF728
:10505000F1FBFEF75BFB6420FBF7ECFBFEF7EEFBDE
:105060006420FBF7E7FBFDF705FC4FF47A70FBF7D4
:10507000E1FBFEF7F3FE4FF4FA70FBF7DBFBFEF704
:105080008FFA4FF4FA70FBF7D5FB206800F0F6FCBE
:105090004FF47A70FBF7CEFB40F2D660FBF7C2F913
:1050A00040F2DC50FBF7C6FB40F66600FBF7BAF9AE
:1050B00040F2DC50FBF7BEFB40F62E10FBF7B2F9D6
:1050C0004FF47A70FBF7B6FB00F09AFA206040F6D6
:1050D0006600FBF7A7F94FF4FA70FBF7ABFB40F261
:1050E000D660FBF79FF96420FBF7A4FB206800F073
:1050F0001FFC6420FBF79EFBFEF7A0FB6420FBF780
:1051000099FBFEF703FB6420FBF794FBFEF796FB8D
:105110006420FBF78FFBFDF7B7FB4FF47A70FBF7CA
:1051200089FBFEF79BFE4FF4FA70FBF783FBFEF75B
:1051300037FA4FF4FA70FBF77DFB206800F09EFC15
:105140004FF47A70FBF776FB40F66600FBF76AF9DE
:1051500040F2DC50FBF76EFB40F2EE20FBF762F909
:1051600040F2DC50FBF766FB00F04AFA206040F6A4
:105170006600FBF757F96420FBF75CFB206800F042
:10518000D7FB6420FBF756FBFEF758FB6420FBF7C8
:1051900051FBFEF7BBFA6420FBF74CFBFEF74EFB1E
:1051A0006420FBF747FBFDF747FB4FF47A70FBF7F2
:1051B00041FBFEF753FE4FF4FA70FBF73BFBFEF7A3
:1051C000EFF94FF4FA70FBF735FB206800F056FC5E
:1051D0004FF47A70FBF72EFB4FF4C870FBF722F9FF
:1051E00040F2DC50FBF726FB4FF46170FBF71AF935
:1051F0004FF4FA70FBF71EFB40F27E40FBF712F90A
:1052000040F2DC50FBF716FB00F0FAF920604FF497
:105210006170FBF707F94FF4FA70FBF70BFB4FF4E3
:10522000C870FBF7FFF86420FBF704FB206800F070
:105230007FFB6420FBF7FEFAFEF700FB6420FBF720
:10524000F9FAFEF763FA6420FBF7F4FAFEF7F6FAD0
:105250006420FBF7EFFAFDF7F9FA4FF47A70FBF7E9
:10526000E9FAFEF7FBFD4FF4FA70FBF7E3FAFEF7FD
:1052700097F94FF4FA70FBF7DDFA206800F0FEFBB7
:105280004FF47A70FBF7D6FA4FF46170FBF7CAF867
:1052900040F2DC50FBF7CEFA40F24650FBF7C2F882
:1052A00040F2DC50FBF7C6FA4FF4C860FBF7BAF8DF
:1052B00040F2DC50FBF7BEFA00F0A2F9206040F2A9
:1052C0004650FBF7AFF84FF4FA70FBF7B3FA4FF420
:1052D0006170FBF7A7F86420FBF7ACFA206800F0D8
:1052E00027FB6420FBF7A6FAFEF7A8FA6420FBF779
:1052F000A1FAFEF70BFA6420FBF79CFAFEF79EFA80
:105300006420FBF797FAFDF7ABFA4FF47A70FBF7DE
:1053100091FAFEF7A3FD4FF4FA70FBF78BFAFEF754
:105320003FF94FF4FA70FBF785FA206800F0A6FB0E
:105330004FF4FA70FBF776F84FF4FA70FBF77AFA4D
:1053400040F66600FBF76EF8FEF7C6FE9FEDA69AE4
:105350009FEDA6AA9FEDA6BA9FEDA2CA9FEDA6DA81
:105360009FEDA6EA9FEDA3FA4FF07E56B7EE008AB6
:10537000F6EE008A0EE0B4EE421A0020F1EE10FACA
:10538000C8BF0320B4EE401AF1EE10FAD8BF284689
:10539000206000BF00F046FB00EE100AB8EE400AA5
:1053A00084ED010A00F012FB00EE100AB8EE400A8C
:1053B00084ED020A00F0DEFA00EE100AB8EE400AB0
:1053C00094ED011A94ED022A84ED030AB4EE421A18
:1053D000F1EE10FA12D1B4EE402AF1EE10FA0DD12E
:1053E0002661B0EE484AB0EE483AB4EE413AF1EEEA
:1053F00010FA84ED054A6BD074E000BFB4EE401A99
:10540000F1EE10FA06DBB4EE421AF1EE10FAB0EE4D
:10541000413A1BDAB4EE412AF1EE10FA06DBB4EEA3
:10542000402AF1EE10FAB0EE423A0FDAB4EE402A1A
:10543000B0EE403AF1EE10FAC8BFB0EE4C3AB4EE1E
:10544000401AF1EE10FAC8BFB0EE4C3AB4EE401A72
:10545000F1EE10FA84ED043A0EDCB4EE421AF1EEED
:1054600010FA09DCB0EE414AB4EE413AF1EE10FA1E
:1054700084ED054A2CD035E0B4EE421AF1EE10FA74
:105480000EDBB4EE402AF1EE10FA09DCB0EE424A2F
:10549000B4EE413AF1EE10FA84ED054A18D021E05D
:1054A000B4EE402AB0EE404AF1EE10FAB8BFB0EECA
:1054B0004C4AB4EE401AF1EE10FAB8BFB0EE4C4AC6
:1054C000B4EE413AF1EE10FA84ED054A0AD100BF7C
:1054D00032EE405A33EE446A85EE065A25EE095AFA
:1054E00084ED065AB4EE423AF1EE10FA0BD130EEEA
:1054F000415A33EE446A85EE065A25EE095A35EED6
:105500000A5A84ED065AB4EE403AF1EE10FA0BD185
:1055100031EE425A33EE446A85EE065A25EE095AB8
:1055200035EE0B5A84ED065AB4EE443AF1EE10FA19
:10553000B0EE4C5A08D094ED065AB5EE405AF1EE52
:1055400010FA03DA35EE0F5A84ED065A33EE043AB8
:1055500023EE283AC92884ED073A0DD3B4EE4D1A4C
:10556000F1EE10FA08DDB4EE4D2AF1EE10FA03DD8B
:10557000022020600EE700BFB4EE412AF1EE10FADF
:105580000CDDB4EE402AF1EE10FA07DDB4EE4D5A10
:10559000F1EE10FA02DA01202060FBE631280CD887
:1055A000B4EE4E1AF1EE10FA07DAB4EE4E2AF1EE2E
:1055B00010FA02DA04202060ECE6B4EE402AF1EEA4
:1055C00010FABFF6D8AEB4EE401AF1EE10FABFF6FC
:1055D000D2AEB4EE4D5AF1EE10FA7FF7CCAE052004
:1055E0002060D7E600000000000070420000F0429A
:1055F000000070430000B4430000484300004842EC
:105600002DE9F0472DED048B40F20044C4F2020472
:1056100020464FF4804100224FF0000AFBF71AFAAF
:1056200020464FF400510022FBF714FA40F2B40771
:10563000C2F200070A20A7F800A0FBF7FBF840F22F
:1056400000053888C2F200052988C0EB0020B0FBB5
:10565000F1F0FF2610F47F4F18BF30461FFA80F894
:10566000388100EE108A20464FF480410122B8EEC6
:10567000408AFBF7EFF920464FF400510122FBF777
:10568000E9F90A20A7F800A0FBF7D4F83888698860
:10569000C0EB0020B0FBF1F04FF4804110F47F4FDD
:1056A00018BF30461FFA80F9788100EE109A204624
:1056B0000022B8EE409AFBF7CDF920464FF4005196
:1056C0000122FBF7C7F90A20A7F800A0FBF7B2F800
:1056D0003888A988C0EB0020B0FBF1F0B4EE498A0D
:1056E00010F47F4F08BF0646B0B200EE100ABE812C
:1056F000F1EE10FAB8EE400A0ED1B4EE409AF1EE97
:1057000010FA09D1B7EE001AB0EE412AB4EE481AE9
:10571000F1EE10FA6AD04CE0B4EE498AF1EE10FADC
:1057200006DBB4EE408AF1EE10FAB0EE481A1DDA4C
:10573000B4EE489AF1EE10FA06DBB4EE409AF1EEC0
:1057400010FAB0EE491A11DAB4EE480AB0EE401A77
:105750009FED712AF1EE10FAB8BFB0EE421AB4EE26
:10576000490AF1EE10FAB8BFB0EE421AB4EE498A17
:10577000F1EE10FA0CDCB4EE408AF1EE10FA07DC20
:10578000B0EE482AB4EE481AF1EE10FA2ED010E02E
:10579000B4EE498AF1EE10FA11DBB4EE409AF1EE64
:1057A00010FA0CDCB0EE492AB4EE481AF1EE10FA09
:1057B0001CD0B4EE491AF1EE10FA26D033E0B4EE64
:1057C000408AB0EE402A9FED543AF1EE10FAB8BF8D
:1057D000B0EE432AB4EE490AF1EE10FAC8BFB0EEBB
:1057E000432AB4EE481AF1EE10FAE2D139EE403A0B
:1057F00031EE424A83EE043A9FED484A23EE043AE2
:10580000B4EE491AF1EE10FA0DD130EE483A31EE0D
:10581000424A83EE043A9FED414A9FED415A23EEFE
:10582000043A33EE053AB4EE401AF1EE10FA0DD117
:1058300038EE493A31EE424A83EE043A9FED374A58
:105840009FED385A23EE043A33EE053AB4EE421A8D
:105850009FED314AF1EE10FA9FED331A08BFB0EE1A
:10586000443AB5EE403AF1EE10FA33EE011AB8BF01
:10587000B0EE413AB8F1970F28BFB9F1970F2AD28D
:10588000B4EE489AF1EE10FA10DDB4EE409AF1EE63
:1058900010FA0BDD9FED251AB4EE413AF1EE10FA45
:1058A00004DA0120BDEC048BBDE8F087B8F12C0FC1
:1058B00098BFB9F12C0F15D9B4EE490AF1EE10FAE0
:1058C00017DDB4EE480AF1EE10FA12DD0520BDEC4A
:1058D000048BBDE8F0879628D2D90220BDEC048B5A
:1058E000BDE8F0872D28E7D20420BDEC048BBDE88D
:1058F000F087B4EE408A0020F1EE10FAC8BF032012
:10590000B4EE498A0021F1EE10FAD8BF0846BDEC8A
:10591000048BBDE8F08700BF00000000000070426B
:105920000000F042000070430000B4430000484310
:105930000138042888BF704780B5DFE800F003090C
:10594000170F150000F066FBBDE88040FDF776BF3D
:1059500000F0A6FABDE88040FDF770BF00F02CF91A
:10596000BDE88040FDF76ABF00F0E0F9BDE8804087
:10597000FDF764BFB0B540F20044C4F20204204613
:105980004FF4804100220025FBF764F820464FF4D5
:1059900000510122FBF75EF840F2B404C2F20004A9
:1059A0000A202580FAF746FF40F200012088C2F263
:1059B00000018988C0EB0020B0FBF1F111F47F4FAA
:1059C00018BFFF2188B2A181B0BD000010B540F220
:1059D0000044C4F2020420464FF480410122FBF748
:1059E00039F820464FF400510122FBF733F840F21A
:1059F000B404C2F20004002020800A20FAF71AFF43
:105A000040F200012088C2F200014988C0EB00206A
:105A1000B0FBF1F111F47F4F18BFFF2188B2618113
:105A200010BD0000B0B540F20044C4F202042046AC
:105A30004FF4804100220025FBF70CF820464FF47C
:105A400000510022FBF706F840F2B404C2F2000451
:105A50000A202580FAF7EEFE40F200012088C2F20B
:105A600000010988C0EB0020B0FBF1F111F47F4F79
:105A700018BFFF2188B22181B0BD00000138042881
:105A800088BF7047DFE800F003070B05090000F04E
:105A90004DB900F005BA00F08FB800F0BBBA7047FE
:105AA00010B50024C4F20204204608210022FAF7AF
:105AB000D1FF204610210122FAF7CCFF04F5006443
:105AC000204610210122FAF7C5FF2046202100229E
:105AD000BDE81040FAF7BEBF10B50024C4F20204BE
